:020000040000fa
:080000000002040000000000f2
:020000040000fa
:100008009a0200009a0200009a0200009a02000078
:100018009a0200009a0200009a0200009a02000068
:100028009a020000903300009a0200009a02000031
:100038009a0200009a0200009a0200009a02000048
:100048009a0200009a0200009a0200006a31000039
:100058009a0200009a0200009a0200009a02000028
:100068009a0200009a0200009a0200005c35000023
:100078009a0200009a0200009a0200009a02000008
:100088009a0200009a0200009a0200009a020000f8
:100098009a0200009a020000ac3000009a020000a8
:1000a8009a0200009a0200009a0200009a020000d8
:1000b8009a0200009a0200009a0200009a020000c8
:1000c8009a0200009a0200009a0200009a020000b8
:1000d8009a0200009a0200009a0200009a020000a8
:1000e8009a0200009a0200009a0200009a02000098
:1000f8009a0200009a0200009a0200009a02000088
:100108009a0200009a0200009a0200009a02000077
:100118009a0200009a0200009a0200009a02000067
:100128009a02000012320000543100009a020000c6
:100138009a0200009a0200009a0200009a02000047
:100148009a0200009a0200009a0200009a02000037
:100158009a0200009a0200009a0200009a02000027
:100168009a0200009a0200009a0200009a02000017
:100178009a0200009a0200009a0200009a02000007
:100188009a0200009a0200009a0200009a020000f7
:100198009a0200009a0200009a0200009a020000e7
:1001a8009a0200009a0200009a0200009a020000d7
:1001b8009a0200009a0200009a0200009a020000c7
:1001c8009a0200009a0200009a0200009a020000b7
:1001d8009a0200009a0200009a0200009a020000a7
:1001e8009a0200009a0200009a0200009a02000097
:0801f8009a0200009a020000c7
:020000040000fa
:100208009a0200009a0200009a0200009a02000076
:100218009a0200009a0200009a0200009a02000066
:100228009a020000903300009a0200009a0200002f
:100238009a0200009a0200009a0200009a02000046
:100248009a0200009a0200009a0200006a31000037
:100258009a0200009a0200009a0200009a02000026
:100268009a0200009a0200009a0200005c35000021
:100278009a0200009a0200009a0200009a02000006
:100288009a0200009a0200009a0200009a020000f6
:100298009a0200009a020000ac3000009a020000a6
:1002a8009a0200009a0200009a0200009a020000d6
:1002b8009a0200009a0200009a0200009a020000c6
:1002c8009a0200009a0200009a0200009a020000b6
:1002d8009a0200009a0200009a0200009a020000a6
:1002e8009a0200009a0200009a0200009a02000096
:1002f8009a0200009a0200009a0200009a02000086
:100308009a0200009a0200009a0200009a02000075
:100318009a0200009a0200009a0200009a02000065
:100328009a02000012320000543100009a020000c4
:100338009a0200009a0200009a0200009a02000045
:100348009a0200009a0200009a0200009a02000035
:100358009a0200009a0200009a0200009a02000025
:100368009a0200009a0200009a0200009a02000015
:100378009a0200009a0200009a0200009a02000005
:100388009a0200009a0200009a0200009a020000f5
:100398009a0200009a0200009a0200009a020000e5
:1003a8009a0200009a0200009a0200009a020000d5
:1003b8009a0200009a0200009a0200009a020000c5
:1003c8009a0200009a0200009a0200009a020000b5
:1003d8009a0200009a0200009a0200009a020000a5
:1003e8009a0200009a0200009a0200009a02000095
:0803f8009a0200009a020000c5
:020000040000fa
:100400002fc220000eff20000e0188000000000017
:10041000000020000000e000020032000001200087
:10042000200288000c000700205923000100200052
:1004300011000700000020000000e0000200320070
:1004400000000200000000004c1602000000000046
:100450000040da000000fe004440a900400e2000e9
:100460000000e0000300320000002000a00188002e
:100470004440a80000000600910188008000780038
:100480000000eb0015003700e280400032a0b4000d
:100490009101ba00e280400032a0b4009102ba009b
:1004a000e280400032a0b4000002eb00472bde00e7
:1004b000f507b200602ce10004003a000059eb009f
:1004c0008301e900fdff3e00040037006128e100e0
:1004d000010032000082eb00040007001101ba00a5
:1004e0000200e000e8ff3a00000006003159ba00bf
:1004f0008301e9000c0032002159ba008301e900b0
:10050000080032000400e00003003a00e2804000ee
:1005100032a0b400f5ff370011d9ba008301e90019
:10052000faff3a008100e800e180400032a0b40008
:10053000000006000040da000000fe006022b80063
:10054000060220000000d0008180d2000482d20088
:100550008582d2000000a0000202520083825a006d
:10056000030031000202420083824a000000a10021
:100570000603e900f3ff3a000000060006c2b300dc
:100580000002780004007800b042780086cf520064
:10059000fbff3200e9cf5200f9ff3200d6c2b300b0
:1005a00086cf520003003a000002780016c0b30064
:1005b000050037000043eb00b7c2b30087cf5200fd
:1005c00001003a00000278000000eb000200370052
:1005d0006a00b90000804200b402fb000503b100cc
:1005e000e98f5200faff3600e04f5300010032005d
:1005f0000000ea0000000600810378008001780016
:100600000702780001003700850178001100090019
:100610000282d8008302e80000027800e00f520056
:10062000f9ff3a00844a7800110009008283d8005b
:10063000800278000142780085037800e94f52007b
:10064000010034006742420001c3b30081514200ff
:10065000e08f5200f4ff3a0003007800000006002b
:10066000881f780000047800e08f500005003d00ee
:1006700008007800d4c2b3008100ea000458780072
:100680000100370008007800dbff07000800780051
:080690004f0478000000060091
:020000040000fa
:10069800200000002e0d00000a0000003a000000b3
:1006a8007365000074000000746900006d65000047
:1006b800007000006f7700006572000000610000a4
:1006c8006c610000726d000000700000776400002b
:1006d800006500006d650000720000007265000092
:1006e8007365000074000000726500006c61000012
:1006f8007900000073740000617400000068000055
:100708006c00000068690000676800000075000060
:1007180070640000617400006500000072650000ec
:10072800616400000076000065720000730000003c
:100738007077000072660000616900006c000000bc
:10074800546900006d6500000053000065740000e6
:10075800005000006f770000657200000041000043
:100768006c610000726d00000050000077640000aa
:10077800004500006d65000072000000566500002d
:100788007273000000500000445400000050000044
:1007980055540000005200006573000065740000a5
:1007a800004f00006e000000526500006c61000000
:1007b80079000000460000005374000061740000d6
:1007c800004800006967000068000000484c00000d
:1007d800004c00006f77000000300000005200005d
:1007e8006561000064000000507700007246000058
:1007f800616900006c000000557000006461000031
:1008080074650000004e00006f7700000052000081
:10081800656200006f6f0000740000003000000087
:10082800506f000077650000720000004c6f0000f8
:1008380073740000004700006f740000000000009f
:10084800484800003a4d00004d3a0000444400007a
:080858003a4d00004d000000c4
:020000040000fa
:100860000000fa000002eb00545888005458800041
:10087000445888000042eb000400780007ebb70002
:100880000002eb00a4558800a45580009455880010
:100890000042eb0004007800b0eab7000042eb0031
:1008a000040078008feab7000042eb0004007800f3
:1008b00088eab70084a82000144278000400780079
:1008c00087eab70074a8200014427800040078007a
:1008d00086eab70064a8200014427800040078007b
:1008e00085eab70054a8200014427800040078007c
:1008f00084eab7000042eb00040078008deab700fc
:10090000d4a8200014427800040078008ceab700d4
:10091000c4a8200014427800040078008beab700d5
:10092000b4a8200014427800040078008aeab700d6
:10093000a4a82000144278000400780089eab700d7
:100940000080fa00000006000000fa000300070023
:10095000680107000080fa00000006000600fa00a7
:100960006900370004a9200014427800e04f5200cb
:1009700011003a0094a8200014427800e04f520081
:100980000d0032009192200020952000bb0207004c
:100990000042eb000400780089eab70091022000d1
:1009a00020952000a302070014c0b3000002fd0040
:1009b00090eab7000002fd0094a8200014427800dd
:1009c000e04f520011003a00a4a820001442780021
:1009d000e04f52000d00320021952000b09720001a
:1009e000a60207000042eb00040078008aeab70084
:1009f00091022000b09720008e02070014c0b300bf
:100a00000002fd0089eab7000002fd00a4a8200052
:100a100014427800e04f520011003a00b4a82000c0
:100a200014427800e04f52000d003200b1972000d0
:100a3000409a2000910207000042eb000400780079
:100a40008beab70091022000409a2000790207004b
:100a500014c0b3000002fd008aeab7000002fd00e6
:100a6000b4a8200014427800e04f520011003a0070
:100a7000c4a8200014427800e04f52000d0032005c
:100a8000419a2000d09c20007c0207000042eb002d
:100a9000040078008ceab70091022000d09c20006e
:100aa0006402070014c0b3000002fd008beab70027
:100ab0000002fd00c4a8200014427800e04f52005c
:100ac00011003a00d4a8200014427800e04f5200f0
:100ad0000d003200d19c2000609f200067020700bb
:100ae0000042eb00040078008deab700910220007c
:100af000609f20004f02070014c0b3000002fd00f9
:100b00008ceab7000002fd0004a92000144278001e
:100b1000e04f520014003a0094a8200014427800dc
:100b2000e04f52008fff3a00a4a820001442780042
:100b3000e04f52008bff3a00b4a820001442780026
:100b4000e04f520087ff3a00c4a82000144278000a
:100b5000e04f520083ff3a00d4a8200014427800ee
:100b6000e04f52007fff3a0004a9200014427800b1
:100b7000e04f5200dd003200e4a82000144278006b
:100b8000e04f5200d9003a000002eb00040f780059
:100b90001100370004a720009e0242000042eb0033
:100ba000844a780004a720001e0242001442780004
:100bb000c5a520009e824200844a7800c4a520007a
:100bc0001e0242001442780085a420009e8242004a
:100bd000844a78001e0fe8001e027800f30f5200ce
:100be000ecff3400959220009542780054c2b30087
:100bf00084cf5200050032000042eb000002fd00ed
:100c000090eab7000002fd00b80037001400200091
:100c1000140798000002eb00240798000e0037002c
:100c20009e029000949220000482420014427800b8
:100c30002e03900085a4200085024300844a78009a
:100c40002e0290000402e800240798001e02900083
:100c50000402e800140798009e029000949220007d
:100c60000482420094427800f4c2b30084cf520060
:100c70000e0034009e0290009492200004824200f4
:100c800094427800f4c7b30084cf520007003200ca
:100c90002e029000f30f520004003c009e029000d0
:100ca00074022000848f5200ddff34009e02900009
:100cb00094922000048242009442780004c2b3005f
:100cc00004c26a000482fb000402ea004f22de0034
:100cd000044278009e0290008502e8001507980003
:100ce000e04f5200050032000042eb000002fd0020
:100cf00090eab7000002fd007c0037000002eb0024
:100d0000240798000e0037009e0290009492200065
:100d100004824200144278002e039000c5a52000f2
:100d200085024300844a78002e0290000402e80005
:100d3000240798001e0290000402e800140798009f
:100d40009e02900094922000048242009442780017
:100d5000f4c2b30084cf52000e0034009e02900013
:100d6000949220000482420094427800f4c7b300b9
:100d700084cf5200070032002e029000f30f520081
:100d800004003c009e02900074022000848f5200f8
:100d9000ddff34009e029000949220000482420005
:100da0009442780004c2b30004c26a000482fb00cb
:100db0000402ea004f22de00044278009e02900006
:100dc0008502e80015079800e04f52000500320048
:100dd0000042eb000002fd0090eab7000002fd00b7
:100de000420037000002eb00240798000e00370095
:100df0009e029000949220000482420014427800e7
:100e00002e03900005a7200085024300844a780045
:100e10002e0290000402e800240798001e029000b1
:100e20000402e800140798009e02900094922000ab
:100e30000482420094427800f4c2b30084cf52008e
:100e40000e0034009e029000949220000482420022
:100e500094427800f4c7b30084cf520007003200f8
:100e60002e029000f30f520004003c009e029000fe
:100e700074022000848f5200ddff34009e02900037
:100e8000949220000482420094427800e4c2b300ad
:100e900084cf5200050032000042eb000002fd004a
:100ea00090eab7000002fd001000370014c0b30044
:100eb0000002fd008eeab7000002fd000042eb00d8
:100ec0000002fd0090eab7000002fd000042eb00c6
:100ed0000002fd0091eab7000002fd00b802070021
:100ee0008102200090922000520107000080fa0049
:100ef000000006000000fa00f4a820001442780068
:100f0000e04f52001a003a0044a820001442780032
:100f1000e04f52001600320061ab200090832000a9
:100f20005601070014c0b30004007800b0eab7000f
:100f3000c1b02000908320005001070014c0b3000e
:100f40000400780007ebb7000042eb0004007800d3
:100f500084eab70081022000908320003501070059
:100f600014c0b3000002fd008feab7000002fd00cc
:100f700044a8200014427800e04f520011003a00cb
:100f800054a8200014427800e04f52000d003200b7
:100f90009183200010862000380107000042eb00fa
:100fa0000400780085eab700810220001086200046
:100fb0002001070014c0b3000002fd0084eab7005e
:100fc0000002fd0054a8200014427800e04f5200b7
:100fd00011003a0064a8200014427800e04f52004b
:100fe0000d003200118620009088200023010700a8
:100ff0000042eb000400780086eab700810220007e
:10100000908820000b01070014c0b3000002fd000f
:1010100085eab7000002fd0064a8200014427800b1
:10102000e04f520011003a0074a8200014427800ea
:10103000e04f52000d00320091882000108b2000fc
:101040000e0107000042eb000400780087eab700b9
:1010500081022000108b2000f600070014c0b300ae
:101060000002fd0086eab7000002fd0074a820001f
:1010700014427800e04f52002e003a0084a820006d
:1010800014427800e04f52002c003200118b2000f7
:10109000908d2000f90007000042eb00040078006a
:1010a00088eab70081022000908d2000e10007004f
:1010b00014c0b3000002fd0087eab7000002fd0083
:1010c0001f0037009555800064ab20000482420069
:1010d000144278000402fb00a41188000502e80015
:1010e000945588009555800064ab2000048242002e
:1010f00014427800e04f52000700320094558000ff
:101100008402e90064ab20000482420014427800ab
:10111000ea4f52000a003a000002eb0094558800a2
:101120000042eb000002fd00b0eab7000002fd0043
:10113000030037000000000001003700000000003d
:10114000951180000410200004826200e00f52001c
:10115000270032009555800064ab200004824200d5
:1011600014427800e04f52002300320004ab20000c
:1011700014427800e04f5200d2ff3a001f003700bf
:1011800045588000c4b02000048242001442780018
:101190000402fb00241188000502e800445888007e
:1011a00045588000c4b020000482420014427800f8
:1011b000e04f520007003200445880008402e900ea
:1011c000c4b020000482420014427800ea4f52006a
:1011d0000a003a000002eb00445888000042eb008d
:1011e0000002fd0007ebb7000002fd00030037001e
:1011f0000000000001003700000000001511800011
:101200000410200004826200e00f52000a00320045
:1012100045588000c4b02000048242001442780087
:10122000e04f52000400320074b0200014427800f5
:10123000e04f5200d2ff3a00f4a820001442780098
:10124000e04f52000b00320004ab20001442780043
:10125000e04f520007003a0074b0200014427800ba
:10126000e04f520003003a000042eb000400780017
:101270008feab7000080fa00000006000000fa00c4
:1012800044a8200014427800e04f520006003a00c3
:1012900014c0b3000002fd0084eab7000002fd00a4
:1012a000948320002900370054a8200014427800bd
:1012b000e04f520006003a0014c0b3000002fd00e7
:1012c00085eab7000002fd00148620001f003700e9
:1012d00064a8200014427800e04f520006003a0053
:1012e00014c0b3000002fd0086eab7000002fd0052
:1012f000948820001500370074a82000144278005c
:10130000e04f520006003a0014c0b3000002fd0096
:1013100087eab7000002fd00148b20000b003700a5
:1013200084a8200014427800e04f520006003a00e2
:1013300014c0b3000002fd0088eab7000002fd00ff
:10134000948d2000010037001490200004007800e4
:101350000080fa00000006000000fa0094a82000b7
:1013600014427800e04f520006003a0014c0b30067
:101370000002fd0089eab7000002fd00249520006c
:1013800029003700a4a8200014427800e04f520042
:1013900006003a0014c0b3000002fd008aeab7005c
:1013a0000002fd00b49720001f003700b4a8200001
:1013b00014427800e04f520006003a0014c0b30017
:1013c0000002fd008beab7000002fd00449a2000f5
:1013d00015003700c4a8200014427800e04f5200e6
:1013e00006003a0014c0b3000002fd008ceab7000a
:1013f0000002fd00d49c20000b003700d4a8200080
:1014000014427800e04f520006003a0014c0b300c6
:101410000002fd008deab7000002fd00649f20007d
:1014200001003700f4a12000040078000080fa00d9
:10143000000006000600fa00100798002107980037
:101440000002eb00040f7800060037001e0278004f
:101450009e029000848242000042eb00844a7800a1
:101460001e0fe8002e0290009e027800848f52002a
:10147000f6ff35000080fa00000006000600fa00c2
:1014800010079800210798000002eb00040f780075
:10149000090037001e027800ae02900084824200ec
:1014a0001e0278001e0390000402430014427800dc
:1014b000844a78001e0fe8001e0278009e02900009
:1014c0000482420014427800e04f5200f1ff3a00db
:1014d0001e027800ae029000848242000042eb00bf
:1014e000844a78000080fa00000006000800fa0034
:1014f00020079800310798000002eb00040f7800e5
:101500002e0090003e0007000002780014079800ab
:101510000a0037001e0290001e024200ae02900038
:10152000848242001e0278003e03900004024300c1
:1015300014427800844a78001e0fe8001e027800ea
:10154000be0290000482420014427800e04f520034
:10155000f0ff3a001e0290001e024200ae02900010
:10156000848242000042eb00844a78000080fa0046
:10157000000006000600fa001007980021079800f6
:101580000002eb00040f78000d0037001e02780007
:101590009e02900004824200944278001e0278006d
:1015a0002e039000040243001442780084cf5200be
:1015b0000200320014c0b3000e0037001e0fe80016
:1015c0001e0278009e0290000482420014427800bd
:1015d000e04f5200060032001e027800ae0290007a
:1015e0000482420014427800e04f5200e7ff3a00c4
:1015f0000042eb00044078000080fa000000060082
:101600000400fa00100798000002eb00040f7800b5
:10161000000000001e0278009e029000048242003a
:10162000144278000482fb000402ea004f22de002c
:10163000044278001e0fe800e04f5200f5ff3a0028
:101640001e02e900040078000080fa000000060095
:101650001a00fa00200f9800310f9800420f9800ee
:101660005402200005002000048fbe0064024700e1
:1016700007000900001aeb00ae0890000e00780089
:101680009aff0700c13428000e00780097ff07007a
:10169000be0890000e00780094ff0700c1342800b7
:1016a0000e00780091ff0700ce0890000e00780031
:1016b0008eff0700e13428000e0078008bff070042
:1016c000eefe070000027800840078000e0078002b
:1016d0006aff07000080fa00000006001c00fa0004
:1016e000200f9800310f9800420f9800530f980078
:1016f0006022b800048fbe006402470007000900a2
:10170000001aeb00ce0890000e00780077ff07006b
:10171000213528000e00780074ff0700de089000d5
:101720000e00780071ff07000e017800be089000df
:101730002e089000c6ff07000080fa000000060097
:101740001e00fa00200f9800310f9800420f9800f9
:10175000530f9800640f98006022b800048fbe00f9
:101760006402470007000900001aeb00de08900041
:101770000e0078005dff0700213528000e0078007c
:101780005aff0700ee0890000e00780057ff070090
:101790008e0178004e099000be0890002e0890003f
:1017a000ceff07000080fa00000006002000fa00cb
:1017b000200f9800310f9800420f9800530f9800a7
:1017c000640f9800750f98006022b800048fbe0067
:1017d0006402470007000900001aeb00ee089000c1
:1017e0000e00780041ff0700213528000e00780028
:1017f0003eff0700fe0890000e0078003bff070048
:101800000e027800de0990004e099000be0890009c
:101810002e089000caff07000080fa0000000600b2
:101820002200fa00200f9800310f9800420f980014
:10183000530f9800640f9800750f980006179800d2
:101840006022b800048fbe00640247000700090050
:10185000001aeb00fe0890000e00780023ff07003e
:10186000213528000e00780020ff07008e10900020
:101870000e0078001dff07008e0278006e0a9000af
:10188000de0990004e099000be0890002e089000de
:10189000c6ff07000080fa00000006000a00fa00f8
:1018a00030079800014f98000002eb00040f780009
:1018b0000002eb00140798000042eb004447980038
:1018c000100037001e027800be0290000482420021
:1018d00094427800a4c3b30004c26a000482fb00ef
:1018e0000402e9004f22de00044278001e0fe800e7
:1018f000e04f5200030032004e4290000442e800e4
:1019000044479800ce4290000e4a900084cf520087
:1019100011003d001e027800f30f5200e9ff340071
:101920000e0037001e027800be02900004824200c2
:10193000144278001e039000b5c0200085024300c9
:10194000844a78001e0290000402e8001407980000
:101950001e0fe80001003700000000001e027800a2
:10196000be0290000482420094427800a4c3b300f7
:1019700084cf5200090032001e027800be0290009f
:101980000482420014427800e04f5200030032000b
:101990001e027800f30f5200e2ff34009e02900016
:1019a000b4c02000848242000042eb00844a7800e8
:1019b000b4c02000040078000080fa000000060097
:1019c0000600fa00e4a8200014427800e04f52001c
:1019d0004f0232004135280080a42000e5fe0700b8
:1019e00000427800e04f5200d4013a0081352800cf
:1019f000c0a52000dffe070000427800e04f520043
:101a000061003a0004a72000144278000402fb00a1
:101a10000403b100044278006a22b900040278008d
:101a20008442780014a720001442780084c2420047
:101a300004cdb30004c24200044f780024a7200064
:101a4000144278000402fb000403b1000442780051
:101a50006a22b900040278008442780034a720008a
:101a60001442780084c2420004cdb30004c2420094
:101a70001447980044a72000144278000402fb0099
:101a80000403b100044278006a22b900040278001d
:101a90008442780054a720001442780084c2420097
:101aa00004cdb30004c242002447980064a720007c
:101ab000144278000402fb000403b10004427800e1
:101ac0006a22b900040278008442780074a72000da
:101ad0001442780084c2420004cdb30004c2420024
:101ae0003447980084a72000144278000402fb00c9
:101af0000403b100044278006a22b90004027800ad
:101b00008442780094a720001442780084c24200e6
:101b100004cdb30004c2420044479800a4a72000ab
:101b2000144278000402fb000403b1000442780070
:101b30006a22b9000402780084427800b4a7200029
:101b40001442780084c2420004cdb30004c24200b3
:101b500054479800de4290004e429000be409000f4
:101b60002e4090009e4390001e43780081417800f3
:101b7000004178008740780006407800400f070059
:101b8000f20e0700dd013700d1352800c0a5200086
:101b900078fe070000427800e04f520037003a001c
:101ba0008040eb0000a720003cff07000002780007
:101bb0000400780071fa070000027800cfa2de006e
:101bc000945c8800a55c880011c0b30000a72000c9
:101bd00032ff0700000278000400780067fa07006f
:101be00000027800cfa2de00745c8800855c88006b
:101bf00021c0b30000a7200028ff070000027800e2
:101c0000040078005dfa070000027800cfa2de0031
:101c1000b45c8800c55c8800945c8000a55c800092
:101c20003440880045408800945c8000a55c8000ba
:101c3000632bb900060378006020b90080037800a8
:101c4000070343008402780034002000042ab8000f
:101c500005034300860278004e2bdd004222de00a1
:101c600004027300c22ade005440880065408800e8
:101c7000df06070013080700a001370031362800ef
:101c8000c0a520003bfe070000427800e04f520054
:101c900035003a008040eb0000a72000fffe07005f
:101ca000000278000400780034fa0700000278008f
:101cb000044278000400780026e8b70011c0b300a1
:101cc00000a72000f5fe070000027800040078005d
:101cd0002afa070000027800044278000400780025
:101ce00029e8b70021c0b30000a72000ebfe0700e1
:101cf000000278000400780020fa07000002780053
:101d000004427800040078002ae8b70031c0b3002c
:101d100000a72000e1fe0700000278000400780020
:101d200016fa0700000278000442780004007800e8
:101d300027e8b70041c0b30000a72000d7fe070086
:101d400000027800040078000cfa07000002780016
:101d5000044278000002fd0028e8b7000002fd0000
:101d6000d20807006501370091362800c0a5200081
:101d700000fe070000427800e04f520020003a00c9
:101d800004a72000144278000002fd001ae8b70002
:101d90000002fd0014a72000144278000002fd009c
:101da0001be8b7000002fd0024a7200014427800c1
:101db0000002fd001ce8b7000002fd0034a720006f
:101dc000144278000002fd001de8b7000002fd008b
:101dd00044a72000144278000002fd001ee8b7006e
:101de0000002fd0054a72000144278000002fd000c
:101df0001fe8b7000002fd00e60607003f013700bc
:101e0000d1362800c0a52000dafd07000042780086
:101e1000e04f520063003a008040eb0000a7200032
:101e20009efe07000002780004007800d3f9070046
:101e300000027800044278000400780023e8b7002c
:101e400011c0b30000a7200094fe07000002780034
:101e500004007800c9f907000002780024418800d6
:101e600021c0b30000a720008cfe0700000278000c
:101e700004007800c1f9070000027800a45488002b
:101e8000a4418000b5418000823e20000300200074
:101e90000400be00a9f907000002be000403be0052
:101ea000a4548000cfa2de00840f5300858f5b0016
:101eb0001f003600c462a900a4548000cfa2de0037
:101ec00086c12f0006abb900060378008083eb00c3
:101ed00007a0b9008003780007034300840278005c
:101ee00084c12f00042ab80005034300860278004d
:101ef0000403be00a4418000b541800006024200f8
:101f000087824a00a4418800b5418800a45480001b
:101f10006123b90024608000356080000602420021
:101f200087824a0024608800356088001b003700e3
:101f3000a4548000e00f520012003200745c800054
:101f4000855c8000823e2000030020000400be006b
:101f50007af907000002be000403be00945c800012
:101f6000a55c80000403530085835b00246080002f
:101f7000356080000602420087824a0024608800a3
:101f8000356088006022b800a4418800b54188000f
:101f90006022b800745c8800855c88008d070700ab
:101fa000d600370021372800c0a5200071fd0700aa
:101fb00000427800e04f520017003a008040eb00ea
:101fc00000a7200035fe070000027800040078001a
:101fd0006af90700000278000442780004007800e3
:101fe00003e8b70011c0b30000a720002bfe0700d4
:101ff000000278000400780060f907000002780011
:10200000044278000002fd0004e8b7000002fd0071
:10201000b3070700b900370081372800c0a52000aa
:1020200054fd070000427800e04f520010003a00d3
:1020300005a720009542780064c6b30084cf520003
:1020400005003a000042eb000002fd000fe8b70077
:102050000002fd000400370000c2eb000002fd009a
:102060000fe8b7000002fd00060d0700a3003700cf
:10207000e1372800c0a520003efd0700004278009f
:10208000e04f520015003a008040eb0000a720000e
:1020900002fe0700000278000400780037f907000c
:1020a00000027800cfa2de008440880095408800be
:1020b00011c0b30000a72000f8fd0700000278005f
:1020c000040078002df9070000027800cfa2de009e
:1020d000a4408800b54088008800370031382800c7
:1020e000c0a5200023fd070000427800e04f520009
:1020f00082003a006138280000a720001dfd07007b
:1021000000427800e04f520005003a0000c2eb00a8
:102110000002fd000ee8b7000002fd0004003700d9
:102120000042eb000002fd000ee8b7000002fd00d7
:102130009e0c0700ae05070070003700b13828007c
:1021400080a420000bfd070000427800e04f520001
:1021500002003a00f9000700680037002137280024
:1021600080a4200003fd070000427800e04f5200e9
:1021700005003a0000c2eb000002fd0008ecb700c9
:102180000002fd005d0037002139280080a42000f6
:10219000f8fc070000427800e04f520057003a0078
:1021a00081352800c0a52000f2fc0700004278001d
:1021b000e04f520002003a00580007004f0037007d
:1021c000d1352800c0a52000eafc070000427800b5
:1021d000e04f520002003a00d800070047003700e5
:1021e00031362800c0a52000e2fc0700004278003c
:1021f000e04f520002003a00f10007003f003700b4
:1022000091362800c0a52000dafc070000427800c3
:10221000e04f520002003a0021010700370037006a
:10222000d1362800c0a52000d2fc0700004278006b
:10223000e04f520002003a00300107002f00370043
:1022400071392800c0a52000cafc070000427800b0
:10225000e04f520002003a00480107002700370013
:10226000c1392800c0a52000c2fc07000042780048
:10227000e04f520002003a00c40107001f0037007f
:1022800021372800c0a52000bafc070000427800d2
:10229000e04f520002003a00c70107001700370064
:1022a00081372800c0a52000b2fc0700004278005a
:1022b000e04f520002003a00d90107000f0037003a
:1022c000e1372800c0a52000aafc070000427800e2
:1022d000e04f520002003a00e1010700070037001a
:1022e00031382800c0a52000a2fc07000042780079
:1022f000e04f520001003a00f80107000042eb00f5
:102300000002fd008eeab7000002fd000100370068
:10231000000000000080fa00000006000e00fa0035
:102320000a0d07006022b800048fbe006400470059
:10233000030009000018eb000058eb0004822000a5
:10234000144278008482fb00a400200011000900e0
:102350008482d80000027800044278000443b00070
:10236000044f780004822000144278008482fb002d
:10237000a4002000110009008482d8000102780026
:10238000044278000443b0001447980014822000ef
:10239000144278008482fb00a40020001100090090
:1023a0008482d80000027800044278000443b00020
:1023b0002447980014822000144278008482fb0095
:1023c000a4002000110009008482d80001027800d6
:1023d000044278000443b00034479800248220006f
:1023e000144278008482fb00a40020001100090040
:1023f0008482d80000027800044278000443b000d0
:102400004447980024822000144278008482fb0014
:10241000a4002000110009008482d8000102780085
:10242000044278000443b00054479800d4b620001a
:10243000144278008482fb00a400200011000900ef
:102440008482d80000027800044278000443b0007f
:1024500064479800d4b62000144278008482fb00c0
:10246000a4002000110009008482d8000102780035
:10247000044278000443b00074479800e4b620009a
:10248000144278008482fb00a4002000110009009f
:102490008482d80000027800044278000443b0002f
:1024a000044f9800e4b62000144278008482fb00b8
:1024b000a4002000110009008482d80001027800e5
:1024c000044278000443b000144f98005480200068
:1024d000144278008482fb00a4002000110009004f
:1024e0008482d80000027800044278000443b000df
:1024f000244f980054802000144278008482fb000e
:10250000a4002000110009008482d8000102780094
:10251000044278000443b000344f98000042eb00be
:10252000444f98000e017800413a2800903a280064
:1025300047fc07000080fa00000006001000fa00c7
:10254000945c8000a55c800004027800a20020005a
:10255000840078000e00780027f80700745c800083
:10256000855c80008402780065024700a20020009c
:1025700085007800040078001ff80700b45c800034
:10258000c55c8000840278006a024700a200200037
:10259000850078000400780017f807006a024700f9
:1025a000e5024700850178000e017800d13a280045
:1025b000903a280062fc07000080fa000000060044
:1025c0000a00fa0064822000144278000402fb0032
:1025d000a200200084007800a0b9200020f80700a5
:1025e00000027800040f78009482200014427800e2
:1025f0000402fb00a20020008400780050ba2000f2
:1026000017f807000002780014079800a482200041
:10261000144278000402fb00a2002000840078002d
:1026200000bb20000ef80700000278002407980085
:1026300074822000144278000402fb00a2002000f3
:1026400084007800b0bb200005f807000002780085
:102650003407980084822000144278000402fb00b2
:10266000a20020008400780060bc2000fcf7070076
:1026700000027800440798004e039000be029000cc
:102680002e0290009e0190001e017800313b280030
:10269000903a280062fc07000080fa000000060063
:1026a0000a00fa000002eb00040f78000700370070
:1026b000a48120001e024200144278008e82e800ad
:1026c0009e824200844a78001e0fe8001e027800b5
:1026d000e50f5200f6ff34000042eb00044f980073
:1026e0000e82e80004017800913b2800903a28000f
:1026f000d7fb07000080fa00000006000600fa0081
:1027000034822000144278000402fb00a200200062
:1027100084007800a0b92000d1f7070000027800fb
:10272000040f780024418000a2002000840078007b
:1027300050ba2000caf7070000027800140798007a
:10274000b4548000a20020008400780000bb200068
:10275000c3f7070000027800240798002e029000bb
:102760009e0190001e017800d13b2800903a28007d
:10277000f3fb07000080fa00000006000a00fa00e0
:1027800011c3b30070c3b30025c6b300e4c6b300e1
:1027900084cf52001a00320025c6b30024c6b3000d
:1027a00084cf52001600320025c6b30024c7b30000
:1027b00084cf52001200320025c6b30094c7b30084
:1027c00084cf52000e00320025c6b300c4c6b30049
:1027d00084cf52000a00320025c6b30074c6b3008d
:1027e00084cf52000600320025c6b30004c7b300f0
:1027f00084cf520002003200140020000100370094
:102800000002eb00044278000443b00084437800e7
:1028100025c6b300e4c6b30084cf520009003a00d5
:1028200055c6b30014c6b30084cf520002003a006c
:1028300014c3b3000100370064c3b30084427800be
:102840003800370025c6b30024c6b30084cf520039
:102850003200320025c6b30024c7b30084cf520033
:1028600008003a0065c4b300d4c4b30084cf52005a
:1028700002003a0034c3b3000100370044c3b30080
:102880002500370025c6b30094c7b30084cf52009b
:102890002000320025c6b300c4c6b30084cf520066
:1028a0001a00320025c6b30074c6b30084cf5200ac
:1028b0001400320025c6b30004c7b30084cf520011
:1028c0000e00320025c6b30044c7b30084cf5200c7
:1028d0000800320025c6b30064c7b30084cf52009d
:1028e00002003a0014c3b3000100370024c3b30050
:1028f0000100370004c3b3000100370094c3b300e4
:102900000100370084c3b3000100370074c3b30073
:102910000100370054c3b3000100370024c3b300e3
:102920008442780006c2b30004c2b300844f53004f
:102930000200320004c2b3000100370004c3b30038
:1029400046c3b300014f780010479800274798000e
:1029500035479800444798005647980004c3b30091
:102960006447980014c3b300744798000042eb001a
:10297000044f98000e017800213c2800903a28006e
:1029800033fb07000080fa00000006000000fa0098
:1029900082a92000713c2800903a28002cfb0700f7
:1029a00042aa2000b13c2800903a280028fb0700ea
:1029b0000080fa00000006000400fa0034802000c5
:1029c000144278000482fb00a200200084007800fa
:1029d000a0b9200022f7070000027800040f780059
:1029e00044802000144278000482fb00a2002000f2
:1029f0008400780050ba200019f707000002780020
:102a0000140798009e0190001e017800f13c2800f8
:102a1000903a280031fb07000080fa000000060011
:102a20000000fa00f480200014427800e04f5200c9
:102a300005003200523d2800813d2800903a2800d0
:102a400003fb070004003700e23d2800813d280019
:102a5000903a2800fefa07000080fa000000060005
:102a60000400fa008440800095408000823e2000ef
:102a7000030020000400be00b0f607000002be0004
:102a800004027800a200200084007800a0b9200091
:102a9000f3f6070000027800040f7800a4408000dd
:102aa000b540800004027800a20020008400780075
:102ab00050ba2000eaf607000002780014079800d8
:102ac0009e0190001e017800013e2800903a2800e7
:102ad00002fb07000080fa00000006000000fa0078
:102ae000e480200014427800e04f520005003200dc
:102af000523e2800a13e2800903a2800d4fa070050
:102b000004003700d23e2800a13e2800903a280059
:102b1000cffa07000080fa00000006000000fa006b
:102b2000123f2800113f2800f03c2800c8fa070097
:102b30000080fa00000006000000fa007ffe070097
:102b40000080fa00000006000000fa00123f280092
:102b5000413a2800303f2800bdfa07000080fa0003
:102b6000000006000000fa00123f2800d13a2800b9
:102b7000303f2800b6fa07000080fa000000060087
:102b80000000fa00123f2800313b2800303f2800a7
:102b9000affa07000080fa00000006000000fa000b
:102ba000123f2800913b2800303f2800a8fa070078
:102bb0000080fa00000006000000fa00123f280022
:102bc000d13b2800303f2800a1fa07000080fa001e
:102bd000000006000000fa00123f2800213c2800f7
:102be000303f28009afa07000080fa000000060033
:102bf0000000fa00123f2800f13c2800303f280076
:102c000093fa07000080fa00000006000000fa00b6
:102c1000123f2800813d2800303f28008cfa070031
:102c20000080fa00000006000000fa00123f2800b1
:102c3000013e2800303f280085fa07000080fa0096
:102c4000000006000000fa00123f2800a13e280004
:102c5000303f28007efa07000080fa0000000600de
:102c60000000fa00123f2800813f2800303f280072
:102c700077fa07000080fa00000006000000fa0062
:102c8000123f2800113f28000040280070fa07007a
:102c90000080fa00000006000200fa00c042a9000d
:102ca000c062a900c882a900c082a9000002eb008e
:102cb000040f78000d003700c442a800c462a800c9
:102cc000cc82a800c482a80040062000440f070060
:102cd000c442a900c462a900cc82a900c482a90090
:102ce000400620003e0f07001e0fe8001e0278007d
:102cf000e40f5200f0ff3400803e2000380f070040
:102d00002e000700c042a900c062a900c882a90025
:102d1000c082a9000002eb00040f78000d0037000c
:102d2000c442a800c462a800cc82a800c482a80043
:102d3000400620002a0f0700c442a900c462a9006f
:102d4000cc82a900c482a90040062000240f0700fd
:102d50001e0fe8001e027800e40f5200f0ff34005e
:102d6000803e20001e0f0700a4c0200014427800ff
:102d70008482fb008502e900cf2ade0085427800cc
:102d80000442e8000002fd000aecb7000002fd006a
:102d9000e0cf5200050032006c0a0700c20e0700a7
:102da000b5010700df0d07002d0e0700e6f607004e
:102db0002902070066020700ebff37000000fa0057
:102dc000320c07000c0b070046000700cc82a8005d
:102dd000f30107000f000700680b07009c0d0700b8
:102de000860c0700940e07000d020700123f280012
:102df00071402800b040280015fa0700123f280053
:102e000071402800b040280011fa07000080fa0045
:102e1000000006000000fa00b4c3b3000002fd0089
:102e200002e8b7000002fd006022b800b45c880030
:102e3000c55c88006022b800a4418800b5418800c4
:102e40006022b800745c8800855c88007802070006
:102e5000364080004740800054408000654080003c
:102e6000840f5300858f5b001b003a00945c800048
:102e7000a55c8000e00f5200e08f5a00160032007f
:102e8000945c8000a55c8000344088004540880048
:102e9000945c8000a55c8000632bb9000603780079
:102ea0006020b900800378000703430084027800a3
:102eb00034002000042ab80005034300860278008d
:102ec0004e2bdd004222de0004027300c22ade0027
:102ed0005440880065408800450207000080fa00e1
:102ee000000006000e00fa00ed0247006c024700e9
:102ef000eb0047006a004700e9034700680347000a
:102f000081017800000178008700780006007800d1
:102f1000180a070014c3b3000402fb006a22b900b8
:102f20000402780005e22f008482420074c3b300db
:102f30000402fb000403b10004824200cfa2de00c1
:102f4000c423dd000600200025c6b300e4c6b3009c
:102f500084cf52000a003a0055c6b30014c6b3002d
:102f600084cf520003003a00040020001500200026
:102f700002003700040020006500200041003700f7
:102f800025c6b30024c6b30084cf52003b003200f4
:102f900025c6b30024c7b30084cf52000a003a000c
:102fa00065c4b300d4c4b30084cf520003003a0018
:102fb000040020003500200002003700040020003b
:102fc000450020002c00370025c6b30094c7b3008d
:102fd00084cf52002600320025c6b300c4c6b30019
:102fe00084cf52001f00320025c6b30074c6b30060
:102ff00084cf52001800320025c6b30004c7b300c6
:1030000084cf52001100320025c6b30044c7b3007c
:1030100084cf52000a00320025c6b30064c7b30053
:1030200084cf520003003a0004002000b5002000c5
:103030000200370004002000c50020000200370015
:1030400004002000a500200002003700040020003a
:1030500095002000020037000400200085002000b9
:103060000200370004002000750020000200370035
:10307000040020005500200002003700040020005a
:10308000250020000603420087834a0005c2b300e2
:1030900004c2b30084cf520004003a0044c3b3001a
:1030a0000402fb000403b1000a00370004c2b300ad
:1030b0000402fb006a22b9000402780005e22f0036
:1030c0008482420044c3b3000402fb000403b10045
:1030d000048242006120b9004b0add00c502de0017
:1030e000850272004b02dd000603420087834a001e
:1030f00014c3b3000402fb006a22b9000402780082
:1031000005e22f008482420034c3b3000402fb00b6
:103110000403b100048242006120b900460add00c8
:10312000ca02de00850272004602dd00060342008c
:1031300087834a0034c3b3000402fb006a22b9004b
:103140000402780005e22f008482420014c3b30019
:103150000402fb000403b10004824200cfa2de009f
:10316000041f430005974b000e4a90000482fb00a9
:1031700005002000c423dd00060020001e4a900048
:103180000482fb0005002000c022dd0004002000b6
:103190000603420087834a002e4a90000480fb0009
:1031a000010020004b0add00c502de00850272002e
:1031b0004b02dd000603420087834a003e4a90002e
:1031c0000480fb0001002000460add00ca02de0088
:1031d000850272004602dd000603420087834a0032
:1031e0004e4a90000482fb000500200006024200c7
:1031f00087824a0024079800350798002e02900025
:10320000be0290001e03be00840f5300858f5b003a
:103210009700360034c3b3006a22b9000402780074
:103220008442780054c3b30004c242000442e80060
:10323000544f980034c3b3006a22b90004027800e6
:103240008442780014c3b30004c2420070425200aa
:10325000444f980014c3b3006a22b90004027800f6
:103260008442780034c3b30004c24200704252006a
:10327000344f9800de4a9000b4c3b30084cf5200ac
:103280000a0036004e4a90000442e800444f98007d
:10329000ce4a9000b4c3b30084cf5200030036007e
:1032a0003e4a90000442e800344f98005e4a900085
:1032b0008482fb00c4032000110009008482d8002e
:1032c00001027800844178004e4a90008482fb001d
:1032d000c4032000110009008482d8000102780094
:1032e00004417800be48900005c2b30004c2b30098
:1032f00084cf520005003a0044c3b30084427800f2
:1033000004cdb30084c342000700370004c2b300f9
:103310006a22b900040278008442780044c3b300f2
:1033200004c24200f043520025c6b300e4c6b30015
:1033300084cf520009003a0055c6b30014c6b3004a
:1033400084cf520002003a0014c0b30001003700dd
:1033500064c0b300044378003800370025c6b300ca
:1033600024c6b30084cf52003200320025c6b30019
:1033700024c7b30084cf520008003a0065c4b300ec
:10338000d4c4b30084cf520002003a0034c0b3006a
:103390000100370044c0b3002500370025c6b30044
:1033a00094c7b30084cf52002000320025c6b3007a
:1033b000c4c6b30084cf52001a00320025c6b30041
:1033c00074c6b30084cf52001400320025c6b30087
:1033d00004c7b30084cf52000e00320025c6b300ec
:1033e00044c7b30084cf52000800320025c6b300a2
:1033f00064c7b30084cf520002003a00b4c0b300e7
:1034000001003700c4c0b30001003700a4c0b300fe
:103410000100370094c0b3000100370084c0b3003e
:103420000100370074c0b3000100370054c0b3007e
:103430000100370024c0b3000443780014c3b30074
:103440006a22b900040278008442780074c3b30091
:1034500004c2420070405200834278000242780069
:103460008141780007417800864078000409070010
:103470000080fa00000006000000fa00d5b6200027
:1034800095427800348020001442780084cf5200a6
:1034900036003a00e5b620009542780044802000ce
:1034a0001442780084cf520030003a00548020004b
:1034b00014427800e04f52002c003a008481200032
:1034c00014427800e04f5200280032000042eb0026
:1034d0000002fd0018e8b7000002fd000042eb000a
:1034e0000002fd0008ecb7000002fd00765c8000e1
:1034f000875c800024608000356080000603420005
:1035000087834a0084408000954080000602420084
:1035100087824a008440880095408800765c80005d
:10352000875c8000246080003560800006024200d5
:1035300087824a00a4408800b54088006022b80015
:10354000a4418800b54188006022b800745c8800fe
:10355000855c88006022b80024608800356088009f
:103560003ffd0700700307000b0037008481200037
:1035700014427800e04f520007003a0054802000c7
:1035800014427800e04f52000300320000c2eb000a
:103590000400780018e8b7000080fa000000060078
:1035a0000000fa000002eb00042788000002eb0094
:1035b000142788000002eb00141688000002eb00bc
:1035c000541688000082eb00041688000082eb008d
:1035d00044168800c002a800c802a900c822a8009a
:1035e000c842a800c062a900c8e2a900c902a80098
:1035f000c922a800c0e2a800c962a900c8c2a900e7
:10360000c9e2a9009400a9000080fa0000000600a9
:103610000000fa005640a8000080fa0000000600f2
:103620000000fa0005048000040028000502720072
:10363000040488000080fa00000006000000fa0080
:1036400005048000f4ff270004826200040488005f
:103650000080fa00000006000000fa001416800046
:1036600061026200e00f5200370032003482200015
:1036700014427800e04f52003300320095c0200021
:1036800095427800548020001442780084cf520084
:103690002d003200a4418000b5418000823e200010
:1036a000030020000400be00a4f307000002be00d7
:1036b0000403be0024418000cfa2de00840f53002b
:1036c000858f5b001600360024418000cfa2de000b
:1036d00086c12f0006abb900060378008083eb009b
:1036e00007a0b90080037800070343008402780034
:1036f00084c12f00042ab800050343008602780025
:103700000403be00a4418000b541800006024200cf
:1037100087824a00a4418800b5418800060037002e
:103720006022b800a4418800b54188006022b8003a
:10373000745c8800855c8800548020001442780006
:103740000400780009ecb7000080fa0000000600d1
:103750000000fa005480200014427800fe4f52000e
:103760001b003a009481200014427800e04f520080
:1037700017003200e4b62000144278008482fb0077
:10378000f4002000110009008482d80001027800b2
:1037900004427800e14f520007003200765c80005e
:1037a000875c8000945c8000a55c8000840f5300df
:1037b000858f5b000b003900260407000042eb00f8
:1037c0000002fd0019e8b7000002fd000600370006
:1037d00014c0b3000002fd0019e8b7000002fd00ac
:1037e00001003700000000000080fa000000060021
:1037f0000000fa00e480200014427800e04f5200fc
:10380000050032003440800045408000945c880010
:10381000a55c8800040037005440800065408000ab
:10382000945c8800a55c88000080fa000000060017
:103830000000fa000a0007000c0107004101070020
:1038400083010700ce01070074020700350307005b
:10385000c0060700f50607000080fa000000060019
:103860000200fa0000000000010037000000000024
:10387000053b80000400280004826200e00f520033
:10388000faff3a00f40720000442780004007800b0
:1038900032e0b70004e02f00040f78001e02780029
:1038a0001402ba0004427800040078001ae8b70055
:1038b000f4072000044278000400780032e0b700ea
:1038c00024e02f00040f78001e0278001402ba00d2
:1038d00004427800040078001be8b700f4072000d9
:1038e000044278000400780032e0b70044e02f0082
:1038f000040f78001e0278001402ba000442780017
:10390000040078001ce8b700f407200004427800a7
:103910000400780032e0b70064e02f00040f780064
:103920001e0278001402ba000442780004007800f5
:103930001de8b700f4072000044278000400780076
:1039400032e0b70084e02f00040f78001e027800f8
:103950001402ba0004427800040078001ee8b700a0
:10396000f4072000044278000400780032e0b70039
:10397000a4e02f00040f78001e0278001402ba00a1
:1039800004427800040078001fe8b7000080fa00c5
:10399000000006000200fa000000000001003700ed
:1039a00000000000053b8000040028000482620043
:1039b000e00f5200faff3a0044002400043b880064
:1039c000f4072000044278000002fd0032e0b70056
:1039d0000002fd0004e02f00040f7800a481200005
:1039e000144278008402fb001e027800050abb0026
:1039f0000500fc0054052000343b8800a40a200088
:103a0000343b880061e7a8000000000000000000cf
:103a1000000000000100370000000000053b8000ae
:103a20000400280004826200e00f5200faff3a000e
:103a300044002400043b8800f4072000044278007e
:103a40000002fd0032e0b7000002fd0024e02f007c
:103a5000040f7800b4812000144278008402fb0037
:103a60001e027800050abb000500fc00540520007a
:103a7000343b8800a40a2000343b880061e7a8009a
:103a800000000000000000000000000001003700fe
:103a900000000000053b8000040028000482620052
:103aa000e00f5200faff3a0044002400043b880073
:103ab000f4072000044278000002fd0032e0b70065
:103ac0000002fd0044e02f00040f7800c4812000b4
:103ad000144278008402fb001e027800050abb0035
:103ae0000500fc0054052000343b8800a40a200097
:103af000343b880061e7a8000000000000000000df
:103b0000000000000100370000000000053b8000bd
:103b10000400280004826200e00f5200faff3a001d
:103b200044002400043b8800f4072000044278008d
:103b30000002fd0032e0b7000002fd0064e02f004b
:103b4000040f7800d4812000144278008402fb0026
:103b50001e027800050abb000500fc005405200089
:103b6000343b8800a40a2000343b880061e7a800a9
:103b7000000000000000000000000000010037000d
:103b800000000000053b8000040028000482620061
:103b9000e00f5200faff3a0044002400043b880082
:103ba000f4072000044278000002fd0032e0b70074
:103bb0000002fd0084e02f00040f7800e481200063
:103bc000144278008402fb001e027800050abb0044
:103bd0000500fc0054052000343b8800a40a2000a6
:103be000343b880061e7a8000000000000000000ee
:103bf000000000000100370000000000053b8000cd
:103c00000400280004826200e00f5200faff3a002c
:103c100044002400043b8800f4072000044278009c
:103c20000400780032e0b700a4e02f00040f780011
:103c3000f4812000144278008402fb001e02780008
:103c4000050abb000500fc0054052000343b880039
:103c5000a40a2000343b880061e7a80000000000af
:103c6000000000000080fa00000006000200fa00d8
:103c7000000000000100370000000000053b80004c
:103c80000400280004826200e00f5200faff3a00ac
:103c9000f4072000044278000400780032e0b70006
:103ca000c4e02f00040f78001e0278001402ba004e
:103cb00005002000945c8800a55c88000080fa0064
:103cc000000006000200fa000000000001003700ba
:103cd00000000000053b8000040028000482620010
:103ce000e00f5200faff3a0044002400043b880031
:103cf000f4072000044278000400780032e0b700a6
:103d0000c4e02f00040f7800945c8000a55c800064
:103d1000840278001e027800050abb000500fc0042
:103d200054052000343b8800a40a2000343b88005e
:103d300061e7a80000000000000000000080fa0019
:103d4000000006000400fa00000000000100370037
:103d500000000000053b800004002800048262008f
:103d6000e00f5200faff3a00f40720000442780006
:103d70000002fd0032e0b7000002fd00e4e02f0089
:103d8000040f78001e0278001402ba00140798008d
:103d90001e029000e00f52000700320014c0b30072
:103da0000002fd0023e8b7000002fd001e029000a3
:103db00024418800050037000042eb000400780031
:103dc00023e8b7000002eb00244188000080fa00dd
:103dd000000006000200fa000000000001003700a9
:103de00000000000053b80000400280004826200ff
:103df000e00f5200faff3a0044002400043b880020
:103e0000f4072000044278000400780032e0b70094
:103e1000e4e02f00040f7800244180008402780041
:103e20001e027800050abb000500fc0054052000b6
:103e3000343b8800a40a2000343b880061e7a800d6
:103e400000000000000000000080fa0000000600f2
:103e50000400fa000000000001003700000000002c
:103e6000053b80000400280004826200e00f52003d
:103e7000faff3a00f40720000442780004007800ba
:103e800032e0b70004e12f00040f78001e02780032
:103e90001402ba00140798009e0290004406200005
:103ea000110009008482d8000102780004427800e1
:103eb0000400780004e8b7009e0290004406200049
:103ec000110009008482d8000002780004427800c2
:103ed0000400780003e8b7000080fa000000060044
:103ee0000400fa000000000001003700000000009c
:103ef000053b80000400280004826200e00f5200ad
:103f0000faff3a0044002400043b8800448020006b
:103f1000144278000483fb003480200014427800af
:103f20008482fb004406200004aab9000402780041
:103f300004024300040f7800f407200004427800d4
:103f40000400780032e0b70004e12f001407980065
:103f50001e0290001e0abb000500fc005405200054
:103f6000343b8800a40a2000343b880061e7a800a5
:103f700000000000000000000080fa0000000600c1
:103f80000200fa00000000000100370000000000fd
:103f9000053b80000400280004826200e00f52000c
:103fa000faff3a00f4072000044278000002fd0006
:103fb00032e0b7000002fd0024e12f00040f78007a
:103fc0001e0278001402ba00044278000002fd00cc
:103fd00026e8b7000002fd00f40720000442780044
:103fe0000002fd0032e0b7000002fd0044e12f00b6
:103ff000040f78001e0278001402ba000442780010
:104000000002fd0027e8b7000002fd00f4072000d1
:10401000044278000002fd0032e0b7000002fd001b
:1040200064e12f00040f78001e0278001402ba0029
:10403000044278000002fd0028e8b7000002fd00fd
:104040007482200014427800e04f520005003200d4
:1040500014c0b3000002fd0029e8b7000002fd0013
:10406000040037000042eb000002fd0029e8b70021
:104070000002fd008482200014427800e04f5200cc
:104080000500320014c0b3000002fd002ae8b700aa
:104090000002fd00030037000042eb00040078003e
:1040a0002ae8b7000080fa00000006000200fa00cb
:1040b000000000000100370000000000053b800008
:1040c0000400280004826200e00f5200faff3a0068
:1040d00044002400043b8800f407200004427800d8
:1040e0000002fd0032e0b7000002fd0024e12f00d5
:1040f000040f780064822000144278008402fb00e0
:104100001e027800050abb000500fc0054052000d3
:10411000343b8800a40a2000343b880061e7a800f3
:104120000000000000000000000000000100370057
:1041300000000000053b80000400280004826200ab
:10414000e00f5200faff3a0044002400043b8800cc
:10415000f4072000044278000002fd0032e0b700be
:104160000002fd0044e12f00040f7800748220005b
:10417000144278008402fb001e027800050abb008e
:104180000500fc0054052000343b8800a40a2000f0
:10419000343b880061e7a800000000000000000038
:1041a000000000000100370000000000053b800017
:1041b0000400280004826200e00f5200faff3a0077
:1041c00044002400043b8800f407200004427800e7
:1041d0000400780032e0b70064e12f00040f78009b
:1041e00084822000144278008402fb001e027800c2
:1041f000050abb000500fc0054052000343b880084
:10420000a40a2000343b880061e7a80000000000f9
:10421000000000000080fa00000006000a00fa001a
:10422000000000000100370000000000053b800096
:104230000400280004826200e00f5200faff3a00f6
:10424000f4072000044278000400780032e0b70050
:1042500084e12f00040f78001e0278001402ba00d7
:1042600014079800f4072000044278000400780046
:1042700032e0b700a4e12f00040f78001e0278009e
:104280001402ba0024079800f407200004427800c2
:104290000400780032e0b700c4e12f00040f78007a
:1042a0001e0278001402ba0034079800f4072000b8
:1042b000044278000400780032e0b700e4e12f0007
:1042c000040f78001e0278001402ba004407980018
:1042d0001e02900005002000c023dd000600200023
:1042e0002e029000050020000602420087824a004c
:1042f00084408800954088003e0290000500200020
:10430000c023dd00060020004e02900005002000c2
:104310000602420087824a00a4408800b540880017
:104320000080fa00000006000a00fa0084408000c5
:1043300095408000402ade00040f78008440800011
:104340009540800014079800a4408000b54080008c
:10435000402ade0024079800a4408000b540800079
:104360003407980000000000010037000000000042
:10437000053b80000400280004826200e00f520028
:10438000faff3a0044002400043b8800f4072000b0
:10439000044278000002fd0032e0b7000002fd0098
:1043a00084e12f00440798004e0290001e0abb00d3
:1043b0000500fc0054052000343b8800a40a2000be
:1043c000343b880061e7a800000000000000000006
:1043d000000000000100370000000000053b8000e5
:1043e0000400280004826200e00f5200faff3a0045
:1043f00044002400043b8800f407200004427800b5
:104400000002fd0032e0b7000002fd00a4e12f0031
:10441000440798004e0290009e029000050abb00df
:104420000500fc0054052000343b8800a40a20004d
:10443000343b880061e7a800000000000000000095
:10444000000000000100370000000000053b800074
:104450000400280004826200e00f5200faff3a00d4
:1044600044002400043b8800f40720000442780044
:104470000002fd0032e0b7000002fd00c4e12f00a1
:10448000440798004e029000ae029000050abb005f
:104490000500fc0054052000343b8800a40a2000dd
:1044a000343b880061e7a800000000000000000025
:1044b000000000000100370000000000053b800004
:1044c0000400280004826200e00f5200faff3a0064
:1044d00044002400043b8800f407200004427800d4
:1044e0000400780032e0b700e4e12f0044079800b0
:1044f0004e029000be029000050abb000500fc00c1
:1045000054052000343b8800a40a2000343b880076
:1045100061e7a80000000000000000000080fa0031
:10452000000006000800fa0000000000010037004b
:1045300000000000053b80000400280004826200a7
:10454000e00f5200faff3a00ee0307000042780045
:10455000444798004e4290000482fb00cfa2de0048
:104560008600200007002000860f5200878f5a0027
:10457000ac003e0004600100080037000c0037006a
:104580001f00370032003700450037005800370061
:104590006b0037007e003700910037000002eb000f
:1045a000140798001e029000040f78009d00370049
:1045b000f4072000044278000002fd0032e0b7005a
:1045c0000002fd0004e22f00340798003e02900034
:1045d000140fba00f4072000044278000002fd0026
:1045e00032e0b7000002fd0024e22f0034079800fb
:1045f0003e0290001402ba001407980089003700a8
:10460000f4072000044278000002fd0032e0b70009
:104610000002fd0044e22f00340798003e029000a3
:10462000140fba00f4072000044278000002fd00d5
:1046300032e0b7000002fd0064e22f00340798006a
:104640003e0290001402ba0014079800750037006b
:10465000f4072000044278000002fd0032e0b700b9
:104660000002fd0084e22f00340798003e02900013
:10467000140fba00f4072000044278000002fd0085
:1046800032e0b7000002fd00a4e22f0034079800da
:104690003e0290001402ba0014079800610037002f
:1046a000f4072000044278000002fd0032e0b70069
:1046b0000002fd00c4e22f00340798003e02900083
:1046c000140fba00f4072000044278000002fd0035
:1046d00032e0b7000002fd00e4e22f00340798004a
:1046e0003e0290001402ba00140798004d003700f3
:1046f000f4072000044278000002fd0032e0b70019
:104700000002fd0004e32f00340798003e029000f1
:10471000140fba00f4072000044278000002fd00e4
:1047200032e0b7000002fd0024e32f0034079800b8
:104730003e0290001402ba001407980039003700b6
:10474000f4072000044278000002fd0032e0b700c8
:104750000002fd0044e32f00340798003e02900061
:10476000140fba00f4072000044278000002fd0094
:1047700032e0b7000002fd0064e32f003407980028
:104780003e0290001402ba0014079800250037007a
:10479000f4072000044278000002fd0032e0b70078
:1047a0000002fd0084e32f00340798003e029000d1
:1047b000140fba00f4072000044278000002fd0044
:1047c00032e0b7000002fd00a4e32f003407980098
:1047d0003e0290001402ba0014079800110037003e
:1047e000f4072000044278000400780032e0b700ab
:1047f000c4e32f00340798003e029000140fba0063
:10480000f4072000044278000400780032e0b7008a
:10481000e4e32f00340798003e0290001402ba002f
:10482000140798001e02780005002000c023dd0058
:10483000060020001e029000050020000602420033
:1048400087824a00a4418800b54188000080fa00b0
:10485000000006000800fa00a4418000b541800075
:10486000402ade00040f7800a4418000b54180009a
:1048700014079800aa0307000042780044479800f4
:104880004e4290000482fb006123b9000082eb00dd
:104890008082eb000602420087824a0076002000f8
:1048a00007002000860f5200878f5a00a7023e00a3
:1048b00004600100070037005a003700ad003700e0
:1048c0000001370053013700a6013700f901370016
:1048d0004c0237000000000001003700000000001b
:1048e000053b80000400280004826200e00f5200b3
:1048f000faff3a0044002400043b8800f40720003b
:10490000044278000002fd0032e0b7000002fd0022
:1049100004e22f00340798003e0290001e0abb00fc
:104920000500fc0054052000343b8800a40a200048
:10493000343b880061e7a800000000000000000090
:10494000000000000100370000000000053b80006f
:104950000400280004826200e00f5200faff3a00cf
:1049600044002400043b8800f4072000044278003f
:104970000002fd0032e0b7000002fd0024e22f003b
:10498000340798003e0290009e029000050abb008a
:104990000500fc0054052000343b8800a40a2000d8
:1049a000343b880061e7a800000000000000000020
:1049b000000000000100370000000000053b8000ff
:1049c0000400280004826200e00f5200faff3a005f
:1049d00044002400043b8800f407200004427800cf
:1049e0000002fd0032e0b7000002fd0044e22f00ab
:1049f000340798003e0290008082eb00050abb005d
:104a00000500fc0054052000343b8800a40a200067
:104a1000343b880061e7a8000000000000000000af
:104a20004a023700000000000100370000000000cb
:104a3000053b80000400280004826200e00f520061
:104a4000faff3a0044002400043b8800f4072000e9
:104a5000044278000002fd0032e0b7000002fd00d1
:104a600044e22f00340798003e0290001e0abb006b
:104a70000500fc0054052000343b8800a40a2000f7
:104a8000343b880061e7a80000000000000000003f
:104a9000000000000100370000000000053b80001e
:104aa0000400280004826200e00f5200faff3a007e
:104ab00044002400043b8800f407200004427800ee
:104ac0000002fd0032e0b7000002fd0064e22f00aa
:104ad000340798003e0290009e029000050abb0039
:104ae0000500fc0054052000343b8800a40a200087
:104af000343b880061e7a8000000000000000000cf
:104b0000000000000100370000000000053b8000ad
:104b10000400280004826200e00f5200faff3a000d
:104b200044002400043b8800f4072000044278007d
:104b30000002fd0032e0b7000002fd0084e22f0019
:104b4000340798003e0290008082eb00050abb000b
:104b50000500fc0054052000343b8800a40a200016
:104b6000343b880061e7a80000000000000000005e
:104b7000f6013700000000000100370000000000cf
:104b8000053b80000400280004826200e00f520010
:104b9000faff3a0044002400043b8800f407200098
:104ba000044278000002fd0032e0b7000002fd0080
:104bb00084e22f00340798003e0290001e0abb00da
:104bc0000500fc0054052000343b8800a40a2000a6
:104bd000343b880061e7a8000000000000000000ee
:104be000000000000100370000000000053b8000cd
:104bf0000400280004826200e00f5200faff3a002d
:104c000044002400043b8800f4072000044278009c
:104c10000002fd0032e0b7000002fd00a4e22f0018
:104c2000340798003e0290009e029000050abb00e7
:104c30000500fc0054052000343b8800a40a200035
:104c4000343b880061e7a80000000000000000007d
:104c5000000000000100370000000000053b80005c
:104c60000400280004826200e00f5200faff3a00bc
:104c700044002400043b8800f4072000044278002c
:104c80000002fd0032e0b7000002fd00c4e22f0088
:104c9000340798003e0290008082eb00050abb00ba
:104ca0000500fc0054052000343b8800a40a2000c5
:104cb000343b880061e7a80000000000000000000d
:104cc000a2013700000000000100370000000000d2
:104cd000053b80000400280004826200e00f5200bf
:104ce000faff3a0044002400043b8800f407200047
:104cf000044278000002fd0032e0b7000002fd002f
:104d0000c4e22f00340798003e0290001e0abb0048
:104d10000500fc0054052000343b8800a40a200054
:104d2000343b880061e7a80000000000000000009c
:104d3000000000000100370000000000053b80007b
:104d40000400280004826200e00f5200faff3a00db
:104d500044002400043b8800f4072000044278004b
:104d60000002fd0032e0b7000002fd00e4e22f0087
:104d7000340798003e0290009e029000050abb0096
:104d80000500fc0054052000343b8800a40a2000e4
:104d9000343b880061e7a80000000000000000002c
:104da000000000000100370000000000053b80000b
:104db0000400280004826200e00f5200faff3a006b
:104dc00044002400043b8800f407200004427800db
:104dd0000002fd0032e0b7000002fd0004e32f00f6
:104de000340798003e0290008082eb00050abb0069
:104df0000500fc0054052000343b8800a40a200074
:104e0000343b880061e7a8000000000000000000bb
:104e10004e013700000000000100370000000000d4
:104e2000053b80000400280004826200e00f52006d
:104e3000faff3a0044002400043b8800f4072000f5
:104e4000044278000002fd0032e0b7000002fd00dd
:104e500004e32f00340798003e0290001e0abb00b6
:104e60000500fc0054052000343b8800a40a200003
:104e7000343b880061e7a80000000000000000004b
:104e8000000000000100370000000000053b80002a
:104e90000400280004826200e00f5200faff3a008a
:104ea00044002400043b8800f407200004427800fa
:104eb0000002fd0032e0b7000002fd0024e32f00f5
:104ec000340798003e0290009e029000050abb0045
:104ed0000500fc0054052000343b8800a40a200093
:104ee000343b880061e7a8000000000000000000db
:104ef000000000000100370000000000053b8000ba
:104f00000400280004826200e00f5200faff3a0019
:104f100044002400043b8800f40720000442780089
:104f20000002fd0032e0b7000002fd0044e32f0064
:104f3000340798003e0290008082eb00050abb0017
:104f40000500fc0054052000343b8800a40a200022
:104f5000343b880061e7a80000000000000000006a
:104f6000fa003700000000000100370000000000d8
:104f7000053b80000400280004826200e00f52001c
:104f8000faff3a0044002400043b8800f4072000a4
:104f9000044278000002fd0032e0b7000002fd008c
:104fa00044e32f00340798003e0290001e0abb0025
:104fb0000500fc0054052000343b8800a40a2000b2
:104fc000343b880061e7a8000000000000000000fa
:104fd000000000000100370000000000053b8000d9
:104fe0000400280004826200e00f5200faff3a0039
:104ff00044002400043b8800f407200004427800a9
:105000000002fd0032e0b7000002fd0064e32f0063
:10501000340798003e0290009e029000050abb00f3
:105020000500fc0054052000343b8800a40a200041
:10503000343b880061e7a800000000000000000089
:10504000000000000100370000000000053b800068
:105050000400280004826200e00f5200faff3a00c8
:1050600044002400043b8800f40720000442780038
:105070000002fd0032e0b7000002fd0084e32f00d3
:10508000340798003e0290008082eb00050abb00c6
:105090000500fc0054052000343b8800a40a2000d1
:1050a000343b880061e7a800000000000000000019
:1050b000a6003700000000000100370000000000db
:1050c000053b80000400280004826200e00f5200cb
:1050d000faff3a0044002400043b8800f407200053
:1050e000044278000002fd0032e0b7000002fd003b
:1050f00084e32f00340798003e0290001e0abb0094
:105100000500fc0054052000343b8800a40a200060
:10511000343b880061e7a8000000000000000000a8
:10512000000000000100370000000000053b800087
:105130000400280004826200e00f5200faff3a00e7
:1051400044002400043b8800f40720000442780057
:105150000002fd0032e0b7000002fd00a4e32f00d2
:10516000340798003e0290009e029000050abb00a2
:105170000500fc0054052000343b8800a40a2000f0
:10518000343b880061e7a800000000000000000038
:10519000000000000100370000000000053b800017
:1051a0000400280004826200e00f5200faff3a0077
:1051b00044002400043b8800f407200004427800e7
:1051c0000002fd0032e0b7000002fd00c4e32f0042
:1051d000340798003e0290008082eb00050abb0075
:1051e0000500fc0054052000343b8800a40a200080
:1051f000343b880061e7a8000000000000000000c8
:1052000052003700000000000100370000000000dd
:10521000053b80000400280004826200e00f520079
:10522000faff3a0044002400043b8800f407200001
:10523000044278000002fd0032e0b7000002fd00e9
:10524000c4e32f00340798003e0290001e0abb0002
:105250000500fc0054052000343b8800a40a20000f
:10526000343b880061e7a800000000000000000057
:10527000000000000100370000000000053b800036
:105280000400280004826200e00f5200faff3a0096
:1052900044002400043b8800f40720000442780006
:1052a0000002fd0032e0b7000002fd00e4e32f0041
:1052b000340798003e0290009e029000050abb0051
:1052c0000500fc0054052000343b8800a40a20009f
:1052d000343b880061e7a8000000000000000000e7
:1052e000000000000100370000000000053b8000c6
:1052f0000400280004826200e00f5200faff3a0026
:1053000044002400043b8800f40720000442780095
:105310000400780032e0b70004e22f003407980060
:105320003e0290008082eb00050abb000500fc00f5
:1053300054052000343b8800a40a2000343b880038
:1053400061e7a80000000000000000000080fa00f3
:10535000000006000200fa00000000000100370013
:1053600000000000053b8000040028000482620069
:10537000e00f5200faff3a00f407200004427800e0
:105380000400780032e0b70004e42f00040f780036
:105390001e0278001402ba0004427800040078006b
:1053a0000ee8b7000080fa00000006000200fa00d4
:1053b000000000000100370000000000053b8000f5
:1053c0000400280004826200e00f5200faff3a0055
:1053d00044002400043b8800f407200004427800c5
:1053e0000400780032e0b70004e42f00040f7800d6
:1053f000e4802000144278008402fb001e02780042
:10540000050abb000500fc0054052000343b880061
:10541000a40a2000343b880061e7a80000000000d7
:10542000000000000080fa00000006000200fa0000
:10543000000000000100370000000000053b800074
:105440000400280004826200e00f5200faff3a00d4
:10545000f4072000044278000400780032e0b7002e
:1054600024e42f00040f78001e0278001402ba0012
:1054700004427800040078000fe8b7000080fa00ca
:10548000000006000200fa000000000001003700e2
:1054900000000000053b8000040028000482620038
:1054a000e00f5200faff3a0044002400043b880059
:1054b000f4072000044278000400780032e0b700ce
:1054c00024e42f00040f7800f480200014427800b8
:1054d0008402fb001e027800050abb000500fc00e8
:1054e00054052000343b8800a40a2000343b880087
:1054f00061e7a80000000000000000000080fa0042
:10550000000006001400fa00f407200004427800ae
:105510000002fd0032e0b7000002fd0004e22f00af
:10552000140798001e0290001402ba002407980085
:105530002e029000e10f420003003a0084c0b30045
:10554000044f780072003700f4072000044278000e
:105550000002fd0032e0b7000002fd0044e22f002f
:10556000340798003e0290001402ba002407980005
:105570002e029000e10f420003003a0014c0b30075
:10558000044f780062003700f407200004427800de
:105590000002fd0032e0b7000002fd0084e22f00af
:1055a000440798004e0290001402ba0024079800a5
:1055b0002e029000e10f420003003a0024c0b30025
:1055c000044f780052003700f407200004427800ae
:1055d0000002fd0032e0b7000002fd00c4e22f002f
:1055e000540798005e0290001402ba002407980045
:1055f0002e029000e10f420003003a0034c0b300d5
:10560000044f780042003700f4072000044278007d
:105610000002fd0032e0b7000002fd0004e32f00ad
:10562000640798006e0290001402ba0024079800e4
:105630002e029000e10f420003003a0044c0b30084
:10564000044f780032003700f4072000044278004d
:105650000002fd0032e0b7000002fd0044e32f002d
:10566000740798007e0290001402ba002407980084
:105670002e029000e10f420003003a0054c0b30034
:10568000044f780022003700f4072000044278001d
:105690000002fd0032e0b7000002fd0084e32f00ad
:1056a000040f98000e0a90001402ba002407980014
:1056b0002e029000e10f420003003a0064c0b300e4
:1056c000044f780012003700f407200004427800ed
:1056d0000002fd0032e0b7000002fd00c4e32f002d
:1056e000140f98001e0a90001402ba0024079800b4
:1056f0002e029000e10f420003003a0074c0b30094
:10570000044f7800020037000042eb00044f78009d
:105710001e427800044078000080fa000000060075
:105720000200fa0077ff070000427800044f78007b
:105730009e42780067c26200044fe8001e42780073
:10574000044078000080fa00000006000000fa0023
:1057500055802000e4b62000d3b62000228220002d
:105760001182200000822000020007000080fa0061
:10577000000006001200fa00300798004107980068
:10578000520798006307980074079800050f980067
:105790000040eb00be000700d10007000042780087
:1057a000844278000574a100054f7800cc00070002
:1057b000004278000474a10014479800c800070054
:1057c00000427800f443b20024479800c400070068
:1057d000c300070000427800f443b2003447980049
:1057e000bf000700004278007f42620044479800f3
:1057f000bb00070000427800544798007d01070075
:105800005e409000d401070000427800be02900084
:10581000844a78004e409000cf0107000042780093
:10582000ce029000844a78003e409000ca010700f2
:1058300000427800de029000844a78002e409000fa
:10584000c501070000427800ee029000844a78000b
:105850001e409000c001070000427800fe02900048
:10586000844a78001e407800bb010700004278009f
:105870008e0a9000844a78000080fa00000006003a
:105880000c00fa006047980071479800024f98009a
:10589000134f9800244f9800354f98003e4a9000cf
:1058a00004407800c10107000042780014479800c6
:1058b0002e4a900004407800bc01070000427800a6
:1058c000244798001e4a900004407800b701070062
:1058d00000427800f443b200344798000e4a90002a
:1058e00004407800b1010700004278004447980066
:1058f0007e42900004407800ac010700004278002e
:10590000044f78006e42900004407800a701070021
:1059100000427800544798006e4290006342620053
:10592000e04f5200030032001e4278007f4f6200b9
:105930000200370004c2b3001e4f720024010700aa
:10594000e0cdb3005a0107000040eb00580107000a
:105950000040eb0056010700140107002501070075
:105960001b010700e0cdb3005101070010c0b300d8
:105970004f0107002e429000044078004c010700c0
:105980003e429000044078004901070080c0b30007
:10599000470107004e429000044078004401070090
:1059a0001e42780004407800410107005e429000ea
:1059b000044078003e010700fc0007000d010700cd
:1059c00003010700e0cdb300390107000040eb0000
:1059d000370107009e42900004c8b30004c2720061
:1059e0000440780032010700f000070001010700c1
:1059f0000080fa00000006000200fa000040eb0000
:105a00004a00070000427800844278000574a10033
:105a1000054f7800ee000700e0cdb3002401070039
:105a20000040eb00220107000040eb0020010700ce
:105a3000de000700ef000700e5000700e0cdb3003f
:105a40001b01070030c0b3001901070080c0b3007c
:105a500017010700d5000700e6000700dc0007007b
:105a6000e0cdb300120107000040eb001001070079
:105a700004c8b3001e427200044078000c01070005
:105a8000ca000700db0007000080fa0000000600e3
:105a90000200fa00004f7800cd000700e0cdb3000f
:105aa000030107001e42780004407800000107004f
:105ab000be000700d8000700f0cdb300fc000700cf
