:020000040000fa
:080000000002040000000000f2
:020000040000fa
:04000800860300006b
:020000040000fa
:04000c008603000067
:020000040000fa
:040010008603000063
:020000040000fa
:04001400860300005f
:020000040000fa
:04001800860300005b
:020000040000fa
:04001c008603000057
:020000040000fa
:040020008603000053
:020000040000fa
:04002400860300004f
:020000040000fa
:04002800860300004b
:020000040000fa
:04002c008603000047
:020000040000fa
:040030008603000043
:020000040000fa
:04003400c8020000fe
:020000040000fa
:04003800860300003b
:020000040000fa
:04003c008603000037
:020000040000fa
:040040008603000033
:020000040000fa
:04004400860300002f
:020000040000fa
:04004800860300002b
:020000040000fa
:04004c008603000027
:020000040000fa
:04005000f8020000b2
:020000040000fa
:040054002c03000079
:020000040000fa
:04005800860300001b
:020000040000fa
:04005c008603000017
:020000040000fa
:040060008603000013
:020000040000fa
:04006400860300000f
:020000040000fa
:04006800860300000b
:020000040000fa
:04006c008603000007
:020000040000fa
:040070008603000003
:020000040000fa
:0400740086030000ff
:020000040000fa
:0400780086030000fb
:020000040000fa
:04007c0086030000f7
:020000040000fa
:0400800086030000f3
:020000040000fa
:0400840086030000ef
:020000040000fa
:0400880086030000eb
:020000040000fa
:04008c0086030000e7
:020000040000fa
:0400900086030000e3
:020000040000fa
:0400940086030000df
:020000040000fa
:0400980086030000db
:020000040000fa
:04009c0086030000d7
:020000040000fa
:0400a00086030000d3
:020000040000fa
:0400a40086030000cf
:020000040000fa
:0400a80086030000cb
:020000040000fa
:0400ac0086030000c7
:020000040000fa
:0400b00086030000c3
:020000040000fa
:0400b40086030000bf
:020000040000fa
:0400b80086030000bb
:020000040000fa
:0400bc0086030000b7
:020000040000fa
:0400c00086030000b3
:020000040000fa
:0400c40086030000af
:020000040000fa
:0400c80086030000ab
:020000040000fa
:0400cc0086030000a7
:020000040000fa
:0400d00086030000a3
:020000040000fa
:0400d400860300009f
:020000040000fa
:0400d800860300009b
:020000040000fa
:0400dc008603000097
:020000040000fa
:0400e0008603000093
:020000040000fa
:0400e400860300008f
:020000040000fa
:0400e800860300008b
:020000040000fa
:0400ec008603000087
:020000040000fa
:0400f0008603000083
:020000040000fa
:0400f400860300007f
:020000040000fa
:0400f800860300007b
:020000040000fa
:0400fc008603000077
:020000040000fa
:040100008603000072
:020000040000fa
:04010400860300006e
:020000040000fa
:04010800860300006a
:020000040000fa
:04010c008603000066
:020000040000fa
:040110008603000062
:020000040000fa
:04011400860300005e
:020000040000fa
:04011800860300005a
:020000040000fa
:04011c008603000056
:020000040000fa
:040120008603000052
:020000040000fa
:04012400860300004e
:020000040000fa
:04012800860300004a
:020000040000fa
:04012c007403000058
:020000040000fa
:040130006203000066
:020000040000fa
:04013400860300003e
:020000040000fa
:04013800860300003a
:020000040000fa
:04013c008603000036
:020000040000fa
:040140008603000032
:020000040000fa
:04014400860300002e
:020000040000fa
:04014800860300002a
:020000040000fa
:04014c008603000026
:020000040000fa
:040150008603000022
:020000040000fa
:04015400860300001e
:020000040000fa
:04015800860300001a
:020000040000fa
:04015c008603000016
:020000040000fa
:040160008603000012
:020000040000fa
:04016400860300000e
:020000040000fa
:04016800860300000a
:020000040000fa
:040208008603000069
:020000040000fa
:04020c008603000065
:020000040000fa
:040210008603000061
:020000040000fa
:04021400860300005d
:020000040000fa
:040218008603000059
:020000040000fa
:04021c008603000055
:020000040000fa
:040220008603000051
:020000040000fa
:04022400860300004d
:020000040000fa
:040228008603000049
:020000040000fa
:04022c008603000045
:020000040000fa
:040230008603000041
:020000040000fa
:04023400c8020000fc
:020000040000fa
:040238008603000039
:020000040000fa
:04023c008603000035
:020000040000fa
:040240008603000031
:020000040000fa
:04024400860300002d
:020000040000fa
:040248008603000029
:020000040000fa
:04024c008603000025
:020000040000fa
:04025000f8020000b0
:020000040000fa
:040254002c03000077
:020000040000fa
:040258008603000019
:020000040000fa
:04025c008603000015
:020000040000fa
:040260008603000011
:020000040000fa
:04026400860300000d
:020000040000fa
:040268008603000009
:020000040000fa
:04026c008603000005
:020000040000fa
:040270008603000001
:020000040000fa
:0402740086030000fd
:020000040000fa
:0402780086030000f9
:020000040000fa
:04027c0086030000f5
:020000040000fa
:0402800086030000f1
:020000040000fa
:0402840086030000ed
:020000040000fa
:0402880086030000e9
:020000040000fa
:04028c0086030000e5
:020000040000fa
:0402900086030000e1
:020000040000fa
:0402940086030000dd
:020000040000fa
:0402980086030000d9
:020000040000fa
:04029c0086030000d5
:020000040000fa
:0402a00086030000d1
:020000040000fa
:0402a40086030000cd
:020000040000fa
:0402a80086030000c9
:020000040000fa
:0402ac0086030000c5
:020000040000fa
:0402b00086030000c1
:020000040000fa
:0402b40086030000bd
:020000040000fa
:0402b80086030000b9
:020000040000fa
:0402bc0086030000b5
:020000040000fa
:0402c00086030000b1
:020000040000fa
:0402c40086030000ad
:020000040000fa
:0402c80086030000a9
:020000040000fa
:0402cc0086030000a5
:020000040000fa
:0402d00086030000a1
:020000040000fa
:0402d400860300009d
:020000040000fa
:0402d8008603000099
:020000040000fa
:0402dc008603000095
:020000040000fa
:0402e0008603000091
:020000040000fa
:0402e400860300008d
:020000040000fa
:0402e8008603000089
:020000040000fa
:0402ec008603000085
:020000040000fa
:0402f0008603000081
:020000040000fa
:0402f400860300007d
:020000040000fa
:0402f8008603000079
:020000040000fa
:0402fc008603000075
:020000040000fa
:040300008603000070
:020000040000fa
:04030400860300006c
:020000040000fa
:040308008603000068
:020000040000fa
:04030c008603000064
:020000040000fa
:040310008603000060
:020000040000fa
:04031400860300005c
:020000040000fa
:040318008603000058
:020000040000fa
:04031c008603000054
:020000040000fa
:040320008603000050
:020000040000fa
:04032400860300004c
:020000040000fa
:040328008603000048
:020000040000fa
:04032c007403000056
:020000040000fa
:040330006203000064
:020000040000fa
:04033400860300003c
:020000040000fa
:040338008603000038
:020000040000fa
:04033c008603000034
:020000040000fa
:040340008603000030
:020000040000fa
:04034400860300002c
:020000040000fa
:040348008603000028
:020000040000fa
:04034c008603000024
:020000040000fa
:040350008603000020
:020000040000fa
:04035400860300001c
:020000040000fa
:040358008603000018
:020000040000fa
:04035c008603000014
:020000040000fa
:040360008603000010
:020000040000fa
:04036400860300000c
:020000040000fa
:040368008603000008
:020000040000fa
:100400004f9c20000eff20000e018800000000001d
:10041000000020000000e000020032000001200087
:100420002002880014000700ba0007000000e00066
:1004300003003a0000c02300010020000200370042
:100440000000200001002000810f70000100320038
:1004500014000700000020000000e000020032004d
:100460000000020000000000f83002000000000060
:100470000040da000000fe004440a900000820000f
:100480000000e0000300320000002000a00188000e
:100490004440a800000006008a1f78008b1f7800e7
:1004a0000000060091018800800478000000eb0045
:1004b0001a003700e284440032a0b4009905ba0063
:1004c000e284440032a0b4009906ba00e2844400f9
:1004d00032a0b4000006eb00476fde00fd07b2005b
:1004e000636ce10003003a00ebff07000000eb0043
:1004f0000a003700606ce10004003a00005deb0088
:100500008b05e900fdff3e00040037006168e10053
:10051000010032000086eb000b00070019c7ba008b
:100520001905ba000e04e00003003a000a00e000da
:10053000e0ff3a0000000600fe07b2009e018800be
:100540008a047800f5ff3700395dba008b05e900b1
:100550000c003200295dba008b05e900080032006a
:100560000c00e00003003a00e284440032a0b40032
:10057000f5ff370019ddba008b05e900faff3a00f4
:100580008904e800e184440032a0b40000000600c1
:10059000809fbe00829fbe000000fa000021ef0095
:1005a0008460a900104a8000214a80006100400058
:1005b000e0804800104a8800214a8800124a8000e2
:1005c000234a8000f07f2200b1e62e00800f510008
:1005d000818f5900020036004229ef004429ef00c4
:1005e0000080fa004f01be004f00be000040060030
:1005f000809fbe00821f78000200fa008540a9009b
:1006000040c2a90040128000004f78001e407800d0
:100610000004e0000c003200624080009e40780040
:100620000080200000004100014878006040800008
:100630000000e8006040880060408000e90f500042
:10064000010034000c28ef000080fa004f01780010
:100650004f00be0000400600809fbe00821f780051
:100660000200fa0010c0b300004f78008560a900b6
:1006700030118000004f78001e4078000004e00038
:100680000c003200d24080009e407800e0802000c4
:100690000000410001487800d04080000000e800e0
:1006a000d0408800d0408000e90f500001003400a5
:1006b0001a28ef000080fa004f0178004f00be00ba
:1006c00000400600801f78000000fa0090118000b2
:1006d000901180003222a9008c40a9000080fa000d
:1006e0004f00780000400600801f78000000fa00ec
:1006f00010118000101180002222a9008c20a90076
:100700000080fa004f007800004006000040da0048
:100710000000fe00000005006022b8000602200074
:100720000000d0008180d2000482d2008582d200f5
:100730000000a0000202520083825a000300310030
:100740000202420083824a000000a1000603e90081
:10075000f3ff3a0000000600efff07000400be00b0
:1007600000000600889fbe008a9fbe003004420041
:10077000b0844a0030054b0090854b006000b1000a
:100780000898be000a90be000440e10005c8e100e0
:1007900006d0e10007d8e100020031006800400007
:1007a0001008e8004f05be004f04be000000060020
:1007b000889fbe008a9fbe003004be002005be0098
:1007c0000418540005985c0006185d0007985d0049
:1007d000110020000440e10005c8e10006d0e1005e
:1007e00007d8e100010039008000eb0010881000fc
:1007f0004f05be004f04be00000006001200fa00c4
:10080000889fbe008a9fbe008c9fbe00e0b79f00fd
:10081000f1b79f0082bf9f0093bf9f000605be00f7
:100820000404be000000eb00d0b79f00c0b79f00db
:10083000b0b79f00a0b79f0090b79f000006eb00e5
:100840005fb19700cfb09700820141003fb09700a1
:100850000200e00004003d00370007007e805700e2
:10086000c0ff070003003700330007007e805700f9
:10087000cfff0700dfb697000d00e0000c00350049
:100880006fb29700ffb297000fbb97009fbb970016
:1008900010002000010020006011b800000272006a
:1008a0008182720002037300838373001b000700c0
:1008b0000c06e80001042000810f5600e0ff3a001a
:1008c0000d00e00004003d000802be000a03be0067
:1008d0007e805700a3ff07005fa897000000e0009c
:1008e00005003a001fb29700afb297003fb39700e0
:1008f000cfb39700090007006fb09700ffb09700d3
:100900000fb997009fb997004f06be004f05be0074
:100910004f04be000080fa0000000600010007003e
:1009200000000600a4b79f00b5b79f00c6b79f00a0
:10093000d7b79f00000006004f09de0082817100da
:10094000b3b79f004f01de008180400082807000bd
:10095000a1b79f008fb097004f09de000000400054
:100960000200700090b79f007fa897004f01de0043
:10097000818040008280700081b79f000d000700d9
:100980004f3ade000000400004007000f0af9f000e
:10099000080007000402420085824a0006034b005b
:1009a00087834b00dfff07000802be000a03be007a
:1009b000000006002fb29700bfb297004fb3970018
:1009c000dfb3970000000600881f780018002000a1
:1009d000881f780089ff07008f87e9004f0478009f
:1009e00000000600801feb0084ff07008f87e900ee
:1009f00000000600889fbe008a9fbe00e00f5000e6
:100a0000e08f5800e00f5900e08f59000c003d00c6
:100a10006044b8006055b8000000540081805c005c
:100a200002015d0083815d001800200015000700b1
:100a300008003d00180007000004eb000500370027
:100a40000004eb000f00070002003d001200070049
:100a500018002000dcff07000800e000060032005c
:100a60006022b8006033b8000000520081805a0054
:100a700002015b0083815b004f05be004f04be0096
:100a800000000600e00f5200e08f5a00e00f5b000c
:100a9000e08f5b00000006006044b8006055b800bd
:100aa0000402540085825c0006035d0087835d00bc
:100ab00000000600889fbe008a9fbe008c1f780041
:100ac000e00f5000e08f5800e00f5900e08f590010
:100ad0000d003d006044b8006055b80000005400af
:100ae00081805c0002015d0083815d001c002000ac
:100af0000820e10009a8e1000ab0e1000bb8e1001c
:100b00000d003d00080037000006eb00e00f52002a
:100b1000e08f5a00e00f5b00e08f5b0006003d00b5
:100b20006044b8006055b8000402540085825c003f
:100b300006035d0087835d00aaff07000c00e0004c
:100b4000060032006022b8006033b8000000520096
:100b500081805a0002015b0083815b004f067800b0
:100b60004f05be004f04be0000000600889fbe0077
:100b70008a9fbe008c1f78000006eb00e00f50003b
:100b8000e08f5800e00f5900e08f590007003d004a
:100b90006044b8006055b8000000540081805c00db
:100ba00002015d0083815d001c002000e00f520007
:100bb000e08f5a00e00f5b00e08f5b0007003d0014
:100bc0006044b8006055b8000402540085825c009f
:100bd00006035d0087835d000c00a2000c00070087
:100be0000c00e000060032006022b8006033b8005c
:100bf0000000520081805a0002015b0083815b008b
:100c00004f0678004f05be004f04be0000000600ee
:100c1000889fbe008a9fbe008c9fbe000404b8005f
:100c20000506b8008904460060854e000606b80037
:100c30000a054600e0854e000706b8008b05460011
:100c4000040eb800890446000a854e00e0854d0078
:100c5000050eb8000a0546008b854e00060eb8004a
:100c60008b0546000416b8000a0546008b854e0029
:100c70000516b8008b054600041eb8008b0546001b
:100c80000800be000a01be004f06be004f05be00b0
:100c90004f04be00000006008000780001007800cc
:100ca0003041780003c2b300834f5100faff320095
:100cb000e94f5100f8ff3200edc14100834f510070
:100cc00003003a008000780013c0b300050037002d
:100cd0008041eb00b4c2b300844f510001003a00e0
:100ce000800078000000eb00020037006a02b900c3
:100cf000040041003101fb000203b100e90f510083
:100d0000faff36000304e000010032000000ea00b0
:100d100000000600889fbe008a1f780030447800db
:100d20008004780001c2b300814f5400fbff320001
:100d3000e94f5400f9ff3200d0c2b300804f540095
:100d400003003a00394478001ac0b30005003700a8
:100d50000045eb00b0c2b300804f540001003a00e0
:100d6000394478006000b8000a003700a200200073
:100d7000030020007000070002cdb30002414400d0
:100d80000281fb008001eb000200400083804800ec
:100d9000394478000881fb000203b100e90f5100db
:100da000f2ff36000a04e00002003200600010008a
:100db000e08018004f0578004f04be0000000600d8
:100dc0000003780081027800850178000100370077
:100dd00004037800110009008281d80080017800a6
:100de0000602e8000300e000f9ff3a00034a780039
:100df000110009008282d800000278008141780049
:100e000084027800e9cf510001003400e7c14100bd
:100e100001c3b30001d341000400e000f4ff3a0035
:100e20000600780000000600881f780000047800a3
:100e30000100e00005003d0008007800d3c2b300c7
:100e4000035878008100ea000100370008007800ac
:100e5000dbff0700080078004f0478000000060060
:100e6000889fbe008a9fbe008c9fbe0080057800d0
:100e70000204be00010578000200be000100370038
:100e8000820578006156b9000c01be0022fe070001
:100e90000b01e800e00f5000e08f5800f8ff3a0027
:100ea0000049eb000c01be000800be002afe07004e
:100eb000004578000c01be000800be0016fe0700c9
:100ec0000004be00e94f55000100340067454500ad
:100ed00000c3b30080554500e00f5400e08f5c0074
:100ee000f0ff3a000b0078004f06be004f05be0031
:100ef0004f04be0000000600881f78000004780040
:100f0000e00f5100e08f590006003d000800780016
:100f1000d4c2b3000458780060011100e0811900c8
:100f20000100370008007800cdff070008007800b6
:100f30004f04780000000600020ab900001bb90047
:100f40000200b8008100420081004300000006005a
:020000040000fa
:100f5000454e00004400000053650000740000008e
:100f6000546900006d650000004300006f6e0000d2
:100f700066000000456e0000416c0000004100006a
:100f80006c610000726d0000005000006173000091
:100f900073000000456d0000657200000052000003
:100fa00073740000546900006d0000005265000079
:100fb0006c6100007900000057610000747400004b
:100fc00073000000456e000055730000656400006a
:100fd000004c0000696700006874000073000000a6
:100fe000416c00006c41000064640000005000008f
:100ff0005356000065720000736900006f6e0000b8
:10100000005200006561000064000000537400009d
:101010006174000000430000427600006572000029
:10102000005000007772000046610000696c00000b
:1010300000500000777200004461000074610000fd
:10104000004f00006e0000004f66000066000000c8
:020000040000fa
:101050000200fa0010c0b300004f78003a09070000
:101060000e0907001e407800110007001e4078009e
:101070007d0007001e407800ac0007000080fa00e9
:10108000000006000200fa000040eb00004f78006c
:101090001e407800060007001e407800720007001e
:1010a0001e407800a10007000080fa000000060042
:1010b0000600fa00404798004e4090000004e0000f
:1010c00001003200da28ef00b7c9bf00e14f50003d
:1010d00011003a00809b2000bd010700004f7800fe
:1010e0001e4078000004e0000b003200b769ef00fa
:1010f0000869ef000a29ef000c29ef000569ef00ed
:101100000669ef003969ef003a69ef0031c2b300b8
:10111000a08d200044070700c39320000001eb00ce
:10112000a18d2000e09020000501070010479800e5
:10113000e0498000e10f50000c003200e10f500048
:1011400003003900e20f5000100032002300370086
:101150001e4090000004e0001d0032005048800056
:101160000000e800504888001c0037001e40900036
:101170000004e000180032000a29ef0060488000f7
:101180000000e8006048880014003700009120004b
:10119000990007000004e00008003200a18d200043
:1011a000e0902000b60107000004e00005003200d6
:1011b00010c0b30008e9b7000200370010c0b30048
:1011c00008e9b7000a29ef000c29ef0003003700f7
:1011d0000000000001003700000000008000eb006c
:1011e000a08d200036010700204798002e40900077
:1011f0000004e0001a00320008c9bf000004e0004b
:101200000700320000128000620060000000e00071
:1012100013003a0010c0b300b7e9b7001000370060
:1012200050488000f80f50000300360010c0b30093
:10123000b7e9b7000a00370061488000c00f2000fe
:10124000808f50000300360010c0b300b7e9b7002c
:101250000300370031c2b300a08d2000f206070062
:101260000080fa00000006000400fa002047980001
:101270002e4090000004e000070032001000200023
:10128000e0438800a868ef00a768ef00d668ef0089
:10129000d568ef00d828ef00838d200012002000d1
:1012a000c1872000a08a2000a5000700c04680005a
:1012b000e10f500013003200e10f5000130039001d
:1012c000e20f500014003a00c08a20004a000700d4
:1012d0000004e00008003200c1872000a08a20003e
:1012e000670107000004e0000a00320010c0b300ec
:1012f000004f78000800370010c0b300004f78009e
:101300000500370000000000030037000000000067
:10131000010037000000000011002000c0872000fd
:10132000e70007000080fa00000006000400fa0051
:10133000204798002e4090000004e0000700320093
:1013400020002000f04088004a68ef004968ef0064
:101350007868ef007768ef007a28ef00a387200015
:1013600022002000e1812000c084200074000700da
:101370000080fb00d0438800d0438000e10f500084
:1013800013003200e10f500013003900e20f50004b
:1013900014003a00e0842000170007000004e00079
:1013a00008003200e1812000c084200034010700e1
:1013b0000004e0000a00320010c0b300004f7800c3
:1013c0000800370010c0b300004f78000500370058
:1013d000000000000300370000000000010037009b
:1013e0000000000021002000e0812000b400070080
:1013f0000080fa00000006001200fa00000f9800ba
:1014000010002000000f78000000eb00100798008b
:101410000000eb0020079800090037001e0078004c
:101420008e08900000804000104078000000fb0013
:101430009e00900000804000100798001e0fe800fa
:101440001e0078008e0890000080400090407800d8
:1014500040c2b30080cf50000b0032001e00780065
:101460008e0890000080400090407800a0c2b30039
:1014700080cf500004003200700220009e007800ef
:10148000808f5000e5ff34001e0fe8000000eb00e5
:1014900020079800110037001e0078008e08900089
:1014a0000080400090407800690147002e009000c5
:1014b00000004100014878002e0090000000e80084
:1014c00020079800e90047002e00900000804000af
:1014d0008040eb00014878001e0fe8001e007800f5
:1014e0008e0890000080400090407800a0c2b300b9
:1014f00080cf500004003200700220009e0078006f
:10150000808f5000e4ff340069004700e2fd0700cf
:10151000300798009e0090003e0090000080680018
:1015200000f0a7000000ea000000e9004f00de0024
:10153000004f98000e4890000080fa00000006005e
:101540000c00fa0020079800310798004207980025
:10155000530798005e00900010007800e20f5000e2
:1015600003003a005e0090008000eb000108780064
:101570000040eb00004f78000040eb00104798005f
:101580004e009000e10f500009003200e10f5000c2
:1015900003003900e20f5000090032000c00370050
:1015a0000e80e80037070700104798000800370052
:1015b0000e80e8006107070010479800040037001c
:1015c0000e80e8008c07070010479800000000001c
:1015d0001e4090000004e0003600320010c0b3004e
:1015e000004f7800ae40900010c2b30080cf500092
:1015f0000d003a005e00900010007800e10f5000ee
:10160000090032005e0090001100200001087800ff
:101610002e0090008040eb00416898002e00900062
:101620008040eb00316898005e0090001000780068
:10163000e10f500014003a002e0090003068900036
:101640000080fb00ae4090002e01900000004100a1
:10165000214098002e009000306890008040e80003
:101660002e009000316898002e009000b068900025
:1016700070c2b30080cf5000030036002e009000ef
:1016800071c2b300316898005e00900010007800cd
:10169000e10f500007003a00ae409000a0c2b30036
:1016a00080cf500003003a005e009000210020002f
:1016b000010878001e4078000080fa000000060053
:1016c0000600fa0010079800210798001e009000fd
:1016d000c06890001e0090003068900080cf5000dd
:1016e00003003a0010c0b300004f78003500370007
:1016f0000040eb00004f78002e009000e10f5000fa
:101700000e003200e10f500003003900e20f5000dc
:10171000130032001b0037001e009000406890004c
:101720000080fb009e0090000080e800614078008f
:10173000f206070010479800120037001e009000c4
:10174000406890000080fb009e0090000080e80050
:10175000614078001707070010479800090037001c
:101760001e009000406890000080fb009e009000ea
:101770000080e800614078003007070010479800bb
:10178000000000001e4090000004e0000d00320048
:101790001e009000406890008040e8001e0090000d
:1017a000416898001e009000c068900070c2b300ad
:1017b00080cf5000030036001e0090008040eb00f8
:1017c000416898001e4078000080fa000000060082
:1017d0000200fa00000f7800b6c9bf000004e00064
:1017e0000600320041e2a900b669ef00cde2a80090
:1017f000cdc2a800cd82a8001e0037001e007800d0
:10180000104078008040e8001e0078000148780011
:101810001e00780010407800e24f500003003600b0
:101820001e0078008040eb00014878001e00780020
:10183000104078000080fb00e10f500006003200ed
:10184000e20f5000060032000000e00006003a00ff
:10185000cde2a90004003700cdc2a9000200370084
:10186000cd82a9000000000041e2a80010c0b30032
:10187000b6e9b700b6c9bf000080fa000000060054
:101880006e00fa0050379800613798000e00e800ab
:10189000de309000070007000e00e800ee309000f8
:1018a0007f000700004f78001e4078000080fa009b
:1018b000000006000800fa00200798003107980091
:1018c0000040eb00004f78000040eb00104798000c
:1018d0000000eb00100798000a0037001e0090007f
:1018e0006f00b90000007800ae009000008040005a
:1018f0008040eb00014878001e0090000000e800e6
:10190000100798001e009000e60f5000f3ff34000f
:101910003e0037003e009000406890000080fb00d1
:10192000be0090000080e800614078000000fb00ed
:1019300011022000810f50002c003200b103200062
:10194000810f50000b003a000040eb00004f780080
:101950001e4090000040e800104798001e40900094
:10196000e64f50002300360060c0b30010479800d7
:10197000210037001e4090000080fb006f00b9007e
:1019800000007800ae009000808040001e80fb00c8
:101990003e019000426990000281fb00be01900070
:1019a0000281e80063417900827078001e4fe800f0
:1019b0001e407800ee4f500002003600e0c0b30039
:1019c000004f78001e4090000080fb006f00b900bf
:1019d00000007800ae009000808040001e80fb0078
:1019e0000041eb0082707800030037000000000027
:1019f00001003700000000003e00900040689000a9
:101a00008040e8003e009000416898003e00900051
:101a1000406890000080fb00be0090000080e8005d
:101a2000e1407800a0c2b30080cf50001400320023
:101a30003e009000c068900070c2b30080cf50009c
:101a40000f003e003e009000c06890003e009000f5
:101a50003068900080cf5000090032003e009000b6
:101a6000406890000080fb00be0090000080e8000d
:101a7000e140780040c2b30080cf5000a5ff3a009b
:101a80003e0090008040eb00416898003e009000ce
:101a90008040eb00316898000080fa0000000600ea
:101aa0006e01fa0050379900613799000040eb0051
:101ab000004f78005e309100817a28001105070000
:101ac0000004e000050032006e3091006c06070053
:101ad00010c0b300004f7800750337005e309100ee
:101ae000c17a2800070507000004e0009b013200ce
:101af0005e3091006f004000017b28000105070067
:101b00000004e0005c0032005e3091007e00400086
:101b100010407800604f98005e3091007e004000d9
:101b200010409000704f98000040eb000057980064
:101b30005e3091007e0040003040900010579800c9
:101b40005e3091007e004000404090002057980099
:101b50000040eb00305798005e3091007e0040005e
:101b600060409000405798005e3091007e00400039
:101b700070409000505798000040eb00605798006c
:101b80005e309100d002b00010407800705798008d
:101b90005e309100d002b00010409000005f9800cd
:101ba0000040eb00105f98005e309100d002b00062
:101bb00030409000205f98005e309100d002b0006d
:101bc00040409000305f98000040eb00405f98007c
:101bd0005e309100d002b00060409000505f9800ed
:101be0005e309100d002b00070409000605f9800bd
:101bf0000040eb00705f98006e00470026fc070075
:101c000000407800406798007100470022fc070000
:101c10000040780020679800740047001efc070011
:101c200000179800770047001bfc07000040780071
:101c3000606798007a00470017fc070000407800b2
:101c4000006f98007d00470013fc070000407800fb
:101c5000206f9800000220000e0040002c0f0700ab
:101c6000f40c0700027b2800517b28006e309100a5
:101c7000260307000e0337005e3091006f0040001e
:101c8000a17b28009f0407000004e0000d00320043
:101c90005e3091007e0040001efc0700404b880033
:101ca000514b8800404b8000514b80008607070055
:101cb000a27b2800517b28006e309100130307009f
:101cc000fb0237005e3091006f004000f17b28007e
:101cd0008c0407000004e000370032005e30910001
:101ce0007e004000100507000004e0000400320000
:101cf000e095200011c0b3000148780003003700d0
:101d0000e09520008040eb00014878005e309100b3
:101d1000d002b000040507000004e0000400320017
:101d2000e095200011c0b300114098000300370077
:101d3000e09520008040eb00114098005e3091005b
:101d4000c003b000d4fb0700e1952000900098008c
:101d50005e309100b004b000f30407000004e0001e
:101d600004003200e095200011c0b300414098000b
:101d700003003700e09520008040eb0041409800d0
:101d80005e309100a005b000c3fb0700e195200084
:101d9000b0009800e09520005001be004000be0059
:101da00018080700f27b2800517b28006e30910054
:101db000d6020700be0237005e3091006f0040007f
:101dc000517c28004f0407000004e000200032008e
:101dd0005e3091007e00400010407800406f980017
:101de0005e3091007e00400010409000506f9800df
:101df0005e3091007e00400020409000606f9800af
:101e00005e3091007e00400030409000706f98007e
:101e10005e3091007e0040004040900000779800c6
:101e20005e3091007e004000504090001077980096
:101e3000c00220000e00400089060700527c2800e6
:101e4000517b28006e309100b002070098023700e5
:101e50005e3091006f004000a17c2800290407003b
:101e60000004e000160032005e3091007e00400069
:101e7000ad0407000004e0000700320010c0b3000a
:101e800072e9b7005e309100d002b00082fb07001b
:101e9000a04b8800020037007269ef007429ef0040
:101ea000904b8000a14b80003d070700a27c2800da
:101eb000517b28006e309100940207007c023700ad
:101ec0005e3091006f004000f17c28000d04070097
:101ed0000004e000200032005e3091007e004000ef
:101ee0006dfb0700604b88005e309100d002b000af
:101ef00069fb0700704b8800614b800030032000b5
:101f00000e004000a2002000c7fb0700714b8000bc
:101f1000700420000e004000a2002000c2fb070059
:101f2000714b8000604b8000560707007104200051
:101f30008e804000300320000e0040000102780037
:101f400080017800f27c2800517b28006e309100df
:101f5000b1020700560237005e3091006f0040006a
:101f6000617d2800e70307000004e0001000320054
:101f70005e3091007e0040006b0407000004e0002a
:101f80000300320010c0b30070e9b7000100370051
:101f90007069ef0070c9bf00350b0700627d280033
:101fa000517b28006e309100580207004002370034
:101fb0005e3091006f004000c17d2800d103070012
:101fc0000004e0000a0032005e3091007e00400014
:101fd00050fb0700f0498800014a8800c27d2800b4
:101fe000517b28006e309100480207003002370014
:101ff0005e3091006f004000217e2800c103070081
:102000000004e000240032005e3091007e004000b9
:1020100040fb07001007980021079800324a800013
:10202000434a80001e009000ae009000800f5100d7
:10203000818f59000f003600304a8000414a8000ed
:102040000001be00b00520000e004000a1002000ed
:10205000a9fb0700b00520000e00400080017800b9
:10206000227e2800c17a28006e30910044020700c9
:102070000f0237001e019000ae019000324a880026
:10208000434a8800227e2800517b28006e30910050
:102090001e020700060237005e3091006f0040000c
:1020a000917e2800970307000004e0000900320039
:1020b0005e3091007e0040001b040700bae9b700c3
:1020c000927e2800517b28006e3091000f0207009d
:1020d000f70137005e3091006f004000017f28005b
:1020e000880307000004e000110032005e30910018
:1020f0007e004000e8fa0700304b8800314b80003a
:10210000700620000e004000a200200046fb0700e1
:10211000700620000e00400080017800027f280039
:10212000517b28006e30910015020700e001370056
:102130005e3091006f004000717f2800710307003e
:102140000004e000da013200727f2800517b280091
:102150006e309100ed010700d50137005e3091002f
:1021600011802800670307000004e000d00132005e
:102170005e3091006f004000017b28006103070082
:102180000004e0005300320056c9bf008000fb008d
:10219000000820000e00400022002000f803070085
:1021a00054c9bf008000fb00700820000e004000f2
:1021b00022002000f2030700904a8000800078008f
:1021c000e00820000e00400022002000ec03070081
:1021d00058c9bf008000fb00500920000e004000dd
:1021e00022002000e60307005ac9bf008000fb0060
:1021f000c00920000e00400022002000e00307007c
:102200005cc9bf008000fb00300a20000e004000c7
:1022100022002000da0307000e40910060ef9800d2
:102220001e40910070ef9800d0c2b30000f79800f4
:102230007e40910010f798000e48910020f798001a
:10224000d0c2b30030f798006e48910040f7980074
:102250007e48910050f798000040eb0060f798002e
:102260005e50910070f798006e50910000ff98004a
:10227000a0c3b30010ff98004e58910020ff9800b3
:102280005e58910030ff9800a0c3b30040ff980053
:102290003e60910050ff98004e60910060ff9800f2
:1022a0000040eb0070ff9800710720008e80400016
:1022b000e00620000e004000010278008001780056
:1022c000027b2800c17a28006e309100d2010700fd
:1022d000770137005e3091006f004000a17b28003d
:1022e000080307000004e0000f003200404b8000ac
:1022f000514b80000001be00a00a20000e004000eb
:10230000a1002000fcfa0700a00a20000e004000f7
:1023100080017800a27b2800c17a28006e309100ed
:1023200097010700620137005e3091006f004000a6
:10233000f17b2800f30207000004e00036003200c1
:10234000e0952000104078008080fb00600b2000aa
:102350000e00400051030700e0952000104090005f
:102360008080fb00a00b20000e0040004b03070004
:10237000e0952000404090008080fb00e00b2000b2
:102380000e00400045030700e095200090019000fa
:1023900033079800e0952000b000900041079800b6
:1023a000200c20000e004000a2002000be00900083
:1023b0009dfa0700900c20000e004000a2002000b3
:1023c000ce00900098fa0700900c20000e0040000c
:1023d000e40b20000e024200230c20008e814100fd
:1023e000a20b20000e014100610b20008e804000f6
:1023f00080037800040378008302780002027800ea
:1024000081017800f27b2800c17a28006e309100ab
:1024100029020700260137005e3091006f0040005e
:10242000517c2800b70207000004e0000d003200d4
:10243000000d20000e004000c30407000040eb0028
:1024400060d79900000d20000e0040008001780048
:10245000527c2800c17a28006e30910048010700a4
:10246000130137005e3091006f004000a17c28000e
:10247000a40207000004e0001500320072c9bf008a
:102480008080fb00700d20000e0040000303070059
:10249000a14b8000b00d20000e004000a2002000e3
:1024a00061fa0700b10d20008e804000700d200001
:1024b0000e0040000102780080017800a27c280014
:1024c000c17a28006e30910053010700f8003700f0
:1024d0005e3091006f004000f17c28008902070007
:1024e0000004e00015003200614b8000200e200047
:1024f0000e004000a20020004bfa0700714b800044
:10250000900e20000e004000a200200046fa0700b6
:10251000910e20008e804000200e20000e00400012
:102520000102780080017800f27c2800c17a28003e
:102530006e30910038010700dd0037005e309100f9
:102540006f004000617d28006e0207000004e0007b
:102550000d00320070c9bf008080fb00000f20001a
:102560000e004000cd020700000f20000e004000ca
:1025700080017800627d2800c17a28006e309100c9
:10258000ff000700ca0037005e3091006f00400076
:10259000618028005b0207000004e000190032009f
:1025a000304a8000414a80000001be00400f2000f8
:1025b0000e004000a10020004ffa0700704a800082
:1025c000814a80000001be00001020000e00400083
:1025d000a100200048fa0700011020008e80400072
:1025e000400f20000e0040000102780080017800ba
:1025f00062802800c17a28006e3091000601070031
:10260000ab0037005e3091006f004000b1802800c1
:102610003c0207000004e0001600320040c5b30091
:10262000404f9a0050c6b300504f9a0030c7b300d5
:10263000604f9a0040c7b300704f9a00a0c3b30028
:1026400000579a0000c3b30010579a0010c3b3009c
:1026500020579a000040eb0030579a00c39a2000a0
:10266000b2802800c17a28006e309100c4000700b3
:102670008f0037005e3091006f004000118128000c
:10268000200207000004e0005600320080c4b300be
:1026900060579a0080c4b30070579a00a0c3b3007b
:1026a000005f9a00d0c4b300105f9a00d0c4b3009a
:1026b000205f9a00a0c3b300305f9a0040c4b3000b
:1026c000405f9a0040c4b300505f9a00a0c3b300bb
:1026d000605f9a00d0c4b300705f9a00d0c4b300aa
:1026e00000679a000040eb0010679a0080c4b300b6
:1026f00020679a0080c4b30030679a00a0c3b3007b
:1027000040679a00d0c4b30050679a00d0c4b300a9
:1027100060679a00a0c3b30070679a0040c4b3001a
:10272000006f9a0040c4b300106f9a00a0c3b300ba
:10273000206f9a00d0c4b300306f9a00d0c4b300a9
:10274000406f9a000040eb00506f9a00a1132000e8
:102750008e804000e01220000e004000e80c0700d0
:102760007e70920020679a0020c7b30040679a00ed
:10277000f0c6b30050679a0090c6b30060679a0035
:1027800030c7b30070679a0030c7b300006f9a007b
:1027900010c6b300106f9a00e0c6b300206f9a0015
:1027a00040c7b300306f9a0030c7b300406f9a0043
:1027b0000040eb00506f9a00211220008e804000f4
:1027c000601120000e0040000102780080017800b6
:1027d00012812800c17a28006e3091008e00070017
:1027e000330037005e3091006f0040009181280077
:1027f000c40107000004e0002d003200324a8000ce
:10280000434a8000504a8000614a80000000510025
:10281000818059005007980061079800304b800074
:102820006101b900404b8000514b80000200400024
:10283000838048000001be00601420000e004000ac
:10284000a1002000acf90700201520000e00400078
:10285000a10020005e019000ee019000a6f90700a3
:10286000f0498000014a80000001be00e015200010
:102870000e004000a10020009ff90700e215200093
:102880000e014100211520008e80400060142000c0
:102890000e0040008202780001027800800178007a
:1028a00092812800c17a28006e30910089000700cb
:1028b0001e4078000080fa00000006000600fa00c2
:1028c000100798002107980031c2b3001e00900045
:1028d0005501070011c2b3001e009000520107000d
:1028e0000000eb00000f7800ae0090001e0090008a
:1028f000680107001e0f40009e0078001e00900037
:10290000370107000080fa00000006000800fa0006
:1029100010079800210798003207980031c2b300d1
:102920001e0090004001070011c2b3001e0090007d
:102930003d0107000000eb00000f7800ae009000a2
:102940001e009000530107001e0f4000b1c3b300ea
:102950001e009000340107001e0f4000be009000d2
:102960001e0090004b0107001e0f40009e007800e3
:102970001e0090001a0107000080fa000000060007
:102980000a00fa0010079800210798003207980003
:102990004307980031c2b3001e00900022010700d7
:1029a00011c2b3001e0090001f0107000000eb00e1
:1029b000000f7800ae0090001e0090003501070067
:1029c0001e0f4000b1c3b3001e00900016010700a7
:1029d0001e0f4000be0090001e0090002d01070059
:1029e0001e0f4000b1c3b3001e0090000e0107008f
:1029f0001e0f4000ce0090001e0090002501070031
:102a00001e0f40009e0078001e009000f40007009a
:102a10000080fa00000006000c00fa001007980081
:102a20002107980032079800430798005407980040
:102a300031c2b3001e009000fb00070011c2b300ba
:102a40001e009000f80007000000eb00000f780067
:102a5000ae0090001e0090000e0107001e0f400007
:102a6000b1c3b3001e009000ef0007001e0f40002e
:102a7000be0090001e009000060107001e0f4000df
:102a8000b1c3b3001e009000e70007001e0f400016
:102a9000ce0090001e009000fe0007001e0f4000b8
:102aa000b1c3b3001e009000df0007001e0f4000fe
:102ab000de0090001e009000f60007001e0f400090
:102ac0009e0078001e009000c50007000080fa00fc
:102ad000000006000e00fa00100798002107980079
:102ae000320798004307980054079800650798003c
:102af00031c2b3001e009000cb00070011c2b3002a
:102b00001e009000c80007000000eb00000f7800d6
:102b1000ae0090001e009000de0007001e0f400077
:102b2000b1c3b3001e009000bf0007001e0f40009d
:102b3000be0090001e009000d60007001e0f40004f
:102b4000b1c3b3001e009000b70007001e0f400085
:102b5000ce0090001e009000ce0007001e0f400027
:102b6000b1c3b3001e009000af0007001e0f40006d
:102b7000de0090001e009000c60007001e0f4000ff
:102b8000b1c3b3001e009000a70007001e0f400055
:102b9000ee0090001e009000be0007001e0f4000d7
:102ba0009e0078001e0090008d0007000080fa0053
:102bb000000006001000fa00100798002107980096
:102bc000320798004307980054079800650798005b
:102bd0007607980031c2b3001e00900092000700f3
:102be00011c2b3001e0090008f0007000000eb0030
:102bf000000f7800ae0090001e009000a5000700b6
:102c00001e0f4000b1c3b3001e00900086000700f5
:102c10001e0f4000be0090001e0090009d000700a7
:102c20001e0f4000b1c3b3001e0090007e000700dd
:102c30001e0f4000ce0090001e009000950007007f
:102c40001e0f4000b1c3b3001e00900076000700c5
:102c50001e0f4000de0090001e0090008d00070057
:102c60001e0f4000b1c3b3001e0090006e000700ad
:102c70001e0f4000ee0090001e009000850007002f
:102c80001e0f4000b1c3b3001e0090006600070095
:102c90001e0f4000fe0090001e0090007d00070007
:102ca0001e0f40009e0078001e0090004c000700a0
:102cb0000080fa00000006001200fa0010079800d9
:102cc000210798003207980043079800540798009e
:102cd0006507980076079800070f980031c2b30087
:102ce0001e0090005000070011c2b3001e009000ab
:102cf0004d0007000000eb00000f7800ae009000d0
:102d00001e009000630007001e0f4000b1c3b30017
:102d10001e009000440007001e0f4000be009000ff
:102d20001e0090005b0007001e0f4000b1c3b300ff
:102d30001e0090003c0007001e0f4000ce009000d7
:102d40001e009000530007001e0f4000b1c3b300e7
:102d50001e009000340007001e0f4000de009000af
:102d60001e0090004b0007001e0f4000b1c3b300cf
:102d70001e0090002c0007001e0f4000ee00900087
:102d80001e009000430007001e0f4000b1c3b300b7
:102d90001e009000240007001e0f4000fe0090005f
:102da0001e0090003b0007001e0f4000b1c3b3009f
:102db0001e0090001c0007001e0f40008e089000af
:102dc0001e009000330007001e0f40009e00780098
:102dd0001e009000020007000080fa0000000600bc
:102de0001400fa00000f9800110f980041c2b300c0
:102df0000e0890000c000700a20020009e08900022
:102e00000e00780008f807008e0078000e08900089
:102e100020000700a1c2b3000e08900002000700c6
:102e20000080fa00000006000400fa00000f78009d
:102e3000214798001e007800306890000080fb0059
:102e40009e00780000804000ae4090002140980035
:102e50001e007800306890008040e8001e00780076
:102e6000316898001e007800b068900070c2b3000e
:102e700080cf5000030036001e0078008040eb0039
:102e8000316898002e4090000000fb000080fa009e
:102e9000000006000800fa0020079800310798009b
:102ea0000000eb00000f78000000eb001007980016
:102eb0000b0037001e009000be0090000080400014
:102ec00010407800804078002e009000d6ff070068
:102ed0001e0f40001e0090000000e8001007980040
:102ee0001e009000be00900000804000104078005e
:102ef0000004e000efff3a001e0078000080fa00b6
:102f0000000006000800fa0020079800310798002a
:102f1000e04080000000e800e0408800be00900033
:102f20002e0090000c000700100798001e00900073
:102f30000000e00003003a0010c0b300004f78002a
:102f4000020037000040eb00004f78001e40780080
:102f50000080fa00000006000800fa002007980030
:102f6000310798000000eb00000f78000000eb0034
:102f7000100798001a0037001e007800ae0090007d
:102f800000804000904078001e0078003e019000d4
:102f9000000041001040780080cf50000300340052
:102fa00010002000100798000c0037001e00780069
:102fb000ae00900000804000904078001e00780035
:102fc0003e019000000041001040780080cf50008a
:102fd00002003d000080eb00100798001e0fe80083
:102fe0001e007800ae009000008040001040780085
:102ff0000004e000090032001e007800be009000ce
:1030000000804000104078000004e000030032001f
:103010001e0090000000e000d7ff32001e00780084
:10302000ae00900000804000104078000004e000f6
:1030300009003a001e007800be00900000804000a9
:10304000104078000004e000030032000080eb0034
:10305000100798000e0037001e007800ae009000a8
:1030600000804000104078000004e00008003200ba
:103070001e007800be0090000080400010407800e4
:103080000004e00002003a00100020001007980041
:103090001e0090000080fa00000006000400fa0004
:1030a000000f7800110798001e0090000000e0005b
:1030b0000e003a001e007800f1c4b3000148780009
:1030c0001e00e80061c6b300014878001e80e800d9
:1030d00061c6b300014878009e007800638040001c
:1030e0008040eb00014878000d0037001e0078009a
:1030f000f1c4b300014878001e00e800e1c6b30047
:10310000014878001e80e8008040eb00014878000c
:103110009e007800638040008040eb00014878000a
:103120000080fa00000006000400fa001007980072
:103130000040eb00004f7800118228001e00900034
:1031400070ff07000004e0000300320010c0b3006d
:10315000004f780007003700418228001e009000d1
:1031600068ff07000004e000020032000040eb00ae
:10317000004f78001e4078000080fa000000060032
:103180001600fa00000f9800110f9800220f980007
:1031900068004700a20020009e08900022f7070068
:1031a0000000eb00000f7800010037001e0fe80060
:1031b000680047001e004000104078000004e00056
:1031c000faff3a002e0890001e00500030079800c9
:1031d0000000eb0010079800080037001e00900068
:1031e0008e0890000080400001c3b30001487800c1
:1031f0001e0090000000e800100798009e0090005c
:103200003e009000808f5000f4ff35000000eb007e
:10321000200798000e0037001e0090008e089000d6
:103220000080400068014700ae009000810041002e
:1032300091407800014878001e0090000000e800ee
:10324000100798002e0090000000e800200798006a
:10325000e80047002e0090000080400010407800f9
:103260000004e000ecff3a001e0090008e08900081
:10327000008040008040eb00014878000080fa00a8
:10328000000006000400fa00100798000040eb0060
:10329000004f78005140800060408000808f5000d7
:1032a0001300320051408000008020000080400068
:1032b000904078001e009000014878001e009000a9
:1032c000104078000004e0000200320010c0b3009b
:1032d000004f7800504080000000e8005040880017
:1032e00050408000e90f5000010034000a28ef0030
:1032f0001e4078000080fa00000006000400fa007a
:10330000204798000040eb00004f7800001280003a
:10331000620060000000e00005003a002e409000ce
:103320000000fb004012880010c0b300004f78007e
:103330001e4078000080fa00000006000400fa0039
:10334000100798000040eb00004f7800c14080005b
:10335000d0408000808f500013003200c1408000b8
:10336000e080200000804000904078001e00900027
:10337000014878001e009000104078000004e00032
:103380000200320010c0b300004f7800c04080003f
:103390000000e800c0408800c0408000e90f5000f5
:1033a000010034001828ef001e4078000080fa0069
:1033b000000006000400fa00204798000040eb00df
:1033c000004f780011118000002020000080600074
:1033d0000000e00005003a002e4090000000fb00d5
:1033e0002011880010c0b300004f78001e40780004
:1033f0000080fa00000006000400fa0010079800a0
:103400000040eb00004f78009011800061006000e8
:103410000000e00006003200b0118000804078001b
:103420001e0090000148780010c0b300004f7800e3
:103430001e4078000080fa00000006000400fa0038
:10344000204798000040eb00004f78009111800069
:1034500000202000008060000000e00005003a002d
:103460002e4090000000fb00a011880010c0b300a7
:10347000004f78001e4078000080fa00000006002f
:103480000200fa00000f7800817a28001e00780000
:103490000afd07000080fa00000006000000fa00a4
:1034a000c942a800c962a800c9a2a900c9e2a9002e
:1034b000c9c2a900c982a900cde2a800cdc2a80056
:1034c000cd82a80042a2a8004382a9004362a900bd
:1034d0004342a9004322a8004302a80042e2a900f7
:1034e00042c2a80011128000c0ff2f0000806000bf
:1034f0000000a000101288001112800030fe2f0082
:10350000008060000040a0001012880045e2a90081
:1035100045c2a90045a2a9004422a9004402a9006d
:1035200040c2a9000112800030fe2f000080600020
:103530000020a000001288008540a9009540a80046
:103540000080fa00000006000000fa0038000700c2
:10355000020007000080fa00000006000400fa00e4
:10356000c822a800c802a900008025002100200070
:10357000008fbe001e01be0000402200410f20004f
:1035800065f40700008fbe000081eb008081eb0036
:103590001e0f41005e9749001e007800c011880090
:1035a00031a2a9003182a9003162a80081118000f6
:1035b000f0cf2f00008060008011880030e2a90069
:1035c00030c2a90030a2a9003082a9003062a9004f
:1035d0008111800090ff2f00008060008011880022
:1035e0003002a90033a2a90033e2a90033c2a90026
:1035f0003362a90091118000f0f32f000080600079
:103600009011880032a2a9008c40a9009c40a8001b
:1036100087e0a90097e0a90087c0a90097c0a9008a
:1036200031e2a8003342a8000080fa000000060042
:103630000400fa00c842a800c8e2a90000802500e2
:1036400021002000008fbe001e01be0000402200ad
:10365000410f200030f40700008fbe000081eb0016
:103660008081eb001e0f41005e9749001e0078002c
:103670004011880021a2a9002182a9002162a8008e
:1036800001118000f0cf2f00008060000011880041
:1036900020e2a90020c2a90020a2a9002082a9003e
:1036a0002062a9000111800090ff2f0000806000bf
:1036b000001188002002a90023a2a90023e2a9008a
:1036c00023c2a9002362a90011118000f0f32f008a
:1036d000008060001011880022a2a9008c20a9009f
:1036e0009c20a8008580a9009580a9008560a9007c
:1036f0009560a80021e2a8002342a8000080fa00fb
:10370000000006000200fa000040eb00004f7800c5
:1037100007003700013b80000000280000806000a7
:103720000000e00002003a0010c0b300004f780033
:103730001e4078000004a2000004e000f5ff3a00fb
:103740000080fa00000006000400fa00100798004c
:10375000ecff0700f00720000040780032e0b700df
:1037600000e02f00000f78001e0078001000ba0063
:10377000804078001e00900001487800f00720008b
:103780000040780032e0b70020e02f00000f780002
:103790001e0090000000e8009e0078009100ba0032
:1037a0008140780001487800f00720000040780050
:1037b00032e0b70040e02f00000f78001e009000bc
:1037c0000080e8009e0078009100ba0081407800f7
:1037d00001487800f00720000040780032e0b70090
:1037e00060e02f00000f78001e0090006300400092
:1037f0009e0078009100ba0081407800014878006e
:10380000f00720000040780032e0b70080e02f0091
:10381000000f78001e009000640040009e007800b9
:103820009100ba008140780001487800f00720003c
:103830000040780032e0b700a0e02f00000f7800d1
:103840001e009000650040009e0078009100ba00c4
:1038500081407800014878000080fa0000000600ee
:103860000400fa0010079800a6ff0700400024009b
:10387000003b8800f00720000040780032e0b700ed
:1038800000e02f00000f78001e009000104078002c
:103890008000fb001e0078000108bb000500fc0052
:1038a00050052000303b8800a00a2000303b8800f3
:1038b00061e7a800000000000000000091ff070081
:1038c00040002400003b8800f00720000040780002
:1038d00032e0b70020e02f00000f78001e009000bb
:1038e0000000e800104078008000fb001e00780017
:1038f0000108bb000500fc0050052000303b88009b
:10390000a00a2000303b880061e7a800000000000a
:10391000000000007bff070040002400003b8800ff
:10392000f00720000040780032e0b70040e02f00b0
:10393000000f78001e0090000080e8001040780022
:103940008000fb001e0078000108bb000500fc00a1
:1039500050052000303b8800a00a2000303b880042
:1039600061e7a800000000000000000065ff0700fc
:1039700040002400003b8800f00720000040780051
:1039800032e0b70060e02f00000f78001e009000ca
:1039900063004000104078008000fb001e007800ab
:1039a0000108bb000500fc0050052000303b8800ea
:1039b000a00a2000303b880061e7a800000000005a
:1039c000000000004fff070040002400003b88007b
:1039d000f00720000040780032e0b70080e02f00c0
:1039e000000f78001e009000640040001040780036
:1039f0008000fb001e0078000108bb000500fc00f1
:103a000050052000303b8800a00a2000303b880091
:103a100061e7a800000000000000000039ff070077
:103a200040002400003b8800f007200000407800a0
:103a300032e0b700a0e02f00000f78001e009000d9
:103a400065004000104078008000fb001e007800f8
:103a50000108bb000500fc0050052000303b880039
:103a6000a00a2000303b880061e7a80000000000a9
:103a7000000000000080fa00000006000800fa00c4
:103a800020ff0700f00720000040780032e0b70078
:103a9000c0e02f00000f78001e0078001000ba0070
:103aa000100798001e0078001000ba008000eb009c
:103ab00020079800310798002e009000be0090006b
:103ac0000080fa00000006000800fa0020079800b5
:103ad00031079800ae009000010f780009ff070041
:103ae00040002400003b8800f007200000407800e0
:103af00032e0b700c0e02f00100798001e009000d1
:103b00001e08bb000500fc0050052000303b88006b
:103b1000a00a2000303b880061e7a80000000000f8
:103b2000000000000080fa00000006000800fa0013
:103b3000881f780000047800f2fe0700f0072000dc
:103b40000040780032e0b700e0e02f00000f78007e
:103b50001e0078001000ba00100798009e00900028
:103b6000310798001e0090000000e00003003400c0
:103b700010c0b30040479800020037000040eb003f
:103b8000404798002e019000be019000028cbe00bc
:103b9000080078004f0478000080fa00000006005a
:103ba0000600fa001007980021079800d5fe0700cc
:103bb00040002400003b8800f0072000004078000f
:103bc00032e0b700e0e02f00000f78002e009000f8
:103bd000800078001e0078000108bb000500fc0092
:103be00050052000303b8800a00a2000303b8800b0
:103bf00061e7a80000000000000000000080fa005b
:103c0000000006000800fa00881f78000004780011
:103c1000bcfe0700f00720000040780032e0b7004b
:103c200000e12f00000f78001e0078001000ba009d
:103c3000100798009e0090004006200000017800c8
:103c4000110009008280d8008000fd003007980034
:103c50001e009000c200de00b04721000008b8003e
:103c60000100d100200798002e019000be019000b5
:103c7000028cbe00080078004f0478000080fa0033
:103c8000000006000800fa0020079800310798009d
:103c90009cfe070040002400003b8800ae0090001e
:103ca000400620000088b900800078003e009000a7
:103cb00000804000000f7800f007200000407800ee
:103cc00032e0b70000e12f00100798001e009000be
:103cd0001e08bb000500fc0050052000303b88009a
:103ce000a00a2000303b880061e7a8000000000027
:103cf000000000000080fa00000006001000fa003a
:103d0000881f7800000478007efe0700f00720007e
:103d10000040780032e0b70020e12f00000f78006b
:103d20001e0078001000ba0010079800f00720006d
:103d30000040780032e0b70040e12f00000f78002b
:103d40001e0078001000ba0020079800f00720003d
:103d50000040780032e0b70060e12f00000f7800eb
:103d60001e0078001000ba00300798001e00900076
:103d70000000e00003003a000040eb00004f980014
:103d80000200370010c0b300004f9800ae00900052
:103d9000510798005e0090000000e000030034002e
:103da00010c0b300104f9800020037000040eb0035
:103db000104f98003e029000740798007e0090001b
:103dc0000000e0000300340010c0b300404f980032
:103dd000020037000040eb00404f98004e02900078
:103de000de0290006e039000fe039000049cbe0073
:103df0000694be00080078004f0478000080fa00a6
:103e0000000006000c00fa00200798003107980017
:103e100042079800530798004e4090000004e000cd
:103e2000030032000080eb00000f78000200370032
:103e30000000eb00000f780032fe07004000240075
:103e4000003b8800f00720000040780032e0b70017
:103e500020e12f00100798001e0090001e08bb00f4
:103e60000500fc0050052000303b8800a00a20001f
:103e7000303b880061e7a80000000000000000005f
:103e800020fe070040002400003b8800f0072000cf
:103e90000040780032e0b70040e12f0010079800a2
:103ea0003e009000800078001e0090000108bb00da
:103eb0000500fc0050052000303b8800a00a2000cf
:103ec000303b880061e7a80000000000000000000f
:103ed0000cfe070040002400003b8800f007200093
:103ee0000040780032e0b70060e12f001007980032
:103ef0005e009000800078001e0090000108bb006a
:103f00000500fc0050052000303b8800a00a20007e
:103f1000303b880061e7a8000000000000000000be
:103f20000080fa00000006001200fa00881f7800e6
:103f300000047800f3fd0700f0072000004078003f
:103f400032e0b70080e12f00000f78001e007800fb
:103f50001000ba0010079800f00720000040780019
:103f600032e0b700a0e12f00000f78001e007800bb
:103f70001000ba0020079800ae0090001e009000cc
:103f80000b0407005007980061079800f007200015
:103f90000040780032e0b700c0e12f00000f780049
:103fa0001e0078001000ba0010079800f0072000eb
:103fb0000040780032e0b700e0e12f00000f780009
:103fc0001e0078001000ba0020079800ae00900094
:103fd0001e009000f603070070079800010f98007c
:103fe0006600470088007800b0187800a0107800bc
:103ff000e480400064004000b0187800a010780011
:10400000e480400064004000b0187800a010780000
:10401000e480400064004000080078004f0478000d
:104020000080fa00000006001200fa003007980035
:10403000410798005207980063079800740798009a
:10404000050f98005e009000ee009000e40147002c
:104050000e81e800e4030700aafd070040002400e9
:10406000003b8800f00720000040780032e0b700f5
:1040700080e12f00000f78009e0090001e00780065
:104080000108bb000500fc0050052000303b880003
:10409000a00a2000303b880061e7a8000000000073
:1040a0000000000097fd070040002400003b88004e
:1040b000f00720000040780032e0b700a0e12f00b8
:1040c000000f7800ae0090001e0078000108bb00d1
:1040d0000500fc0050052000303b8800a00a2000ad
:1040e000303b880061e7a8000000000000000000ed
:1040f0007e0090008e089000e40147000e81e800e9
:10410000b90307007ffd070040002400003b880042
:10411000f00720000040780032e0b700c0e12f0037
:10412000000f78009e0090001e0078000108bb0080
:104130000500fc0050052000303b8800a00a20004c
:10414000303b880061e7a80000000000000000008c
:104150006cfd070040002400003b8800f0072000b1
:104160000040780032e0b700e0e12f00000f780057
:10417000ae0090001e0078000108bb000500fc00a6
:1041800050052000303b8800a00a2000303b88000a
:1041900061e7a80000000000000000000080fa00b5
:1041a000000006000c00fa0056fd0700010307009e
:1041b000404798004e4090000080fb00e40f500004
:1041c0004c003200e40f50000c003c00e10f5000a6
:1041d00018003200e10f500003003c000000e00036
:1041e0000f00320092003700e20f50002100320031
:1041f000e30f50002f0032008d003700e60f500013
:104200005c003200e60f50004a003500e70f500016
:1042100068003200e80f500076003200840037005a
:104220000000eb00100798009e009000010f78003e
:104230007f003700f00720000040780032e0b70030
:1042400000e22f00300798003e009000100fba00e7
:10425000f00720000040780032e0b70020e22f0095
:10426000300798003e0090001000ba001007980038
:104270006f003700f00720000040780032e0b70000
:1042800040e22f00300798003e009000100fba0067
:10429000f00720000040780032e0b70060e22f0015
:1042a000300798003e0090001000ba0010079800f8
:1042b0005f003700f00720000040780032e0b700d0
:1042c00080e22f00300798003e009000100fba00e7
:1042d000f00720000040780032e0b700a0e22f0095
:1042e000300798003e0090001000ba0010079800b8
:1042f0004f003700f00720000040780032e0b700a0
:10430000c0e22f00300798003e009000100fba0066
:10431000f00720000040780032e0b700e0e22f0014
:10432000300798003e0090001000ba001007980077
:104330003f003700f00720000040780032e0b7006f
:1043400000e32f00300798003e009000100fba00e5
:10435000f00720000040780032e0b70020e32f0093
:10436000300798003e0090001000ba001007980037
:104370002f003700f00720000040780032e0b7003f
:1043800040e32f00300798003e009000100fba0065
:10439000f00720000040780032e0b70060e32f0013
:1043a000300798003e0090001000ba0010079800f7
:1043b0001f003700f00720000040780032e0b7000f
:1043c00080e32f00300798003e009000100fba00e5
:1043d000f00720000040780032e0b700a0e32f0093
:1043e000300798003e0090001000ba0010079800b7
:1043f0000f003700f00720000040780032e0b700df
:10440000c0e32f00300798003e009000100fba0064
:10441000f00720000040780032e0b700e0e32f0012
:10442000300798003e0090001000ba001007980076
:104430009e0090001e007800dd02070040079800f3
:10444000510798004e009000de0090000080fa00b6
:10445000000006000c00fa00400798005107980081
:10446000e600470064004700810178000001780001
:104470004e009000de009000db020700c302070040
:10448000004f78001e80fb00e40f5000c000320097
:10449000e40f500007003c00e20f500048003200db
:1044a000e20f500080003c00e10f50000a00320093
:1044b000d8013700e60f500029013200e60f500006
:1044c000ed003500e70f50005f013200e80f5000ab
:1044d00097013200cf0137008afc0700400024001a
:1044e000003b8800f00720000040780032e0b70071
:1044f00000e22f0010079800ae0090001e00900010
:104500000108bb000500fc0050052000303b88007e
:10451000a00a2000303b880061e7a80000000000ee
:104520000000000077fc070040002400003b8800ea
:10453000f00720000040780032e0b70020e22f00b2
:1045400010079800be0090001e0090000108bb00fc
:104550000500fc0050052000303b8800a00a200028
:10456000303b880061e7a800000000000000000068
:1045700064fc070040002400003b8800f007200096
:104580000040780032e0b70040e22f0010079800aa
:104590001e0090008080eb000108bb000500fc00bd
:1045a00050052000303b8800a00a2000303b8800e6
:1045b00061e7a8000000000000000000950137003e
:1045c00050fc070040002400003b8800f00720005a
:1045d0000040780032e0b70040e22f00100798005a
:1045e000ae0090001e0090000108bb000500fc001a
:1045f00050052000303b8800a00a2000303b880096
:1046000061e7a80000000000000000003dfc07007a
:1046100040002400003b8800f007200000407800a4
:1046200032e0b70060e22f0010079800be00900053
:104630001e0090000108bb000500fc005005200092
:10464000303b8800a00a2000303b880061e7a800ca
:1046500000000000000000002afc070040002400c9
:10466000003b8800f00720000040780032e0b700ef
:1046700080e22f00100798001e0090008080eb0061
:104680000108bb000500fc0050052000303b8800fd
:10469000a00a2000303b880061e7a800000000006d
:1046a000000000005b01370016fc070040002400fa
:1046b000003b8800f00720000040780032e0b7009f
:1046c00080e22f0010079800ae0090001e009000be
:1046d0000108bb000500fc0050052000303b8800ad
:1046e000a00a2000303b880061e7a800000000001d
:1046f0000000000003fc070040002400003b88008d
:10470000f00720000040780032e0b700a0e22f0060
:1047100010079800be0090001e0090000108bb002a
:104720000500fc0050052000303b8800a00a200056
:10473000303b880061e7a800000000000000000096
:10474000f0fb070040002400003b8800f007200039
:104750000040780032e0b700c0e22f001007980058
:104760001e0090008080eb000108bb000500fc00eb
:1047700050052000303b8800a00a2000303b880014
:1047800061e7a800000000000000000021013700e0
:10479000dcfb070040002400003b8800f0072000fd
:1047a0000040780032e0b700c0e22f001007980008
:1047b000ae0090001e0090000108bb000500fc0048
:1047c00050052000303b8800a00a2000303b8800c4
:1047d00061e7a8000000000000000000c9fb07001e
:1047e00040002400003b8800f007200000407800d3
:1047f00032e0b700e0e22f0010079800be00900002
:104800001e0090000108bb000500fc0050052000c0
:10481000303b8800a00a2000303b880061e7a800f8
:104820000000000000000000b6fb0700400024006c
:10483000003b8800f00720000040780032e0b7001d
:1048400000e32f00100798001e0090008080eb000e
:104850000108bb000500fc0050052000303b88002b
:10486000a00a2000303b880061e7a800000000009b
:1048700000000000e7003700a2fb07004000240012
:10488000003b8800f00720000040780032e0b700cd
:1048900000e32f0010079800ae0090001e0090006b
:1048a0000108bb000500fc0050052000303b8800db
:1048b000a00a2000303b880061e7a800000000004b
:1048c000000000008ffb070040002400003b880030
:1048d000f00720000040780032e0b70020e32f000e
:1048e00010079800be0090001e0090000108bb0059
:1048f0000500fc0050052000303b8800a00a200085
:10490000303b880061e7a8000000000000000000c4
:104910007cfb070040002400003b8800f0072000db
:104920000040780032e0b70040e32f001007980005
:104930001e0090008080eb000108bb000500fc0019
:1049400050052000303b8800a00a2000303b880042
:1049500061e7a8000000000000000000ad00370083
:1049600068fb070040002400003b8800f00720009f
:104970000040780032e0b70040e32f0010079800b5
:10498000ae0090001e0090000108bb000500fc0076
:1049900050052000303b8800a00a2000303b8800f2
:1049a00061e7a800000000000000000055fb0700c0
:1049b00040002400003b8800f00720000040780001
:1049c00032e0b70060e32f0010079800be009000af
:1049d0001e0090000108bb000500fc0050052000ef
:1049e000303b8800a00a2000303b880061e7a80027
:1049f000000000000000000042fb0700400024000f
:104a0000003b8800f00720000040780032e0b7004b
:104a100080e32f00100798001e0090008080eb00bc
:104a20000108bb000500fc0050052000303b880059
:104a3000a00a2000303b880061e7a80000000000c9
:104a400000000000730037002efb07004000240028
:104a5000003b8800f00720000040780032e0b700fb
:104a600080e32f0010079800ae0090001e00900019
:104a70000108bb000500fc0050052000303b880009
:104a8000a00a2000303b880061e7a8000000000079
:104a9000000000001bfb070040002400003b8800d2
:104aa000f00720000040780032e0b700a0e32f00bc
:104ab00010079800be0090001e0090000108bb0087
:104ac0000500fc0050052000303b8800a00a2000b3
:104ad000303b880061e7a8000000000000000000f3
:104ae00008fb070040002400003b8800f00720007e
:104af0000040780032e0b700c0e32f0010079800b4
:104b00001e0090008080eb000108bb000500fc0047
:104b100050052000303b8800a00a2000303b880070
:104b200061e7a80000000000000000003900370025
:104b3000f4fa070040002400003b8800f007200042
:104b40000040780032e0b700c0e32f001007980063
:104b5000ae0090001e0090000108bb000500fc00a4
:104b600050052000303b8800a00a2000303b880020
:104b700061e7a8000000000000000000e1fa070063
:104b800040002400003b8800f0072000004078002f
:104b900032e0b700e0e32f0010079800be0090005d
:104ba0001e0090000108bb000500fc00500520001d
:104bb000303b8800a00a2000303b880061e7a80055
:104bc0000000000000000000cefa070040002400b2
:104bd000003b8800f00720000040780032e0b7007a
:104be00000e22f00100798001e0090008080eb006c
:104bf0000108bb000500fc0050052000303b880088
:104c0000a00a2000303b880061e7a80000000000f7
:104c1000000000000080fa00000006000600fa0014
:104c2000b8fa0700f00720000040780032e0b70033
:104c300000e42f00100798001e0090001000ba003a
:104c4000200798002e0090000000e00003003a00ca
:104c50000040eb00004f78000200370010c0b300a6
:104c6000004f78001e4078000080fa000000060027
:104c70000600fa00404798004e4090000004e00013
:104c8000030032000080eb00000f780002003700c4
:104c90000000eb00000f78009afa070040002400a3
:104ca000003b8800f00720000040780032e0b700a9
:104cb00000e42f00100798001e0090001e08bb00a3
:104cc0000500fc0050052000303b8800a00a2000b1
:104cd000303b880061e7a8000000000000000000f1
:104ce0000080fa00000006000600fa0085fa0700be
:104cf000f00720000040780032e0b70020e42f00e9
:104d0000100798001e0090001000ba0020079800bd
:104d10002e0090000000e00003003a000040eb008d
:104d2000004f78000200370010c0b300004f780039
:104d30001e4078000080fa00000006000600fa001d
:104d4000404798004e4090000004e000030032000d
:104d50000080eb00000f7800020037000000eb003d
:104d6000000f780067fa070040002400003b88002d
:104d7000f00720000040780032e0b70020e42f0068
:104d8000100798001e0090001e08bb000500fc00e4
:104d900050052000303b8800a00a2000303b8800ee
:104da00061e7a80000000000000000000080fa0099
:104db000000006000600fa00f0072000004078001e
:104dc00032e0b70000e22f00100798001e009000ac
:104dd0001000ba00200798002e009000e10f40005c
:104de00003003a0080c0b300004f78006400370031
:104df000f00720000040780032e0b70040e22f00ca
:104e0000100798001e0090001000ba0020079800bc
:104e10002e009000e10f400003003a0010c0b300e4
:104e2000004f780056003700f0072000004078005f
:104e300032e0b70080e22f00100798001e009000bb
:104e40001000ba00200798002e009000e10f4000eb
:104e500003003a0020c0b300004f7800480037003c
:104e6000f00720000040780032e0b700c0e22f00d9
:104e7000100798001e0090001000ba00200798004c
:104e80002e009000e10f400003003a0030c0b30054
:104e9000004f78003a003700f0072000004078000b
:104ea00032e0b70000e32f00100798001e009000ca
:104eb0001000ba00200798002e009000e10f40007b
:104ec00003003a0040c0b300004f78002c003700c8
:104ed000f00720000040780032e0b70040e32f00e8
:104ee000100798001e0090001000ba0020079800dc
:104ef0002e009000e10f400003003a0050c0b300c4
:104f0000004f78001e003700f007200000407800b6
:104f100032e0b70080e32f00100798001e009000d9
:104f20001000ba00200798002e009000e10f40000a
:104f300003003a0060c0b300004f78001000370053
:104f4000f00720000040780032e0b700c0e32f00f7
:104f5000100798001e0090001000ba00200798006b
:104f60002e009000e10f400003003a0070c0b30033
:104f7000004f7800020037000040eb00004f78003f
:104f80001e4078000080fa00000006000200fa00cf
:104f900088ff0700004f78009e40780067c06000df
:104fa000004fe8001e4078000080fa000000060074
:104fb0000800fa0020079800310798002e009000a2
:104fc0008000eb00c001dd00020020003e009000e8
:104fd0008000eb00001f4100019749001e00be0049
:104fe0000080fa00000006000800fa00008fbe00f2
:104ff00022079800330798001e00be004008de001c
:10500000800078002e009000010878009e00780053
:105010003e009000010878000080fa0000000600c1
:105020000000fa000c0007000b0107000080fa00e6
:10503000000006000c00fa000e007800fc010700da
:105040000e0078005c000700209520002200070079
:105050000080fa00000006000000fa005005200061
:10506000303b8800a00a2000303b880027a6a8001b
:1050700027e6a90027a6a8002786a9002766a90079
:105080002746a9002726a8002706a8002666ef00c5
:1050900029e6a90029c6a90029a6a9002986a900f0
:1050a00041318000f03f2f000080600000a0a00090
:1050b0004031880041318000f0cf2f000080600037
:1050c0000080a0004031880027e6a80027a6a9009c
:1050d0000080fa00000006000600fa002007980091
:1050e0003131800000302000010070003031880034
:1050f00021318000010f78001e007800a900070010
:105100008000fb002e009000010878002131800013
:10511000010f78001e0078004800de00100798009c
:105120001e0090009f000700ae009000a040980075
:10513000f00f20001e006000100798001e00900075
:1051400098000700ae009000c04098002131800018
:10515000010f7800f00f20001e006000100798007b
:105160001e0090008f000700ae009000e040980005
:1051700021318000010f78001e0078004800de0019
:10518000100798001e00900086000700ae009000f7
:1051900080489800f00f20001e0060001007980063
:1051a0001e0090007f000700ae009000a04898000d
:1051b0000080fa00000006001400fa00881f780042
:1051c000100f980010c0b300004f78001e08900028
:1051d000204090000000fb00eb0f500028003e0034
:1051e000110020000008dd0001a520008100600002
:1051f0000100e00004003a00640060000000e000ec
:1052000007003a001e0037001e0890004040900042
:10521000fe4f50001500340010c0b3005e00370090
:105220001e08900010007800630060000000e0009d
:10523000070032001e08900040409000fc4f5000d4
:105240000c0034000040eb00004f78000c003700e9
:105250001e08900040409000fd4f500007003400b1
:105260000040eb00004f7800050037000000000010
:1052700003003700000000000100370000000000bc
:105280001e089000100078000040780055000700cc
:10529000100798001e089000204090005100070061
:1052a000200798001e089000404090004d00070025
:1052b000300798001e0890006040900049000700e9
:1052c000400798001e089000004890004500070025
:1052d000500798001e0890002048900041000700e9
:1052e000600798002e009000c800dd003e0090008e
:1052f00000804000700798005e009000c800dd004c
:105300006e00900000804000000f980027e6a90082
:1053100058052000383b8800a80a2000383b880048
:1053200027a6a80031318000003020000100700065
:10533000303188009e00900021318800313180009a
:10534000f0cf2f00008060000090a0003031880076
:10535000fe0090002131880031318000f0cf2f0015
:10536000008060000080a00030318800ce009000f6
:105370002131880031318000f0cf2f0000806000a3
:10538000303188008e0890002131880027e6a8007f
:1053900027a6a9001e4078004f0478000080fa007c
:1053a000000006000400fa00100798001e0090009c
:1053b0004400de00004078006a00b9000000780078
:1053c000804078001e009000004078006f40600030
:1053d00000c04000004f78001e4078000080fa00b6
:1053e000000006000400fa00204798002e409000bc
:1053f0000001fb00706626000090b900c288de0044
:105400004f90de0000805000004078000000fb005c
:10541000c400dd002e4090000000fb0072662600f4
:105420000281b900c299de004f81de000281510085
:105430006a11b900020178000200500000407800b3
:105440000000fb0000804000000f78001e00780084
:105450000080fa00000006000000fa0004000700c7
:1054600010000700360007000080fa000000060068
:105470000000fa00c902a800c922a800c0e2a800e2
:10548000c9e2a9000742a9000722a8000762a900f3
:10549000e00920002010880007e2a8000080fa0040
:1054a000000006000200fa000040eb008201070045
:1054b000804078000174a100014f7800e19820003d
:1054c000209820008e010700b6020700e0cdb3004f
:1054d000e30207000040eb00e10207000040eb00a0
:1054e000df020700a6020700b7020700ad020700af
:1054f000e0cdb300da02070030c0b300d8020700e5
:1055000080c0b300d60207009d020700ae0207006c
:10551000a4020700e0cdb300d10207000040eb0079
:10552000cf0207001e4078000074a000cc020700e4
:1055300093020700a40207000080fa0000000600a2
:105540002000fa00e0c4b3000000fb00a10420002a
:10555000810f50001e003200a1042000810f500076
:105560000a003c0041042000810f5000610032001d
:1055700061042000810f500032003200110420002d
:10558000810f5000420032005d003700e10420002e
:10559000810f500054003200e1042000810f5000c0
