:020000040000fa
:080000000002040000000000f2
:020000040000fa
:100008009a0200009a0200009a0200009a02000078
:100018009a0200009a0200009a0200009a02000068
:100028009a0200009a0200009a0200009a02000058
:100038009a0200009a0200009a0200009a02000048
:100048009a0200009a0200009a020000b63a0000e4
:100058009a0200009a0200009a0200009a02000028
:100068009a0200009a0200009a0200006e3e000008
:100078009a0200009a0200009a0200009a02000008
:100088009a0200009a0200009a0200009a020000f8
:100098009a0200009a020000f83900009a02000053
:1000a8009a0200009a0200009a0200009a020000d8
:1000b8009a0200009a0200009a0200009a020000c8
:1000c8009a0200009a0200009a0200009a020000b8
:1000d8009a0200009a0200009a0200009a020000a8
:1000e8009a0200009a0200009a0200009a02000098
:1000f8009a0200009a0200009a0200009a02000088
:100108009a0200009a0200009a0200009a02000077
:100118009a0200009a0200009a0200009a02000067
:100128009a0200005e3b0000a03a00009a0200001c
:100138009a0200009a0200009a0200009a02000047
:100148009a0200009a0200009a0200009a02000037
:100158009a0200009a0200009a0200009a02000027
:100168009a0200009a0200009a0200009a02000017
:100178009a0200009a0200009a0200009a02000007
:100188009a0200009a0200009a0200009a020000f7
:100198009a0200009a0200009a0200009a020000e7
:1001a8009a0200009a0200009a0200009a020000d7
:1001b8009a0200009a0200009a0200009a020000c7
:1001c8009a0200009a0200009a0200009a020000b7
:1001d8009a0200009a0200009a0200009a020000a7
:1001e8009a0200009a0200009a0200009a02000097
:0801f8009a0200009a020000c7
:020000040000fa
:100208009a0200009a0200009a0200009a02000076
:100218009a0200009a0200009a0200009a02000066
:100228009a0200009a0200009a0200009a02000056
:100238009a0200009a0200009a0200009a02000046
:100248009a0200009a0200009a020000b63a0000e2
:100258009a0200009a0200009a0200009a02000026
:100268009a0200009a0200009a0200006e3e000006
:100278009a0200009a0200009a0200009a02000006
:100288009a0200009a0200009a0200009a020000f6
:100298009a0200009a020000f83900009a02000051
:1002a8009a0200009a0200009a0200009a020000d6
:1002b8009a0200009a0200009a0200009a020000c6
:1002c8009a0200009a0200009a0200009a020000b6
:1002d8009a0200009a0200009a0200009a020000a6
:1002e8009a0200009a0200009a0200009a02000096
:1002f8009a0200009a0200009a0200009a02000086
:100308009a0200009a0200009a0200009a02000075
:100318009a0200009a0200009a0200009a02000065
:100328009a0200005e3b0000a03a00009a0200001a
:100338009a0200009a0200009a0200009a02000045
:100348009a0200009a0200009a0200009a02000035
:100358009a0200009a0200009a0200009a02000025
:100368009a0200009a0200009a0200009a02000015
:100378009a0200009a0200009a0200009a02000005
:100388009a0200009a0200009a0200009a020000f5
:100398009a0200009a0200009a0200009a020000e5
:1003a8009a0200009a0200009a0200009a020000d5
:1003b8009a0200009a0200009a0200009a020000c5
:1003c8009a0200009a0200009a0200009a020000b5
:1003d8009a0200009a0200009a0200009a020000a5
:1003e8009a0200009a0200009a0200009a02000095
:0803f8009a0200009a020000c5
:020000040000fa
:100400000fcf20000eff20000e018800000000002a
:10041000000020000000e000020032000001200087
:10042000200288000c00070040ea230001002000a1
:1004300011000700000020000000e0000200320070
:100440000000020000000000a816020000000000ea
:100450000040da000000fe004440a90060122000c5
:100460000000e0000300320000002000a00188002e
:100470004440a80000000600910188008000780038
:100480000000eb0015003700e280400032a0b4000d
:100490009101ba00e280400032a0b4009102ba009b
:1004a000e280400032a0b4000002eb00472bde00e7
:1004b000f507b200602ce10004003a000059eb009f
:1004c0008301e900fdff3e00040037006128e100e0
:1004d000010032000082eb00040007001101ba00a5
:1004e0000200e000e8ff3a00000006003159ba00bf
:1004f0008301e9000c0032002159ba008301e900b0
:10050000080032000400e00003003a00e2804000ee
:1005100032a0b400f5ff370011d9ba008301e90019
:10052000faff3a008100e800e180400032a0b40008
:10053000000006000040da000000fe006022b80063
:10054000060220000000d0008180d2000482d20088
:100550008582d2000000a0000202520083825a006d
:10056000030031000202420083824a000000a10021
:100570000603e900f3ff3a000000060006c2b300dc
:100580000002780004007800b042780086cf520064
:10059000fbff3200e9cf5200f9ff3200d6c2b300b0
:1005a00086cf520003003a000002780016c0b30064
:1005b000050037000043eb00b7c2b30087cf5200fd
:1005c00001003a00000278000000eb000200370052
:1005d0006a00b90000804200b402fb000503b100cc
:1005e000e98f5200faff3600e04f5300010032005d
:1005f0000000ea0000000600810378008001780016
:100600000702780001003700850178001100090019
:100610000282d8008302e80000027800e00f520056
:10062000f9ff3a00844a7800110009008283d8005b
:10063000800278000142780085037800e94f52007b
:10064000010034006742420001c3b30081514200ff
:10065000e08f5200f4ff3a0003007800000006002b
:10066000881f780000047800e08f500005003d00ee
:1006700008007800d4c2b3008100ea000458780072
:100680000100370008007800dbff07000800780051
:080690004f0478000000060091
:020000040000fa
:10069800200000002e0d00000a0000003a000000b3
:1006a8007365000074000000746900006d65000047
:1006b800007000006f7700006572000000610000a4
:1006c8006c610000726d000000700000776400002b
:1006d800006500006d650000720000007265000092
:1006e8007365000074000000726500006c61000012
:1006f8007900000073740000617400000068000055
:100708006c00000068690000676800000075000060
:1007180070640000617400006500000072650000ec
:10072800616400000076000065720000730000003c
:100738007077000072660000616900006c000000bc
:10074800546900006d6500000053000065740000e6
:10075800005000006f770000657200000041000043
:100768006c610000726d00000050000077640000aa
:10077800004500006d65000072000000566500002d
:100788007273000000500000445400000050000044
:1007980055540000005200006573000065740000a5
:1007a800004f00006e000000526500006c61000000
:1007b80079000000460000005374000061740000d6
:1007c800004800006967000068000000484c00000d
:1007d800004c00006f77000000300000005200005d
:1007e8006561000064000000507700007246000058
:1007f800616900006c000000557000006461000031
:1008080074650000004e00006f7700000052000081
:10081800656200006f6f000074000000454e000024
:100828004400000053650000740000005761000098
:100838007474000073000000436f00006e660000cf
:10084800005600006f6c0000747300000041000047
:100858006d700000730000005053000056650000e2
:1008680072730000696f00006e0000004c450000c4
:10087800440000004f6e0000004f00006666000054
:10088800004c000045440000420000005265000092
:100898006164000000440000617400006100000011
:1008a80030000000506f0000776500007200000003
:1008b8004c6f000073740000004700006f74000064
:1008c80000000000484800003a4d00004d3a000082
:0c08d800444400003a4d00004d000000b8
:020000040000fa
:1008e4000000fa000002eb00245b8800245b800017
:1008f400145b88000042eb000400780061ebb70051
:100904000002eb0074588800745880006458880012
:100914000042eb00040078000aebb7000042eb0051
:1009240004007800e9eab7000042eb000400780014
:10093400e2eab70024ae20001442780004007800f4
:10094400e1eab70014ae20001442780004007800f5
:10095400e0eab70004ae20001442780004007800f6
:10096400dfeab700f4ad20001442780004007800f8
:10097400deeab7000042eb0004007800e7eab700c3
:1009840074ae20001442780004007800e6eab70050
:1009940064ae20001442780004007800e5eab70051
:1009a40054ae20001442780004007800e4eab70052
:1009b40044ae20001442780004007800e3eab70053
:1009c4000080fa00000006000000fa00030007009f
:1009d4006c0107000080fa00000006000600fa001f
:1009e40069003700a4ae200014427800e04f5200a2
:1009f40011003a0034ae200014427800e04f520057
:100a04000d0032009192200020952000bf020700c3
:100a14000042eb0004007800e3eab70091022000f2
:100a240020952000a702070014c0b3000002fd00b7
:100a3400eaeab7000002fd0034ae20001442780058
:100a4400e04f520011003a0044ae200014427800f6
:100a5400e04f52000d00320021952000b097200095
:100a6400aa0207000042eb0004007800e4eab700a1
:100a740091022000b09720009202070014c0b30036
:100a84000002fd00e3eab7000002fd0044ae2000ce
:100a940014427800e04f520011003a0054ae200096
:100aa40014427800e04f52000d003200b19720004c
:100ab400409a2000950207000042eb0004007800f1
:100ac400e5eab70091022000409a20007d02070069
:100ad40014c0b3000002fd00e4eab7000002fd0008
:100ae40054ae200014427800e04f520011003a0046
:100af40064ae200014427800e04f52000d00320032
:100b0400419a2000d09c2000800207000042eb00a4
:100b140004007800e6eab70091022000d09c20008f
:100b24006802070014c0b3000002fd00e5eab70044
:100b34000002fd0064ae200014427800e04f520031
:100b440011003a0074ae200014427800e04f5200c5
:100b54000d003200d19c2000609f20006b02070032
:100b64000042eb0004007800e7eab700910220009d
:100b7400609f20005302070014c0b3000002fd0070
:100b8400e6eab7000002fd00a4ae2000144278009b
:100b9400e04f520014003a0034ae200014427800b2
:100ba400e04f52008fff3a0044ae20001442780018
:100bb400e04f52008bff3a0054ae200014427800fc
:100bc400e04f520087ff3a0064ae200014427800e0
:100bd400e04f520083ff3a0074ae200014427800c4
:100be400e04f52007fff3a00a4ae20001442780088
:100bf400e04f5200e100320084ae2000144278003d
:100c0400e04f5200dd003a000002eb00040f7800d0
:100c140011003700c4aa20009e0242000042eb00eb
:100c2400844a7800c4aa20001e02420014427800bc
:100c3400a5a720009e824200844a7800a4a7200031
:100c44001e0242001442780085a420009e824200c5
:100c5400844a78001e0fe800140320009e027800e6
:100c6400848f5200ebff3400959220009542780067
:100c740054c2b30084cf5200050032000042eb009e
:100c84000002fd00eaeab7000002fd00bb003700e5
:100c940014002000140798000002eb0024079800b9
:100ca4000e0037009e0290009492200004824200bd
:100cb400144278002e03900085a42000850243008e
:100cc400844a78002e0290000402e8002407980069
:100cd4001e0290000402e800140798009e0290008f
:100ce400949220000482420094427800f4c2b3003b
:100cf40084cf52000f0034009e0290009492200092
:100d04000482420094427800f4c7b30084cf5200b6
:100d140008003200ae02900014032000848f5200b9
:100d240004003c009e02900074022000848f520054
:100d3400dcff34009e029000949220000482420062
:100d44009442780004c2b30004c26a000482fb0027
:100d54000402ea004f22de00044278009e02900062
:100d64008502e80015079800e04f520005003200a4
:100d74000042eb000002fd00eaeab7000002fd00b9
:100d84007e0037000002eb00240798000e003700b5
:100d94009e02900094922000048242001442780043
:100da4002e039000a5a7200085024300844a780002
:100db4002e0290000402e800240798001e0290000e
:100dc4000402e800140798009e0290009492200008
:100dd4000482420094427800f4c2b30084cf5200eb
:100de4000f0034009e02900094922000048242007e
:100df40094427800f4c7b30084cf52000800320054
:100e0400ae02900014032000848f520004003c00c2
:100e14009e02900074022000848f5200dcff340094
:100e24009e02900094922000048242009442780032
:100e340004c2b30004c26a000482fb000402ea0094
:100e44004f22de00044278009e0290008502e800f2
:100e540015079800e04f5200050032000042eb00f5
:100e64000002fd00eaeab7000002fd00430037007b
:100e74000002eb00240798000e0037009e02900049
:100e84009492200004824200144278002e039000c1
:100e9400c5aa200085024300844a78002e029000ef
:100ea4000402e800240798001e0290000402e800ef
:100eb400140798009e02900094922000048242003d
:100ec40094427800f4c2b30084cf52000f0034007f
:100ed4009e02900094922000048242009442780082
:100ee400f4c7b30084cf520008003200ae02900071
:100ef40014032000848f520004003c009e029000e2
:100f040074022000848f5200dcff34009e029000a3
:100f1400949220000482420094427800e4c2b30018
:100f240084cf5200050032000042eb000002fd00b5
:100f3400eaeab7000002fd001000370014c0b30055
:100f44000002fd00e8eab7000002fd000042eb00e9
:100f54000002fd00eaeab7000002fd000042eb00d7
:100f64000002fd00ebeab7000002fd00ba02070030
:100f74008102200090922000520107000080fa00b4
:100f8400000006000000fa0094ae2000144278002d
:100f9400e04f52001a003a00e4ad200014427800f9
:100fa400e04f52001600320001b12000908320006f
:100fb4005601070014c0b300040078000aebb70020
:100fc40061b62000908320005001070014c0b300d4
:100fd4000400780061ebb7000042eb0004007800e5
:100fe400deeab7008102200090832000350107006b
:100ff40014c0b3000002fd00e9eab7000002fd00de
:10100400e4ad200014427800e04f520011003a0091
:10101400f4ad200014427800e04f52000d0032007d
:101024009183200010862000380107000042eb0065
:1010340004007800dfeab700810220001086200057
:101044002001070014c0b3000002fd00deeab7006f
:101054000002fd00f4ad200014427800e04f52007d
:1010640011003a0004ae200014427800e04f520010
:101074000d00320011862000908820002301070013
:101084000042eb0004007800e0eab700810220008f
:10109400908820000b01070014c0b3000002fd007b
:1010a400dfeab7000002fd0004ae2000144278001d
:1010b400e04f520011003a0014ae200014427800b0
:1010c400e04f52000d00320091882000108b200068
:1010d4000e0107000042eb0004007800e1eab700cb
:1010e40081022000108b2000f600070014c0b3001a
:1010f4000002fd00e0eab7000002fd0014ae20008b
:1011040014427800e04f52002e003a0024ae200032
:1011140014427800e04f52002c003200118b200062
:10112400908d2000f90007000042eb0004007800d5
:10113400e2eab70081022000908d2000e100070060
:1011440014c0b3000002fd00e1eab7000002fd0094
:101154001f0037006558800004b12000048242005b
:10116400144278000402fb00a41188000502e80080
:10117400645888006558800004b12000048242004d
:1011840014427800e04f5200070032006458800097
:101194008402e90004b12000048242001442780071
:1011a400ea4f52000a003a000002eb00645888003b
:1011b4000042eb000002fd000aebb7000002fd0054
:1011c40003003700000000000100370000000000a9
:1011d400951180000410200004826200e00f520088
:1011e400270032006558800004b1200004824200c8
:1011f40014427800e04f520023003200a4b02000d3
:1012040014427800e04f5200d2ff3a001f0037002a
:10121400155b800064b6200004824200144278000a
:101224000402fb00241188000502e800145b880016
:10123400155b800064b620000482420014427800ea
:10124400e04f520007003200145b80008402e90082
:1012540064b620000482420014427800ea4f52002f
:101264000a003a000002eb00145b88000042eb0025
:101274000002fd0061ebb7000002fd00030037002f
:10128400000000000100370000000000151180007c
:101294000410200004826200e00f52000a003200b1
:1012a400155b800064b6200004824200144278007a
:1012b400e04f52000400320014b6200014427800bb
:1012c400e04f5200d2ff3a0094ae2000144278005e
:1012d400e04f52000b003200a4b02000144278000a
:1012e400e04f520007003a0014b620001442780080
:1012f400e04f520003003a000042eb000400780083
:10130400e9eab7000080fa00000006000000fa00d5
:10131400e4ad200014427800e04f520006003a0089
:1013240014c0b3000002fd00deeab7000002fd00b5
:101334009483200029003700f4ad20001442780083
:10134400e04f520006003a0014c0b3000002fd0052
:10135400dfeab7000002fd00148620001f003700fa
:1013640004ae200014427800e04f520006003a0018
:1013740014c0b3000002fd00e0eab7000002fd0063
:10138400948820001500370014ae20001442780021
:10139400e04f520006003a0014c0b3000002fd0002
:1013a400e1eab7000002fd00148b20000b003700b7
:1013b40024ae200014427800e04f520006003a00a8
:1013c40014c0b3000002fd00e2eab7000002fd0011
:1013d400948d200001003700149020000400780050
:1013e4000080fa00000006000000fa0034ae20007d
:1013f40014427800e04f520006003a0014c0b300d3
:101404000002fd00e3eab7000002fd00249520007d
:101414002900370044ae200014427800e04f520007
:1014240006003a0014c0b3000002fd00e4eab7006d
:101434000002fd00b49720001f00370054ae2000c6
:1014440014427800e04f520006003a0014c0b30082
:101454000002fd00e5eab7000002fd00449a200006
:101464001500370064ae200014427800e04f5200ab
:1014740006003a0014c0b3000002fd00e6eab7001b
:101484000002fd00d49c20000b00370074ae200045
:1014940014427800e04f520006003a0014c0b30032
:1014a4000002fd00e7eab7000002fd00649f20008f
:1014b40001003700f4a12000040078000080fa0045
:1014c400000006000600fa001007980021079800a3
:1014d4000002eb00040f7800060037001e027800bb
:1014e4009e029000848242000042eb00844a78000d
:1014f4001e0fe8002e0290009e027800848f520096
:10150400f6ff35000080fa00000006000600fa002d
:1015140010079800210798000002eb00040f7800e0
:10152400090037001e027800ae0290008482420057
:101534001e0278001e039000040243001442780047
:10154400844a78001e0fe8001e0278009e02900074
:101554000482420014427800e04f5200f1ff3a0046
:101564001e027800ae029000848242000042eb002a
:10157400844a78000080fa00000006000800fa009f
:1015840020079800310798000002eb00040f780050
:101594002e0090003e000700000278001407980017
:1015a4000a0037001e0290001e024200ae029000a4
:1015b400848242001e0278003e039000040243002d
:1015c40014427800844a78001e0fe8001e02780056
:1015d400be0290000482420014427800e04f5200a0
:1015e400f0ff3a001e0290001e024200ae0290007c
:1015f400848242000042eb00844a78000080fa00b2
:10160400000006000600fa00100798002107980061
:101614000002eb00040f78000d0037001e02780072
:101624009e02900004824200944278001e027800d8
:101634002e039000040243001442780084cf520029
:101644000200320014c0b3000e0037001e0fe80081
:101654001e0278009e029000048242001442780028
:10166400e04f5200060032001e027800ae029000e5
:101674000482420014427800e04f5200e7ff3a002f
:101684000042eb00044078000080fa0000000600ed
:101694000400fa00100798000002eb00040f780021
:1016a400000000001e0278009e02900004824200a6
:1016b400144278000482fb000402ea004f22de0098
:1016c400044278001e0fe800e04f5200f5ff3a0094
:1016d4001e02e900040078000080fa000000060001
:1016e4003800fa00101f9800211f9800321f98003c
:1016f4005402200005002000048fbe00640247004d
:1017040016000900001aeb009e1890000e007800e5
:101714009aff0700c13428000e00780097ff0700e5
:10172400ae1890000e00780094ff0700c134280022
:101734000e00780091ff0700be1890000e0078009c
:101744008eff0700e13428000e0078008bff0700ad
:10175400eefe070000027800840078000e00780096
:101764006aff07000080fa00000006003a00fa0051
:10177400101f9800211f9800321f9800431f9800e3
:101784006022b800048fbe006402470016000900fe
:10179400001aeb00be1890000e00780077ff0700d7
:1017a400213528000e00780074ff0700ce18900041
:1017b4000e00780071ff07000e017800ae1890004b
:1017c4001e189000c6ff07000080fa000000060003
:1017d4003c00fa00101f9800211f9800321f980047
:1017e400431f9800541f98006022b800048fbe0065
:1017f4006402470016000900001aeb00ce1890009e
:101804000e0078005dff0700213528000e007800e7
:101814005aff0700de1890000e00780057ff0700fb
:101824008e0178003e199000ae1890001e189000aa
:10183400ceff07000080fa00000006003e00fa0018
:10184400101f9800211f9800321f9800431f980012
:10185400541f9800651f98006022b800048fbe00d2
:101864006402470016000900001aeb00de1890001d
:101874000e00780041ff0700213528000e00780093
:101884003eff0700ee1890000e0078003bff0700b3
:101894000e027800ce1990003e199000ae18900008
:1018a4001e189000caff07000080fa00000006001e
:1018b4004000fa00101f9800211f9800321f980062
:1018c400431f9800541f9800651f9800761f9800c6
:1018d4006022b800048fbe006402470016000900ad
:1018e400001aeb00ee1890000e00780023ff0700aa
:1018f400213528000e00780020ff0700fe18900014
:101904000e0078001dff07008e0278005e1a90001a
:10191400ce1990003e199000ae1890001e18900049
:10192400c6ff07000080fa00000006000a00fa0063
:1019340030079800014f98000002eb00040f780074
:101944000002eb00140798000042eb0044479800a3
:10195400100037001e027800be029000048242008c
:1019640094427800a4c3b30004c26a000482fb005a
:101974000402e9004f22de00044278001e0fe80052
:10198400e04f5200030032004e4290000442e8004f
:1019940044479800ce4290000e4a900084cf5200f3
:1019a40012003d00140320009e027800848f520030
:1019b400e8ff34000e0037001e027800be029000db
:1019c40004824200144278001e039000f5c72000f0
:1019d40085024300844a78001e0290000402e80055
:1019e400140798001e0fe8000100370000000000f3
:1019f4001e027800be0290000482420094427800e5
:101a0400a4c3b30084cf52000a0032001e0278003f
:101a1400be0290000482420014427800e04f52005b
:101a240004003200140320009e027800848f5200c8
:101a3400e1ff34009e029000f4c72000848242003b
:101a44000042eb00844a7800f4c7200004007800c8
:101a54000080fa00000006000600fa0084ae2000b0
:101a640014427800e04f52005602320041352800fb
:101a740080a42000e3fe070000427800e04f5200fb
:101a8400db013a0081352800a0a72000ddfe070015
:101a940000427800e04f520068003a00c4aa2000d7
:101aa400144278000402fb000403b10004427800ed
:101ab4006a22b9000402780084427800d4aa200083
:101ac4001442780084c2420004cdb30004c2420030
:101ad400044f7800e4aa2000144278000402fb00ba
:101ae4000403b100044278006a22b90004027800b9
:101af40084427800f4aa20001442780084c2420090
:101b040004cdb30004c242001447980004ab200083
:101b1400144278000402fb000403b100044278007c
:101b24006a22b900040278008442780014ab2000d1
:101b34001442780084c2420004cdb30004c24200bf
:101b44002447980024ab2000144278000402fb00d0
:101b54000403b100044278006a22b9000402780048
:101b64008442780034ab20001442780084c24200de
:101b740004cdb30004c242003447980044ab2000b3
:101b8400144278000402fb000403b100044278000c
:101b94006a22b900040278008442780054ab200021
:101ba4001442780084c2420004cdb30004c242004f
:101bb4004447980064ab2000144278000402fb0000
:101bc4000403b100044278006a22b90004027800d8
:101bd4008442780074ab20001442780084c242002e
:101be40004cdb30004c2420054479800de42900082
:101bf4004e429000be4190002e4190009e409000c5
:101c04001e407800f4160700de4290004e42900019
:101c1400be4090002e4090009e4390001e437800ea
:101c240081417800004178008740780006407800c0
:101c3400b81307006a130700dd013700d135280007
:101c4400a0a720006ffe070000427800e04f52007a
:101c540037003a008040eb00c0aa200033ff0700a1
:101c6400000278000400780043fa070000027800bc
:101c7400cfa2de00d45f8800e55f880011c0b30006
:101c8400c0aa200029ff07000002780004007800a1
:101c940039fa070000027800cfa2de00b45f8800a2
:101ca400c55f880021c0b300c0aa20001fff070041
:101cb40000027800040078002ffa07000002780080
:101cc400cfa2de00f45f880005608800d45f800046
:101cd400e55f80003440880045408800d45f800080
:101ce400e55f8000632bb900060378006020b9002b
:101cf4008003780007034300840278003400200046
:101d0400042ab80005034300860278004e2bdd0048
:101d14004222de0004027300c22ade00544088001e
:101d2400654088005e070700a0080700a00137008f
:101d340031362800a0a7200032fe070000427800b8
:101d4400e04f520035003a008040eb00c0aa20006a
:101d5400f6fe0700000278000400780006fa070087
:101d640000027800044278000400780026e8b700f6
:101d740011c0b300c0aa2000ecfe070000027800e6
:101d840004007800fcf9070000027800044278009f
:101d94000400780029e8b70021c0b300c0aa2000dd
:101da400e2fe07000002780004007800f2f9070060
:101db4000002780004427800040078002ae8b700a2
:101dc40031c0b300c0aa2000d8fe0700000278008a
:101dd40004007800e8f90700000278000442780063
:101de4000400780027e8b70041c0b300c0aa20006f
:101df400cefe07000002780004007800def9070038
:101e040000027800044278000002fd0028e8b700d0
:101e14000002fd005f0907006501370091362800c4
:101e2400a0a72000f7fd070000427800e04f520011
:101e340020003a00c4aa2000144278000002fd00e9
:101e44001ae8b7000002fd00d4aa2000144278006a
:101e54000002fd001be8b7000002fd00e4aa200018
:101e6400144278000002fd001ce8b7000002fd00e7
:101e7400f4aa2000144278000002fd001de8b70017
:101e84000002fd0004ab2000144278000002fd00b3
:101e94001ee8b7000002fd0014ab200014427800d5
:101ea4000002fd001fe8b7000002fd0073070700f1
:101eb4003f013700d1362800a0a72000d1fd07003c
:101ec40000427800e04f520063003a008040eb008b
:101ed400c0aa200095fe07000002780004007800e4
:101ee400a5f9070000027800044278000400780095
:101ef40023e8b70011c0b300c0aa20008bfe07007e
:101f040000027800040078009bf9070000027800c2
:101f14002441880021c0b300c0aa200083fe07002a
:101f2400000278000400780093f9070000027800aa
:101f340074578800a4418000b5418000823e20008f
:101f4400030020000400be007bf907000002be006d
:101f54000403be0074578000cfa2de00840f530038
:101f6400858f5b001f003600c462a900745780008f
:101f7400cfa2de0086c12f0006abb90006037800ad
:101f84008083eb0007a0b9008003780007034300b7
:101f94008402780084c12f00042ab800050343009a
:101fa400860278000403be00a4418000b54180008d
:101fb4000602420087824a00a4418800b541880095
:101fc400745780006123b9006463800075638000e6
:101fd4000602420087824a006463880075638800b1
:101fe4001b00370074578000e00f520012003200cb
:101ff400b45f8000c55f8000823e200003002000a3
:102004000400be004cf907000002be000403be0039
:10201400d45f8000e55f80000403530085835b0088
:1020240064638000756380000602420087824a0070
:1020340064638800756388006022b800a441880046
:10204400b54188006022b800b45f8800c55f88008d
:102054001a080700d600370021372800a0a720005f
:1020640068fd070000427800e04f520017003a0074
:102074008040eb00c0aa20002cfe0700000278007c
:10208400040078003cf9070000027800044278005c
:102094000400780003e8b70011c0b300c0aa200010
:1020a40022fe0700000278000400780032f90700dd
:1020b40000027800044278000002fd0004e8b70042
:1020c4000002fd0040080700b900370081372800ee
:1020d400a0a720004bfd070000427800e04f52000b
:1020e40010003a00c5aa20009542780064c6b300e7
:1020f40084cf520005003a000042eb000002fd00cc
:102104000fe8b7000002fd000400370000c2eb0036
:102114000002fd000fe8b7000002fd00930d070068
:10212400a3003700e1372800a0a7200035fd0700f1
:1021340000427800e04f520015003a008040eb0066
:10214400c0aa2000f9fd070000027800040078000e
:1021540009f9070000027800cfa2de00844088005d
:102164009540880011c0b300c0aa2000effd07000d
:102174000002780004007800fff8070000027800ed
:10218400cfa2de00a4408800b54088008800370054
:1021940031382800a0a720001afd0700004278006b
:1021a400e04f520082003a0061382800c0aa2000a3
:1021b40014fd070000427800e04f520005003a0089
:1021c40000c2eb000002fd000ee8b7000002fd00b3
:1021d400040037000042eb000002fd000ee8b700e7
:1021e4000002fd002b0d07002d06070070003700cc
:1021f400b138280080a4200002fd070000427800c6
:10220400e04f520002003a00f9000700680037006e
:102214002137280080a42000fafc0700004278003f
:10222400e04f520005003a0000c2eb000002fd003e
:1022340070ecb7000002fd005d0037002139280072
:1022440080a42000effc070000427800e04f520019
:1022540057003a0081352800a0a72000e9fc0700b8
:1022640000427800e04f520002003a005800070094
:102274004f003700d1352800a0a72000e1fc07005b
:1022840000427800e04f520002003a00d8000700f4
:102294004700370031362800a0a72000d9fc0700ea
:1022a40000427800e04f520002003a00f1000700bb
:1022b4003f00370091362800a0a72000d1fc07007a
:1022c40000427800e04f520002003a00210107006a
:1022d40037003700d1362800a0a72000c9fc07002a
:1022e40000427800e04f520002003a00300107003b
:1022f4002f00370071392800a0a72000c1fc070077
:1023040000427800e04f520002003a004801070002
:1023140027003700c1392800a0a72000b9fc070016
:1023240000427800e04f520002003a00c401070066
:102334001f00370021372800a0a72000b1fc0700a8
:1023440000427800e04f520002003a00c701070043
:102354001700370081372800a0a72000a9fc070038
:1023640000427800e04f520002003a00d901070011
:102374000f003700e1372800a0a72000a1fc0700c8
:1023840000427800e04f520002003a00e1010700e9
:102394000700370031382800a0a7200099fc070067
:1023a40000427800e04f520001003a00f8010700b3
:1023b4000042eb000002fd00e8eab7000002fd0065
:1023c40001003700000000000080fa000000060051
:1023d4000e00fa00821107006022b800048fbe00cc
:1023e40064004700030009000018eb000058eb00ec
:1023f400a4bc2000144278008482fb00a4002000c6
:10240400110009008482d800000278000442780098
:102414000443b000044f7800a4bc200014427800a8
:102424008482fb00a4002000110009008482d800eb
:1024340001027800044278000443b0001447980075
:10244400b4bc2000144278008482fb00a400200065
:10245400110009008482d800000278000442780048
:102464000443b00024479800b4bc20001442780010
:102474008482fb00a4002000110009008482d8009b
:1024840001027800044278000443b0003447980005
:10249400c4bc2000144278008482fb00a400200005
:1024a400110009008482d8000002780004427800f8
:1024b4000443b00044479800c4bc20001442780090
:1024c4008482fb00a4002000110009008482d8004b
:1024d40001027800044278000443b0005447980095
:1024e400e4bc2000144278008482fb00a400200095
:1024f400110009008482d8000002780004427800a8
:102504000443b00064479800e4bc200014427800ff
:102514008482fb00a4002000110009008482d800fa
:1025240001027800044278000443b0007447980024
:10253400f4bc2000144278008482fb00a400200034
:10254400110009008482d800000278000442780057
:102554000443b000044f9800f4bc200014427800f7
:102564008482fb00a4002000110009008482d800aa
:1025740001027800044278000443b000144f98002c
:1025840004bd2000144278008482fb00a4002000d3
:10259400110009008482d800000278000442780007
:1025a4000443b000244f980004bd20001442780076
:1025b4008482fb00a4002000110009008482d8005a
:1025c40001027800044278000443b000344f9800bc
:1025d4000042eb00444f98000e017800413a280075
:1025e400903a28003efc07000080fa000000060034
:1025f4001600fa00d4638000e563800004027800ca
:10260400a2002000840078000e007800f9f707008b
:10261400b4638000c56380008402780067024700c9
:10262400a20020008500780004007800f1f707007c
:1026340094638000a5638000840278006e024700e2
:10264400a20020008500780004007800e9f7070064
:102654006e024700e7024700850178000e0178000a
:10266400d13a2800903a280059fc07000080fa006b
:10267400000006000a00fa00648220001442780078
:102684000402fb00a20020008400780020c0200087
:10269400f2f7070000027800040f7800948220000b
:1026a400144278000402fb00a20020008400780099
:1026b400d0c02000e9f70700000278001407980052
:1026c400a4822000144278000402fb00a20020002f
:1026d4008400780080c12000e0f707000002780041
:1026e4002407980074822000144278000402fb003e
:1026f400a20020008400780030c22000d7f7070031
:102704000002780034079800848220001442780084
:102714000402fb00a200200084007800e0c2200034
:10272400cef7070000027800440798004e0390009b
:10273400be0290002e0290009e0190001e017800bf
:10274400313b2800903a280059fc07000080fa0029
:10275400000006000a00fa000002eb00040f7800f3
:1027640007003700a48120001e02420014427800b2
:102774008e82e8009e824200844a78001e0fe800a0
:102784001e027800e50f5200f6ff34000042eb0011
:10279400044f98000e82e80004017800913b280061
:1027a400903a2800cefb07000080fa0000000600e3
:1027b4000600fa0034822000144278000402fb0070
:1027c400a20020008400780020c02000a3f70700a6
:1027d40000027800040f780024418000a200200049
:1027e40084007800d0c020009cf707000002780025
:1027f4001407980084578000a20020008400780009
:1028040080c1200095f70700000278002407980093
:102814002e0290009e0190001e017800d13b2800fa
:10282400903a2800eafb07000080fa000000060046
:102834000a00fa0011c3b30070c3b30025c7b30084
:10284400e4c6b30084cf52001a00320025c7b30097
:1028540024c6b30084cf52001600320025c7b3004b
:1028640024c7b30084cf52001200320025c7b3003e
:1028740094c7b30084cf52000e00320025c7b300c2
:10288400c4c6b30084cf52000a00320025c7b30087
:1028940074c6b30084cf52000600320025c7b300cb
:1028a40004c7b30084cf5200020032001400200099
:1028b400010037000002eb00044278000443b0003a
:1028c4008443780025c7b300e4c6b30084cf520024
:1028d40009003a0005c7b30014c6b30084cf520000
:1028e40002003a0014c3b3000100370064c3b3000c
:1028f400844278003800370025c7b30024c6b300eb
:1029040084cf52003200320025c7b30024c7b3007d
:1029140084cf520008003a0015c4b300d4c4b300f5
:1029240084cf520002003a0034c3b30001003700e0
:1029340044c3b3002500370025c7b30094c7b300d0
:1029440084cf52002000320025c7b300c4c6b300b0
:1029540084cf52001a00320025c7b30074c6b300f6
:1029640084cf52001400320025c7b30004c7b3005b
:1029740084cf52000e00320025c7b30044c7b30011
:1029840084cf52000800320025c7b30064c7b300e7
:1029940084cf520002003a0014c3b3000100370090
:1029a40024c3b3000100370004c3b300010037009f
:1029b40094c3b3000100370084c3b300010037009f
:1029c40074c3b3000100370054c3b30001003700df
:1029d40024c3b3008442780006c2b30004c2b30027
:1029e400844f53000200320004c2b30001003700d8
:1029f40004c3b30026c3b300014f78001047980006
:102a04002747980035479800444798005647980050
:102a140004c3b3006447980014c3b3007447980018
:102a24000042eb00044f98000e017800213c28007e
:102a3400903a28002afb07000080fa0000000600f4
:102a44000000fa0022af2000713c2800903a2800d0
:102a540023fb0700e2af2000b13c2800903a280095
:102a64001ffb07000080fa00000006000400fa00c3
:102a740034802000144278000482fb00a20020006d
:102a84008400780020c02000f4f6070000027800db
:102a9400040f780044802000144278000482fb0074
:102aa400a200200084007800d0c02000ebf60700cc
:102ab40000027800140798009e0190001e0178001f
:102ac400f13c2800903a280028fb07000080fa0017
:102ad400000006000000fa00f48020001442780090
:102ae400e04f520005003200523d2800813d28008d
:102af400903a2800fafa070004003700e23d280063
:102b0400813d2800903a2800f5fa07000080fa0079
:102b1400000006000400fa00844080009540800014
:102b2400823e2000030020000400be0082f607005d
:102b34000002be0004027800a20020008400780095
:102b440020c02000c5f6070000027800040f7800ba
:102b5400a4408000b540800004027800a200200058
:102b640084007800d0c02000bcf607000002780082
:102b7400140798009e0190001e017800013e280071
:102b8400903a2800f9fa07000080fa0000000600d5
:102b94000000fa00e480200014427800e04f520064
:102ba40005003200523e2800a13e2800903a280039
:102bb400cbfa070004003700d23e2800a13e2800cb
:102bc400903a2800c6fa07000080fa0000000600c8
:102bd4000000fa00123f2800113f2800f03c2800b2
:102be400bffa07000080fa00000006000000fa00a7
:102bf4007ffe07000080fa00000006000000fa00d3
:102c0400123f2800413a2800303f2800b4fa070058
:102c14000080fa00000006000000fa00123f2800bd
:102c2400d13a2800303f2800adfa07000080fa00ae
:102c3400000006000000fa00123f2800313b280083
:102c4400303f2800a6fa07000080fa0000000600c2
:102c54000000fa00123f2800913b2800303f280072
:102c64009ffa07000080fa00000006000000fa0046
:102c7400123f2800d13b2800303f280098fa070073
:102c84000080fa00000006000000fa00123f28004d
:102c9400213c2800303f280091fa07000080fa0008
:102ca400000006000000fa00123f2800f13c280052
:102cb400303f28008afa07000080fa00000006006e
:102cc4000000fa00123f2800813d2800303f280010
:102cd40083fa07000080fa00000006000000fa00f2
:102ce400123f2800013e2800303f28007cfa0700ec
:102cf4000080fa00000006000000fa00123f2800dd
:102d0400a13e2800303f280075fa07000080fa0031
:102d1400000006000000fa00123f2800813f28004e
:102d2400303f28006efa07000080fa000000060019
:102d34000000fa00123f2800113f2800004028003c
:102d440067fa07000080fa00000006001200fa008b
:102d5400c900070062030700e40e0700c042a9008f
:102d6400c062a900c882a900c082a9000002eb00c9
:102d7400040f78000d003700c442a800c462a80004
:102d8400cc82a800c482a800400620009c1307003f
:102d9400c442a900c462a900cc82a900c482a900cb
:102da40040062000961307001e0fe8001e0278005c
:102db400e40f5200f0ff34000002eb001407980007
:102dc4000002eb00240798000002eb00340798008f
:102dd4000002eb00440798000002eb00540798003f
:102de4000042eb00444f98000042eb00544f98001f
:102df4000042eb00644f98000042eb00744f9800cf
:102e04000042eb0004579800f50e070004bd2000b3
:102e14001442780084427800f4bc20001442780004
:102e2400e6bc20001643780086407800c6bc20002b
:102e34001643780006407800b6bc2000164378009c
:102e440086437800a6bc20001643780081417800b0
:102e54000041780087407800064078005e12070041
:102e640003003700000000000100370000000000ec
:102e740005088000047d2000848f52001100360074
:102e84000002eb00040888001e0290000402e8001f
:102e9400140798002e0290000402e800240798000a
:102ea4003e0290000402e800340798004e029000ad
:102eb4000402e800440798005e0290000402e8005f
:102ec400540798001e029000e30f520004003600dd
:102ed40014c0b300444f98000002eb00140798009c
:102ee4002e029000e00f52000400320014c0b30020
:102ef400544f98000002eb0024079800be02900093
:102f0400743e2000848f52000400360014c0b300c5
:102f1400644f98000002eb0034079800ce02900042
:102f2400f4a52e00848f52000400360014c0b300b0
:102f3400744f98000002eb0044079800de029000f2
:102f4400743e2000848f52000400360014c0b30085
:102f5400045798000002eb00540798004e4a900072
:102f6400e04f5200070032000002eb001407980003
:102f7400b00a070000427800145798000042eb00a2
:102f8400444f98001e5290000404a200e04f5200e7
:102f9400b4ff32005c020700990207005e4a900009
:102fa400e04f5200050032000002eb0024079800b5
:102fb40085f607000042eb00544f98006e4a9000db
:102fc400e04f5200060032000002eb003407980084
:102fd400d5010700ce1207000042eb00644f9800b1
:102fe4000e529000e04f5200050032000002eb0048
:102ff40054079800bb1107000042eb0004579800e7
:103004007e4a9000e04f520098ff32000002eb002d
:1030140044079800720e070004bd20001442780093
:1030240084427800f4bc200014427800e6bc2000fe
:103034001643780086407800c6bc2000164378000a
:1030440006407800b6bc200016437800864378001a
:10305400a6bc200016437800814178000041780026
:103064008740780006407800db1107000042eb003f
:10307400744f98007eff37000000fa002810070004
:10308400020f070043000700f10107000d000700cd
:103094005f0f07007e1007000d020700123f280093
:1030a40071402800b04028008df90700123f280025
:1030b40071402800b040280089f907000080fa0018
:1030c400000006000000fa00b4c3b3000002fd00d3
:1030d40002e8b7000002fd006022b800f45f880037
:1030e400056088006022b800a4418800b5418800ca
:1030f4006022b800b45f8800c55f880086020700bc
:103104003640800047408000544080006540800085
:10311400840f5300858f5b001b003a00d45f80004e
:10312400e55f8000e00f5200e08f5a001600320085
:10313400d45f8000e55f800034408800454088000b
:10314400d45f8000e55f8000632bb900060378003c
:103154006020b900800378000703430084027800ec
:1031640034002000042ab8000503430086027800d6
:103174004e2bdd004222de0004027300c22ade0070
:103184005440880065408800450207000080fa002a
:10319400000006000e00fa00ed0247006c02470032
:1031a400eb0047006a004700e90347006803470053
:1031b400810178000001780087007800060078001b
:1031c400110e070014c3b3000402fb006a22b90005
:1031d4000402780005e22f008482420074c3b30025
:1031e4000402fb000403b10004824200cfa2de000b
:1031f400c423dd000600200025c7b300e4c6b300e5
:1032040084cf52000a003a0005c7b30014c6b300c5
:1032140084cf520003003a0004002000150020006f
:103224000200370004002000650020004100370040
:1032340025c7b30024c6b30084cf52003b0032003c
:1032440025c7b30024c7b30084cf52000a003a0054
:1032540015c4b300d4c4b30084cf520003003a00b1
:103264000400200035002000020037000400200084
:10327400450020002c00370025c7b30094c7b300d5
:1032840084cf52002600320025c7b300c4c6b30061
:1032940084cf52001f00320025c7b30074c6b300a8
:1032a40084cf52001800320025c7b30004c7b3000e
:1032b40084cf52001100320025c7b30044c7b300c5
:1032c40084cf52000a00320025c7b30064c7b3009c
:1032d40084cf520003003a0004002000b50020000f
:1032e4000200370004002000c5002000020037005f
:1032f40004002000a5002000020037000400200084
:103304009500200002003700040020008500200002
:10331400020037000400200075002000020037007e
:1033240004002000550020000200370004002000a3
:10333400250020000603420087834a0005c2b3002b
:1033440004c2b30084cf520004003a0024c3b30083
:103354000402fb000403b1000a00370004c2b300f6
:103364000402fb006a22b9000402780005e22f007f
:103374008482420024c3b3000402fb000403b100ae
:10338400048242006120b9004b0add00c502de0060
:10339400850272004b02dd000603420087834a0067
:1033a40004c3b3000402fb006a22b90004027800db
:1033b40005e22f008482420024c3b3000402fb0010
:1033c4000403b100048242006120b900460add0012
:1033d400ca02de00850272004602dd0006034200d6
:1033e40087834a0024c3b3000402fb006a22b900a5
:1033f4000402780005e22f008482420084c3b300f3
:103404000402fb000403b10004824200cfa2de00e8
:10341400041f430005974b000e4a90000482fb00f2
:1034240005002000c423dd00060020001e4a900091
:103434000482fb0005002000c022dd0004002000ff
:103444000603420087834a002e4a90000480fb0052
:10345400010020004b0add00c502de008502720077
:103464004b02dd000603420087834a003e4a900077
:103474000480fb0001002000460add00ca02de00d1
:10348400850272004602dd000603420087834a007b
:103494004e4a90000482fb00050020000602420010
:1034a40087824a0024079800350798002e0290006e
:1034b400be0290001e03be00840f5300858f5b0084
:1034c4009700360014c3b3006a22b90004027800de
:1034d4008442780044c3b30004c242000442e800ba
:1034e400544f980024c3b3006a22b9000402780040
:1034f4008442780084c3b30004c242007042520084
:10350400444f980004c3b3006a22b900040278004f
:103514008442780024c3b30004c2420070425200c3
:10352400344f9800de4a9000b4c3b30084cf5200f5
:103534000a0036004e4a90000442e800444f9800c6
:10354400ce4a9000b4c3b30084cf520003003600c7
:103554003e4a90000442e800344f98005e4a9000ce
:103564008482fb00c4032000110009008482d80077
:1035740001027800844178004e4a90008482fb0066
:10358400c4032000110009008482d80001027800dd
:1035940004417800be48900005c2b30004c2b300e1
:1035a40084cf520005003a0024c3b300844278005b
:1035b40004cdb30084c342000700370004c2b30043
:1035c4006a22b900040278008442780024c3b3005c
:1035d40004c24200f043520025c7b300e4c6b3005e
:1035e40084cf520009003a0005c7b30014c6b300e3
:1035f40084cf520002003a0014c0b3000100370027
:1036040064c0b300044378003800370025c7b30012
:1036140024c6b30084cf52003200320025c7b30061
:1036240024c7b30084cf520008003a0015c4b30085
:10363400d4c4b30084cf520002003a0034c0b300b3
:103644000100370044c0b3002500370025c7b3008c
:1036540094c7b30084cf52002000320025c7b300c2
:10366400c4c6b30084cf52001a00320025c7b30089
:1036740074c6b30084cf52001400320025c7b300cf
:1036840004c7b30084cf52000e00320025c7b30034
:1036940044c7b30084cf52000800320025c7b300ea
:1036a40064c7b30084cf520002003a00b4c0b30030
:1036b40001003700c4c0b30001003700a4c0b30048
:1036c4000100370094c0b3000100370084c0b30088
:1036d4000100370074c0b3000100370054c0b300c8
:1036e4000100370024c0b3000443780014c3b300be
:1036f4006a22b900040278008442780074c3b300db
:1037040004c24200704052008342780002427800b2
:10371400814178000741780086407800fd0c07005d
:103724000080fa00000006000000fa00e5bc20005a
:1037340095427800348020001442780084cf5200ef
:1037440036003a00f5bc2000954278004480200001
:103754001442780084cf520030003a0004bd2000a7
:1037640014427800e04f52002c003a00848120007b
:1037740014427800e04f5200280032000042eb006f
:103784000002fd0018e8b7000002fd000042eb0053
:103794000002fd0070ecb7000002fd00b65f80007f
:1037a400c75f800064638000756380000603420085
:1037b40087834a00844080009540800006024200ce
:1037c40087824a008440880095408800b65f800064
:1037d400c75f800064638000756380000602420056
:1037e40087824a00a4408800b54088006022b8005f
:1037f400a4418800b54188006022b800b45f880005
:10380400c55f88006022b80064638800756388001f
:10381400c0fc07007e0307000b00370084812000f2
:1038240014427800e04f520007003a0004bd200023
:1038340014427800e04f52000300320000c2eb0053
:103844000400780018e8b7000080fa0000000600c1
:103854000000fa000002eb00042788000002eb00dd
:10386400142788000002eb00141688000002eb0005
:10387400541688000082eb00041688000082eb00d6
:1038840044168800c002a800c802a900c822a800e3
:10389400c842a800c062a900c8e2a900c902a800e1
:1038a400c922a800c0e2a800c962a900c8c2a90030
:1038b400c9e2a9009400a9000080fa0000000600f3
:1038c4000000fa005640a8000080fa00000006003c
:1038d4000000fa00050480000400280005027200bc
:1038e400040488000080fa00000006000000fa00ca
:1038f40005048000f4ff27000482620004048800a9
:103904000080fa00000006000000fa00141680008f
:1039140061026200e00f520037003200348220005e
:1039240014427800e04f520033003200e5c7200013
:103934009542780004bd20001442780084cf5200e0
:103944002d003200a4418000b5418000823e200059
:10395400030020000400be00f7f207000002be00ce
:103964000403be0024418000cfa2de00840f530074
:10397400858f5b001600360024418000cfa2de0054
:1039840086c12f0006abb900060378008083eb00e4
:1039940007a0b9008003780007034300840278007d
:1039a40084c12f00042ab80005034300860278006e
:1039b4000403be00a4418000b54180000602420019
:1039c40087824a00a4418800b54188000600370078
:1039d4006022b800a4418800b54188006022b80084
:1039e400b45f8800c55f880004bd200014427800dd
:1039f400040078007eecb7000080fa0000000600a6
:103a04000000fa0004bd200014427800fe4f52006a
:103a14001b003a009481200014427800e04f5200c9
:103a240017003200f4bc2000144278008482fb00aa
:103a3400f4002000110009008482d80001027800fb
:103a440004427800e14f520007003200b65f800064
:103a5400c75f8000d45f8000e55f8000840f53005f
:103a6400858f5b000b003900340407000042eb0033
:103a74000002fd0019e8b7000002fd00060037004f
:103a840014c0b3000002fd0019e8b7000002fd00f5
:103a940001003700000000000080fa00000006006a
:103aa4000000fa00e480200014427800e04f520045
:103ab400050032003440800045408000d45f880017
:103ac400e55f8800040037005440800065408000b2
:103ad400d45f8800e55f88000080fa0000000600db
:103ae4000000fa0054052000343b8800a40a20009a
:103af400343b880027a6a800043022003431880013
:103b0400045020004431880027e6a80027a6a90015
:103b14000080fa00000006000000fa000a00070016
:103b24000c0107004101070083010700ce010700d3
:103b34007402070035030700c0060700f5060700f6
:103b44000080fa00000006000200fa0000000000f5
:103b54000100370000000000053b8000040028003d
:103b640004826200e00f5200faff3a00f4072000da
:103b7400044278000400780032e0b70004e02f002b
:103b8400040f78001e0278001402ba000442780080
:103b9400040078001ae8b700f40720000442780013
:103ba4000400780032e0b70024e02f00040f78000e
:103bb4001e0278001402ba0004427800040078005f
:103bc4001be8b700f40720000442780004007800e2
:103bd40032e0b70044e02f00040f78001e027800a2
:103be4001402ba0004427800040078001ce8b7000c
:103bf400f4072000044278000400780032e0b700a3
:103c040064e02f00040f78001e0278001402ba004a
:103c140004427800040078001de8b700f40720008f
:103c2400044278000400780032e0b70084e02f00fa
:103c3400040f78001e0278001402ba0004427800cf
:103c4400040078001ee8b700f4072000044278005e
:103c54000400780032e0b700a4e02f00040f7800dd
:103c64001e0278001402ba000442780004007800ae
:103c74001fe8b7000080fa00000006000200fa0006
:103c8400000000000100370000000000053b800038
:103c94000400280004826200e00f5200faff3a0098
:103ca40044002400043b8800f40720000442780008
:103cb4000002fd0032e0b7000002fd0004e02f0026
:103cc400040f7800a4812000144278008402fb00d1
:103cd4001e027800050abb000500fc005405200004
:103ce400343b8800a40a2000343b880061e7a80024
:103cf4000000000000000000000000000100370088
:103d040000000000053b80000400280004826200db
:103d1400e00f5200faff3a0044002400043b8800fc
:103d2400f4072000044278000002fd0032e0b700ee
:103d34000002fd0024e02f00040f7800b48120006d
:103d4400144278008402fb001e027800050abb00be
:103d54000500fc0054052000343b8800a40a200020
:103d6400343b880061e7a800000000000000000068
:103d7400000000000100370000000000053b800047
:103d84000400280004826200e00f5200faff3a00a7
:103d940044002400043b8800f40720000442780017
:103da4000002fd0032e0b7000002fd0044e02f00f5
:103db400040f7800c4812000144278008402fb00c0
:103dc4001e027800050abb000500fc005405200013
:103dd400343b8800a40a2000343b880061e7a80033
:103de4000000000000000000000000000100370097
:103df40000000000053b80000400280004826200eb
:103e0400e00f5200faff3a0044002400043b88000b
:103e1400f4072000044278000002fd0032e0b700fd
:103e24000002fd0064e02f00040f7800d48120001c
:103e3400144278008402fb001e027800050abb00cd
:103e44000500fc0054052000343b8800a40a20002f
:103e5400343b880061e7a800000000000000000077
:103e6400000000000100370000000000053b800056
:103e74000400280004826200e00f5200faff3a00b6
:103e840044002400043b8800f40720000442780026
:103e94000002fd0032e0b7000002fd0084e02f00c4
:103ea400040f7800e4812000144278008402fb00af
:103eb4001e027800050abb000500fc005405200022
:103ec400343b8800a40a2000343b880061e7a80042
:103ed40000000000000000000000000001003700a6
:103ee40000000000053b80000400280004826200fa
:103ef400e00f5200faff3a0044002400043b88001b
:103f0400f4072000044278000400780032e0b7008f
:103f1400a4e02f00040f7800f481200014427800fc
:103f24008402fb001e027800050abb000500fc00a9
:103f340054052000343b8800a40a2000343b880048
:103f440061e7a80000000000000000000080fa0003
:103f5400000006000200fa00000000000100370023
:103f640000000000053b8000040028000482620079
:103f7400e00f5200faff3a00f407200004427800f0
:103f84000400780032e0b700c4e02f00040f78008a
:103f94001e0278001402ba0005002000d45f8800d5
:103fa400e55f88000080fa00000006000200fa00c5
:103fb400000000000100370000000000053b800005
:103fc4000400280004826200e00f5200faff3a0065
:103fd40044002400043b8800f407200004427800d5
:103fe4000400780032e0b700c4e02f00040f78002a
:103ff400d45f8000e55f8000840278001e027800b0
:10400400050abb000500fc0054052000343b880071
:10401400a40a2000343b880061e7a80000000000e7
:10402400000000000080fa00000006000400fa000e
:10403400000000000100370000000000053b800084
:104044000400280004826200e00f5200faff3a00e4
:10405400f4072000044278000002fd0032e0b700bb
:104064000002fd00e4e02f00040f78001e02780037
:104074001402ba00140798001e029000e00f5200c8
:104084000700320014c0b3000002fd0023e8b700ab
:104094000002fd001e029000244188000500370044
:1040a4000042eb000400780023e8b7000002eb00b4
:1040b400244188000080fa00000006000200fa0093
:1040c400000000000100370000000000053b8000f4
:1040d4000400280004826200e00f5200faff3a0054
:1040e40044002400043b8800f407200004427800c4
:1040f4000400780032e0b700e4e02f00040f7800f9
:1041040024418000840278001e027800050abb0066
:104114000500fc0054052000343b8800a40a20005c
:10412400343b880061e7a8000000000000000000a4
:104134000080fa00000006000400fa0000000000fd
:104144000100370000000000053b80000400280047
:1041540004826200e00f5200faff3a00f4072000e4
:10416400044278000400780032e0b70004e12f0034
:10417400040f78001e0278001402ba001407980095
:104184009e02900044062000110009008482d80099
:1041940001027800044278000400780004e8b700c3
:1041a4009e02900044062000110009008482d80079
:1041b40000027800044278000400780003e8b700a5
:1041c4000080fa00000006000400fa00000000006d
:1041d4000100370000000000053b800004002800b7
:1041e40004826200e00f5200faff3a004400240007
:1041f400043b880044802000144278000483fb00c0
:1042040034802000144278008482fb00440620009d
:1042140004aab9000402780004024300040f7800e1
:10422400f4072000044278000400780032e0b7006c
:1042340004e12f00140798001e0290001e0abb0020
:104244000500fc0054052000343b8800a40a20002b
:10425400343b880061e7a800000000000000000073
:104264000080fa00000006000200fa0000000000ce
:104274000100370000000000053b80000400280016
:1042840004826200e00f5200faff3a00f4072000b3
:10429400044278000002fd0032e0b7000002fd0095
:1042a40024e12f00040f78001e0278001402ba00e3
:1042b400044278000002fd0026e8b7000002fd0079
:1042c400f4072000044278000002fd0032e0b70049
:1042d4000002fd0044e12f00040f78001e02780064
:1042e4001402ba00044278000002fd0027e8b70077
:1042f4000002fd00f4072000044278000002fd00e3
:1043040032e0b7000002fd0064e12f00040f7800e2
:104314001e0278001402ba00044278000002fd0074
:1043240028e8b7000002fd007482200014427800df
:10433400e04f52000500320014c0b3000002fd003b
:1043440029e8b7000002fd00040037000042eb003a
:104354000002fd0029e8b7000002fd00848220006d
:1043640014427800e04f52000500320014c0b3003c
:104374000002fd002ae8b7000002fd000300370038
:104384000042eb00040078002ae8b7000080fa003d
:10439400000006000200fa000000000001003700df
:1043a40000000000053b8000040028000482620035
:1043b400e00f5200faff3a0044002400043b880056
:1043c400f4072000044278000002fd0032e0b70048
:1043d4000002fd0024e12f00040f78006482200015
:1043e400144278008402fb001e027800050abb0018
:1043f4000500fc0054052000343b8800a40a20007a
:10440400343b880061e7a8000000000000000000c1
:10441400000000000100370000000000053b8000a0
:104424000400280004826200e00f5200faff3a0000
:1044340044002400043b8800f40720000442780070
:104444000002fd0032e0b7000002fd0044e12f004d
:10445400040f780074822000144278008402fb0068
:104464001e027800050abb000500fc00540520006c
:10447400343b8800a40a2000343b880061e7a8008c
:1044840000000000000000000000000001003700f0
:1044940000000000053b8000040028000482620044
:1044a400e00f5200faff3a0044002400043b880065
:1044b400f4072000044278000400780032e0b700da
:1044c40064e12f00040f78008482200014427800f5
:1044d4008402fb001e027800050abb000500fc00f4
:1044e40054052000343b8800a40a2000343b880093
:1044f40061e7a80000000000000000000080fa004e
:10450400000006000a00fa00000000000100370065
:1045140000000000053b80000400280004826200c3
:10452400e00f5200faff3a00f4072000044278003a
:104534000400780032e0b70084e12f00040f780013
:104544001e0278001402ba0014079800f407200031
:10455400044278000400780032e0b700a4e12f00a0
:10456400040f78001e0278001402ba002407980091
:10457400f4072000044278000400780032e0b70019
:10458400c4e12f00040f78001e0278001402ba0060
:1045940034079800f40720000442780004007800ef
:1045a40032e0b700e4e12f00040f78001e02780027
:1045b4001402ba00440798001e029000050020006f
:1045c400c023dd00060020002e029000050020001c
:1045d4000602420087824a00844088009540880091
:1045e4003e02900005002000c023dd0006002000ec
:1045f4004e029000050020000602420087824a0015
:10460400a4408800b54088000080fa00000006003d
:104614000a00fa008440800095408000402ade00b1
:10462400040f7800844080009540800014079800af
:10463400a4408000b5408000402ade002407980092
:10464400a4408000b54080003407980000000000ba
:104654000100370000000000053b80000400280032
:1046640004826200e00f5200faff3a004400240082
:10467400043b8800f4072000044278000002fd0097
:1046840032e0b7000002fd0084e12f0044079800e7
:104694004e0290001e0abb000500fc0054052000d9
:1046a400343b8800a40a2000343b880061e7a8005a
:1046b40000000000000000000000000001003700be
:1046c40000000000053b8000040028000482620012
:1046d400e00f5200faff3a0044002400043b880033
:1046e400f4072000044278000002fd0032e0b70025
:1046f4000002fd00a4e12f00440798004e02900040
:104704009e029000050abb000500fc005405200031
:10471400343b8800a40a2000343b880061e7a800e9
:10472400000000000000000000000000010037004d
:1047340000000000053b80000400280004826200a1
:10474400e00f5200faff3a0044002400043b8800c2
:10475400f4072000044278000002fd0032e0b700b4
:104764000002fd00c4e12f00440798004e029000af
:10477400ae029000050abb000500fc0054052000b1
:10478400343b8800a40a2000343b880061e7a80079
:1047940000000000000000000000000001003700dd
:1047a40000000000053b8000040028000482620031
:1047b400e00f5200faff3a0044002400043b880052
:1047c400f4072000044278000400780032e0b700c7
:1047d400e4e12f00440798004e029000be029000ce
:1047e400050abb000500fc0054052000343b88008a
:1047f400a40a2000343b880061e7a8000000000000
:10480400000000000080fa00000006000800fa0022
:10481400000000000100370000000000053b80009c
:104824000400280004826200e00f5200faff3a00fc
:10483400ee03070000427800444798004e4290007f
:104844000482fb00cfa2de008600200007002000c7
:10485400860f5200878f5a00ac003e0004600100ae
:10486400080037000c0037001f0037003200370003
:1048740045003700580037006b0037007e003700d2
:10488400910037000002eb00140798001e0290000c
:10489400040f78009d003700f407200004427800dc
:1048a4000002fd0032e0b7000002fd0004e22f0028
:1048b400340798003e029000140fba00f407200059
:1048c400044278000002fd0032e0b7000002fd005f
:1048d40024e22f00340798003e0290001402ba002c
:1048e4001407980089003700f40720000442780078
:1048f4000002fd0032e0b7000002fd0044e22f0098
:10490400340798003e029000140fba00f407200008
:10491400044278000002fd0032e0b7000002fd000e
:1049240064e22f00340798003e0290001402ba009b
:104934001407980075003700f4072000044278003b
:104944000002fd0032e0b7000002fd0084e22f0007
:10495400340798003e029000140fba00f4072000b8
:10496400044278000002fd0032e0b7000002fd00be
:10497400a4e22f00340798003e0290001402ba000b
:104984001407980061003700f407200004427800ff
:104994000002fd0032e0b7000002fd00c4e22f0077
:1049a400340798003e029000140fba00f407200068
:1049b400044278000002fd0032e0b7000002fd006e
:1049c400e4e22f00340798003e0290001402ba007b
:1049d400140798004d003700f407200004427800c3
:1049e4000002fd0032e0b7000002fd0004e32f00e6
:1049f400340798003e029000140fba00f407200018
:104a0400044278000002fd0032e0b7000002fd001d
:104a140024e32f00340798003e0290001402ba00e9
:104a24001407980039003700f40720000442780086
:104a34000002fd0032e0b7000002fd0044e32f0055
:104a4400340798003e029000140fba00f4072000c7
:104a5400044278000002fd0032e0b7000002fd00cd
:104a640064e32f00340798003e0290001402ba0059
:104a74001407980025003700f4072000044278004a
:104a84000002fd0032e0b7000002fd0084e32f00c5
:104a9400340798003e029000140fba00f407200077
:104aa400044278000002fd0032e0b7000002fd007d
:104ab400a4e32f00340798003e0290001402ba00c9
:104ac4001407980011003700f4072000044278000e
:104ad4000400780032e0b700c4e32f0034079800e4
:104ae4003e029000140fba00f4072000044278003c
:104af4000400780032e0b700e4e32f0034079800a4
:104b04003e0290001402ba00140798001e027800b6
:104b140005002000c023dd00060020001e029000d6
:104b2400050020000602420087824a00a441880052
:104b3400b54188000080fa00000006000800fa0071
:104b4400a4418000b5418000402ade00040f7800b3
:104b5400a4418000b541800014079800aa0307000f
:104b640000427800444798004e4290000482fb00c3
:104b74006123b9000082eb008082eb000602420050
:104b840087824a007600200007002000860f52002a
:104b9400878f5a00a7023e00046001000700370017
:104ba4005a003700ad0037000001370053013700c9
:104bb400a6013700f90137004c023700000000005d
:104bc4000100370000000000053b800004002800bd
:104bd40004826200e00f5200faff3a00440024000d
:104be400043b8800f4072000044278000002fd0022
:104bf40032e0b7000002fd0004e22f003407980001
:104c04003e0290001e0abb000500fc005405200073
:104c1400343b8800a40a2000343b880061e7a800e4
:104c24000000000000000000000000000100370048
:104c340000000000053b800004002800048262009c
:104c4400e00f5200faff3a0044002400043b8800bd
:104c5400f4072000044278000002fd0032e0b700af
:104c64000002fd0024e22f00340798003e02900069
:104c74009e029000050abb000500fc0054052000bc
:104c8400343b8800a40a2000343b880061e7a80074
:104c940000000000000000000000000001003700d8
:104ca40000000000053b800004002800048262002c
:104cb400e00f5200faff3a0044002400043b88004d
:104cc400f4072000044278000002fd0032e0b7003f
:104cd4000002fd0044e22f00340798003e029000d9
:104ce4008082eb00050abb000500fc00540520008f
:104cf400343b8800a40a2000343b880061e7a80004
:104d040000000000000000004a023700000000001c
:104d14000100370000000000053b8000040028006b
:104d240004826200e00f5200faff3a0044002400bb
:104d3400043b8800f4072000044278000002fd00d0
:104d440032e0b7000002fd0044e22f00340798006f
:104d54003e0290001e0abb000500fc005405200022
:104d6400343b8800a40a2000343b880061e7a80093
:104d740000000000000000000000000001003700f7
:104d840000000000053b800004002800048262004b
:104d9400e00f5200faff3a0044002400043b88006c
:104da400f4072000044278000002fd0032e0b7005e
:104db4000002fd0064e22f00340798003e029000d8
:104dc4009e029000050abb000500fc00540520006b
:104dd400343b8800a40a2000343b880061e7a80023
:104de4000000000000000000000000000100370087
:104df40000000000053b80000400280004826200db
:104e0400e00f5200faff3a0044002400043b8800fb
:104e1400f4072000044278000002fd0032e0b700ed
:104e24000002fd0084e22f00340798003e02900047
:104e34008082eb00050abb000500fc00540520003d
:104e4400343b8800a40a2000343b880061e7a800b2
:104e54000000000000000000f60137000000000020
:104e64000100370000000000053b8000040028001a
:104e740004826200e00f5200faff3a00440024006a
:104e8400043b8800f4072000044278000002fd007f
:104e940032e0b7000002fd0084e22f0034079800de
:104ea4003e0290001e0abb000500fc0054052000d1
:104eb400343b8800a40a2000343b880061e7a80042
:104ec40000000000000000000000000001003700a6
:104ed40000000000053b80000400280004826200fa
:104ee400e00f5200faff3a0044002400043b88001b
:104ef400f4072000044278000002fd0032e0b7000d
:104f04000002fd00a4e22f00340798003e02900046
:104f14009e029000050abb000500fc005405200019
:104f2400343b8800a40a2000343b880061e7a800d1
:104f34000000000000000000000000000100370035
:104f440000000000053b8000040028000482620089
:104f5400e00f5200faff3a0044002400043b8800aa
:104f6400f4072000044278000002fd0032e0b7009c
:104f74000002fd00c4e22f00340798003e029000b6
:104f84008082eb00050abb000500fc0054052000ec
:104f9400343b8800a40a2000343b880061e7a80061
:104fa4000000000000000000a20137000000000023
:104fb4000100370000000000053b800004002800c9
:104fc40004826200e00f5200faff3a004400240019
:104fd400043b8800f4072000044278000002fd002e
:104fe40032e0b7000002fd00c4e22f00340798004d
:104ff4003e0290001e0abb000500fc005405200080
:10500400343b8800a40a2000343b880061e7a800f0
:105014000000000000000000000000000100370054
:1050240000000000053b80000400280004826200a8
:10503400e00f5200faff3a0044002400043b8800c9
:10504400f4072000044278000002fd0032e0b700bb
:105054000002fd00e4e22f00340798003e029000b5
:105064009e029000050abb000500fc0054052000c8
:10507400343b8800a40a2000343b880061e7a80080
:1050840000000000000000000000000001003700e4
:1050940000000000053b8000040028000482620038
:1050a400e00f5200faff3a0044002400043b880059
:1050b400f4072000044278000002fd0032e0b7004b
:1050c4000002fd0004e32f00340798003e02900024
:1050d4008082eb00050abb000500fc00540520009b
:1050e400343b8800a40a2000343b880061e7a80010
:1050f40000000000000000004e0137000000000026
:105104000100370000000000053b80000400280077
:1051140004826200e00f5200faff3a0044002400c7
:10512400043b8800f4072000044278000002fd00dc
:1051340032e0b7000002fd0004e32f0034079800ba
:105144003e0290001e0abb000500fc00540520002e
:10515400343b8800a40a2000343b880061e7a8009f
:105164000000000000000000000000000100370003
:1051740000000000053b8000040028000482620057
:10518400e00f5200faff3a0044002400043b880078
:10519400f4072000044278000002fd0032e0b7006a
:1051a4000002fd0024e32f00340798003e02900023
:1051b4009e029000050abb000500fc005405200077
:1051c400343b8800a40a2000343b880061e7a8002f
:1051d4000000000000000000000000000100370093
:1051e40000000000053b80000400280004826200e7
:1051f400e00f5200faff3a0044002400043b880008
:10520400f4072000044278000002fd0032e0b700f9
:105214000002fd0044e32f00340798003e02900092
:105224008082eb00050abb000500fc005405200049
:10523400343b8800a40a2000343b880061e7a800be
:105244000000000000000000fa0037000000000029
:105254000100370000000000053b80000400280026
:1052640004826200e00f5200faff3a004400240076
:10527400043b8800f4072000044278000002fd008b
:1052840032e0b7000002fd0044e32f003407980029
:105294003e0290001e0abb000500fc0054052000dd
:1052a400343b8800a40a2000343b880061e7a8004e
:1052b40000000000000000000000000001003700b2
:1052c40000000000053b8000040028000482620006
:1052d400e00f5200faff3a0044002400043b880027
:1052e400f4072000044278000002fd0032e0b70019
:1052f4000002fd0064e32f00340798003e02900092
:105304009e029000050abb000500fc005405200025
:10531400343b8800a40a2000343b880061e7a800dd
:105324000000000000000000000000000100370041
:1053340000000000053b8000040028000482620095
:10534400e00f5200faff3a0044002400043b8800b6
:10535400f4072000044278000002fd0032e0b700a8
:105364000002fd0084e32f00340798003e02900001
:105374008082eb00050abb000500fc0054052000f8
:10538400343b8800a40a2000343b880061e7a8006d
:105394000000000000000000a6003700000000002c
:1053a4000100370000000000053b800004002800d5
:1053b40004826200e00f5200faff3a004400240025
:1053c400043b8800f4072000044278000002fd003a
:1053d40032e0b7000002fd0084e32f003407980098
:1053e4003e0290001e0abb000500fc00540520008c
:1053f400343b8800a40a2000343b880061e7a800fd
:105404000000000000000000000000000100370060
:1054140000000000053b80000400280004826200b4
:10542400e00f5200faff3a0044002400043b8800d5
:10543400f4072000044278000002fd0032e0b700c7
:105444000002fd00a4e32f00340798003e02900000
:105454009e029000050abb000500fc0054052000d4
:10546400343b8800a40a2000343b880061e7a8008c
:1054740000000000000000000000000001003700f0
:1054840000000000053b8000040028000482620044
:10549400e00f5200faff3a0044002400043b880065
:1054a400f4072000044278000002fd0032e0b70057
:1054b4000002fd00c4e32f00340798003e02900070
:1054c4008082eb00050abb000500fc0054052000a7
:1054d400343b8800a40a2000343b880061e7a8001c
:1054e400000000000000000052003700000000002f
:1054f4000100370000000000053b80000400280084
:1055040004826200e00f5200faff3a0044002400d3
:10551400043b8800f4072000044278000002fd00e8
:1055240032e0b7000002fd00c4e32f003407980006
:105534003e0290001e0abb000500fc00540520003a
:10554400343b8800a40a2000343b880061e7a800ab
:10555400000000000000000000000000010037000f
:1055640000000000053b8000040028000482620063
:10557400e00f5200faff3a0044002400043b880084
:10558400f4072000044278000002fd0032e0b70076
:105594000002fd00e4e32f00340798003e0290006f
:1055a4009e029000050abb000500fc005405200083
:1055b400343b8800a40a2000343b880061e7a8003b
:1055c400000000000000000000000000010037009f
:1055d40000000000053b80000400280004826200f3
:1055e400e00f5200faff3a0044002400043b880014
:1055f400f4072000044278000400780032e0b70089
:1056040004e22f00340798003e0290008082eb00f1
:10561400050abb000500fc0054052000343b88004b
:10562400a40a2000343b880061e7a80000000000c1
:10563400000000000080fa00000006000200fa00ea
:10564400000000000100370000000000053b80005e
:105654000400280004826200e00f5200faff3a00be
:10566400f4072000044278000400780032e0b70018
:1056740004e42f00040f78001e0278001402ba001c
:1056840004427800040078000ee8b7000080fa00b5
:10569400000006000200fa000000000001003700cc
:1056a40000000000053b8000040028000482620022
:1056b400e00f5200faff3a0044002400043b880043
:1056c400f4072000044278000400780032e0b700b8
:1056d40004e42f00040f7800e480200014427800d2
:1056e4008402fb001e027800050abb000500fc00d2
:1056f40054052000343b8800a40a2000343b880071
:1057040061e7a80000000000000000000080fa002b
:10571400000006000200fa0000000000010037004b
:1057240000000000053b80000400280004826200a1
:10573400e00f5200faff3a00f40720000442780018
:105744000400780032e0b70024e42f00040f78004e
:105754001e0278001402ba000442780004007800a3
:105764000fe8b7000080fa00000006000200fa000b
:10577400000000000100370000000000053b80002d
:105784000400280004826200e00f5200faff3a008d
:1057940044002400043b8800f407200004427800fd
:1057a4000400780032e0b70024e42f00040f7800ee
:1057b400f4802000144278008402fb001e0278006a
:1057c400050abb000500fc0054052000343b88009a
:1057d400a40a2000343b880061e7a8000000000010
:1057e400000000000080fa00000006001400fa0027
:1057f400f4072000044278000002fd0032e0b70004
:105804000002fd0004e22f00140798001e0290001d
:105814001402ba00240798002e029000e10f4200ff
:1058240003003a0084c0b300044f780072003700cc
:10583400f4072000044278000002fd0032e0b700c3
:105844000002fd0044e22f00340798003e0290005d
:105854001402ba00240798002e029000e10f4200bf
:1058640003003a0014c0b300044f7800620037000c
:10587400f4072000044278000002fd0032e0b70083
:105884000002fd0084e22f00440798004e029000bd
:105894001402ba00240798002e029000e10f42007f
:1058a40003003a0024c0b300044f780052003700cc
:1058b400f4072000044278000002fd0032e0b70043
:1058c4000002fd00c4e22f00540798005e0290001d
:1058d4001402ba00240798002e029000e10f42003f
:1058e40003003a0034c0b300044f7800420037008c
:1058f400f4072000044278000002fd0032e0b70003
:105904000002fd0004e32f00640798006e0290007b
:105914001402ba00240798002e029000e10f4200fe
:1059240003003a0044c0b300044f7800320037004b
:10593400f4072000044278000002fd0032e0b700c2
:105944000002fd0044e32f00740798007e029000db
:105954001402ba00240798002e029000e10f4200be
:1059640003003a0054c0b300044f7800220037000b
:10597400f4072000044278000002fd0032e0b70082
:105984000002fd0084e32f00040f98000e0a90002b
:105994001402ba00240798002e029000e10f42007e
:1059a40003003a0064c0b300044f780012003700cb
:1059b400f4072000044278000002fd0032e0b70042
:1059c4000002fd00c4e32f00140f98001e0a90008b
:1059d4001402ba00240798002e029000e10f42003e
:1059e40003003a0074c0b300044f7800020037008b
:1059f4000042eb00044f78001e4278000440780017
:105a04000080fa00000006000200fa0077ff070099
:105a140000427800044f78009e42780067c262001a
:105a2400044fe8001e427800044078000080fa0029
:105a3400000006002e00fa00c4ce200014427800b4
:105a4400e14f52001f003a00d0ce20007d00070035
:105a540000427800044f78001e427800e04f520064
:105a6400180032000042eb0004007800ececb700b0
:105a74000042eb0004007800b6ecb7000002eb0033
:105a8400c46588000002eb00d46588000042eb0086
:105a9400346f98000042eb00446f98000042eb0022
:105aa40004007800e5ecb7000042eb000400780045
:105ab400e6ecb7000e82e80031c2b30004007800bf
