:020000040000fa
:080000000002040000000000f2
:020000040000fa
:040008001c030000d5
:020000040000fa
:04000c001c030000d1
:020000040000fa
:040010001c030000cd
:020000040000fa
:040014001c030000c9
:020000040000fa
:040018001c030000c5
:020000040000fa
:04001c001c030000c1
:020000040000fa
:040020001c030000bd
:020000040000fa
:040024001c030000b9
:020000040000fa
:040028001c030000b5
:020000040000fa
:04002c001c030000b1
:020000040000fa
:040030001c030000ad
:020000040000fa
:04003400c8020000fe
:020000040000fa
:040038001c030000a5
:020000040000fa
:04003c001c030000a1
:020000040000fa
:040040001c0300009d
:020000040000fa
:040044001c03000099
:020000040000fa
:040048001c03000095
:020000040000fa
:04004c001c03000091
:020000040000fa
:040050001c0300008d
:020000040000fa
:040054001c03000089
:020000040000fa
:040058001c03000085
:020000040000fa
:04005c001c03000081
:020000040000fa
:040060001c0300007d
:020000040000fa
:040064001c03000079
:020000040000fa
:040068001c03000075
:020000040000fa
:04006c001c03000071
:020000040000fa
:040070001c0300006d
:020000040000fa
:040074001c03000069
:020000040000fa
:040078001c03000065
:020000040000fa
:04007c001c03000061
:020000040000fa
:040080001c0300005d
:020000040000fa
:040084001c03000059
:020000040000fa
:040088001c03000055
:020000040000fa
:04008c001c03000051
:020000040000fa
:040090001c0300004d
:020000040000fa
:040094001c03000049
:020000040000fa
:040098001c03000045
:020000040000fa
:04009c001c03000041
:020000040000fa
:0400a0001c0300003d
:020000040000fa
:0400a4001c03000039
:020000040000fa
:0400a8001c03000035
:020000040000fa
:0400ac001c03000031
:020000040000fa
:0400b0001c0300002d
:020000040000fa
:0400b4001c03000029
:020000040000fa
:0400b8001c03000025
:020000040000fa
:0400bc001c03000021
:020000040000fa
:0400c0001c0300001d
:020000040000fa
:0400c4001c03000019
:020000040000fa
:0400c8001c03000015
:020000040000fa
:0400cc001c03000011
:020000040000fa
:0400d0001c0300000d
:020000040000fa
:0400d4001c03000009
:020000040000fa
:0400d8001c03000005
:020000040000fa
:0400dc001c03000001
:020000040000fa
:0400e0001c030000fd
:020000040000fa
:0400e4001c030000f9
:020000040000fa
:0400e8001c030000f5
:020000040000fa
:0400ec001c030000f1
:020000040000fa
:0400f0001c030000ed
:020000040000fa
:0400f4001c030000e9
:020000040000fa
:0400f8001c030000e5
:020000040000fa
:0400fc001c030000e1
:020000040000fa
:040100001c030000dc
:020000040000fa
:040104001c030000d8
:020000040000fa
:040108001c030000d4
:020000040000fa
:04010c001c030000d0
:020000040000fa
:040110001c030000cc
:020000040000fa
:040114001c030000c8
:020000040000fa
:040118001c030000c4
:020000040000fa
:04011c001c030000c0
:020000040000fa
:040120001c030000bc
:020000040000fa
:040124001c030000b8
:020000040000fa
:040128001c030000b4
:020000040000fa
:04012c000a030000c2
:020000040000fa
:04013000f8020000d1
:020000040000fa
:040134001c030000a8
:020000040000fa
:040138001c030000a4
:020000040000fa
:04013c001c030000a0
:020000040000fa
:040140001c0300009c
:020000040000fa
:040144001c03000098
:020000040000fa
:040148001c03000094
:020000040000fa
:04014c001c03000090
:020000040000fa
:040150001c0300008c
:020000040000fa
:040154001c03000088
:020000040000fa
:040158001c03000084
:020000040000fa
:04015c001c03000080
:020000040000fa
:040160001c0300007c
:020000040000fa
:040164001c03000078
:020000040000fa
:040168001c03000074
:020000040000fa
:040208001c030000d3
:020000040000fa
:04020c001c030000cf
:020000040000fa
:040210001c030000cb
:020000040000fa
:040214001c030000c7
:020000040000fa
:040218001c030000c3
:020000040000fa
:04021c001c030000bf
:020000040000fa
:040220001c030000bb
:020000040000fa
:040224001c030000b7
:020000040000fa
:040228001c030000b3
:020000040000fa
:04022c001c030000af
:020000040000fa
:040230001c030000ab
:020000040000fa
:04023400c8020000fc
:020000040000fa
:040238001c030000a3
:020000040000fa
:04023c001c0300009f
:020000040000fa
:040240001c0300009b
:020000040000fa
:040244001c03000097
:020000040000fa
:040248001c03000093
:020000040000fa
:04024c001c0300008f
:020000040000fa
:040250001c0300008b
:020000040000fa
:040254001c03000087
:020000040000fa
:040258001c03000083
:020000040000fa
:04025c001c0300007f
:020000040000fa
:040260001c0300007b
:020000040000fa
:040264001c03000077
:020000040000fa
:040268001c03000073
:020000040000fa
:04026c001c0300006f
:020000040000fa
:040270001c0300006b
:020000040000fa
:040274001c03000067
:020000040000fa
:040278001c03000063
:020000040000fa
:04027c001c0300005f
:020000040000fa
:040280001c0300005b
:020000040000fa
:040284001c03000057
:020000040000fa
:040288001c03000053
:020000040000fa
:04028c001c0300004f
:020000040000fa
:040290001c0300004b
:020000040000fa
:040294001c03000047
:020000040000fa
:040298001c03000043
:020000040000fa
:04029c001c0300003f
:020000040000fa
:0402a0001c0300003b
:020000040000fa
:0402a4001c03000037
:020000040000fa
:0402a8001c03000033
:020000040000fa
:0402ac001c0300002f
:020000040000fa
:0402b0001c0300002b
:020000040000fa
:0402b4001c03000027
:020000040000fa
:0402b8001c03000023
:020000040000fa
:0402bc001c0300001f
:020000040000fa
:0402c0001c0300001b
:020000040000fa
:0402c4001c03000017
:020000040000fa
:0402c8001c03000013
:020000040000fa
:0402cc001c0300000f
:020000040000fa
:0402d0001c0300000b
:020000040000fa
:0402d4001c03000007
:020000040000fa
:0402d8001c03000003
:020000040000fa
:0402dc001c030000ff
:020000040000fa
:0402e0001c030000fb
:020000040000fa
:0402e4001c030000f7
:020000040000fa
:0402e8001c030000f3
:020000040000fa
:0402ec001c030000ef
:020000040000fa
:0402f0001c030000eb
:020000040000fa
:0402f4001c030000e7
:020000040000fa
:0402f8001c030000e3
:020000040000fa
:0402fc001c030000df
:020000040000fa
:040300001c030000da
:020000040000fa
:040304001c030000d6
:020000040000fa
:040308001c030000d2
:020000040000fa
:04030c001c030000ce
:020000040000fa
:040310001c030000ca
:020000040000fa
:040314001c030000c6
:020000040000fa
:040318001c030000c2
:020000040000fa
:04031c001c030000be
:020000040000fa
:040320001c030000ba
:020000040000fa
:040324001c030000b6
:020000040000fa
:040328001c030000b2
:020000040000fa
:04032c000a030000c0
:020000040000fa
:04033000f8020000cf
:020000040000fa
:040334001c030000a6
:020000040000fa
:040338001c030000a2
:020000040000fa
:04033c001c0300009e
:020000040000fa
:040340001c0300009a
:020000040000fa
:040344001c03000096
:020000040000fa
:040348001c03000092
:020000040000fa
:04034c001c0300008e
:020000040000fa
:040350001c0300008a
:020000040000fa
:040354001c03000086
:020000040000fa
:040358001c03000082
:020000040000fa
:04035c001c0300007e
:020000040000fa
:040360001c0300007a
:020000040000fa
:040364001c03000076
:020000040000fa
:040368001c03000072
:020000040000fa
:100400004f9820000eff20000e0188000000000021
:10041000000020000000e000020032000001200087
:100420002002880014000700850007000000e0009b
:1004300003003a00809723000100200002003700eb
:100440000000200001002000810f70000100320038
:1004500014000700000020000000e000020032004d
:10046000000002000000000008340200000000004c
:100470000040da000000fe004440a900000820000f
:100480000000e0000300320000002000a00188000e
:100490004440a800000006008a1f78008b1f7800e7
:1004a0000000060091018800800478000000eb0045
:1004b0001a003700e284440032a0b4009905ba0063
:1004c000e284440032a0b4009906ba00e2844400f9
:1004d00032a0b4000006eb00476fde00fd07b2005b
:1004e000636ce10003003a00ebff07000000eb0043
:1004f0000a003700606ce10004003a00005deb0088
:100500008b05e900fdff3e00040037006168e10053
:10051000010032000086eb000b00070019c7ba008b
:100520001905ba000e04e00003003a000a00e000da
:10053000e0ff3a0000000600fe07b2009e018800be
:100540008a047800f5ff3700395dba008b05e900b1
:100550000c003200295dba008b05e900080032006a
:100560000c00e00003003a00e284440032a0b40032
:10057000f5ff370019ddba008b05e900faff3a00f4
:100580008904e800e184440032a0b40000000600c1
:10059000809fbe00829fbe000000fa000021ef0095
:1005a0008460a9003049800041498000610040001a
:1005b000e080480030498800414988003249800085
:1005c00043498000f07f2200b1e62e00800f5100e9
:1005d000818f5900020036002629ef002829ef00fc
:1005e0000080fa004f01be004f00be000040060030
:1005f000801f78000000fa009011800090118000a8
:100600003222a9008c40a9000080fa004f00780037
:1006100000400600801f78000000fa0010118000e2
:10062000101180002222a9008c20a9000080fa006d
:100630004f007800004006000040da000000fe0095
:10064000000005006022b800060220000000d00073
:100650008180d2000482d2008582d2000000a000f6
:100660000202520083825a0003003100020242005b
:1006700083824a000000a1000603e900f3ff3a006c
:1006800000000600efff07000400be0000000600a7
:10069000889fbe008a9fbe0030044200b0844a009a
:1006a00030054b0090854b006000b1000898be00fb
:1006b0000a90be000440e10005c8e10006d0e10058
:1006c00007d8e10002003100680040001008e8008f
:1006d0004f05be004f04be0000000600889fbe000c
:1006e0008a9fbe003004be002005be0004185400de
:1006f00005985c0006185d0007985d001100200059
:100700000440e10005c8e10006d0e10007d8e1009f
:10071000010039008000eb00108810004f05be007a
:100720004f04be00000006001200fa00889fbe00c1
:100730008a9fbe008c9fbe00e0b79f00f1b79f006c
:1007400082bf9f0093bf9f000605be000404be0049
:100750000000eb00d0b79f00c0b79f00b0b79f006c
:10076000a0b79f0090b79f000006eb005fb1970015
:10077000cfb09700820141003fb097000200e00037
:1007800004003d00370007007e805700c0ff0700cf
:1007900003003700330007007e805700cfff0700bb
:1007a000dfb697000d00e0000c0035006fb2970037
:1007b000ffb297000fbb97009fbb9700100020006f
:1007c000010020006011b8000002720081827200f6
:1007d00002037300838373001b0007000c06e8000c
:1007e00001042000810f5600e0ff3a000d00e000f8
:1007f00004003d000802be000a03be007e805700d0
:10080000a3ff07005fa897000000e00005003a0082
:100810001fb29700afb297003fb39700cfb39700d6
:10082000090007006fb09700ffb097000fb997005d
:100830009fb997004f06be004f05be004f04be0093
:100840000080fa000000060001000700000006001a
:10085000a4b79f00b5b79f00c6b79f00d7b79f004a
:10086000000006004f09de0082817100b3b79f00cf
:100870004f01de008180400082807000a1b79f00a0
:100880008fb097004f09de000000400002007000aa
:1008900090b79f007fa897004f01de008180400045
:1008a0008280700081b79f000d0007004f3ade0084
:1008b0000000400004007000f0af9f000800070037
:1008c0000402420085824a0006034b0087834b00e6
:1008d000dfff07000802be000a03be00000006009a
:1008e0002fb29700bfb297004fb39700dfb39700c6
:1008f00000000600881f780018002000881f78007c
:1009000089ff07008f87e9004f0478000000060088
:10091000801feb0084ff07008f87e90000000600be
:10092000889fbe008a9fbe00e00f5000e08f5800f5
:10093000e00f5900e08f59000c003d006044b80002
:100940006055b8000000540081805c0002015d0029
:1009500083815d00180020001500070008003d009d
:10096000180007000004eb00050037000004eb004e
:100970000f00070002003d001200070018002000d1
:10098000dcff07000800e000060032006022b8002b
:100990006033b8000000520081805a0002015b0001
:1009a00083815b004f05be004f04be0000000600bf
:1009b000e00f5200e08f5a00e00f5b00e08f5b0019
:1009c000000006006044b8006055b80004025400fe
:1009d00085825c0006035d0087835d0000000600e1
:1009e000889fbe008a9fbe008c1f7800e00f5000d9
:1009f000e08f5800e00f5900e08f59000d003d00d6
:100a00006044b8006055b8000000540081805c006c
:100a100002015d0083815d001c0020000820e100d0
:100a200009a8e1000ab0e1000bb8e1000d003d00ab
:100a3000080037000006eb00e00f5200e08f5a007c
:100a4000e00f5b00e08f5b0006003d006044b800f3
:100a50006055b8000402540085825c0006035d0006
:100a600087835d00aaff07000c00e000060032004b
:100a70006022b8006033b8000000520081805a0044
:100a800002015b0083815b004f0678004f05be00ca
:100a90004f04be0000000600889fbe008a9fbe0073
:100aa0008c1f78000006eb00e00f5000e08f58002c
:100ab000e00f5900e08f590007003d006044b80086
:100ac0006055b8000000540081805c0002015d00a8
:100ad00083815d001c002000e00f5200e08f5a006f
:100ae000e00f5b00e08f5b0007003d006044b80052
:100af0006055b8000402540085825c0006035d0066
:100b000087835d000c00a2000c0007000c00e000d1
:100b1000060032006022b8006033b80000005200c6
:100b200081805a0002015b0083815b004f067800e0
:100b30004f05be004f04be0000000600889fbe00a7
:100b40008a9fbe008c9fbe000404b8000506b80052
:100b50008904460060854e000606b8000a05460076
:100b6000e0854e000706b8008b054600040eb8006d
:100b7000890446000a854e00e0854d00050eb80048
:100b80000a0546008b854e00060eb8008b05460010
:100b90000416b8000a0546008b854e000516b800fd
:100ba0008b054600041eb8008b0546000800be00f9
:100bb0000a01be004f06be004f05be004f04be0036
:100bc00000000600800078000100780030417800c5
:100bd00003c2b300834f5100faff3200e94f5100c6
:100be000f8ff3200edc14100834f510003003a008d
:100bf0008000780013c0b300050037008041eb008f
:100c0000b4c2b300844f510001003a008000780064
:100c10000000eb00020037006a02b9000400410046
:100c20003101fb000203b100e90f5100faff360069
:100c30000304e000010032000000ea0000000600aa
:100c4000889fbe008a1f78003044780080047800b6
:100c500001c2b300814f5400fbff3200e94f540042
:100c6000f9ff3200d0c2b300804f540003003a00b5
:100c7000394478001ac0b300050037000045eb0086
:100c8000b0c2b300804f540001003a0039447800ec
:100c90006000b8000a003700a20020000300200016
:100ca0007000070002cdb300024144000281fb0046
:100cb0008001eb0002004000838048003944780046
:100cc0000881fb000203b100e90f5100f2ff36007a
:100cd0000a04e0000200320060001000e08018000a
:100ce0004f0578004f04be000000060000037800a6
:100cf0008102780085017800010037000403780044
:100d0000110009008281d800800178000602e80005
:100d10000300e000f9ff3a00034a780011000900df
:100d20008282d80000027800814178008402780035
:100d3000e9cf510001003400e7c1410001c3b30015
:100d400001d341000400e000f4ff3a0006007800ff
:100d500000000600881f7800000478000100e00011
:100d600005003d0008007800d3c2b30003587800a6
:100d70008100ea000100370008007800dbff07006f
:100d8000080078004f04780000000600889fbe002d
:100d90008a9fbe008c9fbe00800578000204be00c2
:100da000010578000200be000100370082057800ce
:100db0006156b9000c01be0022fe07000b01e800dd
:100dc000e00f5000e08f5800f8ff3a000049eb00b8
:100dd0000c01be000800be002afe07000045780096
:100de0000c01be000800be0016fe07000004be0095
:100df000e94f5500010034006745450000c3b300ca
:100e000080554500e00f5400e08f5c00f0ff3a0091
:100e10000b0078004f06be004f05be004f04be0019
:100e200000000600881f780000047800e00f5100e1
:100e3000e08f590006003d0008007800d4c2b300de
:100e40000458780060011100e081190001003700aa
:100e500008007800cdff0700080078004f047800f4
:100e600000000600020ab900001bb9000200b80029
:0c0e7000810042008100430000000600e9
:020000040000fa
:100e7c00454e000044000000536500007400000063
:100e8c00546900006d650000004300006f6e0000a7
:100e9c0066000000456e0000416c0000004100003f
:100eac006c610000726d0000005000006173000066
:100ebc0073000000456d00006572000000520000d8
:100ecc0073740000546900006d000000526500004e
:100edc006c61000079000000576100007474000020
:100eec0073000000456e000055730000656400003f
:100efc00004c00006967000068740000730000007b
:100f0c00416c00006c410000646400000050000063
:100f1c005356000065720000736900006f6e00008c
:100f2c000052000065610000640000005374000072
:100f3c0061740000004300004276000065720000fe
:100f4c00005000007772000046610000696c0000e0
:100f5c0000500000777200004461000074610000d2
:100f6c00004f00006e0000004f660000660000009d
:020000040000fa
:100f7c000200fa0010c0b300004f780012090700fd
:100f8c00ed0807001e407800110007001e40780095
:100f9c00d20007001e407800fa0007000080fa001b
:100fac00000006000200fa000040eb00004f780041
:100fbc001e407800060007001e407800c70007009e
:100fcc001e407800ef0007000080fa0000000600c9
:100fdc000600fa00404798004e4090000004e000e4
:100fec0001003200be28ef0077c9bf00e14f50006e
:100ffc0011003a0080972000b2010700004f7800e2
:10100c001e4078000004e0000b0032007769ef000e
:10101c00ec68ef00ee28ef00f028ef00e968ef0035
:10102c00ea68ef001d69ef001e69ef0031c2b300e2
:10103c00e08b200039070700039220000001eb0031
:10104c00e18b2000208f2000fa0007001047980049
:10105c0000498000e10f50000c003200e10f5000fd
:10106c0003003900e20f500010003200200037005e
:10107c001e4090000004e0001a003200704780000f
:10108c000000e80070478800190037001e409000ef
:10109c000004e00015003200ee28ef0080478000cd
:1010ac000000e8008047880011003700208f2000e6
:1010bc00320007000004e00007003200e18b200042
:1010cc00208f2000ab0107000004e000020032007a
:1010dc0010c0b300ece8b700ee28ef00f028ef00ea
:1010ec000300370000000000010037000000000082
:1010fc008000eb00e08b20002e01070020479800b9
:10110c002e4090000004e0001a003200ecc8bf0032
:10111c000004e00007003200001280006200600052
:10112c000000e00013003a0010c0b30077e9b700ec
:10113c001000370070478000f80f50000300360095
:10114c0010c0b30077e9b7000a0037008147800070
:10115c00c00f2000808f50000300360010c0b30079
:10116c0077e9b7000300370031c2b300e08b2000f1
:10117c00ea0607000080fa00000006001c00fa00d6
:10118c00500f98000000eb00000f78000000eb00ff
:10119c00400798000000eb00100798000040eb009f
:1011ac00404798005e08900011c0b3004168980059
:1011bc00380037005e089000406890000080fb000b
:1011cc00de0890000080e8006141780052479800ea
:1011dc005e089000406890008040e8005e08900037
:1011ec00416898004e4090000004e0000900320075
:1011fc00ea0047001e00900000804000de40900096
:10120c00014878001e0090000000e80010079800cc
:10121c00200037005e089000406890000080fb00c2
:10122c00de0890000080e800e140780040c2b30086
:10123c0080cf500014003a005e0890004068900087
:10124c000080fb00de089000008040008040eb0036
:10125c002140980010c0b30040479800ea004700b6
:10126c001e009000008040008040eb000148780098
:10127c005e089000406890008040e8005e08900096
:10128c0041689800030037005e4090000000fb00ae
:10129c001e0f4000de409000a0c2b30080cf500073
:1012ac00c4ff3a000040eb00604798006a0047001a
:1012bc0041fe0700400798004e0090009e00780009
:1012cc00808f500002003a0010c0b30060479800b5
:1012dc006e4090000080fa00000006000400fa0046
:1012ec00204798002e4090000004e00007003200d8
:1012fc0010002000004388008c68ef008b68ef0022
:10130c00ba68ef00b968ef00bc28ef00c38b20006f
:10131c001200200001862000e08820004500070014
:10132c00e0458000e10f50000c003200e10f50004e
:10133c000c003900e20f50000d003a00018620002d
:10134c00e08820000b0107000004e00007003200d9
:10135c0010c0b300004f78000500370000000000fb
:10136c0003003700000000000100370000000000ff
:10137c0011002000008620008e0007000080fa007b
:10138c00000006000400fa00204798002e40900050
:10139c000004e0000700320020002000104088000c
:1013ac002e68ef002d68ef005c68ef005b68ef00c3
:1013bc005e28ef00e3852000220020002180200021
:1013cc00008320001b0007000080fb00f042880017
:1013dc00f0428000e10f50000c003200e10f500091
:1013ec000c003900e20f50000d003a002180200063
:1013fc0000832000df0007000004e000070032003b
:10140c0010c0b300004f780005003700000000004a
:10141c00030037000000000001003700000000004e
:10142c002100200020802000620007000080fa00cc
:10143c00000006000c00fa00200798003107980005
:10144c0042079800530798005e0090001000780047
:10145c00e20f500003003a005e0090008000eb00a9
:10146c00010878000040eb00004f78000040eb00d2
:10147c00104798004e009000e10f50000900320018
:10148c00e10f500003003900e20f50000900320058
:10149c000c0037000e80e800370707001047980053
:1014ac00080037000e80e80054070700104798002a
:1014bc00040037000e80e8007607070010479800fc
:1014cc00000000001e4090000004e00036003200d6
:1014dc0010c0b300004f7800ae40900010c2b300b3
:1014ec0080cf50000d003a005e0090001000780094
:1014fc00e10f5000090032005e0090001100200046
:10150c00010878002e0090008040eb0041689800a4
:10151c002e0090008040eb00316898005e00900037
:10152c0010007800e10f500014003a002e009000db
:10153c00306890000080fb00ae4090002e019000bf
:10154c0000004100214098002e009000306890006f
:10155c008040e8002e009000316898002e0090002a
:10156c00b068900070c2b30080cf5000030036000a
:10157c002e00900071c2b300316898005e0090009c
:10158c0010007800e10f500007003a00ae409000c8
:10159c00a0c2b30080cf500003003a005e00900060
:1015ac0021002000010878001e4078000080fa001d
:1015bc00000006000600fa001007980021079800aa
:1015cc001e009000c06890001e00900030689000d3
:1015dc0080cf500003003a0010c0b300004f7800d9
:1015ec00350037000040eb00004f78002e009000d3
:1015fc00e10f50000e003200e10f500003003900e3
:10160c00e20f5000130032001b0037001e00900048
:10161c00406890000080fb009e0090000080e80075
:10162c0061407800e506070010479800120037006b
:10163c001e009000406890000080fb009e0090000f
:10164c000080e8006140780001070700104798000f
:10165c00090037001e009000406890000080fb00dd
:10166c009e0090000080e800614078001a07070097
:10167c0010479800000000001e4090000004e0009d
:10168c000d0032001e009000406890008040e80081
:10169c001e009000416898001e009000c0689000e9
:1016ac0070c2b30080cf5000030036001e009000c3
:1016bc008040eb00416898001e4078000080fa00e2
:1016cc00000006000200fa00000f780076c9bf0087
:1016dc000004e0000600320041e2a9007669ef0048
:1016ec00cde2a800cdc2a800cd82a8001e00370014
:1016fc001e007800104078008040e8001e00780042
:10170c00014878001e00780010407800e24f50002d
:10171c00030036001e0078008040eb000148780082
:10172c001e007800104078000080fb00e10f500094
:10173c0006003200e20f5000060032000000e0000c
:10174c0006003a00cde2a90004003700cdc2a90082
:10175c0002003700cd82a9000000000041e2a80081
:10176c0010c0b30076e9b70076c9bf000080fa005c
:10177c00000006004c00fa00402798005127980002
:10178c000e00e800ce209000070007000e00e800d5
:10179c00de20900076000700004f78001e40780095
:1017ac000080fa00000006000800fa0020079800ec
:1017bc00310798000040eb00004f78000040eb0030
:1017cc00104798000000eb00100798000a00370043
:1017dc001e0090006a00b90000007800ae00900076
:1017ec00008040008040eb00014878001e00900013
:1017fc000000e800100798001e009000e60f500053
:10180c00f3ff34003e0037003e009000406890002b
:10181c000080fb00be0090000080e8006140780072
:10182c000000fb0011022000810f50002c00320040
:10183c00b1032000810f50000b003a000040eb0078
:10184c00004f78001e4090000040e80010479800c0
:10185c001e409000e64f50002300360060c0b300dd
:10186c0010479800210037001e4090000080fb00bc
:10187c006a00b90000007800ae0090008080400043
:10188c001e80fb003e019000426990000281fb002b
:10189c00be0190000281e8006341790082707800fb
:1018ac001e4fe8001e407800e94f50000200360041
:1018bc0090c0b300004f78001e4090000080fb00e9
:1018cc006a00b90000007800ae00900080804000f3
:1018dc001e80fb000041eb00827078000300370093
:1018ec000000000001003700000000003e009000e6
:1018fc00406890008040e8003e00900041689800ed
:10190c003e009000406890000080fb00be009000fc
:10191c000080e800e1407800a0c2b30080cf500006
:10192c000b0032003e009000c068900070c2b30003
:10193c0080cf500006003e003e009000c068900032
:10194c003e0090003068900080cf5000aeff3a000f
:10195c003e0090008040eb00416898003e009000f3
:10196c008040eb00316898000080fa00000006000f
:10197c006e01fa0050379900613799000040eb0076
:10198c00004f78005e309100e17328001a050700c3
:10199c000004e000050032006e3091005f06070085
:1019ac0010c0b300004f78007b0337005e3091000d
:1019bc0021742800100507000004e0009b01320090
:1019cc005e3091006a004000617428000a0507002f
:1019dc000004e0005c0032005e30910074004000b6
:1019ec0010407800604f98005e3091007400400009
:1019fc0010409000704f98000040eb00005798008a
:101a0c005e309100740040003040900010579800f8
:101a1c005e309100740040004040900020579800c8
:101a2c000040eb00305798005e309100740040008d
:101a3c0060409000405798005e3091007400400068
:101a4c0070409000505798000040eb006057980091
:101a5c005e3091007e004000104078007057980076
:101a6c005e3091007e00400010409000005f9800b6
:101a7c000040eb00105f98005e3091007e0040004b
:101a8c0030409000205f98005e3091007e00400056
:101a9c0040409000305f98000040eb00405f9800a1
:101aac005e3091007e00400060409000505f9800d6
:101abc005e3091007e00400070409000605f9800a6
:101acc000040eb00705f98006e0047003afc070086
:101adc0000407800306798007100470036fc070022
:101aec0000407800206798007400470032fc070023
:101afc0000179800770047002ffc07000040780083
:101b0c00406798007a0047002bfc070000407800e3
:101b1c00606798007d00470027fc070000407800b4
:101b2c0070679800000220000e0040001c0f070098
:101b3c00e00c070062742800b17428006e3091002c
:101b4c002c030700140337005e3091006a0040003c
:101b5c0001752800a80407000004e0000d00320005
:101b6c005e3091007400400032fc0700404a88004f
:101b7c00514a8800404a8000514a80007207070091
:101b8c0002752800b17428006e309100190307000b
:101b9c00010337005e3091006a0040005175280047
:101bac00950407000004e000370032005e3091001d
:101bbc0074004000190507000004e0000400320026
:101bcc00e093200011c0b3000148780003003700f7
:101bdc00e09320008040eb00014878005e309100db
:101bec007e0040000d0507000004e00004003200f8
:101bfc00e093200011c0b30011409800030037009f
:101c0c00e09320008040eb00114098005e30910082
:101c1c008002b000e8fb0700e193200090009800e0
:101c2c005e3091002003b000fc0407000004e000cb
:101c3c0004003200e093200011c0b3004140980032
:101c4c0003003700e09320008040eb0041409800f7
:101c5c005e309100c003b000d7fb0700e193200079
:101c6c00b0009800e09320005001be004000be0080
:101c7c000408070052752800b17428006e309100da
:101c8c00dc020700c40237005e3091006a0040009d
:101c9c00b1752800580407000004e0002000320051
:101cac005e3091007400400010407800006f980086
:101cbc005e3091007400400010409000106f98004e
:101ccc005e3091007400400020409000206f98001e
:101cdc005e3091007400400030409000306f9800ee
:101cec005e3091007400400040409000406f9800be
:101cfc005e3091007400400050409000506f98008e
:101d0c00800220000e00400075060700b275280006
:101d1c00b17428006e309100b60207009e023700a5
:101d2c005e3091006a004000017628003204070002
:101d3c000004e000160032005e3091007400400098
:101d4c00b60407000004e0000700320010c0b30026
:101d5c0052e9b7005e3091007e00400096fb070010
:101d6c00a04a8800020037005269ef005429ef00a6
:101d7c00904a8000a14a80002907070002762800bb
:101d8c00b17428006e3091009a020700820237006d
:101d9c005e3091006a00400051762800160407005e
:101dac000004e000200032005e309100740040001e
:101dbc0081fb0700604a88005e3091007e00400085
:101dcc007dfb0700704a8800614a8000f002200009
:101ddc000e004000a2002000dbfb0700714a8000cf
:101dec00300420000e004000a2002000d6fb0700ab
:101dfc00714a8000604a80004207070031042000cd
:101e0c008e804000f00220000e004000010278009d
:101e1c008001780052762800b17428006e30910051
:101e2c00b70207005c0237005e3091006a00400088
:101e3c00c1762800f00307000004e0001000320017
:101e4c005e30910074004000740407000004e00050
:101e5c000300320010c0b30050e9b7000100370096
:101e6c005069ef0050c9bf00210b0700c276280053
:101e7c00b17428006e3091005e02070046023700f4
:101e8c005e3091006a00400021772800da030700d9
:101e9c000004e0000a0032005e3091007400400043
:101eac0064fb07001049880021498800227728002c
:101ebc00b17428006e3091004e02070036023700d4
:101ecc005e3091006a00400081772800ca03070049
:101edc000004e000240032005e30910074004000e9
:101eec0054fb070010079800210798005249800006
:101efc00634980001e009000ae009000800f5100de
:101f0c00818f59000f0036005049800061498000d4
:101f1c000001be00700520000e004000a100200052
:101f2c00bdfb0700700520000e004000800178000a
:101f3c0082772800217428006e3091004a02070035
:101f4c00150237001e019000ae0190005249880026
:101f5c006349880082772800b17428006e309100a4
:101f6c00240207000c0237005e3091006a0040002a
:101f7c00f1772800a00307000004e00009003200fc
:101f8c005e30910074004000240407007ae9b70029
:101f9c00f2772800b17428006e309100150207000a
:101fac00fd0137005e3091006a0040006178280026
:101fbc00910307000004e000110032005e30910034
:101fcc0074004000fcfa0700304a8800314a800057
:101fdc00300620000e004000a20020005afb070033
:101fec00300620000e004000800178006278280046
:101ffc00b17428006e3091001b020700e601370017
:10200c005e3091006a004000d17828007a03070006
:10201c000004e000e0013200d2782800b1742800fe
:10202c006e309100f3010700db0137005e30910048
:10203c0071792800700307000004e000d60132001b
:10204c005e3091006a004000617428006a0307004a
:10205c000004e000590032006093200030409000f2
:10206c008080fb00c00720000e00400022002000f2
:10207c000004070060932000204090008080fb004b
:10208c00300820000e00400022002000f903070059
:10209c00609320001000780080007800a0082000d9
:1020ac000e00400022002000f20307006093200085
:1020bc00404090008080fb00100920000e00400082
:1020cc0022002000eb03070060932000604090008a
:1020dc008080fb00800920000e00400022002000c0
:1020ec00e403070060932000704090008080fb00a8
:1020fc00f00920000e00400022002000dd03070044
:10210c004ef8900020ef98005ef8900030ef9800a9
:10211c00d0c2b30040ef98003e40910050ef9800c1
:10212c004e40910060ef9800d0c2b30070ef980061
:10213c004e48910000f798005e48910010f7980007
:10214c000040eb0020f798001e50910030f79800eb
:10215c002e50910040f79800a0c3b30050f79800a0
:10216c000e58910060f798001e58910070f7980077
:10217c00a0c3b30000ff98007e58910010ff980098
:10218c000e60910020ff98000040eb0030ff98009b
:10219c00310720008e804000a00620000e00400079
:1021ac0001027800800178006274280021742800f4
:1021bc006e309100d2010700770137005e3091003c
:1021cc006a004000017528000b0307000004e000c2
:1021dc000f003200404a8000514a80000001be00ce
:1021ec00600a20000e004000a10020000afb07003e
:1021fc00600a20000e004000800178000275280063
:10220c00217428006e30910097010700620137009d
:10221c005e3091006a00400051752800f6020700fc
:10222c000004e00036003200e093200010407800fb
:10223c008080fb00200b20000e00400054030700a0
:10224c00e0932000104090008080fb00600b200089
:10225c000e0040004e030700e09320004040900029
:10226c008080fb00a00b20000e00400048030700fc
:10227c00e09320009001900033079800e093200039
:10228c00b000900041079800e00b20000e004000c9
:10229c00a2002000be009000abfa0700500c2000fa
:1022ac000e004000a2002000ce009000a6fa07000d
:1022bc00a00b20000e004000a40b20000e024200d8
:1022cc00e30b20008e814100620b20000e014100c7
:1022dc00210b20008e8040008003780004037800de
:1022ec008302780002027800810178005275280080
:1022fc00217428006e309100290207002601370056
:10230c005e3091006a004000b1752800ba020700e7
:10231c000004e0000d003200c00c20000e00400054
:10232c00a90407000040eb0020d79900c00c200046
:10233c000e00400080017800b2752800217428003e
:10234c006e30910048010700130137005e30910098
:10235c006a00400001762800a70207000004e00094
:10236c001500320052c9bf008080fb00300d2000e8
:10237c000e00400006030700a14a8000700d2000eb
:10238c000e004000a20020006ffa0700710d200023
:10239c008e804000300d20000e00400001027800bd
:1023ac008001780002762800217428006e3091009c
:1023bc0053010700f80037005e3091006a004000be
:1023cc00517628008c0207000004e0001500320052
:1023dc00614a8000e00d20000e004000a2002000a9
:1023ec0059fa0700714a8000500e20000e00400080
:1023fc00a200200054fa0700510e20008e804000ed
:10240c00e00d20000e0040000102780080017800f1
:10241c0052762800217428006e3091003801070094
:10242c00dd0037005e3091006a004000c176280064
:10243c00710207000004e0000d00320050c9bf001b
:10244c008080fb00c00e20000e004000d002070070
:10245c00c00e20000e00400080017800c2762800db
:10246c00217428006e309100ff000700ca0037006d
:10247c005e3091006a004000c17928005e020700be
:10248c000004e000190032005049800061498000ce
:10249c000001be00000f20000e004000a100200033
:1024ac005dfa070090498000a14980000001be0040
:1024bc00c00f20000e004000a100200056fa0700bb
:1024cc00c10f20008e804000000f20000e00400045
:1024dc000102780080017800c2792800217428005c
:1024ec006e30910006010700ab0037005e309100a2
:1024fc006a004000117a28003f0207000004e00047
:10250c001600320040c5b300004f9a0050c6b3000d
:10251c00104f9a0030c7b300204f9a0040c7b30049
:10252c00304f9a00a0c3b300404f9a0000c3b300d1
:10253c00504f9a0010c3b300604f9a000040eb005c
:10254c00704f9a0023962000127a280021742800dc
:10255c006e309100c40007008f0037005e30910090
:10256c006a004000717a2800230207000004e00092
:10257c005600320080c4b30020579a0080c4b300c8
:10258c0030579a00a0c3b30040579a00d0c4b30090
:10259c0050579a00d0c4b30060579a00a0c3b30040
:1025ac0070579a0040c4b300005f9a0040c4b30057
:1025bc00105f9a00a0c3b300205f9a00d0c4b30090
:1025cc00305f9a00d0c4b300405f9a000040eb002b
:1025dc00505f9a0080c4b300605f9a0080c4b3005f
:1025ec00705f9a00a0c3b30000679a00d0c4b30018
:1025fc0010679a00d0c4b30020679a00a0c3b30040
:10260c0030679a0040c4b30040679a0040c4b300de
:10261c0050679a00a0c3b30060679a00d0c4b3009f
:10262c0070679a00d0c4b300006f9a000040eb00b2
:10263c00106f9a00e11320008e8040006013200080
:10264c000e004000d90c07004e789200705f9a0083
:10265c0020c7b30000679a00f0c6b30010679a0059
:10266c0090c6b30020679a0030c7b30030679a0059
:10267c0030c7b30040679a0010c6b30050679a0089
:10268c00e0c6b30060679a0040c7b30070679a0059
:10269c0030c7b300006f9a000040eb00106f9a0037
:1026ac00e11120008e804000201120000e0040001f
:1026bc000102780080017800727a280021742800c9
:1026cc006e3091008e000700330037005e309100b1
:1026dc006a004000f17a2800c70107000004e000fe
:1026ec002d003200524980006349800070498000ff
:1026fc0081498000000051008180590050079800ea
:10270c0061079800304a80006101b900404a80009e
:10271c00514a800002004000838048000001be0046
:10272c00601420000e004000a1002000baf9070040
:10273c00201520000e004000a10020005e0190003a
:10274c00ee019000b4f90700104980002149800087
:10275c000001be00e01520000e004000a10020008a
:10276c00adf90700e21520000e01410021152000f3
:10277c008e804000601420000e0040008202780021
:10278c000102780080017800f27a28002174280078
:10279c006e309100890007001e4078000080fa001e
:1027ac00000006000600fa001007980021079800a8
:1027bc0031c2b3001e0090005801070011c2b300d3
:1027cc001e009000550107000000eb00000f780080
:1027dc00ae0090001e0090006b0107001e0f400021
:1027ec009e0078001e009000370107000080fa0060
:1027fc00000006000800fa00100798002107980056
:10280c003207980031c2b3001e009000430107004c
:10281c0011c2b3001e009000400107000000eb0045
:10282c00000f7800ae0090001e00900056010700cb
:10283c001e0f4000b1c3b3001e009000370107000b
:10284c001e0f4000be0090001e0090004e010700bd
:10285c001e0f40009e0078001e0090001a01070019
:10286c000080fa00000006000a00fa001007980029
:10287c0021079800320798004307980031c2b30033
:10288c001e0090002501070011c2b3001e0090002d
:10289c00220107000000eb00000f7800ae00900052
:1028ac001e009000380107001e0f4000b1c3b3009a
:1028bc001e009000190107001e0f4000be00900082
:1028cc001e009000300107001e0f4000b1c3b30082
:1028dc001e009000110107001e0f4000ce0090005a
:1028ec001e009000280107001e0f40009e0078007b
:1028fc001e009000f40007000080fa0000000600a3
:10290c000c00fa0010079800210798003207980075
:10291c00430798005407980031c2b3001e00900082
:10292c00fe00070011c2b3001e009000fb00070060
:10293c000000eb00000f7800ae0090001e0090002d
:10294c00110107001e0f4000b1c3b3001e00900020
:10295c00f20007001e0f4000be0090001e00900009
:10296c00090107001e0f4000b1c3b3001e00900008
:10297c00ea0007001e0f4000ce0090001e009000e1
:10298c00010107001e0f4000b1c3b3001e009000f0
:10299c00e20007001e0f4000de0090001e009000b9
:1029ac00f90007001e0f40009e0078001e009000ea
:1029bc00c50007000080fa00000006000e00fa00b7
:1029cc0010079800210798003207980043079800d9
:1029dc00540798006507980031c2b3001e009000a0
:1029ec00ce00070011c2b3001e009000cb00070000
:1029fc000000eb00000f7800ae0090001e0090006d
:102a0c00e10007001e0f4000b1c3b3001e00900090
:102a1c00c20007001e0f4000be0090001e00900078
:102a2c00d90007001e0f4000b1c3b3001e00900078
:102a3c00ba0007001e0f4000ce0090001e00900050
:102a4c00d10007001e0f4000b1c3b3001e00900060
:102a5c00b20007001e0f4000de0090001e00900028
:102a6c00c90007001e0f4000b1c3b3001e00900048
:102a7c00aa0007001e0f4000ee0090001e00900000
:102a8c00c10007001e0f40009e0078001e00900041
:102a9c008d0007000080fa00000006001000fa000c
:102aac0010079800210798003207980043079800f8
:102abc0054079800650798007607980031c2b30058
:102acc001e0090009500070011c2b3001e0090007c
:102adc00920007000000eb00000f7800ae009000a1
:102aec001e009000a80007001e0f4000b1c3b300e9
:102afc001e009000890007001e0f4000be009000d1
:102b0c001e009000a00007001e0f4000b1c3b300d0
:102b1c001e009000810007001e0f4000ce009000a8
:102b2c001e009000980007001e0f4000b1c3b300b8
:102b3c001e009000790007001e0f4000de00900080
:102b4c001e009000900007001e0f4000b1c3b300a0
:102b5c001e009000710007001e0f4000ee00900058
:102b6c001e009000880007001e0f4000b1c3b30088
:102b7c001e009000690007001e0f4000fe00900030
:102b8c001e009000800007001e0f40009e00780081
:102b9c001e0090004c0007000080fa0000000600a8
:102bac001200fa00100798002107980032079800cd
:102bbc00430798005407980065079800760798001b
:102bcc00070f980031c2b3001e009000530007009d
:102bdc0011c2b3001e009000500007000000eb0073
:102bec00000f7800ae0090001e00900066000700f9
:102bfc001e0f4000b1c3b3001e0090004700070039
:102c0c001e0f4000be0090001e0090005e000700ea
:102c1c001e0f4000b1c3b3001e0090003f00070020
:102c2c001e0f4000ce0090001e00900056000700c2
:102c3c001e0f4000b1c3b3001e0090003700070008
:102c4c001e0f4000de0090001e0090004e0007009a
:102c5c001e0f4000b1c3b3001e0090002f000700f0
:102c6c001e0f4000ee0090001e0090004600070072
:102c7c001e0f4000b1c3b3001e00900027000700d8
:102c8c001e0f4000fe0090001e0090003e0007004a
:102c9c001e0f4000b1c3b3001e0090001f000700c0
:102cac001e0f40008e0890001e009000360007009a
:102cbc001e0f40009e0078001e00900002000700ce
:102ccc000080fa00000006001400fa00000f9800c3
:102cdc00110f9800b1c3b3000e0890000f0007004d
:102cec0041c2b3000e0890000c000700a2002000a7
:102cfc009e0890000e00780013f807008e007800f4
:102d0c000e08900020000700a1c2b3000e0890002e
:102d1c00020007000080fa00000006000400fa0020
:102d2c00000f7800214798001e0078003068900052
:102d3c000080fb009e00780000804000ae409000b8
:102d4c00214098001e007800306890008040e80018
:102d5c001e007800316898001e007800b068900062
:102d6c0070c2b30080cf5000030036001e00780004
:102d7c008040eb00316898002e4090000000fb0072
:102d8c000080fa00000006000800fa0020079800f6
:102d9c00310798000000eb00000f78000000eb00fa
:102dac00100798000b0037001e009000be0090002a
:102dbc000080400010407800804078002e00900089
:102dcc00d6ff07001e0f40001e0090000000e80018
:102ddc00100798001e009000be009000008040007c
:102dec00104078000004e000efff3a001e0078006d
:102dfc000080fa00000006000800fa002007980086
:102e0c0031079800004080000000e8000040880076
:102e1c00be0090002e0090000c00070010079800d8
:102e2c001e0090000000e00003003a0010c0b30048
:102e3c00004f7800020037000040eb00004f780094
:102e4c001e4078000080fa00000006000800fa001e
:102e5c0020079800310798000000eb00000f780065
:102e6c000000eb00100798001a0037001e007800d5
:102e7c00ae00900000804000904078001e0078006a
:102e8c003e019000000041001040780080cf5000bf
:102e9c000300340010002000100798000c003700cd
:102eac001e007800ae00900000804000904078003a
:102ebc001e0078003e019000000041001040780098
:102ecc0080cf500002003d000080eb0010079800fe
:102edc001e0fe8001e007800ae009000008040003d
:102eec00104078000004e000090032001e00780059
:102efc00be00900000804000104078000004e0000c
:102f0c00030032001e0090000000e000d7ff3200ea
:102f1c001e007800ae009000008040001040780049
:102f2c000004e00009003a001e007800be0090008a
:102f3c0000804000104078000004e00003003200e4
:102f4c000080eb00100798000e0037001e00780080
:102f5c00ae00900000804000104078000004e000bb
:102f6c00080032001e007800be0090000080400077
:102f7c00104078000004e00002003a00100020002d
:102f8c00100798001e0090000080fa000000060058
:102f9c000400fa00000f7800110798001e00900042
:102fac000000e0000e003a001e007800f1c4b300ef
:102fbc00014878001e00e80061c6b30001487800a3
:102fcc001e80e80061c6b300014878009e007800be
:102fdc00638040008040eb00014878000d00370012
:102fec001e007800f1c4b300014878001e00e80010
:102ffc00e1c6b300014878001e80e8008040eb0079
:10300c00014878009e007800638040008040eb000f
:10301c00014878000080fa00000006000400fa0065
:10302c00100798000040eb00004f7800717b2800df
:10303c001e00900070ff07000004e0000300320047
:10304c0010c0b300004f780007003700a17b2800a8
:10305c001e00900068ff07000004e0000200320030
:10306c000040eb00004f78001e4078000080fa0012
:10307c00000006001600fa00000f9800110f9800cf
:10308c00220f980068004700a20020009e089000c4
:10309c002df707000000eb00000f7800010037004f
:1030ac001e0fe800680047001e004000104078002a
:1030bc000004e000faff3a002e0890001e005000b9
:1030cc00300798000000eb0010079800080037004c
:1030dc001e0090008e0890000080400001c3b300d9
:1030ec00014878001e0090000000e80010079800ce
:1030fc009e0090003e009000808f5000f4ff350041
:10310c000000eb00200798000e0037001e00900016
:10311c008e0890000080400068014700ae009000cf
:10312c008100410091407800014878001e00900019
:10313c000000e800100798002e0090000000e80046
:10314c0020079800e80047002e0090000080400007
:10315c00104078000004e000ecff3a001e009000e4
:10316c008e089000008040008040eb000148780001
:10317c000080fa00000006000400fa001007980016
:10318c000040eb00004f78000012800061006000ee
:10319c000000e00006003200401280008040780001
:1031ac001e0090000148780010c0b300004f78005a
:1031bc001e4078000080fa00000006000400fa00af
:1031cc00204798000040eb00004f78000012800070
:1031dc00620060000000e00005003a002e40900004
:1031ec000000fb004012880010c0b300004f7800b4
:1031fc001e4078000080fa00000006000400fa006f
:10320c00100798000040eb00004f78001011800070
:10321c00610060000000e0000a0032003011800004
:10322c00804078001e009000014878001e0090003d
:10323c00104078000004e0000200320010c0b3001f
:10324c00004f78001e4078000080fa000000060055
:10325c000400fa00204798000040eb00004f780073
:10326c001111800000202000008060000000e000b0
:10327c0005003a002e4090000000fb002011880051
:10328c0010c0b300004f78001e4078000080fa0098
:10329c00000006000400fa00100798000040eb0044
:1032ac00004f780090118000610060000000e00089
:1032bc0006003200b0118000804078001e009000a3
:1032cc000148780010c0b300004f78001e40780011
:1032dc000080fa00000006000400fa002047980065
:1032ec000040eb00004f780091118000002020007e
:1032fc00008060000000e00005003a002e409000c5
:10330c000000fb00a011880010c0b300004f780033
:10331c001e4078000080fa00000006000200fa004f
:10332c00000f7800e17328001e0078001dfd0700d7
:10333c000080fa00000006000000fa00c942a80054
:10334c00c962a800c9a2a900c9e2a900c9c2a90002
:10335c00c982a900cde2a800cdc2a800cd82a800e8
:10336c0042a2a8004382a9004362a9004342a900db
:10337c004322a8004302a80042e2a90042c2a800ce
:10338c0011128000c0ff2f00008060000000a00020
:10339c00101288001112800030fe2f000080600097
:1033ac000040a0001012880045e2a90045c2a90007
:1033bc0045a2a9004422a9004402a90040c2a900c8
:1033cc000080fa00000006000000fa003800070038
:1033dc00020007000080fa00000006000400fa005a
:1033ec00c822a800c802a9000080250021002000e6
:1033fc00008fbe001e01be0000402200410f2000c5
:10340c008df40700008fbe000081eb008081eb0083
:10341c001e0f41005e9749001e007800c011880005
:10342c0031a2a9003182a9003162a800811180006b
:10343c00f0cf2f00008060008011880030e2a900de
:10344c0030c2a90030a2a9003082a9003062a900c4
:10345c008111800090ff2f00008060008011880097
:10346c003002a90033a2a90033e2a90033c2a9009b
:10347c003362a90091118000f0f32f0000806000ee
:10348c009011880032a2a9008c40a9009c40a80091
:10349c0087e0a90097e0a90087c0a90097c0a90000
:1034ac0031e2a8003342a8000080fa0000000600b8
:1034bc000400fa00c842a800c8e2a9000080250058
:1034cc0021002000008fbe001e01be000040220023
:1034dc00410f200058f40700008fbe000081eb0064
:1034ec008081eb001e0f41005e9749001e007800a2
:1034fc004011880021a2a9002182a9002162a80004
:10350c0001118000f0cf2f000080600000118800b6
:10351c0020e2a90020c2a90020a2a9002082a900b3
:10352c002062a9000111800090ff2f000080600034
:10353c00001188002002a90023a2a90023e2a900ff
:10354c0023c2a9002362a90011118000f0f32f00ff
:10355c00008060001011880022a2a9008c20a90014
:10356c009c20a8008580a9009580a9008560a900f1
:10357c009560a90021e2a8002342a8000080fa006f
:10358c00000006000200fa000040eb00004f78003b
:10359c0007003700013b800000002800008060001d
:1035ac000000e00002003a0010c0b300004f7800a9
:1035bc001e4078000004a2000004e000f5ff3a0071
:1035cc000080fa00000006000400fa0010079800c2
:1035dc00ecff0700f00720000040780032e0b70055
:1035ec0000e02f00000f78001e0078001000ba00d9
:1035fc00804078001e00900001487800f007200001
:10360c000040780032e0b70020e02f00000f780077
:10361c001e0090000000e8009e0078009100ba00a7
:10362c008140780001487800f007200000407800c5
:10363c0032e0b70040e02f00000f78001e00900031
:10364c000080e8009e0078009100ba00814078006c
:10365c0001487800f00720000040780032e0b70005
:10366c0060e02f00000f78001e0090006300400007
:10367c009e0078009100ba008140780001487800e3
:10368c00f00720000040780032e0b70080e02f0007
:10369c00000f78001e009000640040009e0078002f
:1036ac009100ba008140780001487800f0072000b2
:1036bc000040780032e0b700a0e02f00000f780047
:1036cc001e009000650040009e0078009100ba003a
:1036dc0081407800014878000080fa000000060064
:1036ec000400fa0010079800a6ff07004000240011
:1036fc00003b8800f00720000040780032e0b70063
:10370c0000e02f00000f78001e00900010407800a1
:10371c008000fb001e0078000108bb000500fc00c7
:10372c0050052000303b8800a00a2000303b880068
:10373c0061e7a800000000000000000091ff0700f6
:10374c0040002400003b8800f00720000040780077
:10375c0032e0b70020e02f00000f78001e00900030
:10376c000000e800104078008000fb001e0078008c
:10377c000108bb000500fc0050052000303b880010
:10378c00a00a2000303b880061e7a8000000000080
:10379c00000000007bff070040002400003b880075
:1037ac00f00720000040780032e0b70040e02f0026
:1037bc00000f78001e0090000080e8001040780098
:1037cc008000fb001e0078000108bb000500fc0017
:1037dc0050052000303b8800a00a2000303b8800b8
:1037ec0061e7a800000000000000000065ff070072
:1037fc0040002400003b8800f007200000407800c7
:10380c0032e0b70060e02f00000f78001e0090003f
:10381c0063004000104078008000fb001e00780020
:10382c000108bb000500fc0050052000303b88005f
:10383c00a00a2000303b880061e7a80000000000cf
:10384c00000000004fff070040002400003b8800f0
:10385c00f00720000040780032e0b70080e02f0035
:10386c00000f78001e0090006400400010407800ab
:10387c008000fb001e0078000108bb000500fc0066
:10388c0050052000303b8800a00a2000303b880007
:10389c0061e7a800000000000000000039ff0700ed
:1038ac0040002400003b8800f00720000040780016
:1038bc0032e0b700a0e02f00000f78001e0090004f
:1038cc0065004000104078008000fb001e0078006e
:1038dc000108bb000500fc0050052000303b8800af
:1038ec00a00a2000303b880061e7a800000000001f
:1038fc00000000000080fa00000006000800fa003a
:10390c0020ff0700f00720000040780032e0b700ed
:10391c00c0e02f00000f78001e0078001000ba00e5
:10392c00100798001e0078001000ba008000eb0011
:10393c0020079800310798002e009000be009000e0
:10394c000080fa00000006000800fa00200798002a
:10395c0031079800ae009000010f780009ff0700b6
:10396c0040002400003b8800f00720000040780055
:10397c0032e0b700c0e02f00100798001e00900046
:10398c001e08bb000500fc0050052000303b8800e1
:10399c00a00a2000303b880061e7a800000000006e
:1039ac00000000000080fa00000006000800fa0089
:1039bc00881f780000047800f2fe0700f007200052
:1039cc000040780032e0b700e0e02f00000f7800f4
:1039dc001e0078001000ba00100798009e0090009e
:1039ec00310798001e0090000000e0000300340036
:1039fc0010c0b30040479800020037000040eb00b5
:103a0c00404798002e019000be019000028cbe0031
:103a1c00080078004f0478000080fa0000000600cf
:103a2c000600fa001007980021079800d5fe070041
:103a3c0040002400003b8800f00720000040780084
:103a4c0032e0b700e0e02f00000f78002e0090006d
:103a5c00800078001e0078000108bb000500fc0007
:103a6c0050052000303b8800a00a2000303b880025
:103a7c0061e7a80000000000000000000080fa00d0
:103a8c00000006000800fa00881f78000004780087
:103a9c00bcfe0700f00720000040780032e0b700c1
:103aac0000e12f00000f78001e0078001000ba0013
:103abc00100798009e00900040062000000178003e
:103acc00110009008280d8008000fd0030079800aa
:103adc001e009000c200de00b04721000008b800b4
:103aec000100d100200798002e019000be0190002b
:103afc00028cbe00080078004f0478000080fa00a9
:103b0c00000006000800fa00200798003107980012
:103b1c009cfe070040002400003b8800ae00900093
:103b2c00400620000088b900800078003e0090001c
:103b3c0000804000000f7800f00720000040780063
:103b4c0032e0b70000e12f00100798001e00900033
:103b5c001e08bb000500fc0050052000303b88000f
:103b6c00a00a2000303b880061e7a800000000009c
:103b7c00000000000080fa00000006001000fa00af
:103b8c00881f7800000478007efe0700f0072000f4
:103b9c000040780032e0b70020e12f00000f7800e1
:103bac001e0078001000ba0010079800f0072000e3
:103bbc000040780032e0b70040e12f00000f7800a1
:103bcc001e0078001000ba0020079800f0072000b3
:103bdc000040780032e0b70060e12f00000f780061
:103bec001e0078001000ba00300798001e009000ec
:103bfc000000e00003003a000040eb00004f98008a
:103c0c000200370010c0b300004f9800ae009000c7
:103c1c00510798005e0090000000e00003003400a3
:103c2c0010c0b300104f9800020037000040eb00aa
:103c3c00104f98003e029000740798007e00900090
:103c4c000000e000030034000040eb00404f9800ff
:103c5c00020037000040eb00404f98004e029000ed
:103c6c00de0290006e039000fe039000049cbe00e8
:103c7c000694be00080078004f0478000080fa001b
:103c8c00000006000c00fa0020079800310798008d
:103c9c0042079800530798004e4090000004e00043
:103cac00030032000080eb00000f780002003700a8
:103cbc000000eb00000f780032fe070040002400eb
:103ccc00003b8800f00720000040780032e0b7008d
:103cdc0020e12f00100798001e0090001e08bb006a
:103cec000500fc0050052000303b8800a00a200095
:103cfc00303b880061e7a8000000000000000000d5
:103d0c0020fe070040002400003b8800f007200044
:103d1c000040780032e0b70040e12f001007980017
:103d2c003e009000800078001e0090000108bb004f
:103d3c000500fc0050052000303b8800a00a200044
:103d4c00303b880061e7a800000000000000000084
:103d5c000cfe070040002400003b8800f007200008
:103d6c000040780032e0b70060e12f0010079800a7
:103d7c005e009000800078001e0090000108bb00df
:103d8c000500fc0050052000303b8800a00a2000f4
:103d9c00303b880061e7a800000000000000000034
:103dac000080fa00000006001200fa00881f78005c
:103dbc0000047800f3fd0700f007200000407800b5
:103dcc0032e0b70080e12f00000f78001e00780071
:103ddc001000ba0010079800f0072000004078008f
:103dec0032e0b700a0e12f00000f78001e00780031
:103dfc001000ba0020079800ae0090001e00900042
:103e0c000b0407005007980061079800f00720008a
:103e1c000040780032e0b700c0e12f00000f7800be
:103e2c001e0078001000ba0010079800f007200060
:103e3c000040780032e0b700e0e12f00000f78007e
:103e4c001e0078001000ba0020079800ae00900009
:103e5c001e009000f603070070079800010f9800f1
:103e6c006600470088007800b0187800a010780031
:103e7c00e480400064004000b0187800a010780086
:103e8c00e480400064004000b0187800a010780076
:103e9c00e480400064004000080078004f04780083
:103eac000080fa00000006001200fa0030079800ab
:103ebc004107980052079800630798007407980010
:103ecc00050f98005e009000ee009000e4014700a2
:103edc000e81e800e4030700aafd0700400024005f
:103eec00003b8800f00720000040780032e0b7006b
:103efc0080e12f00000f78009e0090001e007800db
:103f0c000108bb000500fc0050052000303b880078
:103f1c00a00a2000303b880061e7a80000000000e8
:103f2c000000000097fd070040002400003b8800c3
:103f3c00f00720000040780032e0b700a0e12f002d
:103f4c00000f7800ae0090001e0078000108bb0046
:103f5c000500fc0050052000303b8800a00a200022
:103f6c00303b880061e7a800000000000000000062
:103f7c007e0090008e089000e40147000e81e8005e
:103f8c00b90307007ffd070040002400003b8800b8
:103f9c00f00720000040780032e0b700c0e12f00ad
:103fac00000f78009e0090001e0078000108bb00f6
:103fbc000500fc0050052000303b8800a00a2000c2
:103fcc00303b880061e7a800000000000000000002
:103fdc006cfd070040002400003b8800f007200027
:103fec000040780032e0b700e0e12f00000f7800cd
:103ffc00ae0090001e0078000108bb000500fc001c
:10400c0050052000303b8800a00a2000303b88007f
:10401c0061e7a80000000000000000000080fa002a
:10402c00000006000c00fa0056fd07000103070013
:10403c00404798004e4090000080fb00e40f500079
:10404c004c003200e40f50000c003c00e10f50001b
:10405c0018003200e10f500003003c000000e000ab
:10406c000f00320092003700e20f500021003200a6
:10407c00e30f50002f0032008d003700e60f500088
:10408c005c003200e60f50004a003500e70f50008c
:10409c0068003200e80f50007600320084003700d0
:1040ac000000eb00100798009e009000010f7800b4
:1040bc007f003700f00720000040780032e0b700a6
:1040cc0000e22f00300798003e009000100fba005d
:1040dc00f00720000040780032e0b70020e22f000b
:1040ec00300798003e0090001000ba0010079800ae
:1040fc006f003700f00720000040780032e0b70076
:10410c0040e22f00300798003e009000100fba00dc
:10411c00f00720000040780032e0b70060e22f008a
:10412c00300798003e0090001000ba00100798006d
:10413c005f003700f00720000040780032e0b70045
:10414c0080e22f00300798003e009000100fba005c
:10415c00f00720000040780032e0b700a0e22f000a
:10416c00300798003e0090001000ba00100798002d
:10417c004f003700f00720000040780032e0b70015
:10418c00c0e22f00300798003e009000100fba00dc
:10419c00f00720000040780032e0b700e0e22f008a
:1041ac00300798003e0090001000ba0010079800ed
:1041bc003f003700f00720000040780032e0b700e5
:1041cc0000e32f00300798003e009000100fba005b
:1041dc00f00720000040780032e0b70020e32f0009
:1041ec00300798003e0090001000ba0010079800ad
:1041fc002f003700f00720000040780032e0b700b5
:10420c0040e32f00300798003e009000100fba00da
:10421c00f00720000040780032e0b70060e32f0088
:10422c00300798003e0090001000ba00100798006c
:10423c001f003700f00720000040780032e0b70084
:10424c0080e32f00300798003e009000100fba005a
:10425c00f00720000040780032e0b700a0e32f0008
:10426c00300798003e0090001000ba00100798002c
:10427c000f003700f00720000040780032e0b70054
:10428c00c0e32f00300798003e009000100fba00da
:10429c00f00720000040780032e0b700e0e32f0088
:1042ac00300798003e0090001000ba0010079800ec
:1042bc009e0090001e007800dd0207004007980069
:1042cc00510798004e009000de0090000080fa002c
:1042dc00000006000c00fa004007980051079800f7
:1042ec00e600470064004700810178000001780077
:1042fc004e009000de009000db020700c3020700b6
:10430c00004f78001e80fb00e40f5000c00032000c
:10431c00e40f500007003c00e20f50004800320050
:10432c00e20f500080003c00e10f50000a00320008
:10433c00d8013700e60f500029013200e60f50007b
:10434c00ed003500e70f50005f013200e80f500020
:10435c0097013200cf0137008afc0700400024008f
:10436c00003b8800f00720000040780032e0b700e6
:10437c0000e22f0010079800ae0090001e00900085
:10438c000108bb000500fc0050052000303b8800f4
:10439c00a00a2000303b880061e7a8000000000064
:1043ac000000000077fc070040002400003b880060
:1043bc00f00720000040780032e0b70020e22f0028
:1043cc0010079800be0090001e0090000108bb0072
:1043dc000500fc0050052000303b8800a00a20009e
:1043ec00303b880061e7a8000000000000000000de
:1043fc0064fc070040002400003b8800f00720000c
:10440c000040780032e0b70040e22f00100798001f
:10441c001e0090008080eb000108bb000500fc0032
:10442c0050052000303b8800a00a2000303b88005b
:10443c0061e7a800000000000000000095013700b3
:10444c0050fc070040002400003b8800f0072000cf
:10445c000040780032e0b70040e22f0010079800cf
:10446c00ae0090001e0090000108bb000500fc008f
:10447c0050052000303b8800a00a2000303b88000b
:10448c0061e7a80000000000000000003dfc0700f0
:10449c0040002400003b8800f0072000004078001a
:1044ac0032e0b70060e22f0010079800be009000c9
:1044bc001e0090000108bb000500fc005005200008
:1044cc00303b8800a00a2000303b880061e7a80040
:1044dc0000000000000000002afc0700400024003f
:1044ec00003b8800f00720000040780032e0b70065
:1044fc0080e22f00100798001e0090008080eb00d7
:10450c000108bb000500fc0050052000303b880072
:10451c00a00a2000303b880061e7a80000000000e2
:10452c00000000005b01370016fc0700400024006f
:10453c00003b8800f00720000040780032e0b70014
:10454c0080e22f0010079800ae0090001e00900033
:10455c000108bb000500fc0050052000303b880022
:10456c00a00a2000303b880061e7a8000000000092
:10457c000000000003fc070040002400003b880002
:10458c00f00720000040780032e0b700a0e22f00d6
:10459c0010079800be0090001e0090000108bb00a0
:1045ac000500fc0050052000303b8800a00a2000cc
:1045bc00303b880061e7a80000000000000000000c
:1045cc00f0fb070040002400003b8800f0072000af
:1045dc000040780032e0b700c0e22f0010079800ce
:1045ec001e0090008080eb000108bb000500fc0061
:1045fc0050052000303b8800a00a2000303b88008a
:10460c0061e7a80000000000000000002101370055
:10461c00dcfb070040002400003b8800f007200072
:10462c000040780032e0b700c0e22f00100798007d
:10463c00ae0090001e0090000108bb000500fc00bd
:10464c0050052000303b8800a00a2000303b880039
:10465c0061e7a8000000000000000000c9fb070093
:10466c0040002400003b8800f00720000040780048
:10467c0032e0b700e0e22f0010079800be00900077
:10468c001e0090000108bb000500fc005005200036
:10469c00303b8800a00a2000303b880061e7a8006e
:1046ac000000000000000000b6fb070040002400e2
:1046bc00003b8800f00720000040780032e0b70093
:1046cc0000e32f00100798001e0090008080eb0084
:1046dc000108bb000500fc0050052000303b8800a1
:1046ec00a00a2000303b880061e7a8000000000011
:1046fc0000000000e7003700a2fb07004000240088
:10470c00003b8800f00720000040780032e0b70042
:10471c0000e32f0010079800ae0090001e009000e0
:10472c000108bb000500fc0050052000303b880050
:10473c00a00a2000303b880061e7a80000000000c0
:10474c00000000008ffb070040002400003b8800a5
:10475c00f00720000040780032e0b70020e32f0083
:10476c0010079800be0090001e0090000108bb00ce
:10477c000500fc0050052000303b8800a00a2000fa
:10478c00303b880061e7a80000000000000000003a
:10479c007cfb070040002400003b8800f007200051
:1047ac000040780032e0b70040e32f00100798007b
:1047bc001e0090008080eb000108bb000500fc008f
:1047cc0050052000303b8800a00a2000303b8800b8
:1047dc0061e7a8000000000000000000ad003700f9
:1047ec0068fb070040002400003b8800f007200015
:1047fc000040780032e0b70040e32f00100798002b
:10480c00ae0090001e0090000108bb000500fc00eb
:10481c0050052000303b8800a00a2000303b880067
:10482c0061e7a800000000000000000055fb070035
:10483c0040002400003b8800f00720000040780076
:10484c0032e0b70060e32f0010079800be00900024
:10485c001e0090000108bb000500fc005005200064
:10486c00303b8800a00a2000303b880061e7a8009c
:10487c00000000000000000042fb07004000240084
:10488c00003b8800f00720000040780032e0b700c1
:10489c0080e32f00100798001e0090008080eb0032
:1048ac000108bb000500fc0050052000303b8800cf
:1048bc00a00a2000303b880061e7a800000000003f
:1048cc0000000000730037002efb0700400024009e
:1048dc00003b8800f00720000040780032e0b70071
:1048ec0080e32f0010079800ae0090001e0090008f
:1048fc000108bb000500fc0050052000303b88007f
:10490c00a00a2000303b880061e7a80000000000ee
:10491c00000000001bfb070040002400003b880047
:10492c00f00720000040780032e0b700a0e32f0031
:10493c0010079800be0090001e0090000108bb00fc
:10494c000500fc0050052000303b8800a00a200028
:10495c00303b880061e7a800000000000000000068
:10496c0008fb070040002400003b8800f0072000f3
:10497c000040780032e0b700c0e32f001007980029
:10498c001e0090008080eb000108bb000500fc00bd
:10499c0050052000303b8800a00a2000303b8800e6
:1049ac0061e7a8000000000000000000390037009b
:1049bc00f4fa070040002400003b8800f0072000b8
:1049cc000040780032e0b700c0e32f0010079800d9
:1049dc00ae0090001e0090000108bb000500fc001a
:1049ec0050052000303b8800a00a2000303b880096
:1049fc0061e7a8000000000000000000e1fa0700d9
:104a0c0040002400003b8800f007200000407800a4
:104a1c0032e0b700e0e32f0010079800be009000d2
:104a2c001e0090000108bb000500fc005005200092
:104a3c00303b8800a00a2000303b880061e7a800ca
:104a4c000000000000000000cefa07004000240027
:104a5c00003b8800f00720000040780032e0b700ef
:104a6c0000e22f00100798001e0090008080eb00e1
:104a7c000108bb000500fc0050052000303b8800fd
:104a8c00a00a2000303b880061e7a800000000006d
:104a9c00000000000080fa00000006000600fa008a
:104aac00b8fa0700f00720000040780032e0b700a9
:104abc0000e42f00100798001e0090001000ba00b0
:104acc00200798002e0090000000e00003003a0040
:104adc000040eb00004f78000200370010c0b3001c
:104aec00004f78001e4078000080fa00000006009d
:104afc000600fa00404798004e4090000004e00089
:104b0c00030032000080eb00000f78000200370039
:104b1c000000eb00000f78009afa07004000240018
:104b2c00003b8800f00720000040780032e0b7001e
:104b3c0000e42f00100798001e0090001e08bb0018
:104b4c000500fc0050052000303b8800a00a200026
:104b5c00303b880061e7a800000000000000000066
:104b6c000080fa00000006000600fa0085fa070033
:104b7c00f00720000040780032e0b70020e42f005e
:104b8c00100798001e0090001000ba002007980033
:104b9c002e0090000000e00003003a000040eb0003
:104bac00004f78000200370010c0b300004f7800af
:104bbc001e4078000080fa00000006000600fa0093
:104bcc00404798004e4090000004e0000300320083
:104bdc000080eb00000f7800020037000000eb00b3
:104bec00000f780067fa070040002400003b8800a3
:104bfc00f00720000040780032e0b70020e42f00de
:104c0c00100798001e0090001e08bb000500fc0059
:104c1c0050052000303b8800a00a2000303b880063
:104c2c0061e7a80000000000000000000080fa000e
:104c3c00000006000600fa00f00720000040780093
:104c4c0032e0b70000e22f00100798001e00900021
:104c5c001000ba00200798002e009000e10f4000d1
:104c6c0003003a0080c0b300004f780064003700a6
:104c7c00f00720000040780032e0b70040e22f003f
:104c8c00100798001e0090001000ba002007980032
:104c9c002e009000e10f400003003a0010c0b3005a
:104cac00004f780056003700f007200000407800d5
:104cbc0032e0b70080e22f00100798001e00900031
:104ccc001000ba00200798002e009000e10f400061
:104cdc0003003a0020c0b300004f780048003700b2
:104cec00f00720000040780032e0b700c0e22f004f
:104cfc00100798001e0090001000ba0020079800c2
:104d0c002e009000e10f400003003a0030c0b300c9
:104d1c00004f78003a003700f00720000040780080
:104d2c0032e0b70000e32f00100798001e0090003f
:104d3c001000ba00200798002e009000e10f4000f0
:104d4c0003003a0040c0b300004f78002c0037003d
:104d5c00f00720000040780032e0b70040e32f005d
:104d6c00100798001e0090001000ba002007980051
:104d7c002e009000e10f400003003a0050c0b30039
:104d8c00004f78001e003700f0072000004078002c
:104d9c0032e0b70080e32f00100798001e0090004f
:104dac001000ba00200798002e009000e10f400080
:104dbc0003003a0060c0b300004f780010003700c9
:104dcc00f00720000040780032e0b700c0e32f006d
:104ddc00100798001e0090001000ba0020079800e1
:104dec002e009000e10f400003003a0070c0b300a9
:104dfc00004f7800020037000040eb00004f7800b5
:104e0c001e4078000080fa00000006000200fa0044
:104e1c0088ff0700004f78009e40780067c0600054
:104e2c00004fe8001e4078000080fa0000000600e9
:104e3c000800fa0020079800310798002e00900017
:104e4c008000eb00c001dd00020020003e0090005d
:104e5c008000eb00001f4100019749001e00be00be
:104e6c000080fa00000006000800fa00008fbe0067
:104e7c0022079800330798001e00be004008de0091
:104e8c00800078002e009000010878009e007800c9
:104e9c003e009000010878000080fa000000060037
:104eac000000fa000c000700020107000080fa0065
:104ebc00000006000800fa000e007800000207004f
:104ecc000e007800610007006093200022000700ac
:104edc000080fa00000006000000fa0050052000d7
:104eec00303b8800a00a2000303b880027a6a80091
:104efc0027e6a90027a6a8002786a9002766a900ef
:104f0c002746a9002726a8002706a8002666ef003a
:104f1c0029e6a90029c6a90029a6a9002986a90065
:104f2c0041318000f03f2f000080600000a0a00005
:104f3c004031880041318000f0cf2f0000806000ac
:104f4c000080a0004031880027e6a80027a6a90011
:104f5c000080fa00000006000600fa002007980006
:104f6c0031318000003020000100700030318800a9
:104f7c0021318000010f78001e007800a00007008e
:104f8c008000fb002e009000010878002131800089
:104f9c00010f78001e0078004800de001007980012
:104fac001e00900096000700804078002e009000b4
:104fbc0021409800f00f20001e00600010079800a0
:104fcc001e0090008e000700804078002e0090009c
:104fdc003140980021318000010f7800f00f200043
:104fec001e006000100798001e009000840007004f
:104ffc00804078002e0090004140980021318000c4
:10500c00010f78001e0078004800de0010079800a1
:10501c001e0090007a000700804078002e0090005f
:10502c0061409800f00f20001e00600010079800ef
:10503c001e00900072000700804078002e00900047
:10504c00714098000080fa00000006001400fa007d
:10505c00881f7800100f980010c0b300004f780024
:10506c001e089000204090000080fb00eb0f5000c9
:10507c0028003e00110020000008dd0001a52000e2
:10508c00810060000100e00004003a006400600050
:10509c000000e00007003a001e0037001e089000d8
:1050ac0030409000fe4f50001500360010c0b30089
:1050bc00500037001e08900010007800630060005c
:1050cc000000e000070032001e0890003040900005
:1050dc00fc4f50000c0036000040eb00004f7800f5
:1050ec000c0037001e08900030409000fd4f50001f
:1050fc00070036000040eb00004f78000500370039
:10510c000000000003003700000000000100370021
:10511c00000000001e08900010007800004078008d
:10512c0047000700100798001e08900020409000d0
:10513c0043000700200798001e08900030409000a4
:10514c003f000700300798001e0890004040900078
:10515c003b000700400798001e089000604090003c
:10516c0037000700500798001e0890007040900010
:10517c0033000700600798002e009000c800dd0087
:10518c003e00900000804000700798005e00900088
:10519c00c800dd006e00900000804000000f9800f9
:1051ac0027e6a90058052000383b8800a80a2000f3
:1051bc00383b880027a6a800313180000030200041
:1051cc0001007000303188009e0090002131880071
:1051dc00fe00900021318800ce0090002131880023
:1051ec008e0890002131880027e6a80027a6a90088
:1051fc001e4078004f0478000080fa000000060082
:10520c000400fa00100798001e0090004400de0015
:10521c00004078006a00b9000000780080407800f7
:10522c001e009000004078006f40600000c04000fd
:10523c00004f78001e4078000080fa000000060045
:10524c000400fa00204798002e4090000001fb005b
:10525c00706626000090b900c288de004f90de0018
:10526c0000805000004078000000fb00c400dd000e
:10527c002e4090000000fb00726626000281b900ef
:10528c00c299de004f81de00028151006a11b90023
:10529c000201780002005000004078000000fb0082
:1052ac0000804000000f78001e0078000080fa009b
:1052bc00000006000000fa000400070010000700c0
:1052cc00360007000080fa00000006000000fa001b
:1052dc00c902a800c922a800c0e2a800c9e2a9001e
:1052ec000742a9000722a8000762a900e0092000d4
:1052fc002010880007e2a8000080fa0000000600d9
:10530c001200fa000040eb00970107008040780083
:10531c000174a100014f7800ea0047000e80e800fc
:10532c00a201070006020700e0cdb300330207001c
:10533c000040eb00310207000040eb002f02070099
:10534c00f601070007020700fd010700e0cdb300de
:10535c002a02070030c0b300280207000040eb000f
:10536c0026020700ed010700fe010700f40107000b
:10537c00e0cdb300210207000040eb001f02070044
:10538c001e4078000074a0001c020700e301070017
:10539c00f40107000080fa00000006001800fa0073
:1053ac0060c4b3000000fb00a1042000810f50007a
:1053bc001e003200a1042000810f50000a003c00a6
:1053cc0041042000810f5000610032006104200074
:1053dc00810f50003200320011042000810f500068
:1053ec00420032005d003700e1042000810f5000c4
:1053fc0054003200e1042000810f500004003c00f6
:10540c00d1042000810f50002800320053003700d7
:10541c00f1042000810f50004700320031052000bc
:10542c00810f5000410032004c00370050c6b300d1
:10543c000000fb0011062000810f50000400320018
:10544c0051072000810f5000040032004300370048
:10545c0010002000000f78001000370020c6b300a9
:10546c000000fb00c1062000810f50000700320035
:10547c00e1062000810f50000100320006003700c9
:10548c0060002000000f780003003700700020003f
:10549c00000f780000000000000000002f00370013
:1054ac00c0002000000f78002c00370020c6b3008d
:1054bc000000fb0021072000810f50000400320087
:1054cc0091072000810f50000400320023003700a8
:1054dc0030002000000f780003003700500020003f
:1054ec00000f7800000000001c00370050c6b3000d
:1054fc000000fb0001072000810f50000400320067
:10550c0051072000810f50000400320013003700b7
:10551c0040002000000f78000300370080002000be
:10552c00000f7800000000000c00370090002000f5
:10553c00000f780009003700a0002000000f780051
:10554c0006003700b0002000000f78000300370081
:10555c00c0002000000f7800000000001e00780042
:10556c0000407800204f980011c3b30000c2b30074
:10557c0080cf500005003a0010c3b30030479800ac
:10558c000040eb00404798000600370010c3b30002
:10559c003047980080c3b300404798000040eb00b0
