:020000040000fa
:080000000002040000000000f2
:020000040000fa
:04000800c80200002a
:020000040000fa
:04000c00c802000026
:020000040000fa
:04001000c802000022
:020000040000fa
:04001400c80200001e
:020000040000fa
:04001800c80200001a
:020000040000fa
:04001c00c802000016
:020000040000fa
:04002000c802000012
:020000040000fa
:04002400c80200000e
:020000040000fa
:04002800c80200000a
:020000040000fa
:04002c00c802000006
:020000040000fa
:04003000c802000002
:020000040000fa
:04003400c8020000fe
:020000040000fa
:04003800c8020000fa
:020000040000fa
:04003c00c8020000f6
:020000040000fa
:04004000c8020000f2
:020000040000fa
:04004400c8020000ee
:020000040000fa
:04004800c8020000ea
:020000040000fa
:04004c00c8020000e6
:020000040000fa
:04005000c8020000e2
:020000040000fa
:04005400663500000d
:020000040000fa
:04005800c8020000da
:020000040000fa
:04005c00c8020000d6
:020000040000fa
:04006000c8020000d2
:020000040000fa
:04006400c8020000ce
:020000040000fa
:04006800c8020000ca
:020000040000fa
:04006c00c8020000c6
:020000040000fa
:04007000c8020000c2
:020000040000fa
:04007400f038000060
:020000040000fa
:04007800c8020000ba
:020000040000fa
:04007c00c8020000b6
:020000040000fa
:04008000c8020000b2
:020000040000fa
:04008400c8020000ae
:020000040000fa
:04008800c8020000aa
:020000040000fa
:04008c00c8020000a6
:020000040000fa
:04009000c8020000a2
:020000040000fa
:04009400c80200009e
:020000040000fa
:04009800c80200009a
:020000040000fa
:04009c00c802000096
:020000040000fa
:0400a000b434000074
:020000040000fa
:0400a400c80200008e
:020000040000fa
:0400a800c80200008a
:020000040000fa
:0400ac00c802000086
:020000040000fa
:0400b000c802000082
:020000040000fa
:0400b400c80200007e
:020000040000fa
:0400b800c80200007a
:020000040000fa
:0400bc00c802000076
:020000040000fa
:0400c000c802000072
:020000040000fa
:0400c400c80200006e
:020000040000fa
:0400c800c80200006a
:020000040000fa
:0400cc00c802000066
:020000040000fa
:0400d000c802000062
:020000040000fa
:0400d400c80200005e
:020000040000fa
:0400d800c80200005a
:020000040000fa
:0400dc00c802000056
:020000040000fa
:0400e000c802000052
:020000040000fa
:0400e400c80200004e
:020000040000fa
:0400e800c80200004a
:020000040000fa
:0400ec00c802000046
:020000040000fa
:0400f000c802000042
:020000040000fa
:0400f400c80200003e
:020000040000fa
:0400f800c80200003a
:020000040000fa
:0400fc00c802000036
:020000040000fa
:04010000c802000031
:020000040000fa
:04010400c80200002d
:020000040000fa
:04010800c802000029
:020000040000fa
:04010c00c802000025
:020000040000fa
:04011000c802000021
:020000040000fa
:04011400c80200001d
:020000040000fa
:04011800c802000019
:020000040000fa
:04011c00c802000015
:020000040000fa
:04012000c802000011
:020000040000fa
:04012400c80200000d
:020000040000fa
:04012800c802000009
:020000040000fa
:04012c000636000093
:020000040000fa
:040130005435000042
:020000040000fa
:04013400c8020000fd
:020000040000fa
:04013800c8020000f9
:020000040000fa
:04013c00c8020000f5
:020000040000fa
:04014000c8020000f1
:020000040000fa
:04014400c8020000ed
:020000040000fa
:04014800c8020000e9
:020000040000fa
:04014c00c8020000e5
:020000040000fa
:04015000c8020000e1
:020000040000fa
:04015400c8020000dd
:020000040000fa
:04015800c8020000d9
:020000040000fa
:04015c00c8020000d5
:020000040000fa
:04016000c8020000d1
:020000040000fa
:04016400c8020000cd
:020000040000fa
:04016800c8020000c9
:020000040000fa
:04020800c802000028
:020000040000fa
:04020c00c802000024
:020000040000fa
:04021000c802000020
:020000040000fa
:04021400c80200001c
:020000040000fa
:04021800c802000018
:020000040000fa
:04021c00c802000014
:020000040000fa
:04022000c802000010
:020000040000fa
:04022400c80200000c
:020000040000fa
:04022800c802000008
:020000040000fa
:04022c00c802000004
:020000040000fa
:04023000c802000000
:020000040000fa
:04023400c8020000fc
:020000040000fa
:04023800c8020000f8
:020000040000fa
:04023c00c8020000f4
:020000040000fa
:04024000c8020000f0
:020000040000fa
:04024400c8020000ec
:020000040000fa
:04024800c8020000e8
:020000040000fa
:04024c00c8020000e4
:020000040000fa
:04025000c8020000e0
:020000040000fa
:04025400c8020000dc
:020000040000fa
:04025800c8020000d8
:020000040000fa
:04025c00c8020000d4
:020000040000fa
:04026000c8020000d0
:020000040000fa
:04026400c8020000cc
:020000040000fa
:04026800c8020000c8
:020000040000fa
:04026c00c8020000c4
:020000040000fa
:04027000c8020000c0
:020000040000fa
:04027400c8020000bc
:020000040000fa
:04027800c8020000b8
:020000040000fa
:04027c00c8020000b4
:020000040000fa
:04028000c8020000b0
:020000040000fa
:04028400c8020000ac
:020000040000fa
:04028800c8020000a8
:020000040000fa
:04028c00c8020000a4
:020000040000fa
:04029000c8020000a0
:020000040000fa
:04029400c80200009c
:020000040000fa
:04029800c802000098
:020000040000fa
:04029c00c802000094
:020000040000fa
:0402a000c802000090
:020000040000fa
:0402a400c80200008c
:020000040000fa
:0402a800c802000088
:020000040000fa
:0402ac00c802000084
:020000040000fa
:0402b000c802000080
:020000040000fa
:0402b400c80200007c
:020000040000fa
:0402b800c802000078
:020000040000fa
:0402bc00c802000074
:020000040000fa
:0402c000c802000070
:020000040000fa
:0402c400c80200006c
:020000040000fa
:0402c800c802000068
:020000040000fa
:0402cc00c802000064
:020000040000fa
:0402d000c802000060
:020000040000fa
:0402d400c80200005c
:020000040000fa
:0402d800c802000058
:020000040000fa
:0402dc00c802000054
:020000040000fa
:0402e000c802000050
:020000040000fa
:0402e400c80200004c
:020000040000fa
:0402e800c802000048
:020000040000fa
:0402ec00c802000044
:020000040000fa
:0402f000c802000040
:020000040000fa
:0402f400c80200003c
:020000040000fa
:0402f800c802000038
:020000040000fa
:0402fc00c802000034
:020000040000fa
:04030000c80200002f
:020000040000fa
:04030400c80200002b
:020000040000fa
:04030800c802000027
:020000040000fa
:04030c00c802000023
:020000040000fa
:04031000c80200001f
:020000040000fa
:04031400c80200001b
:020000040000fa
:04031800c802000017
:020000040000fa
:04031c00c802000013
:020000040000fa
:04032000c80200000f
:020000040000fa
:04032400c80200000b
:020000040000fa
:04032800c802000007
:020000040000fa
:04032c00c802000003
:020000040000fa
:04033000c8020000ff
:020000040000fa
:04033400c8020000fb
:020000040000fa
:04033800c8020000f7
:020000040000fa
:04033c00c8020000f3
:020000040000fa
:04034000c8020000ef
:020000040000fa
:04034400c8020000eb
:020000040000fa
:04034800c8020000e7
:020000040000fa
:04034c00c8020000e3
:020000040000fa
:04035000c8020000df
:020000040000fa
:04035400c8020000db
:020000040000fa
:04035800c8020000d7
:020000040000fa
:04035c00c8020000d3
:020000040000fa
:04036000c8020000cf
:020000040000fa
:04036400c8020000cb
:020000040000fa
:04036800c8020000c7
:020000040000fa
:10040000afca20000eff20000e018800000000008f
:10041000000020000000e000020032000001200087
:100420002002880014000700740007000000e000ac
:1004300003003a00e095230001002000020037008d
:100440000000200001002000810f70000100320038
:1004500014000700000020000000e000020032004d
:100460000000020000000000a015020000000000d3
:100470000040da000000fe004440a900e010200027
:100480000000e0000300320000002000a00188000e
:100490004440a800000006008a1f78008b1f7800e7
:1004a0000000060091018800800478000000eb0045
:1004b0001a003700e284440032a0b4009905ba0063
:1004c000e284440032a0b4009906ba00e2844400f9
:1004d00032a0b4000006eb00476fde00fd07b2005b
:1004e000636ce10003003a00ebff07000000eb0043
:1004f0000a003700606ce10004003a00005deb0088
:100500008b05e900fdff3e00040037006168e10053
:10051000010032000086eb000b00070019c7ba008b
:100520001905ba000e04e00003003a000a00e000da
:10053000e0ff3a0000000600fe07b2009e018800be
:100540008a047800f5ff3700395dba008b05e900b1
:100550000c003200295dba008b05e900080032006a
:100560000c00e00003003a00e284440032a0b40032
:10057000f5ff370019ddba008b05e900faff3a00f4
:100580008904e800e184440032a0b40000000600c1
:100590000040da000000fe001004b1000700350042
:1005a0009001b100040034007000b1000300350078
:1005b0009001b10001003c001000050000000500a2
:1005c0006900e100040035006d00e1000300340023
:1005d0000002b1000100320000000500100005001b
:1005e000800078001106b100030035009101b100d0
:1005f00001003c000050a1000000060000000500c2
:100600006022b800060220000000d0008180d200e5
:100610000482d2008582d2000000a00002025200b3
:1006200083825a00030031000202420083824a00a2
:100630000000a1000603e900f3ff3a0000000600f5
:1006400080007800010078003041780003c2b300d8
:10065000834f5100faff3200e94f5100f8ff32009a
:10066000edc14100834f510003003a008000780043
:1006700013c0b300050037008041eb00b4c2b300e3
:10068000844f510001003a00800078000000eb0028
:10069000020037006a02b900040041003101fb008a
:1006a0000203b100e90f5100faff36000304e00035
:1006b000010032000000ea0000000600000378009c
:1006c000810278008501780001003700040378007a
:1006d000110009008281d800800178000602e8003c
:1006e0000300e000f9ff3a00034a78001100090016
:1006f0008282d8000002780081417800840278006c
:10070000e9cf510001003400e7c1410001c3b3004b
:1007100001d341000400e000f4ff3a000600780035
:1007200000000600881f7800000478000100e00047
:1007300005003d0008007800d3c2b30003587800dc
:100740008100ea000100370008007800dbff0700a5
:10075000080078004f04780000000600889fbe0063
:100760008a9fbe008c9fbe00800578000204be00f8
:10077000010578000200be00010037008205780004
:100780006156b9000c01be009dff07000b01e80097
:10079000e00f5000e08f5800f8ff3a000049eb00ee
:1007a0000c01be000800be00ec0007000045780008
:1007b0000c01be000800be0091ff07000004be004f
:1007c000e94f5500010034006745450000c3b30000
:1007d00080554500e00f5400e08f5c00f0ff3a00c8
:1007e0000b0078004f06be004f05be004f04be0050
:1007f00000000600881f780000047800e00f510018
:10080000e08f590006003d0008007800d4c2b30014
:100810000458780060011100e081190001003700e0
:1008200008007800cdff0700080078004f0478002a
:1008300000000600e6874700889fbe008a9fbe0032
:100840008c9fbe008e1f780081067800820478009d
:100850008000eb00416588000d00e00001003200df
:10086000800e780000057800ba4078000a0478000d
:100870000100fb0081bf9f0051ff07008fb8970068
:100880000000e000f8ff3a00d0c2b30080cf500073
:1008900003003a00b84078001ec0b30005003700de
:1008a0000047eb00b0c2b30080cf500001003a0017
:1008b000b840780000c3b30080cf500012003a0067
:1008c000b84078000900e00002003200f08f5400c8
:1008d00058003a0080c7b30080cf500003003200b8
:1008e00080c5b30080cf500003003a00b8407800c4
:1008f000090120004f0037000900e0004d003a00d8
:10090000890020004b0037000046eb000900e000a2
:1009100002003a000046eb00a90020006055b80034
:100920000101fb000200780081bf9f00f2b79f0029
:1009300019ff07008fb897007fb197000000e00013
:10094000050032000200780025ff070091ccb300bb
:1009500001424000050037000203b100e90f5100d9
:100960001e003e0004cdb30004c240000400fb00a2
:10097000890f500019003d000402fb00cfa2de00e9
:100980006149b9000a00be00f4b79f0085bf9f000f
:10099000750007007fb297008fba970004024000ed
:1009a000858248000800e800840f5500858f5d00af
:1009b000050036002102200041658800000478000f
:1009c00010c0b3000600370098407800000478009b
:1009d0000405be001cc0b300d1ff37000040eb008f
:1009e0000c04e000030032000d00e00001003200c2
:1009f000880ee900e14f5000050032000e04e000cf
:100a00000500320060051500e0851d00020037007a
:100a10000085eb008085eb000a00be004f077800e0
:100a20004f06be004f05be004f04be006f00b10070
:100a3000000006001cc0b300b8ff3700889fbe004e
:100a40008a9fbe008c9fbe008005780081047800dc
:100a5000820678000000eb00406588000b067800f5
:100a60000c0578000a0678003c4478000800fb007a
:100a7000d3fe07000000e000f9ff3a00d0c2b30047
:100a8000804f54000300320000c0e900804f540042
:100a900002003a000a05e80001003700004478002f
:100aa0000d017800890078000a00780061ff0700d6
:100ab0000900e00007003200990f550024003a00b9
:100ac0008b0c780022003700e00f5000e08f5800b8
:100ad0000f003a00b2c2b300824f540004003a0043
:100ae000e00f5000e08f580015003d00080037006f
:100af000d2c2b300824f540011003a00020020001d
:100b000003002800820f5000838f58000a0036002f
:100b10002002200040658800f0ff2f00f1ff270031
:100b2000d2c2b300824f540005003a0000002000fa
:100b3000010028000200370060001000e08018006b
:100b40004f06be004f05be004f04be000000060069
:100b5000998f5500dfff3a00dbff3700a8fe070042
:100b60000400be0000000600020ab900001bb90024
:100b70000200b8008100420081004300000006002e
:020000040000fa
:100b8000200000002e0d00000a0000003a000000c6
:100b90007365000074000000746900006d6500005a
:100ba000007000006f7700006572000000610000b7
:100bb0006c610000726d000000700000776400003e
:100bc000006500006d6500007200000072650000a5
:100bd0007365000074000000726500006c61000025
:100be0007900000073740000617400000068000068
:100bf0006c00000068690000676800000075000074
:100c000070640000617400006500000072650000ff
:100c1000616400000076000065720000730000004f
:100c20007077000072660000616900006c000000cf
:100c3000546900006d6500000053000065740000f9
:100c4000005000006f770000657200000041000056
:100c50006c610000726d00000050000077640000bd
:100c6000004500006d650000720000005665000040
:100c70007273000000500000445400000050000057
:100c800055540000005200006573000065740000b8
:100c9000004f00006e000000526500006c61000013
:100ca00079000000460000005374000061740000e9
:100cb000004800006967000068000000484c000020
:100cc000004c00006f770000003000000052000070
:100cd000656100006400000050770000724600006b
:100ce000616900006c000000557000006461000044
:100cf00074650000004e00006f7700000052000095
:100d0000656200006f6f000074000000454e000037
:100d100044000000536500007400000057610000ab
:100d20007474000073000000436f00006e660000e2
:100d3000004500006e55000073650000640000006f
:100d4000505300005665000072730000696f000088
:100d50006e000000526500006164000000000000a9
:100d600030000000506f0000776500007200000046
:100d70004c6f000073740000004700006f740000a7
:100d800000000000484800003a4d00004d3a0000c5
:0c0d9000444400003a4d00004d000000fb
:020000040000fa
:100d9c000000fa00462bef00305a8000205a8800e1
:100dac00436bef00f02aef008057800070578800eb
:100dbc00ec6aef00cc6aef00c56aef00c5cabf0051
:100dcc00c4eab700c4cabf00c3eab700c3cabf00b5
:100ddc00c2eab700c2cabf00c1eab700ca6aef00d4
:100dec00cacabf00c9eab700c9cabf00c8eab7007f
:100dfc00c8cabf00c7eab700c7cabf00c6eab70077
:100e0c000080fa00000006000000fa000300070052
:100e1c00320107000080fa00000006000600fa000c
:100e2c004b003700cdcabf000004e0000c003a00b4
:100e3c00c6cabf000004e00009003200c1902000c7
:100e4c005093200038020700c66aef009102200080
:100e5c00509320002202070010c0b300cdeab70067
:100e6c00c6cabf000004e0000c003a00c7cabf00ad
:100e7c000004e0000900320051932000e0952000ae
:100e8c0029020700c76aef0091022000e0952000bc
:100e9c001302070010c0b300c6eab700c7cabf00f0
:100eac000004e0000c003a00c8cabf000004e000d7
:100ebc0009003200e1952000709820001a0207000a
:100ecc00c86aef009102200070982000040207000d
:100edc0010c0b300c7eab700c8cabf000004e000e6
:100eec000c003a00c9cabf000004e000090032003f
:100efc0071982000009b20000b020700c96aef00cc
:100f0c0091022000009b2000f501070010c0b300e7
:100f1c00c8eab700c9cabf000004e0000c003a00e0
:100f2c00cacabf000004e00009003200019b200087
:100f3c00909d2000fc010700ca6aef00910220007e
:100f4c00909d2000e601070010c0b300c9eab7006d
:100f5c00cdcabf000004e0000f003a00c6cabf00b3
:100f6c000004e000afff3a00c7cabf000004e00075
:100f7c00acff3a00c8cabf000004e000a9ff3a0069
:100f8c00c9cabf000004e000a6ff3a00cacabf00ed
:100f9c000004e000a3ff3a00cdcabf000004e0004b
:100fac00cc003200cbcabf000004e000c9003a00fc
:100fbc000000eb00000f780011003700f0a82000b3
:100fcc001e0040008040eb0001487800f0a8200093
:100fdc001e00400090407800d0a520001e0040006c
:100fec0001487800d0a520001e00400090407800f9
:100ffc00b0a220001e004000014878001e0fe8003f
:10100c00100320009e007800808f5000ebff34000e
:10101c00c19020009140780050c2b30080cf5000a6
:10102c0002003200cd6aef00aa0037001000200049
:10103c00100798000000eb00200798000e00370006
:10104c009e009000c09020000080400090407800ee
:10105c002e019000b0a22000000041000148780051
:10106c002e0090000000e800200798001e00900061
:10107c000000e800100798009e009000c09020002f
:10108c000080400090407800f0c2b30080cf500048
:10109c000f0034009e009000c090200000804000a3
:1010ac0090407800f0c7b30080cf500008003200a9
:1010bc00ae00900010032000808f500004003c0014
:1010cc009e00900070022000808f5000dcff3400e6
:1010dc009e009000c090200000804000904078005e
:1010ec0000c2b30000c068000080fb000000ea00f2
:1010fc004f00de00004078009e0090008100e80068
:10110c00110798000004e00002003200cd6aef00e5
:10111c00700037000000eb00200798000e0037002d
:10112c009e009000c090200000804000904078000d
:10113c002e019000d0a5200000004100014878004d
:10114c002e0090000000e800200798001e00900080
:10115c000000e800100798009e009000c09020004e
:10116c000080400090407800f0c2b30080cf500067
:10117c000f0034009e009000c090200000804000c2
:10118c0090407800f0c7b30080cf500008003200c8
:10119c00ae00900010032000808f500004003c0033
:1011ac009e00900070022000808f5000dcff340005
:1011bc009e009000c090200000804000904078007d
:1011cc0000c2b30000c068000080fb000000ea0011
:1011dc004f00de00004078009e0090008100e80087
:1011ec00110798000004e00002003200cd6aef0005
:1011fc00380037000000eb00200798000e00370085
:10120c009e009000c090200000804000904078002c
:10121c002e019000f0a82000000041000148780049
:10122c002e0090000000e800200798001e0090009f
:10123c000000e800100798009e009000c09020006d
:10124c000080400090407800f0c2b30080cf500086
:10125c000f0034009e009000c090200000804000e1
:10126c0090407800f0c7b30080cf500008003200e7
:10127c00ae00900010032000808f500004003c0052
:10128c009e00900070022000808f5000dcff340024
:10129c009e009000c090200000804000904078009c
:1012ac00e0c2b30080cf500002003200cd6aef00e4
:1012bc000800370010c0b300cbeab700cd6aef00ce
:1012cc00ce6aef006602070081022000c090200069
:1012dc00030107000080fa00000006000000fa007d
:1012ec00cccabf000004e00013003a00c1cabf0022
:1012fc000004e0001000320021af2000c08120006b
:10130c000901070010c0b300eceab70081b420005b
:10131c00c08120000401070010c0b30043ebb700ec
:10132c00c16aef0081022000c0812000ec000700a0
:10133c0010c0b300cceab700c1cabf000004e00083
:10134c000c003a00c2cabf000004e00009003200e1
:10135c00c181200040842000f3000700c26aef0026
:10136c008102200040842000dd00070010c0b30083
:10137c00c1eab700c2cabf000004e0000c003a008a
:10138c00c3cabf000004e000090032004184200001
:10139c00c0862000e4000700c36aef008102200031
:1013ac00c0862000ce00070010c0b300c2eab70010
:1013bc00c3cabf000004e0000c003a00c4cabf005e
:1013cc000004e00009003200c186200040892000a2
:1013dc00d5000700c46aef0081022000408920007c
:1013ec00bf00070010c0b300c3eab700c4cabf00f7
:1013fc000004e00025003a00c5cabf000004e0006c
:10140c002400320041892000c08b2000c600070058
:10141c00c56aef0081022000c08b2000b0000700dd
:10142c0010c0b300c4eab7001b003700705780002f
:10143c0021af200081004000914078008100fb002a
:10144c00a11188000000e8007057880071578000d7
:10145c0020af200000804000104078000004e00025
:10146c0007003200705780008000e90020af200098
:10147c000080400010407800ea4f500006003a000f
:10148c00ee2aef00ec6aef000300370000000000ca
:10149c0001003700000000009111800000102000b6
:1014ac00008060000000e0002200320071578000d4
:1014bc0020af200000804000104078000004e000c5
:1014cc001e003200eccabf000004e000d7ff3a0057
:1014dc001b003700205a800081b42000810040009e
:1014ec00914078008100fb00211188000000e80089
:1014fc00205a8800215a800080b4200000804000cf
:10150c00104078000004e00007003200205a8000f0
:10151c008000e90080b4200000804000104078007a
:10152c00ea4f500006003a00442bef00436bef00eb
:10153c00030037000000000001003700000000002d
:10154c001111800000102000008060000000e000fd
:10155c0009003200215a800080b420000080400035
:10156c00104078000004e0000300320043cbbf00c1
:10157c000004e000d7ff3a00cccabf000004e00032
:10158c0007003200eccabf000004e00004003a007f
:10159c0043cbbf000004e00001003a00cc6aef002e
:1015ac000080fa00000006000000fa00c1cabf006b
:1015bc000004e00004003a0010c0b300c1eab70018
:1015cc00c08120001d003700c2cabf000004e0002b
:1015dc0004003a0010c0b300c2eab70040842000f7
:1015ec0016003700c3cabf000004e00004003a0034
:1015fc0010c0b300c3eab700c08620000f0037004c
:10160c00c4cabf000004e00004003a0010c0b300dc
:10161c00c4eab7004089200008003700c5cabf00e3
:10162c000004e00004003a0010c0b300c5eab700a3
:10163c00c08b200001003700408e20000080fa0093
:10164c00000006000000fa00c6cabf000004e0005b
:10165c0004003a0010c0b300c6eab7005093200053
:10166c001d003700c7cabf000004e00004003a00a8
:10167c0010c0b300c7eab700e09520001600370091
:10168c00c8cabf000004e00004003a0010c0b30058
:10169c00c8eab700709820000f003700c9cabf0015
:1016ac000004e00004003a0010c0b300c9eab7001f
:1016bc00009b200008003700cacabf000004e000ed
:1016cc0004003a0010c0b300caeab700909d200095
:1016dc000100370020a020000080fa000000060066
:1016ec000600fa0010079800210798000000eb0094
:1016fc00000f7800060037001e0078009e00900056
:10170c00008040008040eb00014878001e0fe8008c
:10171c002e0090009e007800808f5000f6ff350060
:10172c000080fa00000006000600fa00100798007e
:10173c00210798000000eb00000f7800090037002b
:10174c001e007800ae009000008040009e007800e3
:10175c001e01900081004100914078000148780002
:10176c001e0fe8001e0078009e00900000804000d4
:10177c00104078000004e000f1ff3a001e007800f1
:10178c00ae009000008040008040eb0001487800e3
:10179c000080fa00000006000800fa0020079800fc
:1017ac00310798000000eb00000f78002e0090002d
:1017bc003c000700100798000a0037001e0090003c
:1017cc001e004000ae009000008040009e0078009b
:1017dc003e01900081004100914078000148780062
:1017ec001e0fe8001e007800be0090000080400034
:1017fc00104078000004e000f0ff3a001e0090005a
:10180c001e004000ae009000008040008040eb00c5
:10181c00014878000080fa00000006000600fa007b
:10182c0010079800210798000000eb00000f7800cb
:10183c000d0037001e0078009e00900000804000d4
:10184c00904078001e0078002e01900000004100ae
:10185c001040780080cf50000200320010c0b3005e
:10186c000e0037001e0fe8001e0078009e0090004e
:10187c0000804000104078000004e00006003200b8
:10188c001e007800ae0090000080400010407800f0
:10189c000004e000e7ff3a000040eb000080fa0093
:1018ac00000006000400fa00100798000000eb008e
:1018bc00000f7800000000001e0078009e009000d1
:1018cc0000804000104078000080fb000000ea001f
:1018dc004f00de00004078001e0fe8000004e0001e
:1018ec00f5ff3a001e00e9000080fa000000060037
:1018fc003800fa00101f9800211f9800321f980022
:10190c005002200001002000008fbe00e4004700c0
:10191c00160009008018eb009e1890000e0078004d
:10192c009dff0700015c28000e0078009aff07005d
:10193c00ae1890000e00780097ff0700015c28009d
:10194c000e00780094ff0700be1890000e0078007f
:10195c0091ff0700215c28000e0078008eff070025
:10196c0011ff0700800078000e0078006eff070062
:10197c000080fa00000006003a00fa00101f9800e0
:10198c00211f9800321f9800431f98006000b80078
:10199c00008fbe00e4004700160009008018eb0021
:1019ac00be1890000e0078007bff0700615c2800d9
:1019bc000e00780078ff0700ce1890000e0078001b
:1019cc0075ff07000e017800ae1890001e189000ed
:1019dc00c7ff07000080fa00000006003c00fa0078
:1019ec00101f9800211f9800321f9800431f980069
:1019fc00541f98006000b800008fbe00e400470040
:101a0c00160009008018eb00ce1890000e0078002c
:101a1c0061ff0700615c28000e0078005eff070084
:101a2c00de1890000e0078005bff07008e01780036
:101a3c003e199000ae1890001e189000ceff0700c3
:101a4c000080fa00000006003e00fa00101f98000b
:101a5c00211f9800321f9800431f9800541f9800b4
:101a6c00651f98006000b800008fbe00e4004700be
:101a7c00160009008018eb00de1890000e007800ac
:101a8c0045ff0700615c28000e00780042ff07004c
:101a9c00ee1890000e0078003fff07000e02780051
:101aac00ce1990003e199000ae1890001e189000b0
:101abc00caff07000080fa00000006004000fa0090
:101acc00101f9800211f9800321f9800431f980088
:101adc00541f9800651f9800761f98006000b8008e
:101aec00008fbe00e4004700160009008018eb00d0
:101afc00ee1890000e00780027ff0700615c2800ac
:101b0c000e00780024ff0700fe1890000e007800ed
:101b1c0021ff07008e0278005e1a9000ce1990000b
:101b2c003e199000ae1890001e189000c6ff0700da
:101b3c000080fa00000006000a00fa003007980046
:101b4c00014f98000000eb00000f78000000eb0044
:101b5c00100798000040eb00404798001000370039
:101b6c001e007800be00900000804000904078007d
:101b7c00a0c3b30000c068000080fb000000e900b7
:101b8c004f00de00004078001e0fe8000004e0006b
:101b9c00030032004e4090000040e800404798009f
:101bac00ce4090000e48900080cf500012003d00b7
:101bbc00100320009e007800808f5000e8ff340056
:101bcc000e0037001e007800be0090000080400020
:101bdc00904078001e01900030c3200000004100ae
:101bec00014878001e0090000000e80010079800e3
:101bfc001e0fe80001003700000000001e007800f6
:101c0c00be0090000080400090407800a0c3b3005c
:101c1c0080cf50000a0032001e007800be009000f9
:101c2c0000804000104078000004e0000400320006
:101c3c00100320009e007800808f5000e1ff3400dc
:101c4c009e00900030c32000008040008040eb00dc
:101c5c000148780030c320000080fa000000060024
:101c6c000600fa00cbcabf000004e0007601320087
:101c7c00815c2800b0a22000e8fe07000004e00010
:101c8c0012013a00c15c2800d0a52000e3fe070039
:101c9c000004e00058003a008fcabf000000fb00af
:101cac000003b100004078006a00b9000000780021
:101cbc008040780090cabf0080c0400000cdb300c7
:101ccc0000c04000004f780091cabf000000fb002c
:101cdc000003b100004078006a00b90000007800f1
:101cec008040780092cabf0080c0400000cdb30095
:101cfc0000c040001047980093cabf000000fb00d2
:101d0c000003b100004078006a00b90000007800c0
:101d1c008040780094cabf0080c0400000cdb30062
:101d2c0000c040002047980095cabf000000fb008f
:101d3c000003b100004078006a00b9000000780090
:101d4c008040780096cabf0080c0400000cdb30030
:101d5c0000c040003047980097cabf000000fb004d
:101d6c000003b100004078006a00b9000000780060
:101d7c008040780098cabf0080c0400000cdb300fe
:101d8c0000c040004047980099cabf000000fb000b
:101d9c000003b100004078006a00b9000000780030
:101dac00804078009acabf0080c0400000cdb300cc
:101dbc0000c0400050479800de4290004e42900018
:101dcc00be4190002e4190009e4090001e40780035
:101ddc00c5130700de4290004e429000be419000b9
:101dec002e4190009e4090001e407800d9100700b4
:101dfc009110070012013700115d2800d0a52000ba
:101e0c0086fe07000004e00020003a008040eb0052
:101e1c00f0a8200048ff0700a20020008000eb0083
:101e2c0081fa0700e0608800f1608800e0608000c3
:101e3c00f16080001040880021408800e060800044
:101e4c00f16080006309b900020178006002b900fa
:101e5c008401780003014100330020000300b80026
:101e6c0001014100820078004e09dd004200de00d5
:101e7c0000007100c208de0030408800414088003c
:101e8c000b0607002e070700ed003700715d2800d8
:101e9c00d0a5200061fe07000004e00020003a00fd
:101eac008040eb00f0a8200023ff0700e1f90700b9
:101ebc000040780016e8b70011c0b300f0a820006d
:101ecc001dff0700dbf907000040780019e8b70098
:101edc0021c0b300f0a8200017ff0700d5f90700b8
:101eec00004078001ae8b70031c0b300f0a8200019
:101efc0011ff0700cff907000040780017e8b70082
:101f0c0041c0b300f0a820000bff0700c9f907007f
:101f1c000040780018e8b700de070700c80037005b
:101f2c00d15d2800d0a520003cfe07000004e00095
:101f3c000e003a008fcabf000ce8b70090cabf0071
:101f4c000de8b70091cabf000ee8b70092cabf00f7
:101f5c000fe8b70093cabf0010e8b70094cabf00df
:101f6c0011e8b7003c060700b5003700115e2800e9
:101f7c00d0a5200029fe07000004e0001a003a005a
:101f8c008040eb00f0a82000ebfe0700a9f9070049
:101f9c000040780012e8b70011c0b300f0a8200090
:101fac00e5fe0700a3f90700a040880021c0b3009c
:101fbc00f0a82000e0fe07009ef90700805688007c
:101fcc00805680006101b900e0608000f160800003
:101fdc000200400083804800e0608800f1608800c7
:101fec001307070096003700615e2800d0a520007b
:101ffc000afe07000004e0000e003a008040eb00ef
:10200c00f0a82000ccfe07008af9070000407800f9
:10201c0000e8b70011c0b300f0a82000c6fe07000e
:10202c0084f907000040780001e8b700400707007a
:10203c0083003700c15e2800d0a52000f7fd070003
:10204c000004e0000b003a00f1a820009140780059
:10205c0060c6b30080cf500002003a000b68ef005e
:10206c000200370000c0eb000be8b700210c0700a2
:10207c0073003700215f2800d0a52000e7fd070082
:10208c000004e0006e003200715f2800d0a5200033
:10209c00e2fd07000004e00069003a00a15f28009f
:1020ac00f0a82000ddfd07000004e00003003a006a
:1020bc0000c0eb000ae8b700010037000a68ef0027
:1020cc00da0b07007a0507005d003700f15f280086
:1020dc00b0a22000d1fd07000004e00002003a008d
:1020ec00de00070056003700615e2800b0a2200019
:1020fc00cafd07000004e0005100320061602800b6
:10210c00b0a22000c5fd07000004e0004c003a001e
:10211c00c15c2800d0a52000c0fd07000004e00031
:10212c0002003a004b00070045003700115d280003
:10213c00d0a52000b9fd07000004e00002003a0021
:10214c00c60007003e003700715d2800d0a52000b6
:10215c00b2fd07000004e00002003a00df000700b7
:10216c0037003700d15d2800d0a52000abfd07005b
:10217c000004e00002003a000601070030003700be
:10218c00115e2800d0a52000a4fd07000004e0008b
:10219c0002003a001601070029003700b160280040
:1021ac00d0a520009dfd07000004e00002003a00cd
:1021bc002b0107002200370001612800d0a5200068
:1021cc0096fd07000004e00002003a00a801070099
:1021dc001b003700615e2800d0a520008ffd070092
:1021ec000004e00002003a00ac01070014003700c4
:1021fc00c15e2800d0a5200088fd07000004e00087
:10220c0002003a00bb0107000d003700215f2800d7
:10221c00d0a5200081fd07000004e00002003a0078
:10222c00c301070006003700715f2800d0a520000d
:10223c007afd07000004e00001003a00cf0107001e
:10224c00cb6aef0001003700000000000080fa00ac
:10225c00000006000e00fa00770f07006000b800bf
:10226c00008fbe00e4004700030009008018eb005b
:10227c008058eb0099cbbf008080fb00a0002000b1
:10228c0000017800110009008280d800004078001d
:10229c000043b000004f780099cbbf008080fb005a
:1022ac00a000200000017800110009008280d800f5
:1022bc008000fd00004078000043b00010479800fb
:1022cc009acbbf008080fb00a000200000017800aa
:1022dc00110009008280d800004078000043b00053
:1022ec00204798009acbbf008080fb00a000200004
:1022fc0000017800110009008280d8008000fd00e8
:10230c00004078000043b000304798009bcbbf00e2
:10231c008080fb00a0002000000178001100090063
:10232c008280d800004078000043b00040479800fd
:10233c009bcbbf008080fb00a00020000001780038
:10234c00110009008280d8008000fd000040780058
:10235c000043b000504798009dcbbf008080fb002d
:10236c00a000200000017800110009008280d80034
:10237c00004078000043b000604798009dcbbf0040
:10238c008080fb00a00020000001780011000900f3
:10239c008280d8008000fd00004078000043b0002f
:1023ac00704798009ecbbf008080fb00a0002000ef
:1023bc0000017800110009008280d80000407800ec
:1023cc000043b000004f98009ecbbf008080fb0004
:1023dc00a000200000017800110009008280d800c4
:1023ec008000fd00004078000043b000104f9800c2
:1023fc009fcbbf008080fb00a00020000001780074
:10240c00110009008280d800004078000043b00021
:10241c00204f98009fcbbf008080fb00a0002000c5
:10242c0000017800110009008280d8008000fd00b6
:10243c00004078000043b000304f98000040eb00a3
:10244c00404f98000e01780081612800d06128006f
:10245c0027fd07000080fa00000006002800fa00a3
:10246c000261800013618000206180003161800076
:10247c00001f510001975900e2608000f36080005a
:10248c0064004700a1002000b1f80700700047006d
:10249c00a10020001e01be00adf8070042618000c3
:1024ac00536180007c004700a1002000a8f80700c1
:1024bc007c014700f00047006400470002027800ee
:1024cc00810178000001780011622800d061280099
:1024dc0042fd07000080fa00000006000a00fa0026
:1024ec0016c8bf000000fb00a2002000800078008e
:1024fc0050ba200088f80700000f780019c8bf00f8
:10250c000000fb00a20020008000780000bb20002f
:10251c0081f80700100798001ac8bf000000fb00e4
:10252c00a200200080007800b0bb20007af80700e1
:10253c002007980017c8bf000000fb00a200200075
:10254c008000780060bc200073f80700300798000a
:10255c0018c8bf000000fb00a2002000800078001b
:10256c0010bd20006cf80700400798004e03900047
:10257c00be0290002e0290009e0190001e01780079
:10258c0071622800d06128004cfd07000080fa0021
:10259c00000006000a00fa000000eb00000f7800b3
:1025ac0007003700c08020001e00400090407800db
:1025bc000e80e8001e004000014878001e0fe80065
:1025cc001e007800e50f5000f6ff34000040eb00d1
:1025dc00004f98000e80e80000017800d1622800be
:1025ec00d0612800c2fc07000080fa000000060041
:1025fc000600fa0012c8bf000000fb00a200200079
:10260c008000780050ba200043f80700000f7800d3
:10261c00a0408000a20020008000780000bb2000b9
:10262c003df807001007980090568000a20020008b
:10263c0080007800b0bb200037f807002007980016
:10264c002e0290009e0190001e017800116328005c
:10265c00d0612800e1fc07000080fa0000000600b1
:10266c000a00fa0015c3b30074c3b30091c7b300da
:10267c00e0c6b30080cf50001a00320091c7b300ff
:10268c0020c6b30080cf50001600320091c7b300b3
:10269c0020c7b30080cf50001200320091c7b300a6
:1026ac0090c7b30080cf50000e00320091c7b3002a
:1026bc00c0c6b30080cf50000a00320091c7b300ef
:1026cc0070c6b30080cf50000600320091c7b30033
:1026dc0000c7b30080cf5000020032001000200071
:1026ec00010037000000eb00004078000043b00010
:1026fc008041780091c7b300e0c6b30080cf500092
:10270c0009003a0011c6b30010c6b30080cf5000c8
:10271c0002003a0010c3b3000100370060c3b300dd
:10272c00804078003800370091c7b30020c6b30052
:10273c0080cf50003200320091c7b30020c7b300e5
:10274c0080cf500008003a00d1c4b300d0c4b3000d
:10275c0080cf500002003a0030c3b30001003700b4
:10276c0040c3b3002500370091c7b30090c7b30036
:10277c0080cf50002000320091c7b300c0c6b30018
:10278c0080cf50001a00320091c7b30070c6b3005e
:10279c0080cf50001400320091c7b30000c7b300c3
:1027ac0080cf50000e00320091c7b30040c7b30079
:1027bc0080cf50000800320091c7b30060c7b3004f
:1027cc0080cf500002003a0010c3b3000100370064
:1027dc0020c3b3000100370000c3b3000100370071
:1027ec0090c3b3000100370080c3b3000100370071
:1027fc0070c3b3000100370050c3b30001003700b1
:10280c0020c3b3008040780012c3b30000c2b300f1
:10281c00804f51000200320010c3b300010037009a
:10282c0000c3b30052c3b300054f7800144798009f
:10283c00234798003147980040479800524798002a
:10284c0000c3b3006047980010c3b30070479800f2
:10285c000040eb00004f98000e01780061632800e7
:10286c00d061280022fc07000080fa00000006005e
:10287c000000fa0042ad2000b1632800d0612800ae
:10288c001bfc070002ae2000f1632800d061280079
:10289c0017fc07000080fa00000006000400fa0094
:1028ac0000c8bf000080fb00a20020008000780060
:1028bc0050ba200098f70700000f780001c8bf003d
:1028cc000080fb00a20020008000780000bb2000ec
:1028dc0091f70700100798009e0190001e017800e8
:1028ec0031642800d061280023fc07000080fa0026
:1028fc00000006000000fa000bc8bf000004e00056
:10290c000500320092642800c1642800d0612800c0
:10291c00f7fb07000400370022652800c16428007b
:10292c00d0612800f2fb07000080fa0000000600ce
:10293c001800fa000261800013618000a1002000e1
:10294c000e00780082f707006261800073618000de
:10295c006c004700a10020007df707006c004700c9
:10296c00800178000e01780041652800d0612800b4
:10297c0001fc07000080fa00000006000000fa00cd
:10298c000ac8bf000004e000050032009265280070
:10299c00e1652800d0612800d5fb07000400370052
:1029ac0012662800e1652800d0612800d0fb0700e2
:1029bc000080fa00000006000000fa0052662800b1
:1029cc005166280030642800c9fb07000080fa001b
:1029dc00000006000000fa00a0fe07000080fa00cc
:1029ec00000006000000fa005266280081612800f1
:1029fc0070662800befb07000080fa00000006008d
:102a0c000000fa0052662800116228007066280047
:102a1c00b7fb07000080fa00000006000000fa0077
:102a2c00526628007162280070662800b0fb07000f
:102a3c000080fa00000006000000fa005266280030
:102a4c00d162280070662800a9fb07000080fa00fc
:102a5c00000006000000fa005266280011632800ee
:102a6c0070662800a2fb07000080fa000000060038
:102a7c000000fa0052662800616328007066280086
:102a8c009bfb07000080fa00000006000000fa0023
:102a9c0052662800316428007066280094fb0700f9
:102aac000080fa00000006000000fa0052662800c0
:102abc00c1642800706628008dfb07000080fa00b6
:102acc00000006000000fa0052662800416528004c
:102adc007066280086fb07000080fa0000000600e4
:102aec000000fa0052662800e16528007066280094
:102afc007ffb07000080fa00000006000000fa00cf
:102b0c0052662800c16628007066280078fb070012
:102b1c000080fa00000006000000fa00526628004f
:102b2c00516628004067280071fb07000080fa00fe
:102b3c00000006001200fa00b6000700eb020700c6
:102b4c00070d0700c042a900c062a900c882a900f5
:102b5c00c082a9000000eb00000f78000d003700c8
:102b6c00c442a800c462a800cc82a800c482a800f9
:102b7c004006200061110700c442a900c462a900ec
:102b8c00cc82a900c482a900400620005b1107007a
:102b9c001e0fe8001e007800e40f5000f0ff340018
:102bac000000eb00100798000000eb0020079800d5
:102bbc000000eb00300798000000eb004007980085
:102bcc000000eb00500798000040eb00404f9800cd
:102bdc000040eb00504f98000040eb00604f980015
:102bec000040eb00704f98000040eb00005798003d
:102bfc00110d07009fcbbf00804278009ecbbf0019
:102c0c00004278009dcbbf00804178009bcbbf0079
:102c1c00004178009acbbf008040780099cbbf0070
:102c2c0031100700030037000000000001003700de
:102c3c000000000001088000007d2000808f500003
:102c4c00100036000021ef001e0090000000e8008c
:102c5c00100798002e0090000000e8002007980054
:102c6c003e0090000000e800300798004e009000f5
:102c7c000000e800400798005e0090000000e800ab
:102c8c00500798001e009000e30f5000040036001f
:102c9c0010c0b300404f98000000eb0010079800e4
:102cac002e0090000000e0000400320010c0b300c1
:102cbc00504f98000000eb0020079800be009000d9
:102ccc00703e2000808f50000400360010c0b3000e
:102cdc00604f98000000eb0030079800ce00900089
:102cec00f0a52e00808f50000400360010c0b300f9
:102cfc00704f98000000eb0040079800de00900039
:102d0c00703e2000808f50000400360010c0b300cd
:102d1c00005798000000eb00500798004e489000b8
:102d2c000004e000060032000000eb0010079800e1
:102d3c008d090700105798000040eb00404f980099
:102d4c001e5090000004a2000004e000b6ff320008
:102d5c00190207003d0207005e4890000004e000e5
:102d6c00050032000000eb002007980026f8070051
:102d7c000040eb00504f98006e4890000004e000bb
:102d8c00070032000000eb003007980067100700c6
:102d9c00b80107002a1107000040eb00604f9800b3
:102dac000e5090000004e000050032000000eb0023
:102dbc00500798009b0f07000040eb00005798004d
:102dcc007e4890000004e00099ff32000000eb0008
:102ddc0040079800980c07009fcbbf0080427800fa
:102dec009ecbbf00004278009dcbbf008041780095
:102dfc009bcbbf00004178009acbbf00804078008d
:102e0c0099cbbf00b80f07000040eb00704f980043
:102e1c0088ff37000000fa001a0e0700180d070093
:102e2c0035000700ba0107000d0007006e0d070002
:102e3c00730e0700d201070052662800b167280004
:102e4c00f0672800aafa070052662800b16728002c
:102e5c00f0672800a6fa07000080fa0000000600c0
:102e6c000000fa002f02070012408000234080006f
:102e7c003040800041408000800f5100818f59000c
:102e8c001a003a00e0608000f1608000e00f500012
:102e9c00e08f580015003200e0608000f160800087
:102eac001040880021408800e0608000f1608000c4
:102ebc006309b900020178006002b900840178004e
:102ecc0003014100330020000300b8000101410060
:102edc00820078004e09dd004200de000000710027
:102eec00c208de003040880041408800f001070035
:102efc000080fa00000006000e00fa00ed02470008
:102f0c006c024700eb0147006a014700e9004700eb
:102f1c0068004700520c070010c3b3000000fb0010
:102f2c006a00b9000000780001e22f0080804000a8
:102f3c0070c3b3000000fb000003b1000080400030
:102f4c00cf80de00c401dd000200200091c7b30079
:102f5c00e0c6b30080cf50000a003a0011c6b3009f
:102f6c0010c6b30080cf500003003a0000002000d0
:102f7c00110020000200370000002000610020003a
:102f8c004100370091c7b30020c6b30080cf50007a
:102f9c003b00320091c7b30020c7b30080cf500074
:102fac000a003a00d1c4b300d0c4b30080cf5000a3
:102fbc0003003a000000200031002000020037001e
:102fcc0000002000410020002c00370091c7b30006
:102fdc0090c7b30080cf50002600320091c7b300d9
:102fec00c0c6b30080cf50001f00320091c7b300a1
:102ffc0070c6b30080cf50001800320091c7b300e8
:10300c0000c7b30080cf50001100320091c7b3004d
:10301c0040c7b30080cf50000a00320091c7b30004
:10302c0060c7b30080cf500003003a0000002000be
:10303c00b10020000200370000002000c100200079
:10304c000200370000002000a10020000200370021
:10305c00000020009100200002003700000020003a
:10306c0081002000020037000000200071002000c9
:10307c000200370000002000510020000200370041
:10308c000000200021002000020140008381480044
:10309c0011c3b30000c2b30080cf500004003a004b
:1030ac0050c3b3000000fb000003b1000a0037005e
:1030bc0010c3b3000000fb006a00b90000007800e8
:1030cc0001e22f008080400050c3b3000000fb00e1
:1030dc000003b100008040006102b9004b28dd0004
:1030ec00c520de00810070004b20dd000201400095
:1030fc008381480000c3b3000000fb006a00b900e4
:10310c000000780001e22f008080400010c3b30063
:10311c000000fb000003b100008040006102b90018
:10312c004628dd00ca20de00810070004620dd004c
:10313c00020140008381480050c3b3000000fb0033
:10314c006a00b9000000780001e22f008080400086
:10315c0020c3b3000000fb000003b100008040005e
:10316c00cf80de00001f4100019749000e489000ff
:10317c000080fb008000eb00c401dd000200200099
:10318c001e4890000080fb008000eb00c000dd00ba
:10319c000000200002014000838148002e4890006e
:1031ac000082fb008002eb004b28dd00c520de0016
:1031bc00810070004b20dd0002014000838148003b
:1031cc003e4890000082fb008002eb004628dd00a8
:1031dc00ca20de00810070004620dd0002014000a4
:1031ec00838148004e4890000080fb008000eb007b
:1031fc0002004000838048002007980031079800a7
:10320c002e009000be0090001e01be00800f5100e9
:10321c00818f59009500360010c3b3006a00b900c5
:10322c00000078008040780010c3b30000c040005c
:10323c000040e800504f980050c3b3006a00b9003a
:10324c00000078008040780020c3b30000c040002c
:10325c0070405000404f980000c3b3006a00b900a2
:10326c00000078008040780010c3b30000c040001c
:10327c0070405000304f9800de489000b0c3b3004f
:10328c0080cf50000a0036004e4890000040e80005
:10329c00404f9800ce489000b0c3b30080cf500090
:1032ac00030036003e4890000040e800304f980084
:1032bc005e4890008080fb00c00320000001780075
:1032cc00110009008280d8008000fd008042780047
:1032dc004e4890008080fb00c00320000001780065
:1032ec00110009008280d8008000fd0000427800a7
:1032fc00be49900011c3b30000c2b30080cf500090
:10330c0005003a0050c3b3008040780000cdb300f4
:10331c0000c140000700370010c3b3006a00b900b9
:10332c00000078008040780050c3b30000c040001b
:10333c007041500091c7b300e0c6b30080cf50007d
:10334c0009003a0011c6b30010c6b30080cf50007c
:10335c0002003a0010c0b3000100370060c0b30097
:10336c00004378003800370091c7b30020c6b30083
:10337c0080cf50003200320091c7b30020c7b30099
:10338c0080cf500008003a00d1c4b300d0c4b300c1
:10339c0080cf500002003a0030c0b300010037006b
:1033ac0040c0b3002500370091c7b30090c7b300ed
:1033bc0080cf50002000320091c7b300c0c6b300cc
:1033cc0080cf50001a00320091c7b30070c6b30012
:1033dc0080cf50001400320091c7b30000c7b30077
:1033ec0080cf50000e00320091c7b30040c7b3002d
:1033fc0080cf50000800320091c7b30060c7b30003
:10340c0080cf500002003a00b0c0b300010037007a
:10341c00c0c0b30001003700a0c0b30001003700ea
:10342c0090c0b3000100370080c0b300010037002a
:10343c0070c0b3000100370050c0b300010037006a
:10344c0020c0b3000043780010c3b3006a00b90079
:10345c00000078008040780070c3b30000c04000ca
:10346c0070405000864078003a0b07000080fa004c
:10347c00000006000000fa009fcbbf000004e00033
:10348c0020003a00e1b920009140780001c8bf004b
:10349c0080cf50001b003a00d1b920009140780039
:1034ac0000c8bf0080cf500016003a0032ccbf00dd
:1034bc000004e00014003a000261800013618000f7
:1034cc002061800031618000000051008180590032
:1034dc00606188007161880000618000116180006a
:1034ec002061880031618800fd0207002a04070072
:1034fc000ffd07007d01070010c0b30032ecb700d0
:10350c0001003700326cef000080fa00000006006a
:10351c000000fa00e024ef00e224ef00c222ef00ea
:10352c00ca22ef000080eb00001688000080eb0040
:10353c0040168800c002a800c802a900c822a80032
:10354c00c842a800c062a900c8e2a900c902a8002c
:10355c00c922a800c0e2a800c962a900c8c2a9007b
:10356c00c9e2a9009400a9000080fa00000006003e
:10357c000000fa005640a8000080fa000000060087
:10358c000000fa0001048000000028000100700017
:10359c00000488000080fa00000006000000fa0019
:1035ac0001048000f0ff2700008060000004880008
:1035bc000080fa00000006000000fa0012c8bf00ec
:1035cc000004e0001f003200101680006100600053
:1035dc000000e0001500320031ccbf000004e00018
:1035ec0018003a0021ca2000914078009fcbbf0000
:1035fc0080cf500013003200a04080006101b90060
:10360c00e0608000f1608000020040008380480090
:10361c00e0608800f160880010c0b30031ecb700a6
:10362c009fcbbf00a2ecb7000600370021ca2000d8
:10363c00914078009fcbbf0080cf5000010032003a
:10364c00316cef000080fa00000006000000fa0068
:10365c009ecbbf000004e0000b0032009ecbbf00ed
:10366c00ef4f5000080032009ecbbf00fe4f5000c1
:10367c0005003200e1b9200091407800d0c2b300bf
:10368c0080cf500007003a0030ccbf000004e000af
:10369c0005003a00c003070010c0b30030ecb700bf
:1036ac0001003700306cef000080fa0000000600cb
:1036bc000000fa000ac8bf000004e0000500320058
:1036cc001040800021408000e0608800f16088009c
:1036dc00040037003040800041408000e0608800ea
:1036ec00f16088000080fa00000006000000fa007b
:1036fc0050052000303b8800a00a2000303b880099
:10370c0027a6a8000030220030318800005020008d
:10371c004031880027e6a80027a6a9000080fa00ff
:10372c00000006000000fa000a000700ef00070086
:10373c00220107005c010700a20107002902070013
:10374c00df02070025060700560607000080fa0076
:10375c00000006000200fa00000000000100370023
:10376c0000000000013b8000000028000080600089
:10377c000000e000faff3a00f0072000004078005b
:10378c0032e0b70000e02f00000f78001e00780038
:10379c001000ba00004078000ce8b700f0072000d9
:1037ac000040780032e0b70020e02f00000f7800d6
:1037bc001e0078001000ba00004078000de8b70039
:1037cc00f00720000040780032e0b70040e02f0006
:1037dc00000f78001e0078001000ba00004078003e
:1037ec000ee8b700f00720000040780032e0b70088
:1037fc0060e02f00000f78001e0078001000ba0067
:10380c00004078000fe8b700f00720000040780077
:10381c0032e0b70080e02f00000f78001e00780027
:10382c001000ba000040780010e8b700f007200044
:10383c000040780032e0b700a0e02f00000f7800c5
:10384c001e0078001000ba000040780011e8b700a4
:10385c000080fa00000006000200fa0000000000e0
:10386c000100370000000000013b80000000280030
:10387c00008060000000e000faff3a0040002400e5
:10388c00003b8800f00720000040780032e0b700d1
:10389c0000e02f00000f78000cc8bf008000fb0078
:1038ac001e0078000108bb000500fc00500520003c
:1038bc00303b8800a00a2000303b880061e7a8005c
:1038cc0000000000000000000000000001003700b4
:1038dc0000000000013b8000000028000080600018
:1038ec000000e000faff3a0040002400003b880092
:1038fc00f00720000040780032e0b70020e02f00f5
:10390c00000f78000dc8bf008000fb001e0078007f
:10391c000108bb000500fc0050052000303b88006e
:10392c00a00a2000303b880061e7a80000000000de
:10393c000000000000000000010037000000000043
:10394c00013b800000002800008060000000e000c7
:10395c00faff3a0040002400003b8800f0072000ea
:10396c000040780032e0b70040e02f00000f7800f4
:10397c000ec8bf008000fb001e0078000108bb00d1
:10398c000500fc0050052000303b8800a00a2000f8
:10399c00303b880061e7a800000000000000000038
:1039ac00000000000100370000000000013b800017
:1039bc0000002800008060000000e000faff3a00e0
:1039cc0040002400003b8800f007200000407800f5
:1039dc0032e0b70060e02f00000f78000fc8bf0086
:1039ec008000fb001e0078000108bb000500fc00f5
:1039fc0050052000303b8800a00a2000303b880096
:103a0c0061e7a800000000000000000000000000ba
:103a1c000100370000000000013b8000000028007e
:103a2c00008060000000e000faff3a004000240033
:103a3c00003b8800f00720000040780032e0b7001f
:103a4c0080e02f00000f780010c8bf008000fb0042
:103a5c001e0078000108bb000500fc00500520008a
:103a6c00303b8800a00a2000303b880061e7a800aa
:103a7c000000000000000000000000000100370002
:103a8c0000000000013b8000000028000080600066
:103a9c000000e000faff3a0040002400003b8800e0
:103aac00f00720000040780032e0b700a0e02f00c3
:103abc00000f780011c8bf008000fb001e007800ca
:103acc000108bb000500fc0050052000303b8800bd
:103adc00a00a2000303b880061e7a800000000002d
:103aec00000000000080fa00000006000200fa004e
:103afc00000000000100370000000000013b8000c6
:103b0c0000002800008060000000e000faff3a008e
:103b1c00f00720000040780032e0b700c0e02f0032
:103b2c00000f78001e0078001000ba008000eb0037
:103b3c00e0608800f16088000080fa000000060058
:103b4c000400fa00e0608000f1608000000f780053
:103b5c00000000000100370000000000013b800065
:103b6c0000002800008060000000e000faff3a002e
:103b7c0040002400003b8800f00720000040780043
:103b8c0032e0b700c0e02f00100798001e00900034
:103b9c001e08bb000500fc0050052000303b8800cf
:103bac00a00a2000303b880061e7a800000000005c
:103bbc00000000000080fa00000006000400fa007b
:103bcc00000000000100370000000000013b8000f5
:103bdc0000002800008060000000e000faff3a00be
:103bec00f00720000040780032e0b700e0e02f0042
:103bfc00000f78001e0078001000ba001007980023
:103c0c001e0090000000e0000500320010c0b30060
:103c1c0012e8b7009e009000a14088000200370017
:103c2c001268ef001428ef000080fa000000060074
:103c3c000200fa0000000000010037000000000044
:103c4c00013b800000002800008060000000e000c4
:103c5c00faff3a0040002400003b8800f0072000e7
:103c6c000040780032e0b700e0e02f00000f780051
:103c7c00a0408000800078001e0078000108bb0086
:103c8c000500fc0050052000303b8800a00a2000f5
:103c9c00303b880061e7a800000000000000000035
:103cac000080fa00000006000400fa00000000008a
:103cbc000100370000000000013b800000002800dc
:103ccc00008060000000e000faff3a00f0072000de
:103cdc000040780032e0b70000e12f00000f7800c0
:103cec001e0078001000ba00100798009e0090008b
:103cfc004006200000017800110009008280d800e5
:103d0c008000fd000040780001e8b7009e009000a4
:103d1c004006200000017800110009008280d800c4
:103d2c000040780000e8b7000080fa0000000600b0
:103d3c000400fa0000000000010037000000000041
:103d4c00013b800000002800008060000000e000c3
:103d5c00faff3a0040002400003b880001c8bf0075
:103d6c000081fb0000c8bf008080fb0040062000e3
:103d7c000088b9000000780000004100000f7800b6
:103d8c00f00720000040780032e0b70000e12f007f
:103d9c00100798001e0090001e08bb000500fc00d8
:103dac0050052000303b8800a00a2000303b8800e2
:103dbc0061e7a80000000000000000000080fa008d
:103dcc00000006000200fa000000000001003700ad
:103ddc0000000000013b8000000028000080600013
:103dec000000e000faff3a00f007200000407800e5
:103dfc0032e0b70020e12f00000f78001e007800a1
:103e0c001000ba000040780016e8b700f007200058
:103e1c000040780032e0b70040e12f00000f78003e
:103e2c001e0078001000ba000040780017e8b700b8
:103e3c00f00720000040780032e0b70060e12f006e
:103e4c00000f78001e0078001000ba0000407800c7
:103e5c0018e8b70017c8bf000004e00003003200e8
:103e6c0010c0b30019e8b700010037001968ef0063
:103e7c0018c8bf000004e0000300320010c0b300fb
:103e8c001ae8b700010037001a68ef000080fa004a
:103e9c00000006000200fa000000000001003700dc
:103eac0000000000013b8000000028000080600042
:103ebc000000e000faff3a0040002400003b8800bc
:103ecc00f00720000040780032e0b70020e12f001e
:103edc00000f780016c8bf008000fb001e007800a1
:103eec000108bb000500fc0050052000303b880099
:103efc00a00a2000303b880061e7a8000000000009
:103f0c00000000000000000001003700000000006d
:103f1c00013b800000002800008060000000e000f1
:103f2c00faff3a0040002400003b8800f007200014
:103f3c000040780032e0b70040e12f00000f78001d
:103f4c0017c8bf008000fb001e0078000108bb00f2
:103f5c000500fc0050052000303b8800a00a200022
:103f6c00303b880061e7a800000000000000000062
:103f7c00000000000100370000000000013b800041
:103f8c0000002800008060000000e000faff3a000a
:103f9c0040002400003b8800f0072000004078001f
:103fac0032e0b70060e12f00000f780018c8bf00a6
:103fbc008000fb001e0078000108bb000500fc001f
:103fcc0050052000303b8800a00a2000303b8800c0
:103fdc0061e7a80000000000000000000080fa006b
:103fec00000006000a00fa00000000000100370083
:103ffc0000000000013b80000000280000806000f1
:10400c000000e000faff3a00f007200000407800c2
:10401c0032e0b70080e12f00000f78001e0078001e
:10402c001000ba0010079800f0072000004078003c
:10403c0032e0b700a0e12f00000f78001e007800de
:10404c001000ba0020079800f0072000004078000c
:10405c0032e0b700c0e12f00000f78001e0078009e
:10406c001000ba0030079800f007200000407800dc
:10407c0032e0b700e0e12f00000f78001e0078005e
:10408c001000ba00400798001e0090008000eb0062
:10409c00c001dd00020020002e0090008000eb002b
:1040ac000200400083804800206188003161880054
:1040bc003e0090008000eb00c001dd0002002000fb
:1040cc004e0090008000eb0002004000838048000e
:1040dc0060618800716188000080fa0000000600b1
:1040ec000a00fa0020618000316180004008de0087
:1040fc00000f78002061800031618000100798006b
:10410c0060618000716180004008de00200798002b
:10411c006061800071618000300798000000000031
:10412c000100370000000000013b80000000280067
:10413c00008060000000e000faff3a00400024001c
:10414c00003b8800f00720000040780032e0b70008
:10415c0080e12f00400798004e0090001e08bb0025
:10416c000500fc0050052000303b8800a00a200010
:10417c00303b880061e7a800000000000000000050
:10418c00000000000100370000000000013b80002f
:10419c0000002800008060000000e000faff3a00f8
:1041ac0040002400003b8800f0072000004078000d
:1041bc0032e0b700a0e12f00400798004e009000bd
:1041cc009e0090000108bb000500fc00500520007b
:1041dc00303b8800a00a2000303b880061e7a80033
:1041ec00000000000000000000000000010037008b
:1041fc0000000000013b80000000280000806000ef
:10420c000000e000faff3a0040002400003b880068
:10421c00f00720000040780032e0b700c0e12f002a
:10422c00400798004e009000ae0090000108bb00c3
:10423c000500fc0050052000303b8800a00a20003f
:10424c00303b880061e7a80000000000000000007f
:10425c00000000000100370000000000013b80005e
:10426c0000002800008060000000e000faff3a0027
:10427c0040002400003b8800f0072000004078003c
:10428c0032e0b700e0e12f00400798004e009000ac
:10429c00be0090000108bb000500fc00500520008a
:1042ac00303b8800a00a2000303b880061e7a80062
:1042bc0000000000000000000080fa000000060072
:1042cc000800fa00000000000100370000000000a8
:1042dc00013b800000002800008060000000e0002e
:1042ec00faff3a00a1030700404798004e409000a7
:1042fc000080fb00e40f50004c003200e40f500033
:10430c000c003c00e10f500018003200e10f50008f
:10431c0003003c000000e0000f0032009200370068
:10432c00e20f500021003200e30f50002f0032004a
:10433c008d003700e60f50005c003200e60f500095
:10434c004a003500e70f500068003200e80f5000bb
:10435c0076003200840037000000eb001007980054
:10436c009e009000010f78007f003700f0072000be
:10437c000040780032e0b70000e22f0030079800d0
:10438c003e009000100fba00f007200000407800ab
:10439c0032e0b70020e22f00300798003e0090007a
:1043ac001000ba00100798006f003700f0072000cb
:1043bc000040780032e0b70040e22f003007980050
:1043cc003e009000100fba00f0072000004078006b
:1043dc0032e0b70060e22f00300798003e009000fa
:1043ec001000ba00100798005f003700f00720009b
:1043fc000040780032e0b70080e22f0030079800d0
:10440c003e009000100fba00f0072000004078002a
:10441c0032e0b700a0e22f00300798003e00900079
:10442c001000ba00100798004f003700f00720006a
:10443c000040780032e0b700c0e22f00300798004f
:10444c003e009000100fba00f007200000407800ea
:10445c0032e0b700e0e22f00300798003e009000f9
:10446c001000ba00100798003f003700f00720003a
:10447c000040780032e0b70000e32f0030079800ce
:10448c003e009000100fba00f007200000407800aa
:10449c0032e0b70020e32f00300798003e00900078
:1044ac001000ba00100798002f003700f00720000a
:1044bc000040780032e0b70040e32f00300798004e
:1044cc003e009000100fba00f0072000004078006a
:1044dc0032e0b70060e32f00300798003e009000f8
:1044ec001000ba00100798001f003700f0072000da
:1044fc000040780032e0b70080e32f0030079800ce
:10450c003e009000100fba00f00720000040780029
:10451c0032e0b700a0e32f00300798003e00900077
:10452c001000ba00100798000f003700f0072000a9
:10453c000040780032e0b700c0e32f00300798004d
:10454c003e009000100fba00f007200000407800e9
:10455c0032e0b700e0e32f00300798003e009000f7
:10456c001000ba00100798001e0078008000eb00c5
:10457c00c001dd00020020001e0090008000eb0056
:10458c0002004000838048000061880011618800af
:10459c000080fa00000006000800fa0000618000ac
:1045ac00116180004008de00000f7800006180007f
:1045bc0011618000100798006203070040479800c3
:1045cc004e4090000080fb00e40f5000fc003200d5
:1045dc00e40f500007003c00e20f50005c0032007a
:1045ec00e20f5000a8003c00e10f50000a0032001e
:1045fc0078023700e60f50008d013200e60f5000b4
:10460c003d013500e70f5000d7013200e80f500094
:10461c00230232006f023700000000000100370057
:10462c0000000000013b80000000280000806000ba
:10463c000000e000faff3a0040002400003b880034
:10464c00f00720000040780032e0b70000e22f00b5
:10465c00300798003e0090001e08bb000500fc00cf
:10466c0050052000303b8800a00a2000303b880019
:10467c0061e7a8000000000000000000000000003e
:10468c000100370000000000013b80000000280002
:10469c00008060000000e000faff3a0040002400b7
:1046ac00003b8800f00720000040780032e0b700a3
:1046bc0020e22f00300798003e0090009e009000f2
:1046cc000108bb000500fc0050052000303b8800b1
:1046dc00a00a2000303b880061e7a8000000000021
:1046ec000000000000000000010037000000000086
:1046fc00013b800000002800008060000000e0000a
:10470c00faff3a0040002400003b8800f00720002c
:10471c000040780032e0b70040e22f0030079800ec
:10472c003e0090008080eb000108bb000500fc00ff
:10473c0050052000303b8800a00a2000303b880048
:10474c0061e7a80000000000000000002102370013
:10475c00000000000100370000000000013b800059
:10476c0000002800008060000000e000faff3a0022
:10477c0040002400003b8800f00720000040780037
:10478c0032e0b70040e22f00300798003e00900066
:10479c001e08bb000500fc0050052000303b8800c3
:1047ac00a00a2000303b880061e7a8000000000050
:1047bc0000000000000000000100370000000000b5
:1047cc00013b800000002800008060000000e00039
:1047dc00faff3a0040002400003b8800f00720005c
:1047ec000040780032e0b70060e22f0030079800fc
:1047fc003e0090009e0090000108bb000500fc00ec
:10480c0050052000303b8800a00a2000303b880077
:10481c0061e7a8000000000000000000000000009c
:10482c000100370000000000013b80000000280060
:10483c00008060000000e000faff3a004000240015
:10484c00003b8800f00720000040780032e0b70001
:10485c0080e22f00300798003e0090008080eb0033
:10486c000108bb000500fc0050052000303b88000f
:10487c00a00a2000303b880061e7a800000000007f
:10488c0000000000d30137000000000001003700d9
:10489c0000000000013b8000000028000080600048
:1048ac000000e000faff3a0040002400003b8800c2
:1048bc00f00720000040780032e0b70080e22f00c3
:1048cc00300798003e0090001e08bb000500fc005d
:1048dc0050052000303b8800a00a2000303b8800a7
:1048ec0061e7a800000000000000000000000000cc
:1048fc000100370000000000013b80000000280090
:10490c00008060000000e000faff3a004000240044
:10491c00003b8800f00720000040780032e0b70030
:10492c00a0e22f00300798003e0090009e009000ff
:10493c000108bb000500fc0050052000303b88003e
:10494c00a00a2000303b880061e7a80000000000ae
:10495c000000000000000000010037000000000013
:10496c00013b800000002800008060000000e00097
:10497c00faff3a0040002400003b8800f0072000ba
:10498c000040780032e0b700c0e22f0030079800fa
:10499c003e0090008080eb000108bb000500fc008d
:1049ac0050052000303b8800a00a2000303b8800d6
:1049bc0061e7a8000000000000000000850137003e
:1049cc00000000000100370000000000013b8000e7
:1049dc0000002800008060000000e000faff3a00b0
:1049ec0040002400003b8800f007200000407800c5
:1049fc0032e0b700c0e22f00300798003e00900074
:104a0c001e08bb000500fc0050052000303b880050
:104a1c00a00a2000303b880061e7a80000000000dd
:104a2c000000000000000000010037000000000042
:104a3c00013b800000002800008060000000e000c6
:104a4c00faff3a0040002400003b8800f0072000e9
:104a5c000040780032e0b700e0e22f003007980009
:104a6c003e0090009e0090000108bb000500fc0079
:104a7c0050052000303b8800a00a2000303b880005
:104a8c0061e7a8000000000000000000000000002a
:104a9c000100370000000000013b800000002800ee
:104aac00008060000000e000faff3a0040002400a3
:104abc00003b8800f00720000040780032e0b7008f
:104acc0000e32f00300798003e0090008080eb0040
:104adc000108bb000500fc0050052000303b88009d
:104aec00a00a2000303b880061e7a800000000000d
:104afc000000000037013700000000000100370003
:104b0c0000000000013b80000000280000806000d5
:104b1c000000e000faff3a0040002400003b88004f
:104b2c00f00720000040780032e0b70000e32f00cf
:104b3c00300798003e0090001e08bb000500fc00ea
:104b4c0050052000303b8800a00a2000303b880034
:104b5c0061e7a80000000000000000000000000059
:104b6c000100370000000000013b8000000028001d
:104b7c00008060000000e000faff3a0040002400d2
:104b8c00003b8800f00720000040780032e0b700be
:104b9c0020e32f00300798003e0090009e0090000c
:104bac000108bb000500fc0050052000303b8800cc
:104bbc00a00a2000303b880061e7a800000000003c
:104bcc0000000000000000000100370000000000a1
:104bdc00013b800000002800008060000000e00025
:104bec00faff3a0040002400003b8800f007200048
:104bfc000040780032e0b70040e32f003007980007
:104c0c003e0090008080eb000108bb000500fc001a
:104c1c0050052000303b8800a00a2000303b880063
:104c2c0061e7a8000000000000000000e900370068
:104c3c00000000000100370000000000013b800074
:104c4c0000002800008060000000e000faff3a003d
:104c5c0040002400003b8800f00720000040780052
:104c6c0032e0b70040e32f00300798003e00900080
:104c7c001e08bb000500fc0050052000303b8800de
:104c8c00a00a2000303b880061e7a800000000006b
:104c9c0000000000000000000100370000000000d0
:104cac00013b800000002800008060000000e00054
:104cbc00faff3a0040002400003b8800f007200077
:104ccc000040780032e0b70060e32f003007980016
:104cdc003e0090009e0090000108bb000500fc0007
:104cec0050052000303b8800a00a2000303b880093
:104cfc0061e7a800000000000000000000000000b8
:104d0c000100370000000000013b8000000028007b
:104d1c00008060000000e000faff3a004000240030
:104d2c00003b8800f00720000040780032e0b7001c
:104d3c0080e32f00300798003e0090008080eb004d
:104d4c000108bb000500fc0050052000303b88002a
:104d5c00a00a2000303b880061e7a800000000009a
:104d6c00000000009b00370000000000010037002d
:104d7c0000000000013b8000000028000080600063
:104d8c000000e000faff3a0040002400003b8800dd
:104d9c00f00720000040780032e0b70080e32f00dd
:104dac00300798003e0090001e08bb000500fc0078
:104dbc0050052000303b8800a00a2000303b8800c2
:104dcc0061e7a800000000000000000000000000e7
:104ddc000100370000000000013b800000002800ab
:104dec00008060000000e000faff3a004000240060
:104dfc00003b8800f00720000040780032e0b7004c
:104e0c00a0e32f00300798003e0090009e00900019
:104e1c000108bb000500fc0050052000303b880059
:104e2c00a00a2000303b880061e7a80000000000c9
:104e3c00000000000000000001003700000000002e
:104e4c00013b800000002800008060000000e000b2
:104e5c00faff3a0040002400003b8800f0072000d5
:104e6c000040780032e0b700c0e32f003007980014
:104e7c003e0090008080eb000108bb000500fc00a8
:104e8c0050052000303b8800a00a2000303b8800f1
:104e9c0061e7a80000000000000000004d00370092
:104eac00000000000100370000000000013b800002
:104ebc0000002800008060000000e000faff3a00cb
:104ecc0040002400003b8800f007200000407800e0
:104edc0032e0b700c0e32f00300798003e0090008e
:104eec001e08bb000500fc0050052000303b88006c
:104efc00a00a2000303b880061e7a80000000000f9
:104f0c00000000000000000001003700000000005d
:104f1c00013b800000002800008060000000e000e1
:104f2c00faff3a0040002400003b8800f007200004
:104f3c000040780032e0b700e0e32f003007980023
:104f4c003e0090009e0090000108bb000500fc0094
:104f5c0050052000303b8800a00a2000303b880020
:104f6c0061e7a80000000000000000000000000045
:104f7c000100370000000000013b80000000280009
:104f8c00008060000000e000faff3a0040002400be
:104f9c00003b8800f00720000040780032e0b700aa
:104fac0000e22f00300798003e0090008080eb005c
:104fbc000108bb000500fc0050052000303b8800b8
:104fcc00a00a2000303b880061e7a8000000000028
:104fdc00000000000080fa00000006000200fa0049
:104fec00000000000100370000000000013b8000c1
:104ffc0000002800008060000000e000faff3a008a
:10500c00f00720000040780032e0b70000e42f00e9
:10501c00000f78001e0078001000ba0000407800e5
:10502c000ae8b7000080fa00000006000200fa004f
:10503c00000000000100370000000000013b800070
:10504c0000002800008060000000e000faff3a0039
:10505c0040002400003b8800f0072000004078004e
:10506c0032e0b70000e42f00000f78000ac8bf0040
:10507c008000fb001e0078000108bb000500fc004e
:10508c0050052000303b8800a00a2000303b8800ef
:10509c0061e7a80000000000000000000080fa009a
:1050ac00000006000200fa000000000001003700ba
:1050bc0000000000013b8000000028000080600020
:1050cc000000e000faff3a00f007200000407800f2
:1050dc0032e0b70020e42f00000f78001e007800ab
:1050ec001000ba00004078000be8b7000080fa000e
:1050fc00000006000200fa0000000000010037006a
:10510c0000000000013b80000000280000806000cf
:10511c000000e000faff3a0040002400003b880049
:10512c00f00720000040780032e0b70020e42f00a8
:10513c00000f78000bc8bf008000fb001e00780039
:10514c000108bb000500fc0050052000303b880026
:10515c00a00a2000303b880061e7a8000000000096
:10516c00000000000080fa00000006001400fa00a5
:10517c00f00720000040780032e0b70000e22f007a
:10518c00100798001e0090001000ba00200798002d
:10519c002e009000e10f400003003a0080c0b300e5
:1051ac00004f780064003700f007200000407800c2
:1051bc0032e0b70040e22f00300798003e0090002c
:1051cc001000ba00200798002e009000e10f40005c
:1051dc0003003a0010c0b300004f780056003700af
:1051ec00f00720000040780032e0b70080e22f008a
:1051fc00400798004e0090001000ba00200798005d
:10520c002e009000e10f400003003a0020c0b300d4
:10521c00004f780048003700f0072000004078006d
:10522c0032e0b700c0e22f00500798005e009000fb
:10523c001000ba00200798002e009000e10f4000eb
:10524c0003003a0030c0b300004f78003a0037003a
:10525c00f00720000040780032e0b70000e32f0098
:10526c00600798006e0090001000ba0020079800ac
:10527c002e009000e10f400003003a0040c0b30044
:10528c00004f78002c003700f00720000040780019
:10529c0032e0b70040e32f00700798007e009000ca
:1052ac001000ba00200798002e009000e10f40007b
:1052bc0003003a0050c0b300004f78001e003700c6
:1052cc00f00720000040780032e0b70080e32f00a8
:1052dc00000f98000e0890001000ba0020079800ec
:1052ec002e009000e10f400003003a0060c0b300b4
:1052fc00004f780010003700f007200000407800c5
:10530c0032e0b700c0e32f00100f98001e08900089
:10531c001000ba00200798002e009000e10f40000a
:10532c0003003a0070c0b300004f78000200370051
:10533c000040eb00004f78001e4078000080fa001f
:10534c00000006000200fa0088ff0700004f7800fa
:10535c009e40780067c06000004fe8001e40780057
:10536c000080fa00000006002e00fa00a0ccbf005e
:10537c00e14f500013003a0010ca20005f000700f4
:10538c00004f78001e4078000004e0000d00320051
:10539c00a06cef006a6cef006c2cef006e2cef0031
:1053ac000040eb00306f98000040eb00406f98001d
:1053bc00996cef009a6cef000e80e80031c2b300dc
:1053cc0006020700d00220000e004000800078008a
:1053dc0000c7200075000700e0648800e0648000ce
:1053ec00e10f50000c003200e10f500003003900b7
:1053fc00e20f5000100032001d0037005e68900074
:10540c000004e00017003200606380000000e80038
:10541c0060638800160037005e6890000004e000ae
:10542c00120032006c2cef00706380000000e8006a
:10543c00706388000e0037000e80e8008000780052
:10544c0000c720009b0007000004e00002003200af
:10545c0010c0b3006aecb7006c2cef006e2cef00a0
:10546c0003003700000000000100370000000000be
:10547c000e80e80007020700104798001e409000bd
:10548c000004e0001a0032006accbf000004e00007
:10549c000700320000128000620060000000e00093
:1054ac0013003a0010c0b300a0ecb7001000370096
:1054bc0060638000f80f50000300360010c0b3008a
:1054cc00a0ecb7000a00370071638000c00f200009
:1054dc00808f50000300360010c0b300a0ecb70062
:1054ec00030037000e80e80031c2b300bb01070097
:1054fc001e4078000080fa00000006000200fa004e
:10550c00000f78009fccbf000004e00006003200c2
:10551c0041e2a9009f6cef00cde2a800cdc2a8002b
:10552c00cd82a8001e0037001e00780010407800c5
:10553c008040e8001e007800014878001e007800ca
:10554c0010407800e24f5000030036001e00780037
:10555c008040eb00014878001e0078001040780075
:10556c000080fb00e10f500006003200e20f5000fb
:10557c00060032000000e00006003a00cde2a9006f
:10558c0004003700cdc2a90002003700cd82a9006b
:10559c000000000041e2a80010c0b3009fecb7006f
