:020000040000fa
:080000000002040000000000f2
:020000040000fa
:04000800920300005f
:020000040000fa
:04000c00920300005b
:020000040000fa
:040010009203000057
:020000040000fa
:040014009203000053
:020000040000fa
:04001800920300004f
:020000040000fa
:04001c00920300004b
:020000040000fa
:040020009203000047
:020000040000fa
:040024009203000043
:020000040000fa
:04002800920300003f
:020000040000fa
:04002c00920300003b
:020000040000fa
:040030009203000037
:020000040000fa
:04003400c8020000fe
:020000040000fa
:04003800920300002f
:020000040000fa
:04003c00920300002b
:020000040000fa
:040040009203000027
:020000040000fa
:040044009203000023
:020000040000fa
:04004800920300001f
:020000040000fa
:04004c00920300001b
:020000040000fa
:04005000f8020000b2
:020000040000fa
:040054003203000073
:020000040000fa
:04005800920300000f
:020000040000fa
:04005c00920300000b
:020000040000fa
:040060009203000007
:020000040000fa
:040064009203000003
:020000040000fa
:0400680092030000ff
:020000040000fa
:04006c0092030000fb
:020000040000fa
:0400700092030000f7
:020000040000fa
:0400740092030000f3
:020000040000fa
:0400780092030000ef
:020000040000fa
:04007c0092030000eb
:020000040000fa
:0400800092030000e7
:020000040000fa
:0400840092030000e3
:020000040000fa
:0400880092030000df
:020000040000fa
:04008c0092030000db
:020000040000fa
:0400900092030000d7
:020000040000fa
:0400940092030000d3
:020000040000fa
:0400980092030000cf
:020000040000fa
:04009c0092030000cb
:020000040000fa
:0400a00092030000c7
:020000040000fa
:0400a40092030000c3
:020000040000fa
:0400a80092030000bf
:020000040000fa
:0400ac0092030000bb
:020000040000fa
:0400b00092030000b7
:020000040000fa
:0400b40092030000b3
:020000040000fa
:0400b80092030000af
:020000040000fa
:0400bc0092030000ab
:020000040000fa
:0400c00092030000a7
:020000040000fa
:0400c40092030000a3
:020000040000fa
:0400c800920300009f
:020000040000fa
:0400cc00920300009b
:020000040000fa
:0400d0009203000097
:020000040000fa
:0400d4009203000093
:020000040000fa
:0400d800920300008f
:020000040000fa
:0400dc00920300008b
:020000040000fa
:0400e0009203000087
:020000040000fa
:0400e4009203000083
:020000040000fa
:0400e800920300007f
:020000040000fa
:0400ec00920300007b
:020000040000fa
:0400f0009203000077
:020000040000fa
:0400f4009203000073
:020000040000fa
:0400f800920300006f
:020000040000fa
:0400fc00920300006b
:020000040000fa
:040100009203000066
:020000040000fa
:040104009203000062
:020000040000fa
:04010800920300005e
:020000040000fa
:04010c00920300005a
:020000040000fa
:040110009203000056
:020000040000fa
:040114009203000052
:020000040000fa
:04011800920300004e
:020000040000fa
:04011c00920300004a
:020000040000fa
:040120009203000046
:020000040000fa
:040124009203000042
:020000040000fa
:04012800920300003e
:020000040000fa
:04012c00800300004c
:020000040000fa
:040130006e0300005a
:020000040000fa
:040134009203000032
:020000040000fa
:04013800920300002e
:020000040000fa
:04013c00920300002a
:020000040000fa
:040140009203000026
:020000040000fa
:040144009203000022
:020000040000fa
:04014800920300001e
:020000040000fa
:04014c00920300001a
:020000040000fa
:040150009203000016
:020000040000fa
:040154009203000012
:020000040000fa
:04015800920300000e
:020000040000fa
:04015c00920300000a
:020000040000fa
:040160009203000006
:020000040000fa
:040164009203000002
:020000040000fa
:0401680092030000fe
:020000040000fa
:04020800920300005d
:020000040000fa
:04020c009203000059
:020000040000fa
:040210009203000055
:020000040000fa
:040214009203000051
:020000040000fa
:04021800920300004d
:020000040000fa
:04021c009203000049
:020000040000fa
:040220009203000045
:020000040000fa
:040224009203000041
:020000040000fa
:04022800920300003d
:020000040000fa
:04022c009203000039
:020000040000fa
:040230009203000035
:020000040000fa
:040234009203000031
:020000040000fa
:04023800920300002d
:020000040000fa
:04023c009203000029
:020000040000fa
:040240009203000025
:020000040000fa
:040244009203000021
:020000040000fa
:04024800920300001d
:020000040000fa
:04024c009203000019
:020000040000fa
:040250009203000015
:020000040000fa
:040254009203000011
:020000040000fa
:04025800920300000d
:020000040000fa
:04025c009203000009
:020000040000fa
:040260009203000005
:020000040000fa
:040264009203000001
:020000040000fa
:0402680092030000fd
:020000040000fa
:04026c0092030000f9
:020000040000fa
:0402700092030000f5
:020000040000fa
:0402740092030000f1
:020000040000fa
:0402780092030000ed
:020000040000fa
:04027c0092030000e9
:020000040000fa
:0402800092030000e5
:020000040000fa
:0402840092030000e1
:020000040000fa
:0402880092030000dd
:020000040000fa
:04028c0092030000d9
:020000040000fa
:0402900092030000d5
:020000040000fa
:0402940092030000d1
:020000040000fa
:0402980092030000cd
:020000040000fa
:04029c0092030000c9
:020000040000fa
:0402a00092030000c5
:020000040000fa
:0402a40092030000c1
:020000040000fa
:0402a80092030000bd
:020000040000fa
:0402ac0092030000b9
:020000040000fa
:0402b00092030000b5
:020000040000fa
:0402b40092030000b1
:020000040000fa
:0402b80092030000ad
:020000040000fa
:0402bc0092030000a9
:020000040000fa
:0402c00092030000a5
:020000040000fa
:0402c40092030000a1
:020000040000fa
:0402c800920300009d
:020000040000fa
:0402cc009203000099
:020000040000fa
:0402d0009203000095
:020000040000fa
:0402d4009203000091
:020000040000fa
:0402d800920300008d
:020000040000fa
:0402dc009203000089
:020000040000fa
:0402e0009203000085
:020000040000fa
:0402e4009203000081
:020000040000fa
:0402e800920300007d
:020000040000fa
:0402ec009203000079
:020000040000fa
:0402f0009203000075
:020000040000fa
:0402f4009203000071
:020000040000fa
:0402f800920300006d
:020000040000fa
:0402fc009203000069
:020000040000fa
:040300009203000064
:020000040000fa
:040304009203000060
:020000040000fa
:04030800920300005c
:020000040000fa
:04030c009203000058
:020000040000fa
:040310009203000054
:020000040000fa
:040314009203000050
:020000040000fa
:04031800920300004c
:020000040000fa
:04031c009203000048
:020000040000fa
:040320009203000044
:020000040000fa
:040324009203000040
:020000040000fa
:04032800920300003c
:020000040000fa
:04032c009203000038
:020000040000fa
:040330009203000034
:020000040000fa
:040334009203000030
:020000040000fa
:04033800920300002c
:020000040000fa
:04033c009203000028
:020000040000fa
:040340009203000024
:020000040000fa
:040344009203000020
:020000040000fa
:04034800920300001c
:020000040000fa
:04034c009203000018
:020000040000fa
:040350009203000014
:020000040000fa
:040354009203000010
:020000040000fa
:04035800920300000c
:020000040000fa
:04035c009203000008
:020000040000fa
:040360009203000004
:020000040000fa
:040364009203000000
:020000040000fa
:0403680092030000fc
:020000040000fa
:10040000cfa920000eff20000e0188000000000090
:10041000000020000000e000020032000001200087
:100420002002880014000700c00007000000e00060
:1004300003003a0060ac23000100200002003700f6
:100440000000200001002000810f70000100320038
:1004500014000700000020000000e000020032004d
:1004600000000200000000007431020000000000e3
:100470000040da000000fe004440a900000820000f
:100480000000e0000300320000002000a00188000e
:100490004440a800000006008a1f78008b1f7800e7
:1004a0000000060091018800800478000000eb0045
:1004b0001a003700e284440032a0b4009905ba0063
:1004c000e284440032a0b4009906ba00e2844400f9
:1004d00032a0b4000006eb00476fde00fd07b2005b
:1004e000636ce10003003a00ebff07000000eb0043
:1004f0000a003700606ce10004003a00005deb0088
:100500008b05e900fdff3e00040037006168e10053
:10051000010032000086eb000b00070019c7ba008b
:100520001905ba000e04e00003003a000a00e000da
:10053000e0ff3a0000000600fe07b2009e018800be
:100540008a047800f5ff3700395dba008b05e900b1
:100550000c003200295dba008b05e900080032006a
:100560000c00e00003003a00e284440032a0b40032
:10057000f5ff370019ddba008b05e900faff3a00f4
:100580008904e800e184440032a0b40000000600c1
:10059000809fbe00829fbe000000fa000021ef0095
:1005a0008460a90090518000a1518000610040004a
:1005b000e080480090518800a1518800925180004d
:1005c000a3518000f07f2200b1e62e00800f510081
:1005d000818f590002003600322aef00342aef00e2
:1005e0000080fa004f01be004f00be000040060030
:1005f0003600f800809fbe00821f78000200fa00db
:100600008540a90040c2a90040128000004f780038
:100610001e4078000004e0000d003200d24080004f
:100620009e407800e08020000000410001487800f2
:10063000d04080008000e800a00020000001780089
:10064000110009008200d8008000fd00d040880021
:100650000080fa004f0178004f00be003600f9001c
:10066000004006003600f800809fbe00821f780020
:100670000200fa0010c0b300004f78008560a900a6
:1006800030118000004f78001e4078000004e00028
:100690000d003200624080009e4078000080200003
:1006a0000000410001487800604080008000e800c0
:1006b000a000200000017800110009008200d8008d
:1006c0008000fd00604088000080fa004f01780043
:1006d0004f00be003600f90000400600801f780081
:1006e0000000fa0090118000901180003222a900d1
:1006f0008c40a9000080fa004f00780000400600fe
:10070000801f78000000fa00101180001011800096
:100710002222a9008c20a9000080fa004f00780056
:10072000004006000040da000000fe000000050066
:100730006022b800060220000000d0008180d200b4
:100740000482d2008582d2000000a0000202520082
:1007500083825a00030031000202420083824a0071
:100760000000a1000603e900f3ff3a0000000600c4
:10077000efff07000400be0000000600889fbe00d7
:100780008a9fbe0030044200b0844a0030054b000e
:1007900090854b006000b1000898be000a90be0032
:1007a0000440e10005c8e10006d0e10007d8e100ff
:1007b00002003100680040001008e8004f05be004c
:1007c0004f04be0000000600889fbe008a9fbe0046
:1007d0003004be002005be000418540005985c00db
:1007e00006185d0007985d00110020000440e1003c
:1007f00005c8e10006d0e10007d8e100010039009a
:100800008000eb00108810004f05be004f04be00b2
:10081000000006001200fa00889fbe008a9fbe00fa
:100820008c9fbe00e0b79f00f1b79f0082bf9f0082
:1008300093bf9f000605be000404be000000eb004d
:10084000d0b79f00c0b79f00b0b79f00a0b79f0070
:1008500090b79f000006eb005fb19700cfb0970004
:10086000820141003fb097000200e00004003d001b
:10087000370007007e805700c0ff070003003700e5
:10088000330007007e805700cfff0700dfb69700d8
:100890000d00e0000c0035006fb29700ffb297002a
:1008a0000fbb97009fbb97001000200001002000a5
:1008b0006011b800000272008182720002037300ae
:1008c000838373001b0007000c06e800010420006e
:1008d000810f5600e0ff3a000d00e00004003d00eb
:1008e0000802be000a03be007e805700a3ff070077
:1008f0005fa897000000e00005003a001fb29700d3
:10090000afb297003fb39700cfb39700090007003d
:100910006fb09700ffb097000fb997009fb997008d
:100920004f06be004f05be004f04be000080fa0017
:10093000000006000100070000000600a4b79f00a9
:10094000b5b79f00c6b79f00d7b79f00000006004d
:100950004f09de0082817100b3b79f004f01de00b6
:100960008180400082807000a1b79f008fb0970007
:100970004f09de00000040000200700090b79f00a9
:100980007fa897004f01de008180400082807000c8
:1009900081b79f000d0007004f3ade0000004000c5
:1009a00004007000f0af9f0008000700040242003e
:1009b00085824a0006034b0087834b00dfff070058
:1009c0000802be000a03be00000006002fb2970016
:1009d000bfb297004fb39700dfb397000000060047
:1009e000881f780018002000881f780089ff070002
:1009f0008f87e9004f04780000000600801feb009d
:100a000084ff07008f87e90000000600889fbe0072
:100a10008a9fbe00e00f5000e08f5800e00f5900a1
:100a2000e08f59000c003d006044b8006055b800ec
:100a30000000540081805c0002015d0083815d0044
:100a4000180020001500070008003d0018000700ee
:100a50000004eb00050037000004eb000f00070066
:100a600002003d001200070018002000dcff070014
:100a70000800e000060032006022b8006033b800d1
:100a80000000520081805a0002015b0083815b00fc
:100a90004f05be004f04be0000000600e00f5200ec
:100aa000e08f5a00e00f5b00e08f5b000000060063
:100ab0006044b8006055b8000402540085825c00b0
:100ac00006035d0087835d0000000600889fbe006e
:100ad0008a9fbe008c1f7800e00f5000e08f580006
:100ae000e00f5900e08f59000d003d006044b80050
:100af0006055b8000000540081805c0002015d0078
:100b000083815d001c0020000820e10009a8e100ad
:100b10000ab0e1000bb8e1000d003d00080037000d
:100b20000006eb00e00f5200e08f5a00e00f5b0080
:100b3000e08f5b0006003d006044b8006055b800df
:100b40000402540085825c0006035d0087835d001b
:100b5000aaff07000c00e000060032006022b80087
:100b60006033b8000000520081805a0002015b002f
:100b700083815b004f0678004f05be004f04be0026
:100b800000000600889fbe008a9fbe008c1f780070
:100b90000006eb00e00f5000e08f5800e00f590016
:100ba000e08f590007003d006044b8006055b80070
:100bb0000000540081805c0002015d0083815d00c3
:100bc0001c002000e00f5200e08f5a00e00f5b0095
:100bd000e08f5b0007003d006044b8006055b8003e
:100be0000402540085825c0006035d0087835d007b
:100bf0000c00a2000c0007000c00e0000600320010
:100c00006022b8006033b8000000520081805a00b2
:100c100002015b0083815b004f0678004f05be0038
:100c20004f04be0000000600889fbe008a9fbe00e1
:100c30008c9fbe000404b8000506b8008904460075
:100c400060854e000606b8000a054600e0854e00a5
:100c50000706b8008b054600040eb800890446005c
:100c60000a854e00e0854d00050eb8000a054600d5
:100c70008b854e00060eb8008b0546000416b800a2
:100c80000a0546008b854e000516b8008b05460008
:100c9000041eb8008b0546000800be000a01be0015
:100ca0004f06be004f05be004f04be000000060008
:100cb00080007800010078003041780003c2b30062
:100cc000834f5100faff3200e94f5100f8ff320024
:100cd000edc14100834f510003003a0080007800cd
:100ce00013c0b300050037008041eb00b4c2b3006d
:100cf000844f510001003a00800078000000eb00b2
:100d0000020037006a02b900040041003101fb0013
:100d10000203b100e90f5100faff36000304e000be
:100d2000010032000000ea0000000600889fbe00bb
:100d30008a1f7800304478008004780001c2b30034
:100d4000814f5400fbff3200e94f5400f9ff32009d
:100d5000d0c2b300804f540003003a0039447800f9
:100d60001ac0b300050037000045eb00b0c2b30065
:100d7000804f540001003a00394478006000b80008
:100d80000a003700a20020000300200070000700c6
:100d900002cdb300024144000281fb008001eb0060
:100da0000200400083804800394478000881fb003d
:100db0000203b100e90f5100f2ff36000a04e0001f
:100dc0000200320060001000e08018004f0578003b
:100dd0004f04be0000000600000378008102780086
:100de0008501780001003700040378001100090034
:100df0008281d800800178000602e8000300e0004c
:100e0000f9ff3a00034a7800110009008282d800f5
:100e1000000278008141780084027800e9cf510017
:100e200001003400e7c1410001c3b30001d3410018
:100e30000400e000f4ff3a0006007800000006001d
:100e4000881f7800000478000100e00005003d00e4
:100e500008007800d3c2b300035878008100ea008c
:100e60000100370008007800dbff07000800780069
:100e70004f04780000000600889fbe008a9fbe00d5
:100e80008c9fbe00800578000204be00010578003a
:100e90000200be0001003700820578006156b900eb
:100ea0000c01be0022fe07000b01e800e00f50001d
:100eb000e08f5800f8ff3a000049eb000c01be003b
:100ec0000800be002afe0700004578000c01be00a5
:100ed0000800be0016fe07000004be00e94f5500e2
:100ee000010034006745450000c3b300805545004c
:100ef000e00f5400e08f5c00f0ff3a000b00780038
:100f00004f06be004f05be004f04be0000000600a5
:100f1000881f780000047800e00f5100e08f59002e
:100f200006003d0008007800d4c2b30004587800e1
:100f300060011100e081190001003700080078000d
:100f4000cdff0700080078004f047800000006007d
:100f5000020ab900001bb9000200b800810042007b
:080f60008100430000000600bf
:020000040000fa
:100f6800454e000044000000536500007400000076
:100f7800546900006d650000004300006f6e0000ba
:100f880066000000456e0000416c00000041000052
:100f98006c610000726d0000005000006173000079
:100fa80073000000456d00006572000000520000eb
:100fb80073740000546900006d0000005265000061
:100fc8006c61000079000000576100007474000033
:100fd80073000000456e0000557300006564000052
:100fe800004c00006967000068740000730000008e
:100ff800416c00006c410000646400000050000077
:101008005356000065720000736900006f6e00009f
:101018000052000065610000640000005374000085
:101028006174000000430000427600006572000011
:10103800005000007772000046610000696c0000f3
:1010480000500000777200004461000074610000e5
:10105800004f00006e0000004f66000066000000b0
:020000040000fa
:101068000200fa0010c0b300004f78007f090700a3
:10107800530907001e407800110007001e40780041
:10108800d00007001e407800020107000080fa0027
:10109800000006000200fa000040eb00004f780054
:1010a8001e407800060007001e407800c5000700b3
:1010b8001e407800f70007000080fa0000000600d4
:1010c8000600fa00404798004e4090000004e000f7
:1010d800010032007a29ef008fcabf00e14f5000ab
:1010e80011003a0000a92000c4010700004f780051
:1010f8001e4078000004e0000b0032008f6aef0009
:10110800d069ef00d229ef00d429ef00cd69ef00b4
:10111800ce69ef00296aef002a6aef0031c2b300f6
:10112800a097200086070700c3a220000001eb005b
:10113800a1972000609d20000c010700104798002f
:1011480060518000e10f50000c003200e10f5000a8
:1011580003003900e20f500010003200260037006b
:101168001e4090000004e00020003200904e8000f5
:101178000000e800904e88001f0037001e409000d5
:101188000004e0001b003200d229ef00a04e8000ce
:101198000000e800a04e8800170037006f05b00077
:1011a800a0fa2f000f004000619d20002a000900ce
:1011b800311878006005b100320007006f05b100f2
:1011c80000417800a1972000609d2000b70107002a
:1011d8000004e0000200320010c0b300d0e9b700fc
:1011e800d229ef00d429ef000300370000000000e7
:1011f80001003700000000008000eb00a0972000ed
:101208003a010700204798002e4090000004e000b3
:101218001a003200d0c9bf000004e0000700320005
:1012280000128000620060000000e00013003a0035
:1012380010c0b3008feab70010003700904e80004e
:10124800f80f50000300360010c0b3008feab70053
:101258000a003700a14e8000c00f2000808f500088
:101268000300360010c0b3008feab7000300370050
:1012780031c2b300a0972000310707000080fa00b0
:10128800000006001e00fa000000eb00000f7800c6
:101298000000eb00500798000000eb0010079800d2
:1012a8000040eb004047980040fa2f000e00400035
:1012b8000080e800600798001000200030079800c0
:1012c8002e0037003e009000ee00900000804000a5
:1012d80090407800514798003e0090000000e800d8
:1012e800300798004e4090000004e00009003200ea
:1012f800ee0047001e00900000804000de40900095
:10130800014878001e0090000000e80010079800cf
:101318001a0037003e009000ee0090000080400068
:101328009040780040c2b30080cf500010003a00cf
:101338003e009000ee009000008040008040eb00ee
:101348000148780010c0b30040479800ee004700fd
:101358001e009000008040008040eb0001487800ab
:101368003e0090000000e8003007980003003700b6
:101378005e4090000000fb001e0f4000de40900021
:10138800a0c2b30080cf5000ceff3a000040eb006f
:10139800004f98006e00470043fe07005007980072
:1013a8005e0090009e007800808f500002003a0096
:1013b80010c0b300004f98000e4890000080fa005b
:1013c800000006000400fa00204798002e40900014
:1013d8000004e0000700320010002000604688008a
:1013e8002069ef001f69ef007669ef007569ef006b
:1013f8007829ef008397200012002000c18c20007c
:101408002092200059000700c04b8000e10f5000d7
:1014180016003200e10f500016003900e20f5000ac
:1014280017003a006f05b000a0fa2f000f00400027
:10143800219220002a000900311878006005b100c7
:1014480090ff07006f05b10000417800c18c2000b3
:1014580020922000150107000004e0000700320078
:1014680010c0b300004f78000500370000000000ee
:1014780003003700000000000100370000000000f2
:1014880011002000c08c2000980007000080fa009e
:10149800000006000400fa00204798002e40900043
:1014a8000004e0000700320020002000f04088001f
:1014b8007268ef007168ef00c868ef00c768ef0056
:1014c800ca28ef00a38c200022002000e181200020
:1014d80040872000250007000080fb005046880058
:1014e80050468000e10f500016003200e10f500016
:1014f80016003900e20f500017003a006f05b000df
:10150800a0fa2f000f004000418720002a000900a0
:10151800311878006005b1005aff07006f05b10067
:1015280000417800e181200040872000df000700ab
:101538000004e0000700320010c0b300004f78003c
:10154800050037000000000003003700000000001d
:10155800010037000000000021002000e081200089
:10156800620007000080fa00000006000c00fa0084
:101578002007980031079800420798005307980001
:101588005e00900010007800e20f500003003a005f
:101598005e0090008000eb00010878000040eb003e
:1015a800004f78000040eb00104798004e00900074
:1015b800e10f500009003200e10f5000030039002c
:1015c800e20f5000090032000c0037000e80e800de
:1015d8007207070010479800080037000e80e800df
:1015e8009e07070010479800040037000e80e800a7
:1015f800ca07070010479800000000001e4090002e
:101608000004e0003600320010c0b300004f78003c
:10161800ae40900010c2b30080cf50000d003a00d9
:101628005e00900010007800e10f500009003200c1
:101638005e00900011002000010878002e00900044
:101648008040eb0041d098002e0090008040eb00d5
:1016580031d098005e00900010007800e10f500033
:1016680014003a002e00900030d090000080fb005b
:10167800ae4090002e0190000000410021409800eb
:101688002e00900030d090008040e8002e0090009e
:1016980031d098002e009000b0d09000f0c4b30074
:1016a80080cf5000030036002e009000f1c4b30034
:1016b80031d098005e00900010007800e10f5000d3
:1016c80007003a00ae409000a0c2b30080cf50009f
:1016d80003003a005e009000210020000108780015
:1016e8001e4078000080fa00000006000600fa009c
:1016f80010079800210798001e009000c0d09000a5
:101708001e00900030d0900080cf500003003a00b7
:1017180010c0b300004f7800350037000040eb00e0
:10172800004f78002e009000e10f50000e003200ac
:10173800e10f500003003900e20f5000130032009f
:101748001b0037001e00900040d090000080fb0076
:101758009e0090000080e800614078002f07070095
:1017680010479800120037001e00900040d09000eb
:101778000080fb009e0090000080e8006140780037
:101788005507070010479800090037001e00900011
:1017980040d090000080fb009e0090000080e80090
:1017a800614078006e0707001047980000000000ad
:1017b8001e4090000004e0000d0032001e00900062
:1017c80040d090008040e8001e00900041d0980072
:1017d8001e009000c0d09000f0c4b30080cf50002d
:1017e800030036001e0090008040eb0041d09800b6
:1017f8001e4078000080fa00000006000200fa008f
:10180800000f78008ecabf000004e0000600320016
:1018180041e2a9008e6aef00cde2a800cdc2a8007f
:10182800cd82a8001e0037001e0078001040780006
:101838008040e8001e007800014878001e0078000b
:1018480010407800e24f5000030036001e00780078
:101858008040eb00014878001e00780010407800b6
:101868000080fb00e10f500006003200e20f50003c
:10187800060032000000e00006003a00cde2a900b0
:1018880004003700cdc2a90002003700cd82a900ac
:101898000000000041e2a80010c0b3008eeab700c3
:1018a8008ecabf000080fa00000006004e00fa0051
:1018b800402798005127980042cf98000e00e80072
:1018c800ce209000150007004ec890000004e000ec
:1018d8000900320040002000fd14070030002000fd
:1018e800011507000e00e800de2090007d000700cb
:1018f800004f78000600370040002000fa14070067
:1019080030002000f214070010c0b300004f780028
:101918001e4078000080fa00000006000800fa0067
:1019280020079800310798000040eb00004f78002e
:101938000040eb00104798000000eb0010079800eb
:101948000a0037001e0090006a00b9000000780005
:10195800ae009000008040008040eb000148780015
:101968001e0090000000e800100798001e0090007c
:10197800e60f5000f3ff34003e0037003e009000b1
:1019880040d090000080fb00be0090000080e8007e
:10199800614078000000fb0011022000810f500018
:1019a8002c003200b1032000810f50000b003a00d8
:1019b8000040eb00004f78001e4090000040e80017
:1019c800104798001e409000e64f50002300360054
:1019d80060c0b30010479800210037001e409000f7
:1019e8000080fb006a00b90000007800ae0090009b
:1019f800808040001e80fb003e01900042d1900094
:101a08000281fb00be0190000281e8006341790079
:101a1800827078001e4fe8001e407800e94f5000a1
:101a28000200360090c0b300004f78001e409000be
:101a38000080fb006a00b90000007800ae0090004a
:101a4800808040001e80fb000041eb00827078001f
:101a5800030037000000000001003700000000000c
:101a68003e00900040d090008040e8003e0090008a
:101a780041d098003e00900040d090000080fb00cc
:101a8800be0090000080e800e1407800a0c2b300ea
:101a980080cf50000b0032003e009000c0d0900074
:101aa800f0c4b30080cf500006003e003e00900016
:101ab800c0d090003e00900030d0900080cf500001
:101ac800aeff3a003e0090008040eb0041d0980005
:101ad8003e0090008040eb0031d098000080fa0072
:101ae800000006007a01fa00303f9900413f990052
:101af8000040eb00004f78003e389100417b280001
:101b0800460507000004e000050032004e38910049
:101b1800a406070010c0b300004f7800a7033700e1
:101b28003e389100817b28003c0507000004e00056
:101b3800ab0132003e3891006a004000c17b2800aa
:101b4800360507000004e0005c0032003e389100d2
:101b58007400400010407800604f98003e389100b3
:101b68007400400010409000704f98000040eb0057
:101b7800005798003e3891007400400030409000b3
:101b8800105798003e389100740040004040900083
:101b9800205798000040eb00305798003e389100dd
:101ba8007400400060409000405798003e38910013
:101bb8007400400070409000505798000040eb00bf
:101bc800605798003e3891007e0040001040780031
:101bd800705798003e3891007e00400010409000f9
:101be800005f98000040eb00105f98003e389100bd
:101bf8007e00400030409000205f98003e38910001
:101c08007e00400040409000305f98000040eb00ac
:101c1800405f98003e3891007e0040006040900090
:101c2800505f98003e3891007e0040007040900060
:101c3800605f98000040eb00705f98006e004700fe
:101c480019fc0700004078004067980071004700c1
:101c580015fc0700004078002067980074004700d2
:101c680011fc070000179800770047000efc0700da
:101c780000407800606798007a0047000afc070077
:101c880000407800006f98007d00470006fc0700c0
:101c980000407800206f9800000220000e004000ed
:101ca800640f07002c0d0700c27b2800117c280058
:101cb8004e38910058030700400337003e38910022
:101cc8006a004000617c2800d40407000004e0009a
:101cd8000d0032003e3891007400400011fc0700ee
:101ce800c0528800d1528800c0528000d152800072
:101cf800be070700627c2800117c28004e3891003e
:101d0800450307002d0337003e3891006a00400064
:101d1800b17c2800c10407000004e000370032004d
:101d28003e38910074004000450507000004e000bb
:101d380004003200e0a4200011c0b300014878007c
:101d480003003700e0a420008040eb000148780041
:101d58003e3891007e004000390507000004e0008d
:101d680004003200e0a4200011c0b3001140980024
:101d780003003700e0a420008040eb0011409800e9
:101d88003e3891008002b000c7fb0700e1a42000a4
:101d9800900098003e3891002003b0002805070005
:101da8000004e00004003200e0a4200011c0b300e9
:101db8004140980003003700e0a420008040eb0079
:101dc800414098003e389100c003b000b6fb0700c0
:101dd800e1a42000b0009800e0a420005001be005b
:101de8004000be0050080700b27c2800117c280083
:101df8004e38910008030700f00237003e38910082
:101e08006a004000117d2800840407000004e000f7
:101e1800200032003e3891007400400010407800e5
:101e2800406f98003e3891007400400010409000c8
:101e3800506f98003e389100740040002040900098
:101e4800606f98003e389100740040003040900068
:101e5800706f98003e389100740040004040900038
:101e6800007798003e389100740040005040900080
:101e780010779800c00220000e004000c10607003d
:101e8800127d2800117c28004e389100e2020700dc
:101e9800ca0237003e3891006a004000617d280080
:101ea8005e0407000004e000160032003e3891008e
:101eb80074004000e20407000004e000070032005c
:101ec80010c0b30062eab7003e3891007e004000bf
:101ed80075fb07002053880002003700626aef0094
:101ee800642aef0010538000215380007507070013
:101ef800627d2800117c28004e389100c602070038
:101f0800ae0237003e3891006a004000b17d2800db
:101f1800420407000004e000200032003e3891002f
:101f28007400400060fb0700e05288003e389100d2
:101f38007e0040005cfb0700f0528800e152800000
:101f4800300320000e004000a2002000bafb07006a
:101f5800f1528000700420000e004000a200200012
:101f6800b5fb0700f1528000e05280008e070700a1
:101f7800710420008e804000300320000e004000d5
:101f88000102780080017800b27d2800117c2800c9
:101f98004e389100e3020700880237003e3891006e
:101fa8006a004000217e28001c0407000004e000ad
:101fb800100032003e38910074004000a004070071
:101fc8000004e0000300320010c0b30060eab7006c
:101fd80001003700606aef0060cabf006d0b0700a0
:101fe800227e2800117c28004e3891008a020700c2
:101ff800720237003e3891006a004000817e280056
:10200800060407000004e0001a0032003e38910080
:102018007400400043fb070070518800815188001c
:10202800827e2800117c28004e3891007a02070031
:10203800725180008351800050312000010020003f
:10204800800f5100818f590005003a0010002000d0
:102058001f13070020002000231307005702370032
:10206800100020002013070020002000181307008c
:10207800520237003e3891006a004000e17e280095
:10208800e60307000004e000240032003e38910017
:102098007400400023fb07001007980021079800f0
:1020a800b2518000c35180001e009000ae00900025
:1020b800800f5100818f59000f003600b051800009
:1020c800c15180000001be00b00520000e00400094
:1020d800a10020008cfb0700b00520000e00400086
:1020e80080017800e27e2800817b28004e3891002c
:1020f80066020700310237001e019000ae01900011
:10210800b2518800c3518800e27e2800117c280063
:102118004e38910040020700280237003e389100ef
:102128006a004000517f2800bc0307000004e0005b
:10213800090032003e389100740040004004070056
:1021480092eab700527f2800117c28004e3891008f
:1021580031020700190237003e3891006a0040003a
:10216800c17f2800ad0307000004e0001100320021
:102178003e38910074004000cbfa0700b052880046
:10218800b1528000700620000e004000a20020001e
:1021980029fb0700700620000e004000800178002f
:1021a800c27f2800117c28004e38910037020700b2
:1021b800020237003e3891006a0040003180280052
:1021c800960307000004e000fc013200328028007a
:1021d800117c28004e3891000f020700f7013700e4
:1021e8003e389100d18028008c0307000004e000ed
:1021f800f20132003e3891006a004000c17b28009d
:10220800860307000004e0005300320046cabf00fe
:102218008000fb00000820000e0040002200200083
:102228001d04070044cabf008000fb00700820009e
:102238000e00400022002000170407001052800002
:1022480080007800e00820000e00400022002000f6
:102258001104070048cabf008000fb005009200095
:102268000e004000220020000b0407004acabf00ed
:102278008000fb00c00920000e0040002200200062
:10228800050407004ccabf008000fb00300a20008c
:102298000e00400022002000ff0307000e409100be
:1022a80060ef98001e40910070ef9800d0c2b30014
:1022b80000f798007e40910010f798000e489100b2
:1022c80020f79800d0c2b30030f798006e4891000c
:1022d80040f798007e48910050f798000040eb00c6
:1022e80060f798005e50910070f798006e5091006a
:1022f80000ff9800a0c3b30010ff98004e5891004b
:1023080020ff98005e58910030ff9800a0c3b300ea
:1023180040ff98003e60910050ff98004e60910089
:1023280060ff98000040eb0070ff980071072000e4
:102338008e804000e00620000e0040000102780078
:1023480080017800c27b2800817b28004e389100ec
:10235800f4010700990137003e3891006a004000f7
:10236800617c28002d0307000004e0000f00320004
:10237800c0528000d15280000001be00a00a200097
:102388000e004000a1002000dffa0700a00a20008c
:102398000e00400080017800627c2800817b2800c4
:1023a8004e389100b9010700840137003e3891008a
:1023b8006a004000b17c2800180307000004e00010
:1023c80036003200e0a42000104078008080fb0036
:1023d800600b20000e00400076030700e0a42000f8
:1023e800104090008080fb00a00b20000e004000f1
:1023f80070030700e0a42000404090008080fb00ac
:10240800e00b20000e0040006a030700e0a4200053
:102418009001900033079800e0a42000b0009000dd
:1024280041079800200c20000e004000a200200068
:10243800be00900080fa0700900c20000e004000bb
:10244800a2002000ce0090007bfa0700e00b2000dd
:102458000e004000e40b20000e024200230c200076
:102468008e814100a20b20000e014100610b20006b
:102478008e8040008003780004037800830278008f
:102488000202780081017800b27c2800817b280054
:102498004e3891004b020700480137003e38910042
:1024a8006a004000117d2800dc0207000004e000fb
:1024b8000d003200000d20000e004000eb04070064
:1024c8000040eb0060d79900000d20000e0040008e
:1024d80080017800127d2800817b28004e38910009
:1024e8006a010700350137003e3891006a00400054
:1024f800617d2800c90207000004e00015003200d1
:1025080062cabf008080fb00700d20000e004000f2
:102518002803070021538000b00d20000e00400062
:10252800a200200044fa0700b10d20008e80400070
:10253800700d20000e004000010278008001780034
:10254800627d2800817b28004e38910075010700c4
:102558001a0137003e3891006a004000b17d28001a
:10256800ae0207000004e00015003200e1528000ce
:10257800200e20000e004000a20020002efa0700c6
:10258800f1528000900e20000e004000a2002000b2
:1025980029fa0700910e20008e804000200e2000ae
:1025a8000e0040000102780080017800b27d28000a
:1025b800817b28004e3891005a010700ff00370040
:1025c8003e3891006a004000217e280093020700ef
:1025d8000004e0000d00320060cabf008080fb00ec
:1025e800000f20000e004000f2020700000f20003c
:1025f8000e00400080017800227e2800817b2800a0
:102608004e38910021010700ec0037003e38910058
:102618006a00400021812800800207000004e000d1
:1026280019003200b0518000c15180000001be0085
:10263800400f20000e004000a100200032fa0700e1
:10264800f0518000015280000001be0000102000ff
:102658000e004000a10020002bfa07000110200006
:102668008e804000400f20000e00400001027800dc
:102678008001780022812800817b28004e38910053
:1026880028010700cd0037003e3891006a0040005d
:1026980071812800610207000004e0001600320082
:1026a80040c5b300404f9a0050c6b300504f9a003f
:1026b80030c7b300604f9a0040c7b300704f9a000c
:1026c800a0c3b30000579a0000c3b30010579a0084
:1026d80010c3b30020579a000040eb0030579a000f
:1026e80043a8200072812800817b28004e38910081
:1026f800e6000700b10037003e3891006a0040004c
:10270800d1812800450207000004e000780032006b
:1027180080c4b30060579a0080c4b30070579a0011
:10272800a0c3b300005f9a00d0c4b300105f9a0042
:10273800d0c4b300205f9a00a0c3b300305f9a00f2
:1027480040c4b300405f9a0040c4b300505f9a0091
:10275800a0c3b300605f9a00d0c4b300705f9a0052
:10276800d0c4b30000679a000040eb0010679a00dd
:10277800611420008e804000a01320000e0040004d
:10278800380d07001ec0920060579a000ec09200d4
:1027980070579a00a0c3b300005f9a003ec0920031
:1027a800105f9a002ec09200205f9a0000c2b3000a
:1027b800305f9a007e789200405f9a006e789200af
:1027c800505f9a00f0c2b300605f9a005e78920092
:1027d800705f9a004e78920000679a000040eb0004
:1027e80010679a005ec8920020679a004ec892004f
:1027f80030679a00a0c3b30040679a007ec8920071
:1028080050679a006ec8920060679a0000c2b300d1
:1028180070679a003ec89200006f9a002ec8920016
:10282800106f9a00f0c2b300206f9a001ec8920081
:10283800306f9a000ec89200406f9a000040eb007b
:10284800506f9a004d11070000202e004100200013
:10285800701307005111070000202e0041002000ce
:102868006c1307004511070000202e0041002000ce
:10287800681307004911070000202e0041002000be
:10288800641307003d11070000202e0041002000be
:10289800601307004111070000202e0041002000ae
:1028a8005c1307003511070000202e0041002000ae
:1028b800581307003911070000202e00410020009e
:1028c80054130700611120008e8040002012200060
:1028d8000e0040000102780080017800d2812800b3
:1028e800817b28004e3891008e00070033003700a6
:1028f8003e3891006a00400051822800c701070055
:102908000004e0002d003200b2518000c351800065
:10291800d0518000e15180000000510081805900b1
:102928005007980061079800b05280006101b90013
:10293800c0528000d15280000200400083804800cd
:102948000001be00201520000e004000a10020005c
:102958006df90700e01520000e004000a1002000de
:102968005e019000ee01900067f907007051800049
:10297800815180000001be00a01620000e0040001a
:10298800a100200060f90700a21620000e014100f6
:10299800e11520008e804000201520000e00400028
:1029a80082027800010278008001780052822800b3
:1029b800817b28004e389100890007001e4078006e
:1029c8000080fa00000006000600fa0010079800d0
:1029d8002107980031c2b3001e009000580107007b
:1029e80011c2b3001e009000550107000000eb0063
:1029f800000f7800ae0090001e0090006b010700e9
:102a08001e0f40009e0078001e009000370107004e
:102a18000080fa00000006000800fa00100798007d
:102a2800210798003207980031c2b3001e009000b9
:102a38004301070011c2b3001e00900040010700c7
:102a48000000eb00000f7800ae0090001e00900020
:102a5800560107001e0f4000b1c3b3001e009000ce
:102a6800370107001e0f4000be0090001e009000b6
:102a78004e0107001e0f40009e0078001e009000c7
:102a88001a0107000080fa00000006000a00fa0098
:102a9800100798002107980032079800430798000c
:102aa80031c2b3001e0090002501070011c2b30017
:102ab8001e009000220107000000eb00000f7800c4
:102ac800ae0090001e009000380107001e0f400065
:102ad800b1c3b3001e009000190107001e0f40008b
:102ae800be0090001e009000300107001e0f40003d
:102af800b1c3b3001e009000110107001e0f400073
:102b0800ce0090001e009000280107001e0f400014
:102b18009e0078001e009000f40007000080fa0074
:102b2800000006000c00fa00100798002107980022
:102b380032079800430798005407980031c2b30041
:102b48001e009000fe00070011c2b3001e00900096
:102b5800fb0007000000eb00000f7800ae009000bb
:102b68001e009000110107001e0f4000b1c3b30002
:102b78001e009000f20007001e0f4000be009000eb
:102b88001e009000090107001e0f4000b1c3b300ea
:102b98001e009000ea0007001e0f4000ce009000c3
:102ba8001e009000010107001e0f4000b1c3b300d2
:102bb8001e009000e20007001e0f4000de0090009b
:102bc8001e009000f90007001e0f40009e007800cc
:102bd8001e009000c50007000080fa0000000600f3
:102be8000e00fa0010079800210798003207980095
:102bf80043079800540798006507980031c2b3004e
:102c08001e009000ce00070011c2b3001e00900005
:102c1800cb0007000000eb00000f7800ae0090002a
:102c28001e009000e10007001e0f4000b1c3b30072
:102c38001e009000c20007001e0f4000be0090005a
:102c48001e009000d90007001e0f4000b1c3b3005a
:102c58001e009000ba0007001e0f4000ce00900032
:102c68001e009000d10007001e0f4000b1c3b30042
:102c78001e009000b20007001e0f4000de0090000a
:102c88001e009000c90007001e0f4000b1c3b3002a
:102c98001e009000aa0007001e0f4000ee009000e2
:102ca8001e009000c10007001e0f40009e00780023
:102cb8001e0090008d0007000080fa00000006004a
:102cc8001000fa00100798002107980032079800b2
:102cd80043079800540798006507980076079800fe
:102ce80031c2b3001e0090009500070011c2b30066
:102cf8001e009000920007000000eb00000f780013
:102d0800ae0090001e009000a80007001e0f4000b3
:102d1800b1c3b3001e009000890007001e0f4000d9
:102d2800be0090001e009000a00007001e0f40008b
:102d3800b1c3b3001e009000810007001e0f4000c1
:102d4800ce0090001e009000980007001e0f400063
:102d5800b1c3b3001e009000790007001e0f4000a9
:102d6800de0090001e009000900007001e0f40003b
:102d7800b1c3b3001e009000710007001e0f400091
:102d8800ee0090001e009000880007001e0f400013
:102d9800b1c3b3001e009000690007001e0f400079
:102da800fe0090001e009000800007001e0f4000eb
:102db8009e0078001e0090004c0007000080fa007a
:102dc800000006001200fa0010079800210798007a
:102dd8003207980043079800540798006507980041
:102de80076079800070f980031c2b3001e009000c4
:102df8005300070011c2b3001e00900050000700e6
:102e08000000eb00000f7800ae0090001e0090005c
:102e1800660007001e0f4000b1c3b3001e009000fb
:102e2800470007001e0f4000be0090001e009000e3
:102e38005e0007001e0f4000b1c3b3001e009000e3
:102e48003f0007001e0f4000ce0090001e009000bb
:102e5800560007001e0f4000b1c3b3001e009000cb
:102e6800370007001e0f4000de0090001e00900093
:102e78004e0007001e0f4000b1c3b3001e009000b3
:102e88002f0007001e0f4000ee0090001e0090006b
:102e9800460007001e0f4000b1c3b3001e0090009b
:102ea800270007001e0f4000fe0090001e00900043
:102eb8003e0007001e0f4000b1c3b3001e00900083
:102ec8001f0007001e0f40008e0890001e00900093
:102ed800360007001e0f40009e0078001e0090007c
:102ee800020007000080fa00000006001400fa0043
:102ef800000f9800110f9800b1c3b3000e0890009e
:102f08000f00070041c2b3000e0890000c00070034
:102f1800a20020009e0890000e007800c6f7070067
:102f28008e0078000e08900020000700a1c2b300b0
:102f38000e089000020007000080fa00000006005a
:102f48000400fa00000f7800214798001e0078005e
:102f580030d090000080fb009e0078000080400088
:102f6800ae409000214098001e00780030d09000bc
:102f78008040e8001e00780031d098001e007800dc
:102f8800b0d09000f0c4b30080cf500003003600ea
:102f98001e0078008040eb0031d098002e40900051
:102fa8000000fb000080fa00000006000800fa009c
:102fb80020079800310798000000eb00000f780008
:102fc8000000eb00100798000b0037001e0090006f
:102fd800be009000008040001040780080407800db
:102fe8002e009000d6ff07001e0f40001e00900024
:102ff8000000e800100798001e009000be00900036
:1030080000804000104078000004e000efff3a0024
:103018001e0078000080fa00000006000800fa0090
:103028002007980031079800e04080000000e80081
:10303800e0408800be0090002e0090000c000700c1
:10304800100798001e0090000000e00003003a00fe
:1030580010c0b300004f7800020037000040eb00ba
:10306800004f78001e4078000080fa00000006003b
:103078000800fa0020079800310798000000eb00cc
:10308800000f78000000eb00100798001a003700c6
:103098001e007800ae00900000804000904078004c
:1030a8001e0078003e0190000000410010407800aa
:1030b80080cf500003003400100020001007980053
:1030c8000c0037001e007800ae0090000080400021
:1030d800904078001e0078003e01900000004100fa
:1030e8001040780080cf500002003d000080eb00c7
:1030f800100798001e0fe8001e007800ae00900030
:1031080000804000104078000004e0000900320010
:103118001e007800be00900000804000104078003b
:103128000004e000030032001e0090000000e000f0
:10313800d7ff32001e007800ae00900000804000eb
:10314800104078000004e00009003a001e007800f2
:10315800be00900000804000104078000004e000ad
:10316800030032000080eb00100798000e003700c3
:103178001e007800ae0090000080400010407800eb
:103188000004e000080032001e007800be00900035
:1031980000804000104078000004e00002003a007f
:1031a80010002000100798001e0090000080fa0010
:1031b800000006000400fa00000f780011079800cc
:1031c8001e0090000000e0000e003a001e0078008b
:1031d800f1c4b300014878001e00e80061c6b300de
:1031e800014878001e80e80061c6b30001487800f5
:1031f8009e007800638040008040eb000148780022
:103208000d0037001e007800f1c4b30001487800b3
:103218001e00e800e1c6b300014878001e80e800ff
:103228008040eb00014878009e00780063804000f1
:103238008040eb00014878000080fa00000006009a
:103248000400fa00100798000040eb00004f7800d7
:10325800d18228001e00900070ff07000004e000e3
:103268000300320010c0b300004f78000700370099
:10327800018328001e00900068ff07000004e0009a
:10328800020032000040eb00004f78001e4078003a
:103298000080fa00000006001600fa00000f9800ef
:1032a800110f9800220f980068004700a200200024
:1032b8009e089000e0f607000000eb00000f780081
:1032c800010037001e0fe800680047001e0040009c
:1032d800104078000004e000faff3a002e08900041
:1032e8001e005000300798000000eb0010079800ff
:1032f800080037001e0090008e08900000804000f3
:1033080001c3b300014878001e0090000000e800e7
:10331800100798009e0090003e009000808f50009b
:10332800f4ff35000000eb00200798000e0037007e
:103338001e0090008e089000008040006801470041
:10334800ae0090008100410091407800014878006b
:103358001e0090000000e800100798002e00900062
:103368000000e80020079800e80047002e009000c1
:1033780000804000104078000004e000ecff3a00b4
:103388001e0090008e089000008040008040eb00f6
:10339800014878000080fa00000006000400fa00e6
:1033a800100798000040eb00004f7800c1408000f3
:1033b800d0408000808f500015003200c14080004e
:1033c800e080200000804000904078001e009000bf
:1033d800014878001e009000104078000004e000ca
:1033e8000200320010c0b300004f7800c0408000d7
:1033f8008000e800a000200000017800110009000a
:103408008200d8008000fd00c0408800c0408000d5
:103418001e4078000080fa00000006000400fa0050
:10342800204798000040eb00004f78000012800011
:10343800620060000000e00005003a002e409000a5
:103448000000fb004012880010c0b300004f780055
:103458001e4078000080fa00000006000400fa0010
:10346800100798000040eb00004f780051408000a2
:1034780060408000808f500014003200514080006e
:103488000080200000804000904078001e009000de
:10349800014878001e009000104078000004e00009
:1034a8000200320010c0b300004f78005040800086
:1034b8008000e800a0002000000178001100090049
:1034c8008200d8008000fd00504088001e4078002f
:1034d8000080fa00000006000400fa002047980067
:1034e8000040eb00004f7800111180000020200000
:1034f800008060000000e00005003a002e409000c7
:103508000000fb002011880010c0b300004f7800b5
:103518001e4078000080fa00000006000400fa004f
:10352800100798000040eb00004f780090118000d1
:10353800610060000000e00006003200b011800069
:10354800804078001e0090000148780010c0b30049
:10355800004f78001e4078000080fa000000060046
:103568000400fa00204798000040eb00004f780064
:103578009111800000202000008060000000e00021
:1035880005003a002e4090000000fb00a0118800c2
:1035980010c0b300004f78001e4078000080fa0089
:1035a800000006000200fa00000f7800417b2800a6
:1035b8001e00780004fd07000080fa0000000600e5
:1035c8000000fa00c942a800c962a800c9a2a9005f
:1035d800c9e2a900c9c2a900c982a900cde2a80010
:1035e800cdc2a800cd82a80042a2a8004382a900ab
:1035f8004362a9004342a9004322a8004302a8004d
:1036080042e2a90042c2a80011128000c0ff2f00a8
:10361800008060000000a0001012880011128000d5
:1036280030fe2f00008060000040a00010128800cb
:1036380045e2a90045c2a90045a2a9004422a90063
:103648004402a90040c2a9000112800030fe2f00e8
:10365800008060000020a000001288008540a900ba
:103668009540a8000080fa00000006000000fa005b
:1036780038000700020007000080fa00000006007a
:103688000400fa00c822a800c802a900008025008a
:1036980021002000008fbe001e01be000040220055
:1036a800410f200020f40700008fbe000081eb00ce
:1036b8008081eb001e0f41005e9749001e007800d4
:1036c800c011880031a2a9003182a9003162a80086
:1036d80081118000f0cf2f000080600080118800e9
:1036e80030e2a90030c2a90030a2a9003082a900a6
:1036f8003062a9008111800090ff2f0000806000d7
:10370800801188003002a90033a2a90033e2a90081
:1037180033c2a9003362a90091118000f0f32f0091
:10372800008060009011880032a2a9008c40a90096
:103738009c40a80087e0a90097e0a90087c0a900dd
:1037480097c0a90031e2a8003342a8000080fa001f
:10375800000006000400fa00c842a800c8e2a90058
:103768000080250021002000008fbe001e01be0041
:1037780000402200410f2000ebf30700008fbe003d
:103788000081eb008081eb001e0f41005e9749002d
:103798001e0078004011880021a2a9002182a900fa
:1037a8002162a80001118000f0cf2f000080600086
:1037b8000011880020e2a90020c2a90020a2a900c7
:1037c8002082a9002062a9000111800090ff2f002b
:1037d80000806000001188002002a90023a2a9002f
:1037e80023e2a90023c2a9002362a90011118000c5
:1037f800f0f32f00008060001011880022a2a900b9
:103808008c20a9009c20a8008580a9009580a9008b
:103818008560a9009560a80021e2a8002342a800bd
:103828000080fa00000006000200fa000040eb00e9
:10383800004f780007003700013b80000000280097
:10384800008060000000e00002003a0010c0b300f1
:10385800004f78001e4078000004a2000004e00039
:10386800f5ff3a000080fa00000006000400fa00a4
:1038780010079800ecff0700f007200000407800d0
:1038880032e0b70000e02f00000f78001e0078003b
:103898001000ba00804078001e00900001487800af
:1038a800f00720000040780032e0b70020e02f0049
:1038b800000f78001e0090000000e8009e007800cd
:1038c8009100ba008140780001487800f007200094
:1038d8000040780032e0b70040e02f00000f780089
:1038e8001e0090000080e8009e0078009100ba0059
:1038f8008140780001487800f007200000407800f7
:1039080032e0b70060e02f00000f78001e00900042
:10391800630040009e0078009100ba008140780062
:1039280001487800f00720000040780032e0b70036
:1039380080e02f00000f78001e0090006400400017
:103948009e0078009100ba00814078000148780014
:10395800f00720000040780032e0b700a0e02f0018
:10396800000f78001e009000650040009e0078005f
:103978009100ba0081407800014878000080fa0080
:10398800000006000400fa0010079800a6ff0700d0
:1039980040002400003b8800f00720000040780029
:1039a80032e0b70000e02f00000f78001e00900002
:1039b800104078008000fb001e0078000108bb0062
:1039c8000500fc0050052000303b8800a00a2000bc
:1039d800303b880061e7a8000000000000000000fc
:1039e80091ff070040002400003b8800f0072000fa
:1039f8000040780032e0b70020e02f00000f780088
:103a08001e0090000000e800104078008000fb00d5
:103a18001e0078000108bb000500fc0050052000ce
:103a2800303b8800a00a2000303b880061e7a800ee
:103a380000000000000000007bff07004000240099
:103a4800003b8800f00720000040780032e0b70013
:103a580040e02f00000f78001e0090000080e80072
:103a6800104078008000fb001e0078000108bb00b1
:103a78000500fc0050052000303b8800a00a20000b
:103a8800303b880061e7a80000000000000000004b
:103a980065ff070040002400003b8800f007200075
:103aa8000040780032e0b70060e02f00000f780097
:103ab8001e00900063004000104078008000fb006a
:103ac8001e0078000108bb000500fc00500520001e
:103ad800303b8800a00a2000303b880061e7a8003e
:103ae80000000000000000004fff07004000240015
:103af800003b8800f00720000040780032e0b70063
:103b080080e02f00000f78001e0090006400400045
:103b1800104078008000fb001e0078000108bb0000
:103b28000500fc0050052000303b8800a00a20005a
:103b3800303b880061e7a80000000000000000009a
:103b480039ff070040002400003b8800f0072000f0
:103b58000040780032e0b700a0e02f00000f7800a6
:103b68001e00900065004000104078008000fb00b7
:103b78001e0078000108bb000500fc00500520006d
:103b8800303b8800a00a2000303b880061e7a8008d
:103b980000000000000000000080fa00000006009d
:103ba8000800fa0020ff0700f00720000040780016
:103bb80032e0b700c0e02f00000f78001e00780048
:103bc8001000ba00100798001e0078001000ba0014
:103bd8008000eb0020079800310798002e00900025
:103be800be0090000080fa00000006000800fa00fd
:103bf8002007980031079800ae009000010f780068
:103c080009ff070040002400003b8800f00720005f
:103c18000040780032e0b700c0e02f00100798009d
:103c28001e0090001e08bb000500fc005005200087
:103c3800303b8800a00a2000303b880061e7a800dc
:103c480000000000000000000080fa0000000600ec
:103c58000800fa00881f780000047800f2fe0700c8
:103c6800f00720000040780032e0b700e0e02f00c5
:103c7800000f78001e0078001000ba0010079800a6
:103c88009e009000310798001e0090000000e000a0
:103c98000300340010c0b30040479800020037000a
:103ca8000040eb00404798002e019000be019000b4
:103cb800028cbe00080078004f0478000080fa00eb
:103cc800000006000600fa00100798002107980077
:103cd800d5fe070040002400003b8800f0072000c4
:103ce8000040780032e0b700e0e02f00000f7800d5
:103cf8002e009000800078001e0078000108bb00ac
:103d08000500fc0050052000303b8800a00a200078
:103d1800303b880061e7a8000000000000000000b8
:103d28000080fa00000006000800fa00881f7800ea
:103d380000047800bcfe0700f0072000004078006f
:103d480032e0b70000e12f00000f78001e00780075
:103d58001000ba00100798009e009000400620004e
:103d680000017800110009008280d8008000fd0061
:103d7800300798001e009000c200de00b047210006
:103d88000008b8000100d100200798002e0190001b
:103d9800be019000028cbe00080078004f04780035
:103da8000080fa00000006000800fa0020079800ca
:103db800310798009cfe070040002400003b880063
:103dc800ae009000400620000088b900800078000e
:103dd8003e00900000804000000f7800f0072000af
:103de8000040780032e0b70000e12f00100798008b
:103df8001e0090001e08bb000500fc0050052000b6
:103e0800303b8800a00a2000303b880061e7a8000a
:103e180000000000000000000080fa00000006001a
:103e28001000fa00881f7800000478007efe070062
:103e3800f00720000040780032e0b70020e12f00b2
:103e4800000f78001e0078001000ba0010079800d4
:103e5800f00720000040780032e0b70040e12f0072
:103e6800000f78001e0078001000ba0020079800a4
:103e7800f00720000040780032e0b70060e12f0032
:103e8800000f78001e0078001000ba003007980074
:103e98001e0090000000e00003003a000040eb0024
:103ea800004f98000200370010c0b300004f980080
:103eb800ae009000510798005e0090000000e000fe
:103ec8000300340010c0b300104f98000200370000
:103ed8000040eb00104f98003e02900074079800d5
:103ee8007e0090000000e000030034000040eb007a
:103ef800404f9800020037000040eb00404f980008
:103f08004e029000de0290006e039000fe039000c7
:103f1800049cbe000694be00080078004f04780098
:103f28000080fa00000006000c00fa002007980044
:103f38003107980042079800530798004e409000b8
:103f48000004e000030032000080eb00000f78005e
:103f5800020037000000eb00000f780032fe070077
:103f680040002400003b8800f00720000040780053
:103f780032e0b70020e12f00100798001e009000e3
:103f88001e08bb000500fc0050052000303b8800df
:103f9800a00a2000303b880061e7a800000000006c
:103fa8000000000020fe070040002400003b8800bd
:103fb800f00720000040780032e0b70040e12f0011
:103fc800100798003e009000800078001e009000c6
:103fd8000108bb000500fc0050052000303b8800ac
:103fe800a00a2000303b880061e7a800000000001c
:103ff800000000000cfe070040002400003b880081
:10400800f00720000040780032e0b70060e12f00a0
:10401800100798005e009000800078001e00900055
:104028000108bb000500fc0050052000303b88005b
:10403800a00a2000303b880061e7a80000000000cb
:10404800000000000080fa00000006001200fa00dc
:10405800881f780000047800f3fd0700f0072000af
:104068000040780032e0b70080e12f00000f7800b0
:104078001e0078001000ba0010079800f007200012
:104088000040780032e0b700a0e12f00000f780070
:104098001e0078001000ba0020079800ae009000bb
:1040a8001e0090000b040700500798006107980055
:1040b800f00720000040780032e0b700c0e12f0090
:1040c800000f78001e0078001000ba001007980052
:1040d800f00720000040780032e0b700e0e12f0050
:1040e800000f78001e0078001000ba002007980022
:1040f800ae0090001e009000f603070070079800bd
:10410800010f98006600470088007800b018780012
:10411800a0107800e480400064004000b0187800e7
:10412800a0107800e480400064004000b0187800d7
:10413800a0107800e4804000640040000800780087
:104148004f0478000080fa00000006001200fa0010
:1041580030079800410798005207980063079800b5
:1041680074079800050f98005e009000ee0090001c
:10417800e40147000e81e800e4030700aafd0700f8
:1041880040002400003b8800f00720000040780031
:1041980032e0b70080e12f00000f78009e00900009
:1041a8001e0078000108bb000500fc005005200037
:1041b800303b8800a00a2000303b880061e7a80057
:1041c800000000000000000097fd070040002400e8
:1041d800003b8800f00720000040780032e0b7007c
:1041e800a0e12f00000f7800ae0090001e007800bc
:1041f8000108bb000500fc0050052000303b88008a
:10420800a00a2000303b880061e7a80000000000f9
:10421800000000007e0090008e089000e401470036
:104228000e81e800b90307007ffd07004000240065
:10423800003b8800f00720000040780032e0b7001b
:10424800c0e12f00000f78009e0090001e0078004b
:104258000108bb000500fc0050052000303b880029
:10426800a00a2000303b880061e7a8000000000099
:10427800000000006cfd070040002400003b88009f
:10428800f00720000040780032e0b700e0e12f009e
:10429800000f7800ae0090001e0078000108bb00f7
:1042a8000500fc0050052000303b8800a00a2000d3
:1042b800303b880061e7a800000000000000000013
:1042c8000080fa00000006000c00fa0056fd070006
:1042d80001030700404798004e4090000080fb0013
:1042e800e40f50004c003200e40f50000c003c007a
:1042f800e10f500018003200e10f500003003c00ad
:104308000000e0000f00320092003700e20f50007a
:1043180021003200e30f50002f0032008d003700db
:10432800e60f50005c003200e60f50004a003500ee
:10433800e70f500068003200e80f500076003200a6
:10434800840037000000eb00100798009e009000e2
:10435800010f78007f003700f00720000040780048
:1043680032e0b70000e22f00300798003e009000ce
:10437800100fba00f00720000040780032e0b700c4
:1043880020e22f00300798003e0090001000ba008d
:10439800100798006f003700f007200000407800f1
:1043a80032e0b70040e22f00300798003e0090004e
:1043b800100fba00f00720000040780032e0b70084
:1043c80060e22f00300798003e0090001000ba000d
:1043d800100798005f003700f007200000407800c1
:1043e80032e0b70080e22f00300798003e009000ce
:1043f800100fba00f00720000040780032e0b70044
:10440800a0e22f00300798003e0090001000ba008c
:10441800100798004f003700f00720000040780090
:1044280032e0b700c0e22f00300798003e0090004d
:10443800100fba00f00720000040780032e0b70003
:10444800e0e22f00300798003e0090001000ba000c
:10445800100798003f003700f00720000040780060
:1044680032e0b70000e32f00300798003e009000cc
:10447800100fba00f00720000040780032e0b700c3
:1044880020e32f00300798003e0090001000ba008b
:10449800100798002f003700f00720000040780030
:1044a80032e0b70040e32f00300798003e0090004c
:1044b800100fba00f00720000040780032e0b70083
:1044c80060e32f00300798003e0090001000ba000b
:1044d800100798001f003700f00720000040780000
:1044e80032e0b70080e32f00300798003e009000cc
:1044f800100fba00f00720000040780032e0b70043
:10450800a0e32f00300798003e0090001000ba008a
:10451800100798000f003700f007200000407800cf
:1045280032e0b700c0e32f00300798003e0090004b
:10453800100fba00f00720000040780032e0b70002
:10454800e0e32f00300798003e0090001000ba000a
:10455800100798009e0090001e007800dd020700fa
:1045680040079800510798004e009000de00900028
:104578000080fa00000006000c00fa0040079800ce
:1045880051079800e6004700640047008101780061
:10459800000178004e009000de009000db0207006a
:1045a800c3020700004f78001e80fb00e40f500094
:1045b800c0003200e40f500007003c00e20f50003a
:1045c80048003200e20f500080003c00e10f50002c
:1045d8000a003200d8013700e60f500029013200e6
:1045e800e60f5000ed003500e70f50005f01320084
:1045f800e80f500097013200cf0137008afc07000e
:1046080040002400003b8800f007200000407800ac
:1046180032e0b70000e22f0010079800ae009000cb
:104628001e0090000108bb000500fc00500520009a
:10463800303b8800a00a2000303b880061e7a800d2
:10464800000000000000000077fc07004000240084
:10465800003b8800f00720000040780032e0b700f7
:1046680020e22f0010079800be0090001e00900066
:104678000108bb000500fc0050052000303b880005
:10468800a00a2000303b880061e7a8000000000075
:104698000000000064fc070040002400003b880084
:1046a800f00720000040780032e0b70040e22f0019
:1046b800100798001e0090008080eb000108bb00e6
:1046c8000500fc0050052000303b8800a00a2000af
:1046d800303b880061e7a8000000000000000000ef
:1046e8009501370050fc070040002400003b88007b
:1046f800f00720000040780032e0b70040e22f00c9
:1047080010079800ae0090001e0090000108bb0042
:104718000500fc0050052000303b8800a00a20005e
:10472800303b880061e7a80000000000000000009e
:104738003dfc070040002400003b8800f0072000f3
:104748000040780032e0b70060e22f0010079800c0
:10475800be0090001e0090000108bb000500fc0090
:1047680050052000303b8800a00a2000303b88001c
:1047780061e7a80000000000000000002afc070014
:1047880040002400003b8800f0072000004078002b
:1047980032e0b70080e22f00100798001e0090005a
:1047a8008080eb000108bb000500fc0050052000dc
:1047b800303b8800a00a2000303b880061e7a80051
:1047c80000000000000000005b01370016fc070035
:1047d80040002400003b8800f007200000407800db
:1047e80032e0b70080e22f0010079800ae0090007a
:1047f8001e0090000108bb000500fc0050052000c9
:10480800303b8800a00a2000303b880061e7a80000
:10481800000000000000000003fc07004000240026
:10482800003b8800f00720000040780032e0b70025
:10483800a0e22f0010079800be0090001e00900014
:104848000108bb000500fc0050052000303b880033
:10485800a00a2000303b880061e7a80000000000a3
:1048680000000000f0fb070040002400003b880027
:10487800f00720000040780032e0b700c0e22f00c7
:10488800100798001e0090008080eb000108bb0014
:104898000500fc0050052000303b8800a00a2000dd
:1048a800303b880061e7a80000000000000000001d
:1048b80021013700dcfb070040002400003b880092
:1048c800f00720000040780032e0b700c0e22f0077
:1048d80010079800ae0090001e0090000108bb0071
:1048e8000500fc0050052000303b8800a00a20008d
:1048f800303b880061e7a8000000000000000000cd
:10490800c9fb070040002400003b8800f007200096
:104918000040780032e0b700e0e22f00100798006e
:10492800be0090001e0090000108bb000500fc00be
:1049380050052000303b8800a00a2000303b88004a
:1049480061e7a8000000000000000000b6fb0700b7
:1049580040002400003b8800f00720000040780059
:1049680032e0b70000e32f00100798001e00900007
:104978008080eb000108bb000500fc00500520000a
:10498800303b8800a00a2000303b880061e7a8007f
:104998000000000000000000e7003700a2fb07004d
:1049a80040002400003b8800f00720000040780009
:1049b80032e0b70000e32f0010079800ae00900027
:1049c8001e0090000108bb000500fc0050052000f7
:1049d800303b8800a00a2000303b880061e7a8002f
:1049e80000000000000000008ffb070040002400ca
:1049f800003b8800f00720000040780032e0b70054
:104a080020e32f0010079800be0090001e009000c1
:104a18000108bb000500fc0050052000303b880061
:104a2800a00a2000303b880061e7a80000000000d1
:104a3800000000007cfb070040002400003b8800c9
:104a4800f00720000040780032e0b70040e32f0074
:104a5800100798001e0090008080eb000108bb0042
:104a68000500fc0050052000303b8800a00a20000b
:104a7800303b880061e7a80000000000000000004b
:104a8800ad00370068fb070040002400003b8800a9
:104a9800f00720000040780032e0b70040e32f0024
:104aa80010079800ae0090001e0090000108bb009f
:104ab8000500fc0050052000303b8800a00a2000bb
:104ac800303b880061e7a8000000000000000000fb
:104ad80055fb070040002400003b8800f007200039
:104ae8000040780032e0b70060e32f00100798001c
:104af800be0090001e0090000108bb000500fc00ed
:104b080050052000303b8800a00a2000303b880078
:104b180061e7a800000000000000000042fb070059
:104b280040002400003b8800f00720000040780087
:104b380032e0b70080e32f00100798001e009000b5
:104b48008080eb000108bb000500fc005005200038
:104b5800303b8800a00a2000303b880061e7a800ad
:104b68000000000000000000730037002efb070063
:104b780040002400003b8800f00720000040780037
:104b880032e0b70080e32f0010079800ae009000d5
:104b98001e0090000108bb000500fc005005200025
:104ba800303b8800a00a2000303b880061e7a8005d
:104bb80000000000000000001bfb0700400024006c
:104bc800003b8800f00720000040780032e0b70082
:104bd800a0e32f0010079800be0090001e00900070
:104be8000108bb000500fc0050052000303b880090
:104bf800a00a2000303b880061e7a8000000000000
:104c08000000000008fb070040002400003b88006b
:104c1800f00720000040780032e0b700c0e32f0022
:104c2800100798001e0090008080eb000108bb0070
:104c38000500fc0050052000303b8800a00a200039
:104c4800303b880061e7a800000000000000000079
:104c580039003700f4fa070040002400003b8800c0
:104c6800f00720000040780032e0b700c0e32f00d2
:104c780010079800ae0090001e0090000108bb00cd
:104c88000500fc0050052000303b8800a00a2000e9
:104c9800303b880061e7a800000000000000000029
:104ca800e1fa070040002400003b8800f0072000dc
:104cb8000040780032e0b700e0e32f0010079800ca
:104cc800be0090001e0090000108bb000500fc001b
:104cd80050052000303b8800a00a2000303b8800a7
:104ce80061e7a8000000000000000000cefa0700fd
:104cf80040002400003b8800f007200000407800b6
:104d080032e0b70000e22f00100798001e00900064
:104d18008080eb000108bb000500fc005005200066
:104d2800303b8800a00a2000303b880061e7a800db
:104d380000000000000000000080fa0000000600eb
:104d48000600fa00b8fa0700f007200000407800d3
:104d580032e0b70000e42f00100798001e00900012
:104d68001000ba00200798002e0090000000e00014
:104d780003003a000040eb00004f780002003700c3
:104d880010c0b300004f78001e4078000080fa0081
:104d9800000006000600fa00404798004e409000c8
:104da8000004e000030032000080eb00000f7800f0
:104db800020037000000eb00000f78009afa0700a5
:104dc80040002400003b8800f007200000407800e5
:104dd80032e0b70000e42f00100798001e00900092
:104de8001e08bb000500fc0050052000303b880071
:104df800a00a2000303b880061e7a80000000000fe
:104e0800000000000080fa00000006000600fa001a
:104e180085fa0700f00720000040780032e0b7006c
:104e280020e42f00100798001e0090001000ba0020
:104e3800200798002e0090000000e00003003a00d0
:104e48000040eb00004f78000200370010c0b300ac
:104e5800004f78001e4078000080fa00000006002d
:104e68000600fa00404798004e4090000004e00019
:104e7800030032000080eb00000f780002003700ca
:104e88000000eb00000f780067fa070040002400dc
:104e9800003b8800f00720000040780032e0b700af
:104ea80020e42f00100798001e0090001e08bb0089
:104eb8000500fc0050052000303b8800a00a2000b7
:104ec800303b880061e7a8000000000000000000f7
:104ed8000080fa00000006000600fa00f007200033
:104ee8000040780032e0b70000e22f001007980079
:104ef8001e0090001000ba00200798002e009000b5
:104f0800e10f400003003a0080c0b300004f780072
:104f180064003700f00720000040780032e0b70056
:104f280040e22f00100798001e0090001000ba0001
:104f3800200798002e009000e10f400003003a007f
:104f480010c0b300004f780056003700f00720006b
:104f58000040780032e0b70080e22f001007980088
:104f68001e0090001000ba00200798002e00900044
:104f7800e10f400003003a0020c0b300004f780062
:104f880048003700f00720000040780032e0b70002
:104f9800c0e22f00100798001e0090001000ba0011
:104fa800200798002e009000e10f400003003a000f
:104fb80030c0b300004f78003a003700f0072000f7
:104fc8000040780032e0b70000e32f001007980097
:104fd8001e0090001000ba00200798002e009000d4
:104fe800e10f400003003a0040c0b300004f7800d2
:104ff8002c003700f00720000040780032e0b700ae
:1050080040e32f00100798001e0090001000ba001f
:10501800200798002e009000e10f400003003a009e
:1050280050c0b300004f78001e003700f007200082
:105038000040780032e0b70080e32f0010079800a6
:105048001e0090001000ba00200798002e00900063
:10505800e10f400003003a0060c0b300004f780041
:1050680010003700f00720000040780032e0b70059
:10507800c0e32f00100798001e0090001000ba002f
:10508800200798002e009000e10f400003003a002e
:1050980070c0b300004f7800020037000040eb00fa
:1050a800004f78001e4078000080fa0000000600db
:1050b8000200fa0088ff0700004f78009e40780041
:1050c80067c06000004fe8001e4078000080fa00ca
:1050d800000006000800fa00200798003107980031
:1050e8002e0090008000eb00c001dd0002002000cf
:1050f8003e0090008000eb00001f4100019749002e
:105108001e00be000080fa00000006000800fa0039
:10511800008fbe0022079800330798001e00be00cb
:105128004008de00800078002e009000010878001a
:105138009e0078003e009000010878000080fa0088
:10514800000006000000fa000c0007000b01070031
:105158000080fa00000006000c00fa000e0078003b
:10516800fc0107000e0078005c00070020a4200066
:10517800220007000080fa00000006000000fa0084
:1051880050052000303b8800a00a2000303b8800f2
:1051980027a6a80027e6a90027a6a8002786a90011
:1051a8002766a9002746a9002726a8002706a800e1
:1051b8002666ef0029e6a90029c6a90029a6a900a4
:1051c8002986a90041318000f03f2f00008060004f
:1051d80000a0a0004031880041318000f0cf2f00ae
:1051e800008060000080a0004031880027e6a80009
:1051f80027a6a9000080fa00000006000600fa00b1
:105208002007980031318000003020000100700034
:105218003031880021318000010f78001e007800ad
:10522800a90007008000fb002e009000010878000c
:1052380021318000010f78001e0078004800de0050
:10524800100798001e0090009f000700ae00900015
:10525800a0409800f00f20001e0060001007980082
:105268001e00900098000700ae009000c040980013
:1052780021318000010f7800f00f20001e0060002f
:10528800100798001e0090008f000700ae009000e5
:10529800e040980021318000010f78001e0078005e
:1052a8004800de00100798001e00900086000700e6
:1052b800ae00900080489800f00f20001e006000ab
:1052c800100798001e0090007f000700ae009000b5
:1052d800a04898000080fa00000006001400fa00b8
:1052e800881f7800100f980010c0b300004f780096
:1052f8001e089000204090000000fb00eb0f5000bb
:1053080028003e00110020000008dd0001a5200053
:10531800810060000100e00004003a0064006000c1
:105328000000e00007003a001e0037001e08900049
:1053380040409000fe4f50001500340010c0b300ec
:105348005e0037001e0890001000780063006000bf
:105358000000e000070032001e0890004040900066
:10536800fc4f50000c0034000040eb00004f780068
:105378000c0037001e08900040409000fd4f500080
:10538800070034000040eb00004f780005003700ac
:105398000000000003003700000000000100370093
:1053a800000000001e0890001000780000407800ff
:1053b80055000700100798001e0890002040900034
:1053c80051000700200798001e08900040409000f8
:1053d8004d000700300798001e08900060409000bc
:1053e80049000700400798001e08900000489000f8
:1053f80045000700500798001e08900020489000bc
:1054080041000700600798002e009000c800dd00ea
:105418003e00900000804000700798005e009000f9
:10542800c800dd006e00900000804000000f98006a
:1054380027e6a90058052000383b8800a80a200064
:10544800383b880027a6a8003131800000302000b2
:1054580001007000303188009e00900021318800e2
:1054680031318000f0cf2f00008060000090a00054
:1054780030318800fe0090002131880031318000f1
:10548800f0cf2f00008060000080a000303188003d
:10549800ce0090002131880031318000f0cf2f00fc
:1054a80000806000303188008e089000213188002b
:1054b80027e6a80027a6a9001e4078004f04780018
:1054c8000080fa00000006000400fa0010079800a7
:1054d8001e0090004400de00004078006a00b90019
:1054e80000007800804078001e009000004078009e
:1054f8006f40600000c04000004f78001e407800f8
:105508000080fa00000006000400fa002047980016
:105518002e4090000001fb00706626000090b90044
:10552800c288de004f90de00008050000040780006
:105538000000fb00c400dd002e4090000000fb00ce
:10554800726626000281b900c299de004f81de0032
:10555800028151006a11b90002017800020050006e
:10556800004078000000fb0000804000000f780039
:105578001e0078000080fa00000006000000fa0013
:105588000400070010000700360007000080fa003a
:10559800000006000000fa00c902a800c922a800fd
